{
  "_format": "hh-sol-artifact-1",
  "contractName": "IndexSwap",
  "sourceName": "contracts/IndexSwap.sol",
  "abi": [
    {
      "inputs": [
        {
          "internalType": "address",
          "name": "_oracal",
          "type": "address"
        },
        {
          "internalType": "address",
          "name": "_outAssest",
          "type": "address"
        },
        {
          "internalType": "address",
          "name": "_pancakeSwapAddress",
          "type": "address"
        },
        {
          "internalType": "address",
          "name": "_vault",
          "type": "address"
        }
      ],
      "stateMutability": "nonpayable",
      "type": "constructor"
    },
    {
      "anonymous": false,
      "inputs": [
        {
          "indexed": true,
          "internalType": "address",
          "name": "owner",
          "type": "address"
        },
        {
          "indexed": true,
          "internalType": "address",
          "name": "spender",
          "type": "address"
        },
        {
          "indexed": false,
          "internalType": "uint256",
          "name": "value",
          "type": "uint256"
        }
      ],
      "name": "Approval",
      "type": "event"
    },
    {
      "anonymous": false,
      "inputs": [],
      "name": "LOG_PUBLIC_SWAP_ENABLED",
      "type": "event"
    },
    {
      "anonymous": false,
      "inputs": [
        {
          "indexed": true,
          "internalType": "address",
          "name": "previousOwner",
          "type": "address"
        },
        {
          "indexed": true,
          "internalType": "address",
          "name": "newOwner",
          "type": "address"
        }
      ],
      "name": "OwnershipTransferred",
      "type": "event"
    },
    {
      "anonymous": false,
      "inputs": [
        {
          "indexed": true,
          "internalType": "address",
          "name": "from",
          "type": "address"
        },
        {
          "indexed": true,
          "internalType": "address",
          "name": "to",
          "type": "address"
        },
        {
          "indexed": false,
          "internalType": "uint256",
          "name": "value",
          "type": "uint256"
        }
      ],
      "name": "Transfer",
      "type": "event"
    },
    {
      "inputs": [],
      "name": "VERSION_NUMBER",
      "outputs": [
        {
          "internalType": "uint256",
          "name": "",
          "type": "uint256"
        }
      ],
      "stateMutability": "view",
      "type": "function"
    },
    {
      "inputs": [
        {
          "internalType": "address",
          "name": "owner",
          "type": "address"
        },
        {
          "internalType": "address",
          "name": "spender",
          "type": "address"
        }
      ],
      "name": "allowance",
      "outputs": [
        {
          "internalType": "uint256",
          "name": "",
          "type": "uint256"
        }
      ],
      "stateMutability": "view",
      "type": "function"
    },
    {
      "inputs": [],
      "name": "amount1",
      "outputs": [
        {
          "internalType": "uint256",
          "name": "",
          "type": "uint256"
        }
      ],
      "stateMutability": "view",
      "type": "function"
    },
    {
      "inputs": [],
      "name": "amount2",
      "outputs": [
        {
          "internalType": "uint256",
          "name": "",
          "type": "uint256"
        }
      ],
      "stateMutability": "view",
      "type": "function"
    },
    {
      "inputs": [
        {
          "internalType": "address",
          "name": "spender",
          "type": "address"
        },
        {
          "internalType": "uint256",
          "name": "amount",
          "type": "uint256"
        }
      ],
      "name": "approve",
      "outputs": [
        {
          "internalType": "bool",
          "name": "",
          "type": "bool"
        }
      ],
      "stateMutability": "nonpayable",
      "type": "function"
    },
    {
      "inputs": [
        {
          "internalType": "address",
          "name": "account",
          "type": "address"
        }
      ],
      "name": "balanceOf",
      "outputs": [
        {
          "internalType": "uint256",
          "name": "",
          "type": "uint256"
        }
      ],
      "stateMutability": "view",
      "type": "function"
    },
    {
      "inputs": [
        {
          "internalType": "uint256",
          "name": "amount",
          "type": "uint256"
        }
      ],
      "name": "burn",
      "outputs": [],
      "stateMutability": "nonpayable",
      "type": "function"
    },
    {
      "inputs": [
        {
          "internalType": "address",
          "name": "account",
          "type": "address"
        },
        {
          "internalType": "uint256",
          "name": "amount",
          "type": "uint256"
        }
      ],
      "name": "burnFrom",
      "outputs": [],
      "stateMutability": "nonpayable",
      "type": "function"
    },
    {
      "inputs": [],
      "name": "currentRate",
      "outputs": [
        {
          "internalType": "uint256",
          "name": "numerator",
          "type": "uint256"
        },
        {
          "internalType": "uint256",
          "name": "denominator",
          "type": "uint256"
        }
      ],
      "stateMutability": "view",
      "type": "function"
    },
    {
      "inputs": [],
      "name": "decimals",
      "outputs": [
        {
          "internalType": "uint8",
          "name": "",
          "type": "uint8"
        }
      ],
      "stateMutability": "view",
      "type": "function"
    },
    {
      "inputs": [
        {
          "internalType": "address",
          "name": "spender",
          "type": "address"
        },
        {
          "internalType": "uint256",
          "name": "subtractedValue",
          "type": "uint256"
        }
      ],
      "name": "decreaseAllowance",
      "outputs": [
        {
          "internalType": "bool",
          "name": "",
          "type": "bool"
        }
      ],
      "stateMutability": "nonpayable",
      "type": "function"
    },
    {
      "inputs": [],
      "name": "getETH",
      "outputs": [
        {
          "internalType": "address",
          "name": "",
          "type": "address"
        }
      ],
      "stateMutability": "view",
      "type": "function"
    },
    {
      "inputs": [
        {
          "internalType": "address",
          "name": "crypto",
          "type": "address"
        }
      ],
      "name": "getPathForETH",
      "outputs": [
        {
          "internalType": "address[]",
          "name": "",
          "type": "address[]"
        }
      ],
      "stateMutability": "view",
      "type": "function"
    },
    {
      "inputs": [
        {
          "internalType": "address",
          "name": "token",
          "type": "address"
        }
      ],
      "name": "getPathForToken",
      "outputs": [
        {
          "internalType": "address[]",
          "name": "",
          "type": "address[]"
        }
      ],
      "stateMutability": "view",
      "type": "function"
    },
    {
      "inputs": [
        {
          "internalType": "address",
          "name": "spender",
          "type": "address"
        },
        {
          "internalType": "uint256",
          "name": "addedValue",
          "type": "uint256"
        }
      ],
      "name": "increaseAllowance",
      "outputs": [
        {
          "internalType": "bool",
          "name": "",
          "type": "bool"
        }
      ],
      "stateMutability": "nonpayable",
      "type": "function"
    },
    {
      "inputs": [],
      "name": "indexPrice",
      "outputs": [
        {
          "internalType": "uint256",
          "name": "",
          "type": "uint256"
        }
      ],
      "stateMutability": "view",
      "type": "function"
    },
    {
      "inputs": [
        {
          "internalType": "address[]",
          "name": "tokens",
          "type": "address[]"
        },
        {
          "internalType": "uint96[]",
          "name": "denorms",
          "type": "uint96[]"
        }
      ],
      "name": "initialize",
      "outputs": [],
      "stateMutability": "nonpayable",
      "type": "function"
    },
    {
      "inputs": [],
      "name": "initializeDefult",
      "outputs": [],
      "stateMutability": "nonpayable",
      "type": "function"
    },
    {
      "inputs": [
        {
          "internalType": "uint256",
          "name": "cryptoAmount",
          "type": "uint256"
        }
      ],
      "name": "investInFund",
      "outputs": [],
      "stateMutability": "payable",
      "type": "function"
    },
    {
      "inputs": [],
      "name": "investedAmountAfterSlippage",
      "outputs": [
        {
          "internalType": "uint256",
          "name": "",
          "type": "uint256"
        }
      ],
      "stateMutability": "view",
      "type": "function"
    },
    {
      "inputs": [],
      "name": "name",
      "outputs": [
        {
          "internalType": "string",
          "name": "",
          "type": "string"
        }
      ],
      "stateMutability": "view",
      "type": "function"
    },
    {
      "inputs": [],
      "name": "owner",
      "outputs": [
        {
          "internalType": "address",
          "name": "",
          "type": "address"
        }
      ],
      "stateMutability": "view",
      "type": "function"
    },
    {
      "inputs": [],
      "name": "pancakeSwapRouter",
      "outputs": [
        {
          "internalType": "contract IUniswapV2Router02",
          "name": "",
          "type": "address"
        }
      ],
      "stateMutability": "view",
      "type": "function"
    },
    {
      "inputs": [],
      "name": "renounceOwnership",
      "outputs": [],
      "stateMutability": "nonpayable",
      "type": "function"
    },
    {
      "inputs": [],
      "name": "symbol",
      "outputs": [
        {
          "internalType": "string",
          "name": "",
          "type": "string"
        }
      ],
      "stateMutability": "view",
      "type": "function"
    },
    {
      "inputs": [],
      "name": "t1Supply",
      "outputs": [
        {
          "internalType": "uint256",
          "name": "",
          "type": "uint256"
        }
      ],
      "stateMutability": "view",
      "type": "function"
    },
    {
      "inputs": [],
      "name": "t1SupplyUSD",
      "outputs": [
        {
          "internalType": "uint256",
          "name": "",
          "type": "uint256"
        }
      ],
      "stateMutability": "view",
      "type": "function"
    },
    {
      "inputs": [],
      "name": "t2Supply",
      "outputs": [
        {
          "internalType": "uint256",
          "name": "",
          "type": "uint256"
        }
      ],
      "stateMutability": "view",
      "type": "function"
    },
    {
      "inputs": [],
      "name": "t2SupplyUSD",
      "outputs": [
        {
          "internalType": "uint256",
          "name": "",
          "type": "uint256"
        }
      ],
      "stateMutability": "view",
      "type": "function"
    },
    {
      "inputs": [],
      "name": "totalSupply",
      "outputs": [
        {
          "internalType": "uint256",
          "name": "",
          "type": "uint256"
        }
      ],
      "stateMutability": "view",
      "type": "function"
    },
    {
      "inputs": [],
      "name": "totalVaultValue",
      "outputs": [
        {
          "internalType": "uint256",
          "name": "",
          "type": "uint256"
        }
      ],
      "stateMutability": "view",
      "type": "function"
    },
    {
      "inputs": [
        {
          "internalType": "address",
          "name": "to",
          "type": "address"
        },
        {
          "internalType": "uint256",
          "name": "amount",
          "type": "uint256"
        }
      ],
      "name": "transfer",
      "outputs": [
        {
          "internalType": "bool",
          "name": "",
          "type": "bool"
        }
      ],
      "stateMutability": "nonpayable",
      "type": "function"
    },
    {
      "inputs": [
        {
          "internalType": "address",
          "name": "from",
          "type": "address"
        },
        {
          "internalType": "address",
          "name": "to",
          "type": "address"
        },
        {
          "internalType": "uint256",
          "name": "amount",
          "type": "uint256"
        }
      ],
      "name": "transferFrom",
      "outputs": [
        {
          "internalType": "bool",
          "name": "",
          "type": "bool"
        }
      ],
      "stateMutability": "nonpayable",
      "type": "function"
    },
    {
      "inputs": [
        {
          "internalType": "address",
          "name": "newOwner",
          "type": "address"
        }
      ],
      "name": "transferOwnership",
      "outputs": [],
      "stateMutability": "nonpayable",
      "type": "function"
    },
    {
      "inputs": [
        {
          "internalType": "uint256",
          "name": "_numerator",
          "type": "uint256"
        },
        {
          "internalType": "uint256",
          "name": "_denominator",
          "type": "uint256"
        }
      ],
      "name": "updateRate",
      "outputs": [],
      "stateMutability": "nonpayable",
      "type": "function"
    },
    {
      "inputs": [],
      "name": "vaultBalance",
      "outputs": [
        {
          "internalType": "uint256",
          "name": "",
          "type": "uint256"
        }
      ],
      "stateMutability": "view",
      "type": "function"
    },
    {
      "inputs": [
        {
          "internalType": "uint256",
          "name": "tokenAmount",
          "type": "uint256"
        }
      ],
      "name": "withdrawFromFundNew",
      "outputs": [],
      "stateMutability": "payable",
      "type": "function"
    },
    {
      "stateMutability": "payable",
      "type": "receive"
    }
  ],
  "bytecode": "0x600880546001600160a01b0319167307c0737fdc21adf93200bd625cc70a66b835cf8b17905560c0604052738babbb98678facc7342735486c851abd7a0d17ca6080908152738a9424745056eb399fd19a0ec26a14316684e27460a0526200006c906009906002620001ef565b5060408051808201909152600180825260208201526200009190600b9060026200024c565b503480156200009f57600080fd5b506040516200300738038062003007833981016040819052620000c2916200039e565b60405180604001604052806007815260200166494e4445584c5960c81b8152506040518060400160405280600381526020016209288b60eb1b815250816003908051906020019062000116929190620002ed565b5080516200012c906004906020840190620002ed565b50505062000149620001436200019960201b60201c565b6200019d565b600680546001600160a01b03199081166001600160a01b03948516179091556014805482169584169590951790945560088054851691831691909117905560158054909316911617905562000438565b3390565b600580546001600160a01b038381166001600160a01b0319831681179093556040519116919082907f8be0079c531659141344cd1fd0a4f28419497f9722a3daafe3b4186f6b6457e090600090a35050565b82600281019282156200023a579160200282015b828111156200023a57825182546001600160a01b0319166001600160a01b0390911617825560209092019160019091019062000203565b50620002489291506200036a565b5090565b6001830191839082156200023a5791602002820160005b83821115620002a957835183826101000a8154816001600160601b03021916908360ff1602179055509260200192600c01602081600b0104928301926001030262000263565b8015620002de5782816101000a8154906001600160601b030219169055600c01602081600b01049283019260010302620002a9565b5050620002489291506200036a565b828054620002fb90620003fb565b90600052602060002090601f0160209004810192826200031f57600085556200023a565b82601f106200033a57805160ff19168380011785556200023a565b828001600101855582156200023a579182015b828111156200023a5782518255916020019190600101906200034d565b5b808211156200024857600081556001016200036b565b80516001600160a01b03811681146200039957600080fd5b919050565b60008060008060808587031215620003b557600080fd5b620003c08562000381565b9350620003d06020860162000381565b9250620003e06040860162000381565b9150620003f06060860162000381565b905092959194509250565b600181811c908216806200041057607f821691505b602082108114156200043257634e487b7160e01b600052602260045260246000fd5b50919050565b612bbf80620004486000396000f3fe60806040526004361061021e5760003560e01c80636056530f11610123578063a457c2d7116100ab578063ca0e7ed51161006f578063ca0e7ed5146105d0578063dd62ed3e146105f0578063f2fde38b14610610578063f400fde414610630578063f9f8bdb71461064657600080fd5b8063a457c2d714610537578063a9059cbb14610557578063afbc74b914610577578063b0849c1c1461058d578063b5e9c4df146105ba57600080fd5b80638025e303116100f25780638025e303146104bc57806381a8e605146104d15780638da5cb5b146104e4578063955a333b1461050257806395d89b411461052257600080fd5b80636056530f1461043b57806370a0823114610451578063715018a61461048757806379cc67901461049c57600080fd5b806318160ddd116101a6578063377d8f0a11610175578063377d8f0a146103b257806339509351146103c8578063405abb41146103e857806342966c68146104085780635bab42a11461042857600080fd5b806318160ddd1461034157806323b872dd146103565780632455899514610376578063313ce5671461039657600080fd5b80630bf6cc08116101ed5780630bf6cc08146102bb5780630c2cd2cd146102d157806310bace8c146102e857806312b191d1146102fe57806314f6c3be1461031457600080fd5b8063057bfcc71461022a57806306fdde03146102535780630904426114610275578063095ea7b31461028b57600080fd5b3661022557005b600080fd5b34801561023657600080fd5b5061024060175481565b6040519081526020015b60405180910390f35b34801561025f57600080fd5b50610268610676565b60405161024a9190612612565b34801561028157600080fd5b50610240601b5481565b34801561029757600080fd5b506102ab6102a636600461265a565b610708565b604051901515815260200161024a565b3480156102c757600080fd5b50610240601e5481565b3480156102dd57600080fd5b506102e6610720565b005b3480156102f457600080fd5b5061024060075481565b34801561030a57600080fd5b5061024060195481565b34801561032057600080fd5b50610329610a8d565b6040516001600160a01b03909116815260200161024a565b34801561034d57600080fd5b50600254610240565b34801561036257600080fd5b506102ab610371366004612686565b610b00565b34801561038257600080fd5b50600654610329906001600160a01b031681565b3480156103a257600080fd5b506040516012815260200161024a565b3480156103be57600080fd5b50610240601d5481565b3480156103d457600080fd5b506102ab6103e336600461265a565b610b24565b3480156103f457600080fd5b506102e66104033660046126c7565b610b46565b34801561041457600080fd5b506102e66104233660046126e9565b610b65565b6102e66104363660046126e9565b610b72565b34801561044757600080fd5b5061024060185481565b34801561045d57600080fd5b5061024061046c366004612702565b6001600160a01b031660009081526020819052604090205490565b34801561049357600080fd5b506102e6611493565b3480156104a857600080fd5b506102e66104b736600461265a565b6114c9565b3480156104c857600080fd5b50610240600181565b6102e66104df3660046126e9565b6114e2565b3480156104f057600080fd5b506005546001600160a01b0316610329565b34801561050e57600080fd5b506102e661051d36600461276b565b6116df565b34801561052e57600080fd5b506102686119d4565b34801561054357600080fd5b506102ab61055236600461265a565b6119e3565b34801561056357600080fd5b506102ab61057236600461265a565b611a5e565b34801561058357600080fd5b50610240601c5481565b34801561059957600080fd5b506105ad6105a8366004612702565b611a6c565b60405161024a919061281b565b3480156105c657600080fd5b50610240601a5481565b3480156105dc57600080fd5b506105ad6105eb366004612702565b611b63565b3480156105fc57600080fd5b5061024061060b36600461282e565b611c2c565b34801561061c57600080fd5b506102e661062b366004612702565b611c57565b34801561063c57600080fd5b5061024060165481565b34801561065257600080fd5b50601254601354610661919082565b6040805192835260208301919091520161024a565b60606003805461068590612867565b80601f01602080910402602001604051908101604052809291908181526020018280546106b190612867565b80156106fe5780601f106106d3576101008083540402835291602001916106fe565b820191906000526020600020905b8154815290600101906020018083116106e157829003601f168201915b5050505050905090565b600033610716818585611cef565b5060019392505050565b6005546001600160a01b031633146107535760405162461bcd60e51b815260040161074a906128a2565b60405180910390fd5b6002600080805b83811015610a3f576040805160c0810182526001815264ffffffffff42166020820152908101600b8360028110610793576107936128d7565b60029182820401919006600c029054906101000a90046001600160601b03166001600160601b03168152602001600b83600281106107d3576107d36128d7565b60029182820401919006600c029054906101000a90046001600160601b03166001600160601b031681526020018260ff1681526020016000815250600d600060098460028110610825576108256128d7565b01546001600160a01b0316815260208082019290925260409081016000208351815493850151928501516060860151608087015165ffffffffffff1990961692151565ffffffffff0019169290921761010064ffffffffff90951694909402939093176601000000000000600160f01b031916600160301b6001600160601b03948516026bffffffffffffffffffffffff60901b191617600160901b93909116929092029190911760ff60f01b1916600160f01b60ff9093169290920291909117815560a090910151600190910155600c60098260028110610909576109096128d7565b015481546001810183556000928352602083200180546001600160a01b0319166001600160a01b03928316179055601454600c8054919092169163afa998609185908110610959576109596128d7565b60009182526020909120015460155460405160e084901b6001600160e01b03191681526001600160a01b03928316600482015291166024820152604401602060405180830381865afa1580156109b3573d6000803e3d6000fd5b505050506040513d601f19601f820116820180604052508101906109d791906128ed565b90506109e38382611e14565b9250610a2984600b84600281106109fc576109fc6128d7565b60029182820401919006600c029054906101000a90046001600160601b03166001600160601b0316611e27565b9350508080610a379061291c565b91505061075a565b50600e829055610a4f8184611e79565b600f556011805460ff191660011790556040517f183bed17d33ee5be9a47bb997aee6a152d84a34309cdb66f76301de0a40a138990600090a1505050565b600654604080516315ab88c960e31b815290516000926001600160a01b03169163ad5c46489160048083019260209291908290030181865afa158015610ad7573d6000803e3d6000fd5b505050506040513d601f19601f82011682018060405250810190610afb9190612937565b905090565b600033610b0e858285611e85565b610b19858585611ef9565b506001949350505050565b600033610716818585610b378383611c2c565b610b419190612954565b611cef565b81610b5057600080fd5b80610b5a57600080fd5b601291909155601355565b610b6f33826120c7565b50565b6000601d819055601e556002543490829015610da457600c5460005b81811015610da1576000600c8281548110610bab57610bab6128d7565b60009182526020822001546008546040516370a0823160e01b81526001600160a01b0391821660048201529116925082906370a0823190602401602060405180830381865afa158015610c02573d6000803e3d6000fd5b505050506040513d601f19601f82011682018060405250810190610c2691906128ed565b9050600c8381548110610c3b57610c3b6128d7565b6000918252602090912001546001600160a01b031660098460028110610c6357610c636128d7565b0180546001600160a01b0319166001600160a01b03928316179055601454600c8054600093929092169163afa99860919087908110610ca457610ca46128d7565b60009182526020909120015460155460405160e084901b6001600160e01b03191681526001600160a01b03928316600482015291166024820152604401602060405180830381865afa158015610cfe573d6000803e3d6000fd5b505050506040513d601f19601f82011682018060405250810190610d2291906128ed565b9050610d3a610d31828461220d565b601e5490611e14565b601e819055610d8b5760405162461bcd60e51b815260206004820152601f60248201527f73756d207072696365206973206e6f742067726561746572207468616e203000604482015260640161074a565b5050508080610d999061291c565b915050610b8e565b50505b6000610daf60025490565b11156110a8576000600c600081548110610dcb57610dcb6128d7565b6000918252602090912001546008546040516370a0823160e01b81526001600160a01b0391821660048201529116915081906370a0823190602401602060405180830381865afa158015610e23573d6000803e3d6000fd5b505050506040513d601f19601f82011682018060405250810190610e4791906128ed565b6018819055600654600c80546001600160a01b039092169263d06ca61f929091610e9491600090610e7a57610e7a6128d7565b6000918252602090912001546001600160a01b0316611b63565b6040518363ffffffff1660e01b8152600401610eb192919061296c565b600060405180830381865afa158015610ece573d6000803e3d6000fd5b505050506040513d6000823e601f3d908101601f19168201604052610ef6919081019061299b565b600181518110610f0857610f086128d7565b60200260200101516019819055506000600c600181548110610f2c57610f2c6128d7565b6000918252602090912001546008546040516370a0823160e01b81526001600160a01b0391821660048201529116915081906370a0823190602401602060405180830381865afa158015610f84573d6000803e3d6000fd5b505050506040513d601f19601f82011682018060405250810190610fa891906128ed565b601a819055600654600c80546001600160a01b039092169263d06ca61f929091610fdd916001908110610e7a57610e7a6128d7565b6040518363ffffffff1660e01b8152600401610ffa92919061296c565b600060405180830381865afa158015611017573d6000803e3d6000fd5b505050506040513d6000823e601f3d908101601f1916820160405261103f919081019061299b565b600181518110611051576110516128d7565b6020908102919091010151601b81905560195461106d91611e14565b601c81905560195461108a9190611084908861220d565b90611e79565b601655601c54601b546110a29190611084908861220d565b60175550505b60006110b542600f612954565b905060005b600c54811015611360576000600c82815481106110d9576110d96128d7565b60009182526020808320909101546001600160a01b0316808352600d82526040808420815160c081018352815460ff8082161515835264ffffffffff610100830416968301969096526001600160601b03600160301b8204811694830194909452600160901b81049093166060820152600160f01b90920490931660808201526001929092015460a083015292509061117160025490565b6111a25761119b600e5461108484604001516001600160601b03168a61220d90919063ffffffff16565b90506111b5565b836111b057506016546111b5565b506017545b6006546060906001600160a01b0316637ff36ab58360006111d588611a6c565b6008546040516001600160e01b031960e087901b1681526112069392916001600160a01b0316908d90600401612a59565b60006040518083038185885af1158015611224573d6000803e3d6000fd5b50505050506040513d6000823e601f3d908101601f1916820160405261124d919081019061299b565b601454600c80549293506000926001600160a01b039092169163afa9986091908990811061127d5761127d6128d7565b60009182526020909120015460155460405160e084901b6001600160e01b03191681526001600160a01b03928316600482015291166024820152604401602060405180830381865afa1580156112d7573d6000803e3d6000fd5b505050506040513d601f19601f820116820180604052508101906112fb91906128ed565b9050611342611339670de0b6b3a764000061108485600181518110611322576113226128d7565b60200260200101518561220d90919063ffffffff16565b601d5490611e14565b601d81905550505050505080806113589061291c565b9150506110ba565b5081601d5411156113ce5760405162461bcd60e51b815260206004820152603260248201527f616d6f756e7420616674657220736c6970706167652063616e27742062652067604482015271726561746572207468616e206265666f726560701b606482015260840161074a565b60006113d960025490565b11156113f4576113ed601d54601e54612219565b91506113fa565b601d5491505b611404338361224f565b604051600090339047908381818185875af1925050503d8060008114611446576040519150601f19603f3d011682016040523d82523d6000602084013e61144b565b606091505b505090508061148c5760405162461bcd60e51b815260206004820152600d60248201526c1c99599d5b990819985a5b1959609a1b604482015260640161074a565b5050505050565b6005546001600160a01b031633146114bd5760405162461bcd60e51b815260040161074a906128a2565b6114c7600061232e565b565b6114d4823383611e85565b6114de82826120c7565b5050565b3360009081526020819052604090205481111561152f5760405162461bcd60e51b815260206004820152600b60248201526a6e6f742062616c616e636560a81b604482015260640161074a565b600061153c42600f612954565b9050600061154960025490565b905061155533846120c7565b60005b600c548110156116d9576000600c8281548110611577576115776128d7565b60009182526020822001546008546040516370a0823160e01b81526001600160a01b0391821660048201529116925082919082906370a0823190602401602060405180830381865afa1580156115d1573d6000803e3d6000fd5b505050506040513d601f19601f820116820180604052508101906115f591906128ed565b9050600061160786611084848b61220d565b6008549091506116239085906001600160a01b03163084612380565b60065461163b9085906001600160a01b0316836124be565b6006546001600160a01b03166318cbafe582600061165888611b63565b338c6040518663ffffffff1660e01b815260040161167a959493929190612a8e565b6000604051808303816000875af1158015611699573d6000803e3d6000fd5b505050506040513d6000823e601f3d908101601f191682016040526116c1919081019061299b565b505050505080806116d19061291c565b915050611558565b50505050565b6005546001600160a01b031633146117095760405162461bcd60e51b815260040161074a906128a2565b600c54156117475760405162461bcd60e51b815260206004820152600b60248201526a125392551250531256915160aa1b604482015260640161074a565b826000805b8281101561198a576040805160c0810182526001815264ffffffffff42166020820152908101868684818110611784576117846128d7565b90506020020160208101906117999190612aca565b6001600160601b031681526020018686848181106117b9576117b96128d7565b90506020020160208101906117ce9190612aca565b6001600160601b031681526020018260ff1681526020016000815250600d6000898985818110611800576118006128d7565b90506020020160208101906118159190612702565b6001600160a01b0316815260208082019290925260409081016000208351815493850151928501516060860151608087015165ffffffffffff1990961692151565ffffffffff0019169290921761010064ffffffffff90951694909402939093176601000000000000600160f01b031916600160301b6001600160601b03948516026bffffffffffffffffffffffff60901b191617600160901b93909116929092029190911760ff60f01b1916600160f01b60ff9093169290920291909117815560a090910151600190910155600c8787838181106118f6576118f66128d7565b905060200201602081019061190b9190612702565b81546001810183556000928352602090922090910180546001600160a01b0319166001600160a01b0390921691909117905561197682868684818110611953576119536128d7565b90506020020160208101906119689190612aca565b6001600160601b0316611e27565b9150806119828161291c565b91505061174c565b50600e8190556011805460ff19166001908117909155600f556040517f183bed17d33ee5be9a47bb997aee6a152d84a34309cdb66f76301de0a40a138990600090a1505050505050565b60606004805461068590612867565b600033816119f18286611c2c565b905083811015611a515760405162461bcd60e51b815260206004820152602560248201527f45524332303a2064656372656173656420616c6c6f77616e63652062656c6f77604482015264207a65726f60d81b606482015260840161074a565b610b198286868403611cef565b600033610716818585611ef9565b604080516002808252606080830184529260009291906020830190803683375050600654604080516315ab88c960e31b815290519394506001600160a01b039091169263ad5c4648925060048083019260209291908290030181865afa158015611ada573d6000803e3d6000fd5b505050506040513d601f19601f82011682018060405250810190611afe9190612937565b81600081518110611b1157611b116128d7565b60200260200101906001600160a01b031690816001600160a01b0316815250508281600181518110611b4557611b456128d7565b6001600160a01b039092166020928302919091019091015292915050565b604080516002808252606080830184529260009291906020830190803683370190505090508281600081518110611b9c57611b9c6128d7565b6001600160a01b03928316602091820292909201810191909152600654604080516315ab88c960e31b81529051919093169263ad5c46489260048083019391928290030181865afa158015611bf5573d6000803e3d6000fd5b505050506040513d601f19601f82011682018060405250810190611c199190612937565b81600181518110611b4557611b456128d7565b6001600160a01b03918216600090815260016020908152604080832093909416825291909152205490565b6005546001600160a01b03163314611c815760405162461bcd60e51b815260040161074a906128a2565b6001600160a01b038116611ce65760405162461bcd60e51b815260206004820152602660248201527f4f776e61626c653a206e6577206f776e657220697320746865207a65726f206160448201526564647265737360d01b606482015260840161074a565b610b6f8161232e565b6001600160a01b038316611d515760405162461bcd60e51b8152602060048201526024808201527f45524332303a20617070726f76652066726f6d20746865207a65726f206164646044820152637265737360e01b606482015260840161074a565b6001600160a01b038216611db25760405162461bcd60e51b815260206004820152602260248201527f45524332303a20617070726f766520746f20746865207a65726f206164647265604482015261737360f01b606482015260840161074a565b6001600160a01b0383811660008181526001602090815260408083209487168084529482529182902085905590518481527f8c5be1e5ebec7d5bd14f71427d1e84f3dd0314c0f7b2291e5b200ac8c7c3b92591015b60405180910390a3505050565b6000611e208284612954565b9392505050565b600080611e348385612954565b905083811015611e205760405162461bcd60e51b815260206004820152601060248201526f4552525f4144445f4f564552464c4f5760801b604482015260640161074a565b6000611e208284612af3565b6000611e918484611c2c565b905060001981146116d95781811015611eec5760405162461bcd60e51b815260206004820152601d60248201527f45524332303a20696e73756666696369656e7420616c6c6f77616e6365000000604482015260640161074a565b6116d98484848403611cef565b6001600160a01b038316611f5d5760405162461bcd60e51b815260206004820152602560248201527f45524332303a207472616e736665722066726f6d20746865207a65726f206164604482015264647265737360d81b606482015260840161074a565b6001600160a01b038216611fbf5760405162461bcd60e51b815260206004820152602360248201527f45524332303a207472616e7366657220746f20746865207a65726f206164647260448201526265737360e81b606482015260840161074a565b6001600160a01b038316600090815260208190526040902054818110156120375760405162461bcd60e51b815260206004820152602660248201527f45524332303a207472616e7366657220616d6f756e7420657863656564732062604482015265616c616e636560d01b606482015260840161074a565b6001600160a01b0380851660009081526020819052604080822085850390559185168152908120805484929061206e908490612954565b92505081905550826001600160a01b0316846001600160a01b03167fddf252ad1be2c89b69c2b068fc378daa952ba7f163c4a11628f55a4df523b3ef846040516120ba91815260200190565b60405180910390a36116d9565b6001600160a01b0382166121275760405162461bcd60e51b815260206004820152602160248201527f45524332303a206275726e2066726f6d20746865207a65726f206164647265736044820152607360f81b606482015260840161074a565b6001600160a01b0382166000908152602081905260409020548181101561219b5760405162461bcd60e51b815260206004820152602260248201527f45524332303a206275726e20616d6f756e7420657863656564732062616c616e604482015261636560f01b606482015260840161074a565b6001600160a01b03831660009081526020819052604081208383039055600280548492906121ca908490612b15565b90915550506040518281526000906001600160a01b038516907fddf252ad1be2c89b69c2b068fc378daa952ba7f163c4a11628f55a4df523b3ef90602001611e07565b6000611e208284612b2c565b60008061222560025490565b905061224783611084670de0b6b3a7640000612241888661220d565b9061220d565b949350505050565b6001600160a01b0382166122a55760405162461bcd60e51b815260206004820152601f60248201527f45524332303a206d696e7420746f20746865207a65726f206164647265737300604482015260640161074a565b80600260008282546122b79190612954565b90915550506001600160a01b038216600090815260208190526040812080548392906122e4908490612954565b90915550506040518181526001600160a01b038316906000907fddf252ad1be2c89b69c2b068fc378daa952ba7f163c4a11628f55a4df523b3ef9060200160405180910390a35050565b600580546001600160a01b038381166001600160a01b0319831681179093556040519116919082907f8be0079c531659141344cd1fd0a4f28419497f9722a3daafe3b4186f6b6457e090600090a35050565b604080516001600160a01b0385811660248301528481166044830152606480830185905283518084039091018152608490920183526020820180516001600160e01b03166323b872dd60e01b17905291516000928392908816916123e49190612b4b565b6000604051808303816000865af19150503d8060008114612421576040519150601f19603f3d011682016040523d82523d6000602084013e612426565b606091505b50915091508180156124505750805115806124505750808060200190518101906124509190612b67565b6124b65760405162461bcd60e51b815260206004820152603160248201527f5472616e7366657248656c7065723a3a7472616e7366657246726f6d3a207472604482015270185b9cd9995c919c9bdb4819985a5b1959607a1b606482015260840161074a565b505050505050565b604080516001600160a01b038481166024830152604480830185905283518084039091018152606490920183526020820180516001600160e01b031663095ea7b360e01b179052915160009283929087169161251a9190612b4b565b6000604051808303816000865af19150503d8060008114612557576040519150601f19603f3d011682016040523d82523d6000602084013e61255c565b606091505b50915091508180156125865750805115806125865750808060200190518101906125869190612b67565b61148c5760405162461bcd60e51b815260206004820152602b60248201527f5472616e7366657248656c7065723a3a73616665417070726f76653a2061707060448201526a1c9bdd994819985a5b195960aa1b606482015260840161074a565b60005b838110156126015781810151838201526020016125e9565b838111156116d95750506000910152565b60208152600082518060208401526126318160408501602087016125e6565b601f01601f19169190910160400192915050565b6001600160a01b0381168114610b6f57600080fd5b6000806040838503121561266d57600080fd5b823561267881612645565b946020939093013593505050565b60008060006060848603121561269b57600080fd5b83356126a681612645565b925060208401356126b681612645565b929592945050506040919091013590565b600080604083850312156126da57600080fd5b50508035926020909101359150565b6000602082840312156126fb57600080fd5b5035919050565b60006020828403121561271457600080fd5b8135611e2081612645565b60008083601f84011261273157600080fd5b50813567ffffffffffffffff81111561274957600080fd5b6020830191508360208260051b850101111561276457600080fd5b9250929050565b6000806000806040858703121561278157600080fd5b843567ffffffffffffffff8082111561279957600080fd5b6127a58883890161271f565b909650945060208701359150808211156127be57600080fd5b506127cb8782880161271f565b95989497509550505050565b600081518084526020808501945080840160005b838110156128105781516001600160a01b0316875295820195908201906001016127eb565b509495945050505050565b602081526000611e2060208301846127d7565b6000806040838503121561284157600080fd5b823561284c81612645565b9150602083013561285c81612645565b809150509250929050565b600181811c9082168061287b57607f821691505b6020821081141561289c57634e487b7160e01b600052602260045260246000fd5b50919050565b6020808252818101527f4f776e61626c653a2063616c6c6572206973206e6f7420746865206f776e6572604082015260600190565b634e487b7160e01b600052603260045260246000fd5b6000602082840312156128ff57600080fd5b5051919050565b634e487b7160e01b600052601160045260246000fd5b600060001982141561293057612930612906565b5060010190565b60006020828403121561294957600080fd5b8151611e2081612645565b6000821982111561296757612967612906565b500190565b82815260406020820152600061224760408301846127d7565b634e487b7160e01b600052604160045260246000fd5b600060208083850312156129ae57600080fd5b825167ffffffffffffffff808211156129c657600080fd5b818501915085601f8301126129da57600080fd5b8151818111156129ec576129ec612985565b8060051b604051601f19603f83011681018181108582111715612a1157612a11612985565b604052918252848201925083810185019188831115612a2f57600080fd5b938501935b82851015612a4d57845184529385019392850192612a34565b98975050505050505050565b848152608060208201526000612a7260808301866127d7565b6001600160a01b03949094166040830152506060015292915050565b85815284602082015260a060408201526000612aad60a08301866127d7565b6001600160a01b0394909416606083015250608001529392505050565b600060208284031215612adc57600080fd5b81356001600160601b0381168114611e2057600080fd5b600082612b1057634e487b7160e01b600052601260045260246000fd5b500490565b600082821015612b2757612b27612906565b500390565b6000816000190483118215151615612b4657612b46612906565b500290565b60008251612b5d8184602087016125e6565b9190910192915050565b600060208284031215612b7957600080fd5b81518015158114611e2057600080fdfea26469706673582212201941481f66a627244b77a13cf6557779e48fffb8edfd878086b355f2ca3a21ca64736f6c634300080a0033",
  "linkReferences": {},
  "deployedLinkReferences": {}
}