{
  "_format": "hh-sol-artifact-1",
  "contractName": "PriceOracle",
  "sourceName": "contracts/PriceOracal.sol",
  "abi": [
    {
      "anonymous": false,
      "inputs": [
        {
          "indexed": true,
          "internalType": "address",
          "name": "pair",
          "type": "address"
        },
        {
          "indexed": false,
          "internalType": "uint256",
          "name": "priceCumulative",
          "type": "uint256"
        },
        {
          "indexed": false,
          "internalType": "uint32",
          "name": "blockTimestamp",
          "type": "uint32"
        },
        {
          "indexed": false,
          "internalType": "bool",
          "name": "latestIsSlotA",
          "type": "bool"
        }
      ],
      "name": "PriceUpdate",
      "type": "event"
    },
    {
      "inputs": [],
      "name": "MIN_T",
      "outputs": [
        {
          "internalType": "uint32",
          "name": "",
          "type": "uint32"
        }
      ],
      "stateMutability": "view",
      "type": "function"
    },
    {
      "inputs": [
        {
          "internalType": "address",
          "name": "uniswapV2Pair",
          "type": "address"
        }
      ],
      "name": "addNewPair",
      "outputs": [],
      "stateMutability": "nonpayable",
      "type": "function"
    },
    {
      "inputs": [],
      "name": "getBlockTimestamp",
      "outputs": [
        {
          "internalType": "uint32",
          "name": "",
          "type": "uint32"
        }
      ],
      "stateMutability": "view",
      "type": "function"
    },
    {
      "inputs": [
        {
          "internalType": "address",
          "name": "_assetOne",
          "type": "address"
        },
        {
          "internalType": "address",
          "name": "_assetTwo",
          "type": "address"
        }
      ],
      "name": "getPairAddress",
      "outputs": [
        {
          "internalType": "address",
          "name": "",
          "type": "address"
        }
      ],
      "stateMutability": "view",
      "type": "function"
    },
    {
      "inputs": [
        {
          "internalType": "address",
          "name": "",
          "type": "address"
        }
      ],
      "name": "getPairDetails",
      "outputs": [
        {
          "internalType": "uint256",
          "name": "priceCumulativeSlotA",
          "type": "uint256"
        },
        {
          "internalType": "uint256",
          "name": "priceCumulativeSlotB",
          "type": "uint256"
        },
        {
          "internalType": "uint32",
          "name": "lastUpdateSlotA",
          "type": "uint32"
        },
        {
          "internalType": "uint32",
          "name": "lastUpdateSlotB",
          "type": "uint32"
        },
        {
          "internalType": "bool",
          "name": "latestIsSlotA",
          "type": "bool"
        },
        {
          "internalType": "bool",
          "name": "initialized",
          "type": "bool"
        }
      ],
      "stateMutability": "view",
      "type": "function"
    },
    {
      "inputs": [
        {
          "internalType": "uint256",
          "name": "amountA",
          "type": "uint256"
        },
        {
          "internalType": "address[]",
          "name": "path",
          "type": "address[]"
        }
      ],
      "name": "getPrice",
      "outputs": [
        {
          "internalType": "uint256",
          "name": "amount",
          "type": "uint256"
        }
      ],
      "stateMutability": "view",
      "type": "function"
    },
    {
      "inputs": [
        {
          "internalType": "address",
          "name": "uniswapV2Pair",
          "type": "address"
        }
      ],
      "name": "getResult",
      "outputs": [
        {
          "internalType": "uint224",
          "name": "price",
          "type": "uint224"
        },
        {
          "internalType": "uint32",
          "name": "T",
          "type": "uint32"
        }
      ],
      "stateMutability": "nonpayable",
      "type": "function"
    },
    {
      "inputs": [
        {
          "internalType": "address",
          "name": "token_address",
          "type": "address"
        },
        {
          "internalType": "address",
          "name": "token1_address",
          "type": "address"
        }
      ],
      "name": "getTokenPrice",
      "outputs": [
        {
          "internalType": "uint256",
          "name": "",
          "type": "uint256"
        }
      ],
      "stateMutability": "view",
      "type": "function"
    },
    {
      "inputs": [],
      "name": "indexPrice",
      "outputs": [
        {
          "internalType": "uint256",
          "name": "",
          "type": "uint256"
        }
      ],
      "stateMutability": "view",
      "type": "function"
    },
    {
      "inputs": [
        {
          "internalType": "address",
          "name": "_uniSwapRouter",
          "type": "address"
        }
      ],
      "name": "initialize",
      "outputs": [],
      "stateMutability": "nonpayable",
      "type": "function"
    },
    {
      "inputs": [],
      "name": "uniswapV2Router",
      "outputs": [
        {
          "internalType": "contract IUniswapV2Router02",
          "name": "",
          "type": "address"
        }
      ],
      "stateMutability": "view",
      "type": "function"
    },
    {
      "inputs": [],
      "name": "updateIndexPrice",
      "outputs": [
        {
          "internalType": "uint224",
          "name": "price",
          "type": "uint224"
        }
      ],
      "stateMutability": "nonpayable",
      "type": "function"
    }
  ],
  "bytecode": "0x608060405234801561001057600080fd5b506116d8806100206000396000f3fe608060405234801561001057600080fd5b50600436106100b45760003560e01c8063975adc7511610071578063975adc75146101f9578063a41d40e114610219578063afa998601461022e578063b4f69a2f14610241578063c4d66de814610254578063f51b55311461028957600080fd5b80630c0fa81a146100b957806310bace8c146100df5780631694505e146100e857806321affc9614610113578063446a37e0146101a5578063796b89b9146101dc575b600080fd5b6100cc6100c73660046113cd565b610292565b6040519081526020015b60405180910390f35b6100cc60015481565b6000546100fb906001600160a01b031681565b6040516001600160a01b0390911681526020016100d6565b61016a6101213660046112f7565b600260208190526000918252604090912080546001820154919092015463ffffffff8082169164010000000081049091169060ff600160401b8204811691600160481b90041686565b60408051968752602087019590955263ffffffff938416948601949094529116606084015215156080830152151560a082015260c0016100d6565b6101b86101b33660046112f7565b6103fe565b604080516001600160e01b03909316835263ffffffff9091166020830152016100d6565b6101e46106e1565b60405163ffffffff90911681526020016100d6565b6102016106f7565b6040516001600160e01b0390911681526020016100d6565b61022c6102273660046112f7565b6108ab565b005b6100cc61023c36600461132f565b6109bd565b6100fb61024f36600461132f565b610c8e565b61022c6102623660046112f7565b600080546001600160a01b0319166001600160a01b03929092169190911790556001600455565b6101e46104b081565b600060028210156102ea5760405162461bcd60e51b815260206004820181905260248201527f696e76616c6964206e756d626572206f6620706172616d7320696e207061746860448201526064015b60405180910390fd5b508260015b828110156103f657600080610376868661030a6001876115f3565b81811061032757634e487b7160e01b600052603260045260246000fd5b905060200201602081019061033c91906112f7565b87878681811061035c57634e487b7160e01b600052603260045260246000fd5b905060200201602081019061037191906112f7565b610d96565b91509150600082116103d45760405162461bcd60e51b815260206004820152602160248201527f50616972204e6f6e204578697374656e74207c7c204e6f204c697175696469746044820152607960f81b60648201526084016102e1565b6103df848383610f71565b9350505080806103ee9061162f565b9150506102ef565b509392505050565b6001600160a01b0381166000908152600260208181526040808420815160c081018352815481526001820154938101939093529092015463ffffffff808216938301939093526401000000008104909216606082015260ff600160401b8304811615156080830152600160481b909204909116151560a082018190528291906104d35760405162461bcd60e51b815260206004820152602160248201527f5461726f7450726963654f7261636c653a204e4f545f494e495449414c495a456044820152601160fa1b60648201526084016102e1565b6001600160a01b0384166000908152600260205260408120906104f46106e1565b90506000836080015161050b578360600151610511565b83604001515b9050600061051e8861104e565b905060006104b061052f848661160a565b63ffffffff161061062257856080015161054d578560200151610550565b85515b905085608001511561058a576001850182905560028501805467ffffffff00000000191664010000000063ffffffff8716021790556105a5565b81855560028501805463ffffffff191663ffffffff86161790555b608086015160028601805468ff000000000000000019169115600160401b81029290921790556040805184815263ffffffff87166020820152908101919091526001600160a01b038a16907fc58c63744da19faddae8e37958053493f49d71b8f78d4facf6002cd1c2618fcf9060600160405180910390a2610656565b856080015161063557856040015161063b565b85606001515b9250856080015161064d578551610653565b85602001515b90505b610660838561160a565b96506104b063ffffffff881610156106b35760405162461bcd60e51b815260206004820152601660248201527550726963654f7261636c653a204e4f545f524541445960501b60448201526064016102e1565b6106d463ffffffff88166106c783856115f3565b6106d191906114a6565b90565b9750505050505050915091565b60006106f26401000000004261164a565b905090565b60035460009081805b82811015610892576000670de0b6b3a7640000905060008060006003858154811061073b57634e487b7160e01b600052603260045260246000fd5b9060005260206000200160009054906101000a90046001600160a01b03166001600160a01b0316630902f1ac6040518163ffffffff1660e01b815260040160606040518083038186803b15801561079157600080fd5b505afa1580156107a5573d6000803e3d6000fd5b505050506040513d601f19601f820116820180604052508101906107c99190611367565b60008054604051630153543560e21b8152600481018a90526001600160701b0395861660248201819052949095166044860181905293975092955063ffffffff919091169350916001600160a01b039091169063054d50d49060640160206040518083038186803b15801561083d57600080fd5b505afa158015610851573d6000803e3d6000fd5b505050506040513d601f19601f8201168201806040525081019061087591906113b5565b90508096505050505050808061088a9061162f565b915050610700565b506004546108a19082906111a4565b6001555090919050565b6001600160a01b0381166000908152600260205260408120906108cd8361104e565b905060006108d96106e1565b828455600180850184905560028501805467ffffffffffffffff191663ffffffff841690811764010000000082021769ffff000000000000000019166901010000000000000000179091556003805480840182556000919091527fc2575a0e9e593c00f959f8c92f12db2869c3395a3b0502d05e2516446f71f85b0180546001600160a01b0319166001600160a01b038916908117909155604080518781526020810193909352820192909252919250907fc58c63744da19faddae8e37958053493f49d71b8f78d4facf6002cd1c2618fcf9060600160405180910390a250505050565b600080836001600160a01b031663313ce5676040518163ffffffff1660e01b815260040160206040518083038186803b1580156109f957600080fd5b505afa158015610a0d573d6000803e3d6000fd5b505050506040513d601f19601f82011682018060405250810190610a319190611447565b60ff1690506000610a4382600a6114fd565b610a4e9060016115d4565b905060008060009054906101000a90046001600160a01b03166001600160a01b031663c45a01556040518163ffffffff1660e01b815260040160206040518083038186803b158015610a9f57600080fd5b505afa158015610ab3573d6000803e3d6000fd5b505050506040513d601f19601f82011682018060405250810190610ad79190611313565b60405163e6a4390560e01b81526001600160a01b0388811660048301528781166024830152919091169063e6a439059060440160206040518083038186803b158015610b2257600080fd5b505afa158015610b36573d6000803e3d6000fd5b505050506040513d601f19601f82011682018060405250810190610b5a9190611313565b90506000806000836001600160a01b0316630902f1ac6040518163ffffffff1660e01b815260040160606040518083038186803b158015610b9a57600080fd5b505afa158015610bae573d6000803e3d6000fd5b505050506040513d601f19601f82011682018060405250810190610bd29190611367565b60008054604051630153543560e21b8152600481018b90526001600160701b0395861660248201819052949095166044860181905293975092955063ffffffff919091169350916001600160a01b039091169063054d50d49060640160206040518083038186803b158015610c4657600080fd5b505afa158015610c5a573d6000803e3d6000fd5b505050506040513d601f19601f82011682018060405250810190610c7e91906113b5565b9750505050505050505b92915050565b600080546040805163c45a015560e01b8152905183926001600160a01b03169163c45a0155916004808301926020929190829003018186803b158015610cd357600080fd5b505afa158015610ce7573d6000803e3d6000fd5b505050506040513d601f19601f82011682018060405250810190610d0b9190611313565b60405163e6a4390560e01b81526001600160a01b0386811660048301528581166024830152919091169063e6a439059060440160206040518083038186803b158015610d5657600080fd5b505afa158015610d6a573d6000803e3d6000fd5b505050506040513d601f19601f82011682018060405250810190610d8e9190611313565b949350505050565b60008060008060009054906101000a90046001600160a01b03166001600160a01b031663c45a01556040518163ffffffff1660e01b815260040160206040518083038186803b158015610de857600080fd5b505afa158015610dfc573d6000803e3d6000fd5b505050506040513d601f19601f82011682018060405250810190610e209190611313565b60405163e6a4390560e01b81526001600160a01b0387811660048301528681166024830152919091169063e6a439059060440160206040518083038186803b158015610e6b57600080fd5b505afa158015610e7f573d6000803e3d6000fd5b505050506040513d601f19601f82011682018060405250810190610ea39190611313565b9050600080826001600160a01b0316630902f1ac6040518163ffffffff1660e01b815260040160606040518083038186803b158015610ee157600080fd5b505afa158015610ef5573d6000803e3d6000fd5b505050506040513d601f19601f82011682018060405250810190610f199190611367565b506001600160701b031691506001600160701b031691506000610f3c88886111b7565b509050806001600160a01b0316886001600160a01b031614610f5f578183610f62565b82825b90999098509650505050505050565b6000808411610fce5760405162461bcd60e51b815260206004820152602360248201527f50616e63616b654c6962726172793a20494e53554646494349454e545f414d4f60448201526215539560ea1b60648201526084016102e1565b600083118015610fde5750600082115b6110395760405162461bcd60e51b815260206004820152602660248201527f50616e63616b654c6962726172793a20494e53554646494349454e545f4c495160448201526555494449545960d01b60648201526084016102e1565b8261104483866115d4565b610d8e91906114a6565b6000816001600160a01b0316635909c0d56040518163ffffffff1660e01b815260040160206040518083038186803b15801561108957600080fd5b505afa15801561109d573d6000803e3d6000fd5b505050506040513d601f19601f820116820180604052508101906110c191906113b5565b90506000806000846001600160a01b0316630902f1ac6040518163ffffffff1660e01b815260040160606040518083038186803b15801561110157600080fd5b505afa158015611115573d6000803e3d6000fd5b505050506040513d601f19601f820116820180604052508101906111399190611367565b925092509250600061115d8461114e856112ad565b6001600160e01b0316906112c6565b905060008261116a6106e1565b611174919061160a565b905061118f63ffffffff82166001600160e01b0384166115d4565b6111999087611468565b979650505050505050565b60006111b082846114a6565b9392505050565b600080826001600160a01b0316846001600160a01b031614156112285760405162461bcd60e51b815260206004820152602360248201527f50616e63616b654c6962726172793a204944454e544943414c5f41444452455360448201526253455360e81b60648201526084016102e1565b826001600160a01b0316846001600160a01b03161061124857828461124b565b83835b90925090506001600160a01b0382166112a65760405162461bcd60e51b815260206004820152601c60248201527f50616e63616b654c6962726172793a205a45524f5f414444524553530000000060448201526064016102e1565b9250929050565b6000610c88600160701b6001600160701b0384166115a5565b60006111b06001600160701b03831684611480565b80516001600160701b03811681146112f257600080fd5b919050565b600060208284031215611308578081fd5b81356111b08161168a565b600060208284031215611324578081fd5b81516111b08161168a565b60008060408385031215611341578081fd5b823561134c8161168a565b9150602083013561135c8161168a565b809150509250929050565b60008060006060848603121561137b578081fd5b611384846112db565b9250611392602085016112db565b9150604084015163ffffffff811681146113aa578182fd5b809150509250925092565b6000602082840312156113c6578081fd5b5051919050565b6000806000604084860312156113e1578283fd5b83359250602084013567ffffffffffffffff808211156113ff578384fd5b818601915086601f830112611412578384fd5b813581811115611420578485fd5b8760208260051b8501011115611434578485fd5b6020830194508093505050509250925092565b600060208284031215611458578081fd5b815160ff811681146111b0578182fd5b6000821982111561147b5761147b61165e565b500190565b60006001600160e01b038381168061149a5761149a611674565b92169190910492915050565b6000826114b5576114b5611674565b500490565b600181815b808511156114f55781600019048211156114db576114db61165e565b808516156114e857918102915b93841c93908002906114bf565b509250929050565b60006111b0838360008261151357506001610c88565b8161152057506000610c88565b816001811461153657600281146115405761155c565b6001915050610c88565b60ff8411156115515761155161165e565b50506001821b610c88565b5060208310610133831016604e8410600b841016171561157f575081810a610c88565b61158983836114ba565b806000190482111561159d5761159d61165e565b029392505050565b60006001600160e01b03828116848216811515828404821116156115cb576115cb61165e565b02949350505050565b60008160001904831182151516156115ee576115ee61165e565b500290565b6000828210156116055761160561165e565b500390565b600063ffffffff838116908316818110156116275761162761165e565b039392505050565b60006000198214156116435761164361165e565b5060010190565b60008261165957611659611674565b500690565b634e487b7160e01b600052601160045260246000fd5b634e487b7160e01b600052601260045260246000fd5b6001600160a01b038116811461169f57600080fd5b5056fea2646970667358221220b5463c72a842608d023acd631d1e59dea9a77942b00fdefb8a6c88043e2c7ffc64736f6c63430008040033",
  "linkReferences": {},
  "deployedLinkReferences": {}
}