{
  "_format": "hh-sol-artifact-1",
  "contractName": "IndexSwap",
  "sourceName": "contracts/IndexSwap.sol",
  "abi": [
    {
      "inputs": [
        {
          "internalType": "address",
          "name": "_oracal",
          "type": "address"
        },
        {
          "internalType": "address",
          "name": "_outAssest",
          "type": "address"
        },
        {
          "internalType": "address",
          "name": "_pancakeSwapAddress",
          "type": "address"
        },
        {
          "internalType": "address",
          "name": "_vault",
          "type": "address"
        },
        {
          "internalType": "address",
          "name": "_module",
          "type": "address"
        }
      ],
      "stateMutability": "nonpayable",
      "type": "constructor"
    },
    {
      "anonymous": false,
      "inputs": [
        {
          "indexed": true,
          "internalType": "address",
          "name": "owner",
          "type": "address"
        },
        {
          "indexed": true,
          "internalType": "address",
          "name": "spender",
          "type": "address"
        },
        {
          "indexed": false,
          "internalType": "uint256",
          "name": "value",
          "type": "uint256"
        }
      ],
      "name": "Approval",
      "type": "event"
    },
    {
      "anonymous": false,
      "inputs": [],
      "name": "LOG_PUBLIC_SWAP_ENABLED",
      "type": "event"
    },
    {
      "anonymous": false,
      "inputs": [
        {
          "indexed": true,
          "internalType": "address",
          "name": "previousOwner",
          "type": "address"
        },
        {
          "indexed": true,
          "internalType": "address",
          "name": "newOwner",
          "type": "address"
        }
      ],
      "name": "OwnershipTransferred",
      "type": "event"
    },
    {
      "anonymous": false,
      "inputs": [
        {
          "indexed": false,
          "internalType": "uint256[]",
          "name": "tokenBalances",
          "type": "uint256[]"
        },
        {
          "indexed": false,
          "internalType": "uint256",
          "name": "vaultValue",
          "type": "uint256"
        }
      ],
      "name": "TokenBalanceUpdated",
      "type": "event"
    },
    {
      "anonymous": false,
      "inputs": [
        {
          "indexed": true,
          "internalType": "address",
          "name": "from",
          "type": "address"
        },
        {
          "indexed": true,
          "internalType": "address",
          "name": "to",
          "type": "address"
        },
        {
          "indexed": false,
          "internalType": "uint256",
          "name": "value",
          "type": "uint256"
        }
      ],
      "name": "Transfer",
      "type": "event"
    },
    {
      "inputs": [],
      "name": "VERSION_NUMBER",
      "outputs": [
        {
          "internalType": "uint256",
          "name": "",
          "type": "uint256"
        }
      ],
      "stateMutability": "view",
      "type": "function"
    },
    {
      "inputs": [
        {
          "internalType": "address",
          "name": "assetManager",
          "type": "address"
        }
      ],
      "name": "addAssetManager",
      "outputs": [],
      "stateMutability": "nonpayable",
      "type": "function"
    },
    {
      "inputs": [
        {
          "internalType": "address",
          "name": "owner",
          "type": "address"
        },
        {
          "internalType": "address",
          "name": "spender",
          "type": "address"
        }
      ],
      "name": "allowance",
      "outputs": [
        {
          "internalType": "uint256",
          "name": "",
          "type": "uint256"
        }
      ],
      "stateMutability": "view",
      "type": "function"
    },
    {
      "inputs": [
        {
          "internalType": "address",
          "name": "spender",
          "type": "address"
        },
        {
          "internalType": "uint256",
          "name": "amount",
          "type": "uint256"
        }
      ],
      "name": "approve",
      "outputs": [
        {
          "internalType": "bool",
          "name": "",
          "type": "bool"
        }
      ],
      "stateMutability": "nonpayable",
      "type": "function"
    },
    {
      "inputs": [
        {
          "internalType": "address",
          "name": "",
          "type": "address"
        }
      ],
      "name": "assetManagers",
      "outputs": [
        {
          "internalType": "bool",
          "name": "",
          "type": "bool"
        }
      ],
      "stateMutability": "view",
      "type": "function"
    },
    {
      "inputs": [
        {
          "internalType": "address",
          "name": "account",
          "type": "address"
        }
      ],
      "name": "balanceOf",
      "outputs": [
        {
          "internalType": "uint256",
          "name": "",
          "type": "uint256"
        }
      ],
      "stateMutability": "view",
      "type": "function"
    },
    {
      "inputs": [
        {
          "internalType": "uint256",
          "name": "amount",
          "type": "uint256"
        }
      ],
      "name": "burn",
      "outputs": [],
      "stateMutability": "nonpayable",
      "type": "function"
    },
    {
      "inputs": [
        {
          "internalType": "address",
          "name": "account",
          "type": "address"
        },
        {
          "internalType": "uint256",
          "name": "amount",
          "type": "uint256"
        }
      ],
      "name": "burnFrom",
      "outputs": [],
      "stateMutability": "nonpayable",
      "type": "function"
    },
    {
      "inputs": [],
      "name": "currentRate",
      "outputs": [
        {
          "internalType": "uint256",
          "name": "numerator",
          "type": "uint256"
        },
        {
          "internalType": "uint256",
          "name": "denominator",
          "type": "uint256"
        }
      ],
      "stateMutability": "view",
      "type": "function"
    },
    {
      "inputs": [],
      "name": "decimals",
      "outputs": [
        {
          "internalType": "uint8",
          "name": "",
          "type": "uint8"
        }
      ],
      "stateMutability": "view",
      "type": "function"
    },
    {
      "inputs": [
        {
          "internalType": "address",
          "name": "spender",
          "type": "address"
        },
        {
          "internalType": "uint256",
          "name": "subtractedValue",
          "type": "uint256"
        }
      ],
      "name": "decreaseAllowance",
      "outputs": [
        {
          "internalType": "bool",
          "name": "",
          "type": "bool"
        }
      ],
      "stateMutability": "nonpayable",
      "type": "function"
    },
    {
      "inputs": [],
      "name": "getETH",
      "outputs": [
        {
          "internalType": "address",
          "name": "",
          "type": "address"
        }
      ],
      "stateMutability": "view",
      "type": "function"
    },
    {
      "inputs": [
        {
          "internalType": "address",
          "name": "crypto",
          "type": "address"
        }
      ],
      "name": "getPathForETH",
      "outputs": [
        {
          "internalType": "address[]",
          "name": "",
          "type": "address[]"
        }
      ],
      "stateMutability": "view",
      "type": "function"
    },
    {
      "inputs": [
        {
          "internalType": "address",
          "name": "token",
          "type": "address"
        }
      ],
      "name": "getPathForToken",
      "outputs": [
        {
          "internalType": "address[]",
          "name": "",
          "type": "address[]"
        }
      ],
      "stateMutability": "view",
      "type": "function"
    },
    {
      "inputs": [],
      "name": "getTokenAndVaultBalance",
      "outputs": [
        {
          "internalType": "uint256[]",
          "name": "tokenXBalance",
          "type": "uint256[]"
        },
        {
          "internalType": "uint256",
          "name": "vaultValue",
          "type": "uint256"
        }
      ],
      "stateMutability": "nonpayable",
      "type": "function"
    },
    {
      "inputs": [
        {
          "internalType": "address",
          "name": "spender",
          "type": "address"
        },
        {
          "internalType": "uint256",
          "name": "addedValue",
          "type": "uint256"
        }
      ],
      "name": "increaseAllowance",
      "outputs": [
        {
          "internalType": "bool",
          "name": "",
          "type": "bool"
        }
      ],
      "stateMutability": "nonpayable",
      "type": "function"
    },
    {
      "inputs": [],
      "name": "indexPrice",
      "outputs": [
        {
          "internalType": "uint256",
          "name": "",
          "type": "uint256"
        }
      ],
      "stateMutability": "view",
      "type": "function"
    },
    {
      "inputs": [
        {
          "internalType": "address[]",
          "name": "_vAssets",
          "type": "address[]"
        }
      ],
      "name": "initVTokens",
      "outputs": [],
      "stateMutability": "nonpayable",
      "type": "function"
    },
    {
      "inputs": [
        {
          "internalType": "address[]",
          "name": "tokens",
          "type": "address[]"
        },
        {
          "internalType": "uint96[]",
          "name": "denorms",
          "type": "uint96[]"
        }
      ],
      "name": "initialize",
      "outputs": [],
      "stateMutability": "nonpayable",
      "type": "function"
    },
    {
      "inputs": [],
      "name": "initializeDefult",
      "outputs": [],
      "stateMutability": "nonpayable",
      "type": "function"
    },
    {
      "inputs": [],
      "name": "investInFund",
      "outputs": [],
      "stateMutability": "payable",
      "type": "function"
    },
    {
      "inputs": [
        {
          "internalType": "address",
          "name": "_underlyingAsset",
          "type": "address"
        },
        {
          "internalType": "address",
          "name": "_vAsset",
          "type": "address"
        },
        {
          "internalType": "uint256",
          "name": "_amount",
          "type": "uint256"
        }
      ],
      "name": "lendBNB",
      "outputs": [],
      "stateMutability": "nonpayable",
      "type": "function"
    },
    {
      "inputs": [
        {
          "internalType": "address",
          "name": "_underlyingAsset",
          "type": "address"
        },
        {
          "internalType": "address",
          "name": "_vAsset",
          "type": "address"
        },
        {
          "internalType": "uint256",
          "name": "_amount",
          "type": "uint256"
        }
      ],
      "name": "lendToken",
      "outputs": [],
      "stateMutability": "nonpayable",
      "type": "function"
    },
    {
      "inputs": [],
      "name": "name",
      "outputs": [
        {
          "internalType": "string",
          "name": "",
          "type": "string"
        }
      ],
      "stateMutability": "view",
      "type": "function"
    },
    {
      "inputs": [],
      "name": "owner",
      "outputs": [
        {
          "internalType": "address",
          "name": "",
          "type": "address"
        }
      ],
      "stateMutability": "view",
      "type": "function"
    },
    {
      "inputs": [],
      "name": "pancakeSwapRouter",
      "outputs": [
        {
          "internalType": "contract IUniswapV2Router02",
          "name": "",
          "type": "address"
        }
      ],
      "stateMutability": "view",
      "type": "function"
    },
    {
      "inputs": [
        {
          "internalType": "uint256[]",
          "name": "newWeights",
          "type": "uint256[]"
        }
      ],
      "name": "rebalance",
      "outputs": [],
      "stateMutability": "nonpayable",
      "type": "function"
    },
    {
      "inputs": [
        {
          "internalType": "address",
          "name": "_vAsset",
          "type": "address"
        },
        {
          "internalType": "uint256",
          "name": "_amount",
          "type": "uint256"
        }
      ],
      "name": "redeemBNB",
      "outputs": [],
      "stateMutability": "nonpayable",
      "type": "function"
    },
    {
      "inputs": [
        {
          "internalType": "address",
          "name": "_underlyingAsset",
          "type": "address"
        },
        {
          "internalType": "address",
          "name": "_vAsset",
          "type": "address"
        },
        {
          "internalType": "uint256",
          "name": "_amount",
          "type": "uint256"
        }
      ],
      "name": "redeemTokens",
      "outputs": [],
      "stateMutability": "nonpayable",
      "type": "function"
    },
    {
      "inputs": [],
      "name": "renounceOwnership",
      "outputs": [],
      "stateMutability": "nonpayable",
      "type": "function"
    },
    {
      "inputs": [],
      "name": "symbol",
      "outputs": [
        {
          "internalType": "string",
          "name": "",
          "type": "string"
        }
      ],
      "stateMutability": "view",
      "type": "function"
    },
    {
      "inputs": [],
      "name": "totalSupply",
      "outputs": [
        {
          "internalType": "uint256",
          "name": "",
          "type": "uint256"
        }
      ],
      "stateMutability": "view",
      "type": "function"
    },
    {
      "inputs": [
        {
          "internalType": "address",
          "name": "to",
          "type": "address"
        },
        {
          "internalType": "uint256",
          "name": "amount",
          "type": "uint256"
        }
      ],
      "name": "transfer",
      "outputs": [
        {
          "internalType": "bool",
          "name": "",
          "type": "bool"
        }
      ],
      "stateMutability": "nonpayable",
      "type": "function"
    },
    {
      "inputs": [
        {
          "internalType": "address",
          "name": "from",
          "type": "address"
        },
        {
          "internalType": "address",
          "name": "to",
          "type": "address"
        },
        {
          "internalType": "uint256",
          "name": "amount",
          "type": "uint256"
        }
      ],
      "name": "transferFrom",
      "outputs": [
        {
          "internalType": "bool",
          "name": "",
          "type": "bool"
        }
      ],
      "stateMutability": "nonpayable",
      "type": "function"
    },
    {
      "inputs": [
        {
          "internalType": "address",
          "name": "newOwner",
          "type": "address"
        }
      ],
      "name": "transferOwnership",
      "outputs": [],
      "stateMutability": "nonpayable",
      "type": "function"
    },
    {
      "inputs": [
        {
          "internalType": "uint256",
          "name": "_numerator",
          "type": "uint256"
        },
        {
          "internalType": "uint256",
          "name": "_denominator",
          "type": "uint256"
        }
      ],
      "name": "updateRate",
      "outputs": [],
      "stateMutability": "nonpayable",
      "type": "function"
    },
    {
      "inputs": [
        {
          "internalType": "uint256",
          "name": "tokenAmount",
          "type": "uint256"
        }
      ],
      "name": "withdrawFromFundNew",
      "outputs": [],
      "stateMutability": "nonpayable",
      "type": "function"
    },
    {
      "stateMutability": "payable",
      "type": "receive"
    }
  ],
  "bytecode": "0x6101c0604052737130d2a12b9bcbfae4f2634d864a1ee1ce3ead9c6080908152732170ed0880ac9a755fd29b2688956bd959f933f860a05273bb4cdb9cbd36b01bd1cbaebf2de08d9173bc095c60c052731d2f0da169ceb9fc7b3144628db156f3f6c60dbe60e052733ee2200efb3400fabb9aacf31297cbdd1d435d4761010052737083609fce4d1d8dc0c979aab8c869ea2c873402610120527385eac5ac2f758618dfa09bdbe0cf174e7d574d5b61014052730e09fabb73bd3ade0a17ecc321fd13a19e81ce8261016052738ff795a6f4d97e7887c79bea79aba5cc76444adf61018052730d8ce2a99bb6e3b7db580ed848240e4a0f9ae1536101a0526200010c90600a9081620002f7565b506040805161014081018252600180825260208201819052918101829052606081018290526080810182905260a0810182905260c0810182905260e0810182905261010081018290526101208101919091526200016e90601490600a62000354565b503480156200017c57600080fd5b5060405162004c4738038062004c478339810160408190526200019f91620004a6565b60405180604001604052806007815260200166494e4445584c5960c81b8152506040518060400160405280600381526020016209288b60eb1b8152508160039080519060200190620001f3929190620003f5565b50805162000209906004906020840190620003f5565b5050506200022662000220620002a160201b60201c565b620002a5565b600680546001600160a01b03199081166001600160a01b0395861617909155602280548216968516969096179095556008805486169284169290921790915560238054851693831693909317909255336000908152602460205260409020805460ff1916600117905560098054909316911617905562000553565b3390565b600580546001600160a01b038381166001600160a01b0319831681179093556040519116919082907f8be0079c531659141344cd1fd0a4f28419497f9722a3daafe3b4186f6b6457e090600090a35050565b82600a810192821562000342579160200282015b828111156200034257825182546001600160a01b0319166001600160a01b039091161782556020909201916001909101906200030b565b506200035092915062000472565b5090565b600583019183908215620003425791602002820160005b83821115620003b157835183826101000a8154816001600160601b03021916908360ff1602179055509260200192600c01602081600b010492830192600103026200036b565b8015620003e65782816101000a8154906001600160601b030219169055600c01602081600b01049283019260010302620003b1565b50506200035092915062000472565b828054620004039062000516565b90600052602060002090601f01602090048101928262000427576000855562000342565b82601f106200044257805160ff191683800117855562000342565b8280016001018555821562000342579182015b828111156200034257825182559160200191906001019062000455565b5b8082111562000350576000815560010162000473565b80516001600160a01b0381168114620004a157600080fd5b919050565b600080600080600060a08688031215620004bf57600080fd5b620004ca8662000489565b9450620004da6020870162000489565b9350620004ea6040870162000489565b9250620004fa6060870162000489565b91506200050a6080870162000489565b90509295509295909350565b600181811c908216806200052b57607f821691505b602082108114156200054d57634e487b7160e01b600052602260045260246000fd5b50919050565b6146e480620005636000396000f3fe60806040526004361061021e5760003560e01c8063780d571011610123578063a457c2d7116100ab578063ca0e7ed51161006f578063ca0e7ed514610636578063d2db86df14610656578063dd62ed3e14610679578063f2fde38b14610699578063f9f8bdb7146106b957600080fd5b8063a457c2d714610579578063a6e65ca614610599578063a9059cbb146105c9578063b0849c1c146105e9578063b8fdecdb1461061657600080fd5b80638da5cb5b116100f25780638da5cb5b146104e6578063955a333b1461050457806395d89b4114610524578063987ea899146105395780639fdc9d301461055957600080fd5b8063780d57101461047157806379cc6790146104915780638025e303146104b157806381a8e605146104c657600080fd5b806324558995116101a6578063395093511161017557806339509351146103c6578063405abb41146103e657806342966c681461040657806370a0823114610426578063715018a61461045c57600080fd5b8063245589951461034a5780632c14d3861461036a578063313ce5671461038a57806331a95c7a146103a657600080fd5b806310bace8c116101ed57806310bace8c146102bc57806314f6c3be146102e057806318160ddd1461030d57806321f7e3ea1461032257806323b872dd1461032a57600080fd5b806306fdde031461022a578063095ea7b3146102555780630c2cd2cd146102855780630fa4f76b1461029c57600080fd5b3661022557005b600080fd5b34801561023657600080fd5b5061023f6106e9565b60405161024c9190613ec9565b60405180910390f35b34801561026157600080fd5b50610275610270366004613f11565b61077b565b604051901515815260200161024c565b34801561029157600080fd5b5061029a610795565b005b3480156102a857600080fd5b5061029a6102b7366004613f89565b610bab565b3480156102c857600080fd5b506102d260075481565b60405190815260200161024c565b3480156102ec57600080fd5b506102f5610bbc565b6040516001600160a01b03909116815260200161024c565b34801561031957600080fd5b506002546102d2565b61029a610c2f565b34801561033657600080fd5b50610275610345366004613fcb565b611305565b34801561035657600080fd5b506006546102f5906001600160a01b031681565b34801561037657600080fd5b5061029a610385366004613fcb565b611329565b34801561039657600080fd5b506040516012815260200161024c565b3480156103b257600080fd5b5061029a6103c1366004613fcb565b6114a8565b3480156103d257600080fd5b506102756103e1366004613f11565b61165c565b3480156103f257600080fd5b5061029a61040136600461400c565b61167e565b34801561041257600080fd5b5061029a61042136600461402e565b61169d565b34801561043257600080fd5b506102d2610441366004614047565b6001600160a01b031660009081526020819052604090205490565b34801561046857600080fd5b5061029a6116aa565b34801561047d57600080fd5b5061029a61048c3660046140cf565b6116e0565b34801561049d57600080fd5b5061029a6104ac366004613f11565b612233565b3480156104bd57600080fd5b506102d2600181565b3480156104d257600080fd5b5061029a6104e136600461402e565b61224c565b3480156104f257600080fd5b506005546001600160a01b03166102f5565b34801561051057600080fd5b5061029a61051f366004614165565b6127b5565b34801561053057600080fd5b5061023f612aaa565b34801561054557600080fd5b5061029a610554366004614047565b612ab9565b34801561056557600080fd5b5061029a610574366004613f11565b612b60565b34801561058557600080fd5b50610275610594366004613f11565b612c9b565b3480156105a557600080fd5b506102756105b4366004614047565b60246020526000908152604090205460ff1681565b3480156105d557600080fd5b506102756105e4366004613f11565b612d16565b3480156105f557600080fd5b50610609610604366004614047565b612d24565b60405161024c9190614215565b34801561062257600080fd5b5061029a610631366004613fcb565b612e1b565b34801561064257600080fd5b50610609610651366004614047565b612f16565b34801561066257600080fd5b5061066b612fdf565b60405161024c929190614228565b34801561068557600080fd5b506102d2610694366004614270565b613477565b3480156106a557600080fd5b5061029a6106b4366004614047565b6134a2565b3480156106c557600080fd5b506020546021546106d4919082565b6040805192835260208301919091520161024c565b6060600380546106f8906142a9565b80601f0160208091040260200160405190810160405280929190818152602001828054610724906142a9565b80156107715780601f1061074657610100808354040283529160200191610771565b820191906000526020600020905b81548152906001019060200180831161075457829003601f168201915b5050505050905090565b60003361078981858561353a565b60019150505b92915050565b6005546001600160a01b031633146107c85760405162461bcd60e51b81526004016107bf906142e4565b60405180910390fd5b600a600080805b83811015610b5d576040805160c0810182526001815264ffffffffff42166020820152908101601483600a811061080857610808614319565b60029182820401919006600c029054906101000a90046001600160601b03166001600160601b03168152602001601483600a811061084857610848614319565b60029182820401919006600c029054906101000a90046001600160601b03166001600160601b031681526020018260ff1681526020016000815250601b6000600a84600a811061089a5761089a614319565b01546001600160a01b0316815260208082019290925260409081016000208351815493850151928501516060860151608087015165ffffffffffff1990961692151565ffffffffff0019169290921761010064ffffffffff90951694909402939093176601000000000000600160f01b031916600160301b6001600160601b03948516026bffffffffffffffffffffffff60901b191617600160901b93909116929092029190911760ff60f01b1916600160f01b60ff9093169290920291909117815560a0909101516001909101556019600a8281811061097d5761097d614319565b015481546001810183556000928352602080842090910180546001600160a01b0319166001600160a01b03938416179055600654604080516315ab88c960e31b81529051919093169263ad5c46489260048083019391928290030181865afa1580156109ed573d6000803e3d6000fd5b505050506040513d601f19601f82011682018060405250810190610a11919061432f565b6001600160a01b0316600a83600a8110610a2d57610a2d614319565b01546001600160a01b031614610aec57602254601980546001600160a01b039092169163afa99860919085908110610a6757610a67614319565b60009182526020909120015460235460405160e084901b6001600160e01b03191681526001600160a01b03928316600482015291166024820152604401602060405180830381865afa158015610ac1573d6000803e3d6000fd5b505050506040513d601f19601f82011682018060405250810190610ae5919061434c565b9050610af7565b50670de0b6b3a76400005b610b01838261365e565b9250610b4784601484600a8110610b1a57610b1a614319565b60029182820401919006600c029054906101000a90046001600160601b03166001600160601b0316613671565b9350508080610b559061437b565b9150506107cf565b50601c829055610b6d81846136c3565b601d55601f805460ff191660011790556040517f183bed17d33ee5be9a47bb997aee6a152d84a34309cdb66f76301de0a40a138990600090a1505050565b610bb7601a8383613e25565b505050565b600654604080516315ab88c960e31b815290516000926001600160a01b03169163ad5c46489160048083019260209291908290030181865afa158015610c06573d6000803e3d6000fd5b505050506040513d601f19601f82011682018060405250810190610c2a919061432f565b905090565b60195434906000908190819067ffffffffffffffff811115610c5357610c53614064565b604051908082528060200260200182016040528015610c7c578160200160208202803683370190505b5060195490915060009067ffffffffffffffff811115610c9e57610c9e614064565b604051908082528060200260200182016040528015610cc7578160200160208202803683370190505b509050610cd2612fdf565b935090506000610ce160025490565b1115610d5b5760005b601954811015610d5957610d2a84610d2488858581518110610d0e57610d0e614319565b60200260200101516136cf90919063ffffffff16565b906136c3565b838281518110610d3c57610d3c614319565b602090810291909101015280610d518161437b565b915050610cea565b505b6000610d6842600f614396565b905060005b601954811015611243576000610d8260025490565b610dea57610de3601c54610d24601b600060198781548110610da657610da6614319565b60009182526020808320909101546001600160a01b031683528201929092526040019020548b906001600160601b03600160301b909104166136cf565b9050610e07565b848281518110610dfc57610dfc614319565b602002602001015190505b600654604080516315ab88c960e31b815290516000926001600160a01b03169163ad5c46489160048083019260209291908290030181865afa158015610e51573d6000803e3d6000fd5b505050506040513d601f19601f82011682018060405250810190610e75919061432f565b6001600160a01b031660198481548110610e9157610e91614319565b6000918252602090912001546001600160a01b03161415610f5d5781471015610eed5760405162461bcd60e51b815260206004820152600e60248201526d3737ba1032b737bab3b41031373160911b60448201526064016107bf565b610f4a60198481548110610f0357610f03614319565b600091825260209091200154601a80546001600160a01b039092169186908110610f2f57610f2f614319565b6000918252602090912001546001600160a01b031684612e1b565b5080610f56888261365e565b975061122e565b600654601980546060926001600160a01b031691637ff36ab5918691600091610fab91908a908110610f9157610f91614319565b6000918252602090912001546001600160a01b0316612d24565b308a6040518663ffffffff1660e01b8152600401610fcc94939291906143ae565b60006040518083038185885af1158015610fea573d6000803e3d6000fd5b50505050506040513d6000823e601f3d908101601f1916820160405261101391908101906143e3565b602254601980549293506001600160a01b039091169163afa9986091908790811061104057611040614319565b60009182526020909120015460235460405160e084901b6001600160e01b03191681526001600160a01b03928316600482015291166024820152604401602060405180830381865afa15801561109a573d6000803e3d6000fd5b505050506040513d601f19601f820116820180604052508101906110be919061434c565b602254601980549294506000926001600160a01b039092169163966da2b89190889081106110ee576110ee614319565b60009182526020909120015460405160e083901b6001600160e01b03191681526001600160a01b039091166004820152602401602060405180830381865afa15801561113e573d6000803e3d6000fd5b505050506040513d601f19601f82011682018060405250810190611162919061434c565b90506111a96111a261117583600a61454d565b610d248560018151811061118b5761118b614319565b6020026020010151876136cf90919063ffffffff16565b8b9061365e565b995061122b601986815481106111c1576111c1614319565b600091825260209091200154601a80546001600160a01b0390921691889081106111ed576111ed614319565b9060005260206000200160009054906101000a90046001600160a01b03168460018151811061121e5761121e614319565b6020026020010151611329565b50505b5050808061123b9061437b565b915050610d6d565b50600061124f60025490565b11156112665761125f85856136db565b955061126a565b8495505b61127433876136ff565b604051600090339047908381818185875af1925050503d80600081146112b6576040519150601f19603f3d011682016040523d82523d6000602084013e6112bb565b606091505b50509050806112fc5760405162461bcd60e51b815260206004820152600d60248201526c1c99599d5b990819985a5b1959609a1b60448201526064016107bf565b50505050505050565b6000336113138582856137de565b61131e858585613852565b506001949350505050565b60405163095ea7b360e01b81526001600160a01b038084166004830152602482018390528491849183169063095ea7b3906044016020604051808303816000875af115801561137c573d6000803e3d6000fd5b505050506040513d601f19601f820116820180604052508101906113a09190614559565b5060405163140e25ad60e31b8152600481018490526001600160a01b0382169063a0712d68906024016020604051808303816000875af11580156113e8573d6000803e3d6000fd5b505050506040513d601f19601f8201168201806040525081019061140c919061434c565b156114195761141961457b565b6040516370a0823160e01b81523060048201526000906001600160a01b038316906370a08231906024015b602060405180830381865afa158015611461573d6000803e3d6000fd5b505050506040513d601f19601f82011682018060405250810190611485919061434c565b6008549091506114a09086906001600160a01b031683613a20565b505050505050565b6040516370a0823160e01b8152306004820152839083906001600160a01b038216906370a0823190602401602060405180830381865afa1580156114f0573d6000803e3d6000fd5b505050506040513d601f19601f82011682018060405250810190611514919061434c565b8311156115335760405162461bcd60e51b81526004016107bf90614591565b60405163db006a7560e01b8152600481018490526001600160a01b0382169063db006a75906024016020604051808303816000875af115801561157a573d6000803e3d6000fd5b505050506040513d601f19601f8201168201806040525081019061159e919061434c565b156115e55760405162461bcd60e51b81526020600482015260176024820152761c995919595b5a5b99c81d951bdad95b8819985a5b1959604a1b60448201526064016107bf565b60085460405163a9059cbb60e01b81526001600160a01b039182166004820152602481018590529083169063a9059cbb906044016020604051808303816000875af1158015611638573d6000803e3d6000fd5b505050506040513d601f19601f820116820180604052508101906114a09190614559565b60003361078981858561166f8383613477565b6116799190614396565b61353a565b8161168857600080fd5b8061169257600080fd5b602091909155602155565b6116a73382613b51565b50565b6005546001600160a01b031633146116d45760405162461bcd60e51b81526004016107bf906142e4565b6116de6000613c9f565b565b3360009081526024602052604090205460ff166116fc57600080fd5b60195460009081908190818167ffffffffffffffff81111561172057611720614064565b604051908082528060200260200182016040528015611749578160200160208202803683370190505b50905060008267ffffffffffffffff81111561176757611767614064565b604051908082528060200260200182016040528015611790578160200160208202803683370190505b50905061179b612fdf565b9450905060006117aa60025490565b11156112fc5760005b601954811015611808576117d985610d24612710858581518110610d0e57610d0e614319565b8382815181106117eb576117eb614319565b6020908102919091010152806118008161437b565b9150506117b3565b50600061181642600f614396565b905060005b601954811015611ecd5783818151811061183757611837614319565b602002602001015189828151811061185157611851614319565b60200260200101511015611e405760006118a68a838151811061187657611876614319565b602002602001015186848151811061189057611890614319565b6020026020010151613cf190919063ffffffff16565b90506000600660009054906101000a90046001600160a01b03166001600160a01b031663ad5c46486040518163ffffffff1660e01b8152600401602060405180830381865afa1580156118fd573d6000803e3d6000fd5b505050506040513d601f19601f82011682018060405250810190611921919061432f565b6001600160a01b03166019848154811061193d5761193d614319565b6000918252602090912001546001600160a01b0316146119f0576000601a848154811061196c5761196c614319565b6000918252602090912001546008546040516370a0823160e01b81526001600160a01b0391821660048201529116915081906370a0823190602401602060405180830381865afa1580156119c4573d6000803e3d6000fd5b505050506040513d601f19601f820116820180604052508101906119e8919061434c565b915050611a85565b6000601a8481548110611a0557611a05614319565b6000918252602090912001546008546040516370a0823160e01b81526001600160a01b0391821660048201529116915081906370a0823190602401602060405180830381865afa158015611a5d573d6000803e3d6000fd5b505050506040513d601f19601f82011682018060405250810190611a81919061434c565b9150505b6000611ab7878581518110611a9c57611a9c614319565b6020026020010151610d2485856136cf90919063ffffffff16565b9050600960009054906101000a90046001600160a01b03166001600160a01b03166302a3aede3083601a8881548110611af257611af2614319565b60009182526020909120015460405160e085901b6001600160e01b03191681526001600160a01b03938416600482015260248101929092529190911660448201526064016020604051808303816000875af1158015611b55573d6000803e3d6000fd5b505050506040513d601f19601f82011682018060405250810190611b799190614559565b50600660009054906101000a90046001600160a01b03166001600160a01b031663ad5c46486040518163ffffffff1660e01b8152600401602060405180830381865afa158015611bcd573d6000803e3d6000fd5b505050506040513d601f19601f82011682018060405250810190611bf1919061432f565b6001600160a01b031660198581548110611c0d57611c0d614319565b6000918252602090912001546001600160a01b031614611e0757611c8460198581548110611c3d57611c3d614319565b600091825260209091200154601a80546001600160a01b039092169187908110611c6957611c69614319565b6000918252602090912001546001600160a01b0316836114a8565b600060198581548110611c9957611c99614319565b60009182526020822001546040516370a0823160e01b81523060048201526001600160a01b03909116925082906370a0823190602401602060405180830381865afa158015611cec573d6000803e3d6000fd5b505050506040513d601f19601f82011682018060405250810190611d10919061434c565b9050611d4a60198781548110611d2857611d28614319565b6000918252602090912001546006546001600160a01b03918216911683613cfd565b600654601980546001600160a01b03909216916318cbafe5918491600091611d96918c908110611d7c57611d7c614319565b6000918252602090912001546001600160a01b0316612f16565b308c6040518663ffffffff1660e01b8152600401611db89594939291906145d5565b6000604051808303816000875af1158015611dd7573d6000803e3d6000fd5b505050506040513d6000823e601f3d908101601f19168201604052611dff91908101906143e3565b505050611e38565b611e38601a8581548110611e1d57611e1d614319565b6000918252602090912001546001600160a01b031682612b60565b505050611ebb565b838181518110611e5257611e52614319565b6020026020010151898281518110611e6c57611e6c614319565b60200260200101511115611ebb576000611eab858381518110611e9157611e91614319565b60200260200101518b848151811061189057611890614319565b9050611eb7898261365e565b9850505b80611ec58161437b565b91505061181b565b5047955060005b8481101561222857600060198281548110611ef157611ef1614319565b60009182526020909120015485516001600160a01b039091169150859083908110611f1e57611f1e614319565b60200260200101518a8381518110611f3857611f38614319565b60200260200101511115612215576000611f77868481518110611f5d57611f5d614319565b60200260200101518c858151811061189057611890614319565b905060008111611fc95760405162461bcd60e51b815260206004820152601960248201527f776569676874206e6f742067726561746572207468616e20300000000000000060448201526064016107bf565b60008a1161200f5760405162461bcd60e51b8152602060048201526013602482015272191a5d88189e480c0b081cdd5b5dd95a59da1d606a1b60448201526064016107bf565b600061201f8b610d248c856136cf565b9050600660009054906101000a90046001600160a01b03166001600160a01b031663ad5c46486040518163ffffffff1660e01b8152600401602060405180830381865afa158015612074573d6000803e3d6000fd5b505050506040513d601f19601f82011682018060405250810190612098919061432f565b6001600160a01b0316836001600160a01b031614156121135761210e601985815481106120c7576120c7614319565b600091825260209091200154601a80546001600160a01b0390921691879081106120f3576120f3614319565b6000918252602090912001546001600160a01b031683612e1b565b612212565b6006546060906001600160a01b0316637ff36ab583600061213388612d24565b308b6040518663ffffffff1660e01b815260040161215494939291906143ae565b60006040518083038185885af1158015612172573d6000803e3d6000fd5b50505050506040513d6000823e601f3d908101601f1916820160405261219b91908101906143e3565b9050612210601986815481106121b3576121b3614319565b600091825260209091200154601a80546001600160a01b0390921691889081106121df576121df614319565b9060005260206000200160009054906101000a90046001600160a01b03168360018151811061121e5761121e614319565b505b50505b50806122208161437b565b915050611ed4565b505050505050505050565b61223e8233836137de565b6122488282613b51565b5050565b336000908152602081905260409020548111156122995760405162461bcd60e51b815260206004820152600b60248201526a6e6f742062616c616e636560a81b60448201526064016107bf565b60006122a642600f614396565b905060006122b360025490565b90506122bf3384613b51565b60005b6019548110156127af576000601982815481106122e1576122e1614319565b6000918252602080832090910154600654604080516315ab88c960e31b815290516001600160a01b039384169650919092169263ad5c464892600480820193918290030181865afa15801561233a573d6000803e3d6000fd5b505050506040513d601f19601f8201168201806040525081019061235e919061432f565b6001600160a01b0316826001600160a01b03161461240f576000601a848154811061238b5761238b614319565b6000918252602090912001546008546040516370a0823160e01b81526001600160a01b0391821660048201529116915081906370a0823190602401602060405180830381865afa1580156123e3573d6000803e3d6000fd5b505050506040513d601f19601f82011682018060405250810190612407919061434c565b9150506124a4565b6000601a848154811061242457612424614319565b6000918252602090912001546008546040516370a0823160e01b81526001600160a01b0391821660048201529116915081906370a0823190602401602060405180830381865afa15801561247c573d6000803e3d6000fd5b505050506040513d601f19601f820116820180604052508101906124a0919061434c565b9150505b60006124b485610d24848a6136cf565b9050600960009054906101000a90046001600160a01b03166001600160a01b03166302a3aede3083601a88815481106124ef576124ef614319565b60009182526020909120015460405160e085901b6001600160e01b03191681526001600160a01b03938416600482015260248101929092529190911660448201526064016020604051808303816000875af1158015612552573d6000803e3d6000fd5b505050506040513d601f19601f820116820180604052508101906125769190614559565b50600660009054906101000a90046001600160a01b03166001600160a01b031663ad5c46486040518163ffffffff1660e01b8152600401602060405180830381865afa1580156125ca573d6000803e3d6000fd5b505050506040513d601f19601f820116820180604052508101906125ee919061432f565b6001600160a01b0316836001600160a01b0316146127515761261c60198581548110611c3d57611c3d614319565b60006019858154811061263157612631614319565b60009182526020822001546040516370a0823160e01b81523060048201526001600160a01b03909116925082906370a0823190602401602060405180830381865afa158015612684573d6000803e3d6000fd5b505050506040513d601f19601f820116820180604052508101906126a8919061434c565b6006549091506126c39086906001600160a01b031683613cfd565b6006546001600160a01b03166318cbafe58260006126e089612f16565b338d6040518663ffffffff1660e01b81526004016127029594939291906145d5565b6000604051808303816000875af1158015612721573d6000803e3d6000fd5b505050506040513d6000823e601f3d908101601f1916820160405261274991908101906143e3565b505050612799565b612767601a8581548110611e1d57611e1d614319565b6040514790339082156108fc029083906000818181858888f19350505050158015612796573d6000803e3d6000fd5b50505b50505080806127a79061437b565b9150506122c2565b50505050565b6005546001600160a01b031633146127df5760405162461bcd60e51b81526004016107bf906142e4565b6019541561281d5760405162461bcd60e51b815260206004820152600b60248201526a125392551250531256915160aa1b60448201526064016107bf565b826000805b82811015612a60576040805160c0810182526001815264ffffffffff4216602082015290810186868481811061285a5761285a614319565b905060200201602081019061286f9190614611565b6001600160601b0316815260200186868481811061288f5761288f614319565b90506020020160208101906128a49190614611565b6001600160601b031681526020018260ff1681526020016000815250601b60008989858181106128d6576128d6614319565b90506020020160208101906128eb9190614047565b6001600160a01b0316815260208082019290925260409081016000208351815493850151928501516060860151608087015165ffffffffffff1990961692151565ffffffffff0019169290921761010064ffffffffff90951694909402939093176601000000000000600160f01b031916600160301b6001600160601b03948516026bffffffffffffffffffffffff60901b191617600160901b93909116929092029190911760ff60f01b1916600160f01b60ff9093169290920291909117815560a09091015160019091015560198787838181106129cc576129cc614319565b90506020020160208101906129e19190614047565b81546001810183556000928352602090922090910180546001600160a01b0319166001600160a01b03909216919091179055612a4c82868684818110612a2957612a29614319565b9050602002016020810190612a3e9190614611565b6001600160601b0316613671565b915080612a588161437b565b915050612822565b50601c819055601f805460ff19166001908117909155601d556040517f183bed17d33ee5be9a47bb997aee6a152d84a34309cdb66f76301de0a40a138990600090a1505050505050565b6060600480546106f8906142a9565b3360009081526024602052604090205460ff16612ad557600080fd5b6001600160a01b038116612b3c5760405162461bcd60e51b815260206004820152602860248201527f4f776e61626c653a206e6577206d616e6167657220697320746865207a65726f604482015267206164647265737360c01b60648201526084016107bf565b6001600160a01b03166000908152602460205260409020805460ff19166001179055565b6040516370a0823160e01b815230600482015282906001600160a01b038216906370a0823190602401602060405180830381865afa158015612ba6573d6000803e3d6000fd5b505050506040513d601f19601f82011682018060405250810190612bca919061434c565b821115612be95760405162461bcd60e51b81526004016107bf90614591565b60405163db006a7560e01b8152600481018390526001600160a01b0382169063db006a75906024016020604051808303816000875af1158015612c30573d6000803e3d6000fd5b505050506040513d601f19601f82011682018060405250810190612c54919061434c565b15610bb75760405162461bcd60e51b81526020600482015260176024820152761c995919595b5a5b99c81d951bdad95b8819985a5b1959604a1b60448201526064016107bf565b60003381612ca98286613477565b905083811015612d095760405162461bcd60e51b815260206004820152602560248201527f45524332303a2064656372656173656420616c6c6f77616e63652062656c6f77604482015264207a65726f60d81b60648201526084016107bf565b61131e828686840361353a565b600033610789818585613852565b604080516002808252606080830184529260009291906020830190803683375050600654604080516315ab88c960e31b815290519394506001600160a01b039091169263ad5c4648925060048083019260209291908290030181865afa158015612d92573d6000803e3d6000fd5b505050506040513d601f19601f82011682018060405250810190612db6919061432f565b81600081518110612dc957612dc9614319565b60200260200101906001600160a01b031690816001600160a01b0316815250508281600181518110612dfd57612dfd614319565b6001600160a01b039092166020928302919091019091015292915050565b60405163095ea7b360e01b81526001600160a01b038084166004830152602482018390528491849183169063095ea7b3906044016020604051808303816000875af1158015612e6e573d6000803e3d6000fd5b505050506040513d601f19601f82011682018060405250810190612e929190614559565b50806001600160a01b0316631249c58b846040518263ffffffff1660e01b81526004016000604051808303818588803b158015612ece57600080fd5b505af1158015612ee2573d6000803e3d6000fd5b50506040516370a0823160e01b8152306004820152600093506001600160a01b03851692506370a082319150602401611444565b604080516002808252606080830184529260009291906020830190803683370190505090508281600081518110612f4f57612f4f614319565b6001600160a01b03928316602091820292909201810191909152600654604080516315ab88c960e31b81529051919093169263ad5c46489260048083019391928290030181865afa158015612fa8573d6000803e3d6000fd5b505050506040513d601f19601f82011682018060405250810190612fcc919061432f565b81600181518110612dfd57612dfd614319565b6060600080601a8054905067ffffffffffffffff81111561300257613002614064565b60405190808252806020026020018201604052801561302b578160200160208202803683370190505b50905060008061303a60025490565b111561345d5760005b601a5481101561341a57600654604080516315ab88c960e31b815290516000926001600160a01b03169163ad5c46489160048083019260209291908290030181865afa158015613097573d6000803e3d6000fd5b505050506040513d601f19601f820116820180604052508101906130bb919061432f565b6001600160a01b0316601983815481106130d7576130d7614319565b6000918252602090912001546001600160a01b0316146132f6576000601a838154811061310657613106614319565b6000918252602082200154600854604051633af9e66960e01b81526001600160a01b039182166004820152911692508290633af9e669906024016020604051808303816000875af115801561315f573d6000803e3d6000fd5b505050506040513d601f19601f82011682018060405250810190613183919061434c565b6022546019805492935060009283926001600160a01b03169163966da2b891899081106131b2576131b2614319565b60009182526020909120015460405160e083901b6001600160e01b03191681526001600160a01b039091166004820152602401602060405180830381865afa158015613202573d6000803e3d6000fd5b505050506040513d601f19601f82011682018060405250810190613226919061434c565b602254601980549293506001600160a01b039091169163afa9986091908990811061325357613253614319565b60009182526020909120015460235460405160e084901b6001600160e01b03191681526001600160a01b03928316600482015291166024820152604401602060405180830381865afa1580156132ad573d6000803e3d6000fd5b505050506040513d601f19601f820116820180604052508101906132d1919061434c565b91506132eb6132e182600a61454d565b610d2484866136cf565b94505050505061338d565b6000601a838154811061330b5761330b614319565b600091825260209091200154600854604051633af9e66960e01b81526001600160a01b039182166004820152911691508190633af9e669906024016020604051808303816000875af1158015613365573d6000803e3d6000fd5b505050506040513d601f19601f82011682018060405250810190613389919061434c565b9150505b808483815181106133a0576133a0614319565b60209081029190910101526133b5838261365e565b9250600083116134075760405162461bcd60e51b815260206004820152601f60248201527f73756d207072696365206973206e6f742067726561746572207468616e20300060448201526064016107bf565b50806134128161437b565b915050613043565b507f32894744015a70e39b1a7b0074a6743bac3010fcf371848e2a4d3d23df9f504a828260405161344c929190614228565b60405180910390a190939092509050565b505060408051600080825260208201909252939092509050565b6001600160a01b03918216600090815260016020908152604080832093909416825291909152205490565b6005546001600160a01b031633146134cc5760405162461bcd60e51b81526004016107bf906142e4565b6001600160a01b0381166135315760405162461bcd60e51b815260206004820152602660248201527f4f776e61626c653a206e6577206f776e657220697320746865207a65726f206160448201526564647265737360d01b60648201526084016107bf565b6116a781613c9f565b6001600160a01b03831661359c5760405162461bcd60e51b8152602060048201526024808201527f45524332303a20617070726f76652066726f6d20746865207a65726f206164646044820152637265737360e01b60648201526084016107bf565b6001600160a01b0382166135fd5760405162461bcd60e51b815260206004820152602260248201527f45524332303a20617070726f766520746f20746865207a65726f206164647265604482015261737360f01b60648201526084016107bf565b6001600160a01b0383811660008181526001602090815260408083209487168084529482529182902085905590518481527f8c5be1e5ebec7d5bd14f71427d1e84f3dd0314c0f7b2291e5b200ac8c7c3b925910160405180910390a3505050565b600061366a8284614396565b9392505050565b60008061367e8385614396565b90508381101561366a5760405162461bcd60e51b815260206004820152601060248201526f4552525f4144445f4f564552464c4f5760801b60448201526064016107bf565b600061366a828461463a565b600061366a828461465c565b6000806136e760025490565b90506136f783610d2486846136cf565b949350505050565b6001600160a01b0382166137555760405162461bcd60e51b815260206004820152601f60248201527f45524332303a206d696e7420746f20746865207a65726f20616464726573730060448201526064016107bf565b80600260008282546137679190614396565b90915550506001600160a01b03821660009081526020819052604081208054839290613794908490614396565b90915550506040518181526001600160a01b038316906000907fddf252ad1be2c89b69c2b068fc378daa952ba7f163c4a11628f55a4df523b3ef9060200160405180910390a35050565b60006137ea8484613477565b905060001981146127af57818110156138455760405162461bcd60e51b815260206004820152601d60248201527f45524332303a20696e73756666696369656e7420616c6c6f77616e636500000060448201526064016107bf565b6127af848484840361353a565b6001600160a01b0383166138b65760405162461bcd60e51b815260206004820152602560248201527f45524332303a207472616e736665722066726f6d20746865207a65726f206164604482015264647265737360d81b60648201526084016107bf565b6001600160a01b0382166139185760405162461bcd60e51b815260206004820152602360248201527f45524332303a207472616e7366657220746f20746865207a65726f206164647260448201526265737360e81b60648201526084016107bf565b6001600160a01b038316600090815260208190526040902054818110156139905760405162461bcd60e51b815260206004820152602660248201527f45524332303a207472616e7366657220616d6f756e7420657863656564732062604482015265616c616e636560d01b60648201526084016107bf565b6001600160a01b038085166000908152602081905260408082208585039055918516815290812080548492906139c7908490614396565b92505081905550826001600160a01b0316846001600160a01b03167fddf252ad1be2c89b69c2b068fc378daa952ba7f163c4a11628f55a4df523b3ef84604051613a1391815260200190565b60405180910390a36127af565b604080516001600160a01b038481166024830152604480830185905283518084039091018152606490920183526020820180516001600160e01b031663a9059cbb60e01b1790529151600092839290871691613a7c919061467b565b6000604051808303816000865af19150503d8060008114613ab9576040519150601f19603f3d011682016040523d82523d6000602084013e613abe565b606091505b5091509150818015613ae8575080511580613ae8575080806020019051810190613ae89190614559565b613b4a5760405162461bcd60e51b815260206004820152602d60248201527f5472616e7366657248656c7065723a3a736166655472616e736665723a20747260448201526c185b9cd9995c8819985a5b1959609a1b60648201526084016107bf565b5050505050565b6001600160a01b038216613bb15760405162461bcd60e51b815260206004820152602160248201527f45524332303a206275726e2066726f6d20746865207a65726f206164647265736044820152607360f81b60648201526084016107bf565b6001600160a01b03821660009081526020819052604090205481811015613c255760405162461bcd60e51b815260206004820152602260248201527f45524332303a206275726e20616d6f756e7420657863656564732062616c616e604482015261636560f01b60648201526084016107bf565b6001600160a01b0383166000908152602081905260408120838303905560028054849290613c54908490614697565b90915550506040518281526000906001600160a01b038516907fddf252ad1be2c89b69c2b068fc378daa952ba7f163c4a11628f55a4df523b3ef9060200160405180910390a3505050565b600580546001600160a01b038381166001600160a01b0319831681179093556040519116919082907f8be0079c531659141344cd1fd0a4f28419497f9722a3daafe3b4186f6b6457e090600090a35050565b600061366a8284614697565b604080516001600160a01b038481166024830152604480830185905283518084039091018152606490920183526020820180516001600160e01b031663095ea7b360e01b1790529151600092839290871691613d59919061467b565b6000604051808303816000865af19150503d8060008114613d96576040519150601f19603f3d011682016040523d82523d6000602084013e613d9b565b606091505b5091509150818015613dc5575080511580613dc5575080806020019051810190613dc59190614559565b613b4a5760405162461bcd60e51b815260206004820152602b60248201527f5472616e7366657248656c7065723a3a73616665417070726f76653a2061707060448201526a1c9bdd994819985a5b195960aa1b60648201526084016107bf565b828054828255906000526020600020908101928215613e78579160200282015b82811115613e785781546001600160a01b0319166001600160a01b03843516178255602090920191600190910190613e45565b50613e84929150613e88565b5090565b5b80821115613e845760008155600101613e89565b60005b83811015613eb8578181015183820152602001613ea0565b838111156127af5750506000910152565b6020815260008251806020840152613ee8816040850160208701613e9d565b601f01601f19169190910160400192915050565b6001600160a01b03811681146116a757600080fd5b60008060408385031215613f2457600080fd5b8235613f2f81613efc565b946020939093013593505050565b60008083601f840112613f4f57600080fd5b50813567ffffffffffffffff811115613f6757600080fd5b6020830191508360208260051b8501011115613f8257600080fd5b9250929050565b60008060208385031215613f9c57600080fd5b823567ffffffffffffffff811115613fb357600080fd5b613fbf85828601613f3d565b90969095509350505050565b600080600060608486031215613fe057600080fd5b8335613feb81613efc565b92506020840135613ffb81613efc565b929592945050506040919091013590565b6000806040838503121561401f57600080fd5b50508035926020909101359150565b60006020828403121561404057600080fd5b5035919050565b60006020828403121561405957600080fd5b813561366a81613efc565b634e487b7160e01b600052604160045260246000fd5b604051601f8201601f1916810167ffffffffffffffff811182821017156140a3576140a3614064565b604052919050565b600067ffffffffffffffff8211156140c5576140c5614064565b5060051b60200190565b600060208083850312156140e257600080fd5b823567ffffffffffffffff8111156140f957600080fd5b8301601f8101851361410a57600080fd5b803561411d614118826140ab565b61407a565b81815260059190911b8201830190838101908783111561413c57600080fd5b928401925b8284101561415a57833582529284019290840190614141565b979650505050505050565b6000806000806040858703121561417b57600080fd5b843567ffffffffffffffff8082111561419357600080fd5b61419f88838901613f3d565b909650945060208701359150808211156141b857600080fd5b506141c587828801613f3d565b95989497509550505050565b600081518084526020808501945080840160005b8381101561420a5781516001600160a01b0316875295820195908201906001016141e5565b509495945050505050565b60208152600061366a60208301846141d1565b604080825283519082018190526000906020906060840190828701845b8281101561426157815184529284019290840190600101614245565b50505092019290925292915050565b6000806040838503121561428357600080fd5b823561428e81613efc565b9150602083013561429e81613efc565b809150509250929050565b600181811c908216806142bd57607f821691505b602082108114156142de57634e487b7160e01b600052602260045260246000fd5b50919050565b6020808252818101527f4f776e61626c653a2063616c6c6572206973206e6f7420746865206f776e6572604082015260600190565b634e487b7160e01b600052603260045260246000fd5b60006020828403121561434157600080fd5b815161366a81613efc565b60006020828403121561435e57600080fd5b5051919050565b634e487b7160e01b600052601160045260246000fd5b600060001982141561438f5761438f614365565b5060010190565b600082198211156143a9576143a9614365565b500190565b8481526080602082015260006143c760808301866141d1565b6001600160a01b03949094166040830152506060015292915050565b600060208083850312156143f657600080fd5b825167ffffffffffffffff81111561440d57600080fd5b8301601f8101851361441e57600080fd5b805161442c614118826140ab565b81815260059190911b8201830190838101908783111561444b57600080fd5b928401925b8284101561415a57835182529284019290840190614450565b600181815b808511156144a457816000190482111561448a5761448a614365565b8085161561449757918102915b93841c939080029061446e565b509250929050565b6000826144bb5750600161078f565b816144c85750600061078f565b81600181146144de57600281146144e857614504565b600191505061078f565b60ff8411156144f9576144f9614365565b50506001821b61078f565b5060208310610133831016604e8410600b8410161715614527575081810a61078f565b6145318383614469565b806000190482111561454557614545614365565b029392505050565b600061366a83836144ac565b60006020828403121561456b57600080fd5b8151801515811461366a57600080fd5b634e487b7160e01b600052600160045260246000fd5b60208082526024908201527f6e6f7420656e6f7567682062616c616e636520696e2076656e75732070726f746040820152631bd8dbdb60e21b606082015260800190565b85815284602082015260a0604082015260006145f460a08301866141d1565b6001600160a01b0394909416606083015250608001529392505050565b60006020828403121561462357600080fd5b81356001600160601b038116811461366a57600080fd5b60008261465757634e487b7160e01b600052601260045260246000fd5b500490565b600081600019048311821515161561467657614676614365565b500290565b6000825161468d818460208701613e9d565b9190910192915050565b6000828210156146a9576146a9614365565b50039056fea264697066735822122010aeb218f3bf1aa4e995af96b0909cf8cb9b9fbf84a7f7031929cbc023dba2f864736f6c634300080a0033",
  "linkReferences": {},
  "deployedLinkReferences": {}
}