{
  "_format": "hh-sol-artifact-1",
  "contractName": "IndexSwap",
  "sourceName": "contracts/IndexSwap.sol",
  "abi": [
    {
      "inputs": [
        {
          "internalType": "address",
          "name": "_oracal",
          "type": "address"
        },
        {
          "internalType": "address",
          "name": "_outAssest",
          "type": "address"
        },
        {
          "internalType": "address",
          "name": "_pancakeSwapAddress",
          "type": "address"
        },
        {
          "internalType": "address",
          "name": "_vault",
          "type": "address"
        }
      ],
      "stateMutability": "nonpayable",
      "type": "constructor"
    },
    {
      "anonymous": false,
      "inputs": [
        {
          "indexed": true,
          "internalType": "address",
          "name": "owner",
          "type": "address"
        },
        {
          "indexed": true,
          "internalType": "address",
          "name": "spender",
          "type": "address"
        },
        {
          "indexed": false,
          "internalType": "uint256",
          "name": "value",
          "type": "uint256"
        }
      ],
      "name": "Approval",
      "type": "event"
    },
    {
      "anonymous": false,
      "inputs": [],
      "name": "LOG_PUBLIC_SWAP_ENABLED",
      "type": "event"
    },
    {
      "anonymous": false,
      "inputs": [
        {
          "indexed": true,
          "internalType": "address",
          "name": "previousOwner",
          "type": "address"
        },
        {
          "indexed": true,
          "internalType": "address",
          "name": "newOwner",
          "type": "address"
        }
      ],
      "name": "OwnershipTransferred",
      "type": "event"
    },
    {
      "anonymous": false,
      "inputs": [
        {
          "indexed": true,
          "internalType": "address",
          "name": "from",
          "type": "address"
        },
        {
          "indexed": true,
          "internalType": "address",
          "name": "to",
          "type": "address"
        },
        {
          "indexed": false,
          "internalType": "uint256",
          "name": "value",
          "type": "uint256"
        }
      ],
      "name": "Transfer",
      "type": "event"
    },
    {
      "inputs": [],
      "name": "VERSION_NUMBER",
      "outputs": [
        {
          "internalType": "uint256",
          "name": "",
          "type": "uint256"
        }
      ],
      "stateMutability": "view",
      "type": "function"
    },
    {
      "inputs": [
        {
          "internalType": "address",
          "name": "owner",
          "type": "address"
        },
        {
          "internalType": "address",
          "name": "spender",
          "type": "address"
        }
      ],
      "name": "allowance",
      "outputs": [
        {
          "internalType": "uint256",
          "name": "",
          "type": "uint256"
        }
      ],
      "stateMutability": "view",
      "type": "function"
    },
    {
      "inputs": [
        {
          "internalType": "address",
          "name": "spender",
          "type": "address"
        },
        {
          "internalType": "uint256",
          "name": "amount",
          "type": "uint256"
        }
      ],
      "name": "approve",
      "outputs": [
        {
          "internalType": "bool",
          "name": "",
          "type": "bool"
        }
      ],
      "stateMutability": "nonpayable",
      "type": "function"
    },
    {
      "inputs": [
        {
          "internalType": "address",
          "name": "account",
          "type": "address"
        }
      ],
      "name": "balanceOf",
      "outputs": [
        {
          "internalType": "uint256",
          "name": "",
          "type": "uint256"
        }
      ],
      "stateMutability": "view",
      "type": "function"
    },
    {
      "inputs": [
        {
          "internalType": "uint256",
          "name": "amount",
          "type": "uint256"
        }
      ],
      "name": "burn",
      "outputs": [],
      "stateMutability": "nonpayable",
      "type": "function"
    },
    {
      "inputs": [
        {
          "internalType": "address",
          "name": "account",
          "type": "address"
        },
        {
          "internalType": "uint256",
          "name": "amount",
          "type": "uint256"
        }
      ],
      "name": "burnFrom",
      "outputs": [],
      "stateMutability": "nonpayable",
      "type": "function"
    },
    {
      "inputs": [],
      "name": "currentRate",
      "outputs": [
        {
          "internalType": "uint256",
          "name": "numerator",
          "type": "uint256"
        },
        {
          "internalType": "uint256",
          "name": "denominator",
          "type": "uint256"
        }
      ],
      "stateMutability": "view",
      "type": "function"
    },
    {
      "inputs": [],
      "name": "decimals",
      "outputs": [
        {
          "internalType": "uint8",
          "name": "",
          "type": "uint8"
        }
      ],
      "stateMutability": "view",
      "type": "function"
    },
    {
      "inputs": [
        {
          "internalType": "address",
          "name": "spender",
          "type": "address"
        },
        {
          "internalType": "uint256",
          "name": "subtractedValue",
          "type": "uint256"
        }
      ],
      "name": "decreaseAllowance",
      "outputs": [
        {
          "internalType": "bool",
          "name": "",
          "type": "bool"
        }
      ],
      "stateMutability": "nonpayable",
      "type": "function"
    },
    {
      "inputs": [],
      "name": "getETH",
      "outputs": [
        {
          "internalType": "address",
          "name": "",
          "type": "address"
        }
      ],
      "stateMutability": "view",
      "type": "function"
    },
    {
      "inputs": [
        {
          "internalType": "address",
          "name": "crypto",
          "type": "address"
        }
      ],
      "name": "getPathForETH",
      "outputs": [
        {
          "internalType": "address[]",
          "name": "",
          "type": "address[]"
        }
      ],
      "stateMutability": "view",
      "type": "function"
    },
    {
      "inputs": [
        {
          "internalType": "address",
          "name": "token",
          "type": "address"
        }
      ],
      "name": "getPathForToken",
      "outputs": [
        {
          "internalType": "address[]",
          "name": "",
          "type": "address[]"
        }
      ],
      "stateMutability": "view",
      "type": "function"
    },
    {
      "inputs": [],
      "name": "getTokenAndVaultBalance",
      "outputs": [
        {
          "internalType": "uint256[]",
          "name": "tokenXBalance",
          "type": "uint256[]"
        },
        {
          "internalType": "uint256",
          "name": "vaultValue",
          "type": "uint256"
        }
      ],
      "stateMutability": "view",
      "type": "function"
    },
    {
      "inputs": [
        {
          "internalType": "address",
          "name": "spender",
          "type": "address"
        },
        {
          "internalType": "uint256",
          "name": "addedValue",
          "type": "uint256"
        }
      ],
      "name": "increaseAllowance",
      "outputs": [
        {
          "internalType": "bool",
          "name": "",
          "type": "bool"
        }
      ],
      "stateMutability": "nonpayable",
      "type": "function"
    },
    {
      "inputs": [],
      "name": "indexPrice",
      "outputs": [
        {
          "internalType": "uint256",
          "name": "",
          "type": "uint256"
        }
      ],
      "stateMutability": "view",
      "type": "function"
    },
    {
      "inputs": [
        {
          "internalType": "address[]",
          "name": "tokens",
          "type": "address[]"
        },
        {
          "internalType": "uint96[]",
          "name": "denorms",
          "type": "uint96[]"
        }
      ],
      "name": "initialize",
      "outputs": [],
      "stateMutability": "nonpayable",
      "type": "function"
    },
    {
      "inputs": [],
      "name": "initializeDefult",
      "outputs": [],
      "stateMutability": "nonpayable",
      "type": "function"
    },
    {
      "inputs": [],
      "name": "investInFund",
      "outputs": [],
      "stateMutability": "payable",
      "type": "function"
    },
    {
      "inputs": [],
      "name": "name",
      "outputs": [
        {
          "internalType": "string",
          "name": "",
          "type": "string"
        }
      ],
      "stateMutability": "view",
      "type": "function"
    },
    {
      "inputs": [],
      "name": "owner",
      "outputs": [
        {
          "internalType": "address",
          "name": "",
          "type": "address"
        }
      ],
      "stateMutability": "view",
      "type": "function"
    },
    {
      "inputs": [],
      "name": "pancakeSwapRouter",
      "outputs": [
        {
          "internalType": "contract IUniswapV2Router02",
          "name": "",
          "type": "address"
        }
      ],
      "stateMutability": "view",
      "type": "function"
    },
    {
      "inputs": [
        {
          "internalType": "uint256[]",
          "name": "newWeights",
          "type": "uint256[]"
        }
      ],
      "name": "rebalance",
      "outputs": [],
      "stateMutability": "nonpayable",
      "type": "function"
    },
    {
      "inputs": [],
      "name": "renounceOwnership",
      "outputs": [],
      "stateMutability": "nonpayable",
      "type": "function"
    },
    {
      "inputs": [],
      "name": "symbol",
      "outputs": [
        {
          "internalType": "string",
          "name": "",
          "type": "string"
        }
      ],
      "stateMutability": "view",
      "type": "function"
    },
    {
      "inputs": [],
      "name": "totalSupply",
      "outputs": [
        {
          "internalType": "uint256",
          "name": "",
          "type": "uint256"
        }
      ],
      "stateMutability": "view",
      "type": "function"
    },
    {
      "inputs": [
        {
          "internalType": "address",
          "name": "to",
          "type": "address"
        },
        {
          "internalType": "uint256",
          "name": "amount",
          "type": "uint256"
        }
      ],
      "name": "transfer",
      "outputs": [
        {
          "internalType": "bool",
          "name": "",
          "type": "bool"
        }
      ],
      "stateMutability": "nonpayable",
      "type": "function"
    },
    {
      "inputs": [
        {
          "internalType": "address",
          "name": "from",
          "type": "address"
        },
        {
          "internalType": "address",
          "name": "to",
          "type": "address"
        },
        {
          "internalType": "uint256",
          "name": "amount",
          "type": "uint256"
        }
      ],
      "name": "transferFrom",
      "outputs": [
        {
          "internalType": "bool",
          "name": "",
          "type": "bool"
        }
      ],
      "stateMutability": "nonpayable",
      "type": "function"
    },
    {
      "inputs": [
        {
          "internalType": "address",
          "name": "newOwner",
          "type": "address"
        }
      ],
      "name": "transferOwnership",
      "outputs": [],
      "stateMutability": "nonpayable",
      "type": "function"
    },
    {
      "inputs": [
        {
          "internalType": "uint256",
          "name": "_numerator",
          "type": "uint256"
        },
        {
          "internalType": "uint256",
          "name": "_denominator",
          "type": "uint256"
        }
      ],
      "name": "updateRate",
      "outputs": [],
      "stateMutability": "nonpayable",
      "type": "function"
    },
    {
      "inputs": [
        {
          "internalType": "uint256",
          "name": "tokenAmount",
          "type": "uint256"
        }
      ],
      "name": "withdrawFromFundNew",
      "outputs": [],
      "stateMutability": "nonpayable",
      "type": "function"
    },
    {
      "stateMutability": "payable",
      "type": "receive"
    }
  ],
  "bytecode": "0x600880546001600160a01b03191673ef73e58650868f316461936a092818d5df96102e17905560c0604052737130d2a12b9bcbfae4f2634d864a1ee1ce3ead9c6080908152732170ed0880ac9a755fd29b2688956bd959f933f860a0526200006c90600a906002620001ef565b5060408051808201909152600180825260208201526200009190600c9060026200024c565b503480156200009f57600080fd5b50604051620034b0380380620034b0833981016040819052620000c2916200039e565b60405180604001604052806007815260200166494e4445584c5960c81b8152506040518060400160405280600381526020016209288b60eb1b815250816003908051906020019062000116929190620002ed565b5080516200012c906004906020840190620002ed565b50505062000149620001436200019960201b60201c565b6200019d565b600680546001600160a01b03199081166001600160a01b03948516179091556015805482169584169590951790945560098054851691831691909117905560168054909316911617905562000438565b3390565b600580546001600160a01b038381166001600160a01b0319831681179093556040519116919082907f8be0079c531659141344cd1fd0a4f28419497f9722a3daafe3b4186f6b6457e090600090a35050565b82600281019282156200023a579160200282015b828111156200023a57825182546001600160a01b0319166001600160a01b0390911617825560209092019160019091019062000203565b50620002489291506200036a565b5090565b6001830191839082156200023a5791602002820160005b83821115620002a957835183826101000a8154816001600160601b03021916908360ff1602179055509260200192600c01602081600b0104928301926001030262000263565b8015620002de5782816101000a8154906001600160601b030219169055600c01602081600b01049283019260010302620002a9565b5050620002489291506200036a565b828054620002fb90620003fb565b90600052602060002090601f0160209004810192826200031f57600085556200023a565b82601f106200033a57805160ff19168380011785556200023a565b828001600101855582156200023a579182015b828111156200023a5782518255916020019190600101906200034d565b5b808211156200024857600081556001016200036b565b80516001600160a01b03811681146200039957600080fd5b919050565b60008060008060808587031215620003b557600080fd5b620003c08562000381565b9350620003d06020860162000381565b9250620003e06040860162000381565b9150620003f06060860162000381565b905092959194509250565b600181811c908216806200041057607f821691505b602082108114156200043257634e487b7160e01b600052602260045260246000fd5b50919050565b61306880620004486000396000f3fe6080604052600436106101d15760003560e01c8063780d5710116100f7578063a457c2d711610095578063d2db86df11610064578063d2db86df14610519578063dd62ed3e1461053c578063f2fde38b1461055c578063f9f8bdb71461057c57600080fd5b8063a457c2d71461048c578063a9059cbb146104ac578063b0849c1c146104cc578063ca0e7ed5146104f957600080fd5b806381a8e605116100d157806381a8e605146104195780638da5cb5b14610439578063955a333b1461045757806395d89b411461047757600080fd5b8063780d5710146103c457806379cc6790146103e45780638025e3031461040457600080fd5b806323b872dd1161016f578063405abb411161013e578063405abb411461033957806342966c681461035957806370a0823114610379578063715018a6146103af57600080fd5b806323b872dd146102bd57806324558995146102dd578063313ce567146102fd578063395093511461031957600080fd5b806310bace8c116101ab57806310bace8c1461024f57806314f6c3be1461027357806318160ddd146102a057806321f7e3ea146102b557600080fd5b806306fdde03146101dd578063095ea7b3146102085780630c2cd2cd1461023857600080fd5b366101d857005b600080fd5b3480156101e957600080fd5b506101f26105ac565b6040516101ff91906129d9565b60405180910390f35b34801561021457600080fd5b50610228610223366004612a21565b61063e565b60405190151581526020016101ff565b34801561024457600080fd5b5061024d610656565b005b34801561025b57600080fd5b5061026560075481565b6040519081526020016101ff565b34801561027f57600080fd5b506102886109c3565b6040516001600160a01b0390911681526020016101ff565b3480156102ac57600080fd5b50600254610265565b61024d610a36565b3480156102c957600080fd5b506102286102d8366004612a4d565b610f48565b3480156102e957600080fd5b50600654610288906001600160a01b031681565b34801561030957600080fd5b50604051601281526020016101ff565b34801561032557600080fd5b50610228610334366004612a21565b610f6c565b34801561034557600080fd5b5061024d610354366004612a8e565b610f8e565b34801561036557600080fd5b5061024d610374366004612ab0565b610fad565b34801561038557600080fd5b50610265610394366004612ac9565b6001600160a01b031660009081526020819052604090205490565b3480156103bb57600080fd5b5061024d610fba565b3480156103d057600080fd5b5061024d6103df366004612b51565b610ff0565b3480156103f057600080fd5b5061024d6103ff366004612a21565b6116e6565b34801561041057600080fd5b50610265600181565b34801561042557600080fd5b5061024d610434366004612ab0565b6116ff565b34801561044557600080fd5b506005546001600160a01b0316610288565b34801561046357600080fd5b5061024d610472366004612c33565b611960565b34801561048357600080fd5b506101f2611c55565b34801561049857600080fd5b506102286104a7366004612a21565b611c64565b3480156104b857600080fd5b506102286104c7366004612a21565b611cdf565b3480156104d857600080fd5b506104ec6104e7366004612ac9565b611ced565b6040516101ff9190612ce3565b34801561050557600080fd5b506104ec610514366004612ac9565b611de4565b34801561052557600080fd5b5061052e611ead565b6040516101ff929190612cf6565b34801561054857600080fd5b50610265610557366004612d3e565b61211e565b34801561056857600080fd5b5061024d610577366004612ac9565b612149565b34801561058857600080fd5b50601354601454610597919082565b604080519283526020830191909152016101ff565b6060600380546105bb90612d77565b80601f01602080910402602001604051908101604052809291908181526020018280546105e790612d77565b80156106345780601f1061060957610100808354040283529160200191610634565b820191906000526020600020905b81548152906001019060200180831161061757829003601f168201915b5050505050905090565b60003361064c8185856121e1565b5060019392505050565b6005546001600160a01b031633146106895760405162461bcd60e51b815260040161068090612db2565b60405180910390fd5b6002600080805b83811015610975576040805160c0810182526001815264ffffffffff42166020820152908101600c83600281106106c9576106c9612de7565b60029182820401919006600c029054906101000a90046001600160601b03166001600160601b03168152602001600c836002811061070957610709612de7565b60029182820401919006600c029054906101000a90046001600160601b03166001600160601b031681526020018260ff1681526020016000815250600e6000600a846002811061075b5761075b612de7565b01546001600160a01b0316815260208082019290925260409081016000208351815493850151928501516060860151608087015165ffffffffffff1990961692151565ffffffffff0019169290921761010064ffffffffff90951694909402939093176601000000000000600160f01b031916600160301b6001600160601b03948516026bffffffffffffffffffffffff60901b191617600160901b93909116929092029190911760ff60f01b1916600160f01b60ff9093169290920291909117815560a090910151600190910155600d600a826002811061083f5761083f612de7565b015481546001810183556000928352602083200180546001600160a01b0319166001600160a01b03928316179055601554600d8054919092169163afa99860918590811061088f5761088f612de7565b60009182526020909120015460165460405160e084901b6001600160e01b03191681526001600160a01b03928316600482015291166024820152604401602060405180830381865afa1580156108e9573d6000803e3d6000fd5b505050506040513d601f19601f8201168201806040525081019061090d9190612dfd565b90506109198382612306565b925061095f84600c846002811061093257610932612de7565b60029182820401919006600c029054906101000a90046001600160601b03166001600160601b0316612319565b935050808061096d90612e2c565b915050610690565b50600f829055610985818461236b565b6010556012805460ff191660011790556040517f183bed17d33ee5be9a47bb997aee6a152d84a34309cdb66f76301de0a40a138990600090a1505050565b600654604080516315ab88c960e31b815290516000926001600160a01b03169163ad5c46489160048083019260209291908290030181865afa158015610a0d573d6000803e3d6000fd5b505050506040513d601f19601f82011682018060405250810190610a319190612e47565b905090565b600d5434906000908190818167ffffffffffffffff811115610a5a57610a5a612ae6565b604051908082528060200260200182016040528015610a83578160200160208202803683370190505b50905060008267ffffffffffffffff811115610aa157610aa1612ae6565b604051908082528060200260200182016040528015610aca578160200160208202803683370190505b509050610ad5611ead565b945090506000610ae460025490565b1115610b5e5760005b600d54811015610b5c57610b2d85610b2789858581518110610b1157610b11612de7565b602002602001015161237790919063ffffffff16565b9061236b565b838281518110610b3f57610b3f612de7565b602090810291909101015280610b5481612e2c565b915050610aed565b505b6000610b6b42600f612e64565b905060005b600d54811015610e1a576000600d8281548110610b8f57610b8f612de7565b60009182526020808320909101546001600160a01b0316808352600e82526040808420815160c081018352815460ff8082161515835264ffffffffff610100830416968301969096526001600160601b03600160301b8204811694830194909452600160901b81049093166060820152600160f01b90920490931660808201526001929092015460a0830152925090610c2760025490565b610c5857610c51600f54610b2784604001516001600160601b03168e61237790919063ffffffff16565b9050610c75565b868481518110610c6a57610c6a612de7565b602002602001015190505b6006546060906001600160a01b0316637ff36ab5836000610c9588611ced565b6009546040516001600160e01b031960e087901b168152610cc69392916001600160a01b0316908d90600401612e7c565b60006040518083038185885af1158015610ce4573d6000803e3d6000fd5b50505050506040513d6000823e601f3d908101601f19168201604052610d0d9190810190612eb1565b601554600d80549293506000926001600160a01b039092169163afa99860919089908110610d3d57610d3d612de7565b60009182526020909120015460165460405160e084901b6001600160e01b03191681526001600160a01b03928316600482015291166024820152604401602060405180830381865afa158015610d97573d6000803e3d6000fd5b505050506040513d601f19601f82011682018060405250810190610dbb9190612dfd565b9050610e00610df9670de0b6b3a7640000610b2785600181518110610de257610de2612de7565b60200260200101518561237790919063ffffffff16565b8d90612306565b9b5050505050508080610e1290612e2c565b915050610b70565b5086861115610e865760405162461bcd60e51b815260206004820152603260248201527f616d6f756e7420616674657220736c6970706167652063616e27742062652067604482015271726561746572207468616e206265666f726560701b6064820152608401610680565b6000610e9160025490565b1115610ea857610ea18686612383565b9650610eac565b8596505b610eb633886123b9565b604051600090339047908381818185875af1925050503d8060008114610ef8576040519150601f19603f3d011682016040523d82523d6000602084013e610efd565b606091505b5050905080610f3e5760405162461bcd60e51b815260206004820152600d60248201526c1c99599d5b990819985a5b1959609a1b6044820152606401610680565b5050505050505050565b600033610f56858285612498565b610f6185858561250c565b506001949350505050565b60003361064c818585610f7f838361211e565b610f899190612e64565b6121e1565b81610f9857600080fd5b80610fa257600080fd5b601391909155601455565b610fb733826126da565b50565b6005546001600160a01b03163314610fe45760405162461bcd60e51b815260040161068090612db2565b610fee6000612820565b565b600d5460009081908190818167ffffffffffffffff81111561101457611014612ae6565b60405190808252806020026020018201604052801561103d578160200160208202803683370190505b50905060008267ffffffffffffffff81111561105b5761105b612ae6565b604051908082528060200260200182016040528015611084578160200160208202803683370190505b50905061108f611ead565b94509050600061109e60025490565b11156116dd5760005b600d548110156110fc576110cd85610b27612710858581518110610b1157610b11612de7565b8382815181106110df576110df612de7565b6020908102919091010152806110f481612e2c565b9150506110a7565b50600061110a42600f612e64565b905060005b600d548110156114d95783818151811061112b5761112b612de7565b602002602001015189828151811061114557611145612de7565b6020026020010151101561144c576000600d828154811061116857611168612de7565b60009182526020822001546009546040516370a0823160e01b81526001600160a01b0391821660048201529116925082906370a0823190602401602060405180830381865afa1580156111bf573d6000803e3d6000fd5b505050506040513d601f19601f820116820180604052508101906111e39190612dfd565b9050600061122c8c85815181106111fc576111fc612de7565b602002602001015188868151811061121657611216612de7565b602002602001015161287290919063ffffffff16565b9050600061126088868151811061124557611245612de7565b6020026020010151610b27848661237790919063ffffffff16565b9050600860009054906101000a90046001600160a01b03166001600160a01b03166302a3aede3083600d898154811061129b5761129b612de7565b60009182526020909120015460405160e085901b6001600160e01b03191681526001600160a01b03938416600482015260248101929092529190911660448201526064016020604051808303816000875af11580156112fe573d6000803e3d6000fd5b505050506040513d601f19601f820116820180604052508101906113229190612f37565b5061135b600d868154811061133957611339612de7565b6000918252602090912001546006546001600160a01b0391821691168361287e565b600654600d80546060926001600160a01b0316916318cbafe59185916000916113a991908c90811061138f5761138f612de7565b6000918252602090912001546001600160a01b0316611de4565b308c6040518663ffffffff1660e01b81526004016113cb959493929190612f59565b6000604051808303816000875af11580156113ea573d6000803e3d6000fd5b505050506040513d6000823e601f3d908101601f191682016040526114129190810190612eb1565b90506114418160018151811061142a5761142a612de7565b60200260200101518d61230690919063ffffffff16565b5050505050506114c7565b83818151811061145e5761145e612de7565b602002602001015189828151811061147857611478612de7565b602002602001015111156114c75760006114b785838151811061149d5761149d612de7565b60200260200101518b848151811061121657611216612de7565b90506114c38982612306565b9850505b806114d181612e2c565b91505061110f565b5047955060005b848110156116da576000600d82815481106114fd576114fd612de7565b60009182526020909120015485516001600160a01b03909116915085908390811061152a5761152a612de7565b60200260200101518a838151811061154457611544612de7565b602002602001015111156116c757600061158386848151811061156957611569612de7565b60200260200101518c858151811061121657611216612de7565b9050600081116115d55760405162461bcd60e51b815260206004820152601960248201527f776569676874206e6f742067726561746572207468616e2030000000000000006044820152606401610680565b60008a1161161b5760405162461bcd60e51b8152602060048201526013602482015272191a5d88189e480c0b081cdd5b5dd95a59da1d606a1b6044820152606401610680565b600061162b8b610b278c85612377565b6006549091506001600160a01b0316637ff36ab582600061164b87611ced565b6009546040516001600160e01b031960e087901b16815261167c9392916001600160a01b0316908c90600401612e7c565b60006040518083038185885af115801561169a573d6000803e3d6000fd5b50505050506040513d6000823e601f3d908101601f191682016040526116c39190810190612eb1565b5050505b50806116d281612e2c565b9150506114e0565b50505b50505050505050565b6116f1823383612498565b6116fb82826126da565b5050565b3360009081526020819052604090205481111561174c5760405162461bcd60e51b815260206004820152600b60248201526a6e6f742062616c616e636560a81b6044820152606401610680565b600061175942600f612e64565b9050600061176660025490565b905061177233846126da565b60005b600d5481101561195a576000600d828154811061179457611794612de7565b60009182526020822001546009546040516370a0823160e01b81526001600160a01b0391821660048201529116925082919082906370a0823190602401602060405180830381865afa1580156117ee573d6000803e3d6000fd5b505050506040513d601f19601f820116820180604052508101906118129190612dfd565b9050600061182486610b27848b612377565b600854604051630151d76f60e11b8152306004820152602481018390526001600160a01b0387811660448301529293509116906302a3aede906064016020604051808303816000875af115801561187f573d6000803e3d6000fd5b505050506040513d601f19601f820116820180604052508101906118a39190612f37565b506006546118bc9085906001600160a01b03168361287e565b6006546001600160a01b03166318cbafe58260006118d988611de4565b338c6040518663ffffffff1660e01b81526004016118fb959493929190612f59565b6000604051808303816000875af115801561191a573d6000803e3d6000fd5b505050506040513d6000823e601f3d908101601f191682016040526119429190810190612eb1565b5050505050808061195290612e2c565b915050611775565b50505050565b6005546001600160a01b0316331461198a5760405162461bcd60e51b815260040161068090612db2565b600d54156119c85760405162461bcd60e51b815260206004820152600b60248201526a125392551250531256915160aa1b6044820152606401610680565b826000805b82811015611c0b576040805160c0810182526001815264ffffffffff42166020820152908101868684818110611a0557611a05612de7565b9050602002016020810190611a1a9190612f95565b6001600160601b03168152602001868684818110611a3a57611a3a612de7565b9050602002016020810190611a4f9190612f95565b6001600160601b031681526020018260ff1681526020016000815250600e6000898985818110611a8157611a81612de7565b9050602002016020810190611a969190612ac9565b6001600160a01b0316815260208082019290925260409081016000208351815493850151928501516060860151608087015165ffffffffffff1990961692151565ffffffffff0019169290921761010064ffffffffff90951694909402939093176601000000000000600160f01b031916600160301b6001600160601b03948516026bffffffffffffffffffffffff60901b191617600160901b93909116929092029190911760ff60f01b1916600160f01b60ff9093169290920291909117815560a090910151600190910155600d878783818110611b7757611b77612de7565b9050602002016020810190611b8c9190612ac9565b81546001810183556000928352602090922090910180546001600160a01b0319166001600160a01b03909216919091179055611bf782868684818110611bd457611bd4612de7565b9050602002016020810190611be99190612f95565b6001600160601b0316612319565b915080611c0381612e2c565b9150506119cd565b50600f8190556012805460ff191660019081179091556010556040517f183bed17d33ee5be9a47bb997aee6a152d84a34309cdb66f76301de0a40a138990600090a1505050505050565b6060600480546105bb90612d77565b60003381611c72828661211e565b905083811015611cd25760405162461bcd60e51b815260206004820152602560248201527f45524332303a2064656372656173656420616c6c6f77616e63652062656c6f77604482015264207a65726f60d81b6064820152608401610680565b610f6182868684036121e1565b60003361064c81858561250c565b604080516002808252606080830184529260009291906020830190803683375050600654604080516315ab88c960e31b815290519394506001600160a01b039091169263ad5c4648925060048083019260209291908290030181865afa158015611d5b573d6000803e3d6000fd5b505050506040513d601f19601f82011682018060405250810190611d7f9190612e47565b81600081518110611d9257611d92612de7565b60200260200101906001600160a01b031690816001600160a01b0316815250508281600181518110611dc657611dc6612de7565b6001600160a01b039092166020928302919091019091015292915050565b604080516002808252606080830184529260009291906020830190803683370190505090508281600081518110611e1d57611e1d612de7565b6001600160a01b03928316602091820292909201810191909152600654604080516315ab88c960e31b81529051919093169263ad5c46489260048083019391928290030181865afa158015611e76573d6000803e3d6000fd5b505050506040513d601f19601f82011682018060405250810190611e9a9190612e47565b81600181518110611dc657611dc6612de7565b600d54606090600090818167ffffffffffffffff811115611ed057611ed0612ae6565b604051908082528060200260200182016040528015611ef9578160200160208202803683370190505b509050600080611f0860025490565b11156121035760005b838110156120f8576000600d8281548110611f2e57611f2e612de7565b60009182526020822001546009546040516370a0823160e01b81526001600160a01b0391821660048201529116925082906370a0823190602401602060405180830381865afa158015611f85573d6000803e3d6000fd5b505050506040513d601f19601f82011682018060405250810190611fa99190612dfd565b601554600d80549293506000926001600160a01b039092169163afa99860919087908110611fd957611fd9612de7565b60009182526020909120015460165460405160e084901b6001600160e01b03191681526001600160a01b03928316600482015291166024820152604401602060405180830381865afa158015612033573d6000803e3d6000fd5b505050506040513d601f19601f820116820180604052508101906120579190612dfd565b905060006120658284612377565b90508087868151811061207a5761207a612de7565b602090810291909101015261208f8682612306565b9550600086116120e15760405162461bcd60e51b815260206004820152601f60248201527f73756d207072696365206973206e6f742067726561746572207468616e2030006044820152606401610680565b5050505080806120f090612e2c565b915050611f11565b509094909350915050565b50506040805160008082526020820190925294909350915050565b6001600160a01b03918216600090815260016020908152604080832093909416825291909152205490565b6005546001600160a01b031633146121735760405162461bcd60e51b815260040161068090612db2565b6001600160a01b0381166121d85760405162461bcd60e51b815260206004820152602660248201527f4f776e61626c653a206e6577206f776e657220697320746865207a65726f206160448201526564647265737360d01b6064820152608401610680565b610fb781612820565b6001600160a01b0383166122435760405162461bcd60e51b8152602060048201526024808201527f45524332303a20617070726f76652066726f6d20746865207a65726f206164646044820152637265737360e01b6064820152608401610680565b6001600160a01b0382166122a45760405162461bcd60e51b815260206004820152602260248201527f45524332303a20617070726f766520746f20746865207a65726f206164647265604482015261737360f01b6064820152608401610680565b6001600160a01b0383811660008181526001602090815260408083209487168084529482529182902085905590518481527f8c5be1e5ebec7d5bd14f71427d1e84f3dd0314c0f7b2291e5b200ac8c7c3b92591015b60405180910390a3505050565b60006123128284612e64565b9392505050565b6000806123268385612e64565b9050838110156123125760405162461bcd60e51b815260206004820152601060248201526f4552525f4144445f4f564552464c4f5760801b6044820152606401610680565b60006123128284612fbe565b60006123128284612fe0565b60008061238f60025490565b90506123b183610b27670de0b6b3a76400006123ab8886612377565b90612377565b949350505050565b6001600160a01b03821661240f5760405162461bcd60e51b815260206004820152601f60248201527f45524332303a206d696e7420746f20746865207a65726f2061646472657373006044820152606401610680565b80600260008282546124219190612e64565b90915550506001600160a01b0382166000908152602081905260408120805483929061244e908490612e64565b90915550506040518181526001600160a01b038316906000907fddf252ad1be2c89b69c2b068fc378daa952ba7f163c4a11628f55a4df523b3ef9060200160405180910390a35050565b60006124a4848461211e565b9050600019811461195a57818110156124ff5760405162461bcd60e51b815260206004820152601d60248201527f45524332303a20696e73756666696369656e7420616c6c6f77616e63650000006044820152606401610680565b61195a84848484036121e1565b6001600160a01b0383166125705760405162461bcd60e51b815260206004820152602560248201527f45524332303a207472616e736665722066726f6d20746865207a65726f206164604482015264647265737360d81b6064820152608401610680565b6001600160a01b0382166125d25760405162461bcd60e51b815260206004820152602360248201527f45524332303a207472616e7366657220746f20746865207a65726f206164647260448201526265737360e81b6064820152608401610680565b6001600160a01b0383166000908152602081905260409020548181101561264a5760405162461bcd60e51b815260206004820152602660248201527f45524332303a207472616e7366657220616d6f756e7420657863656564732062604482015265616c616e636560d01b6064820152608401610680565b6001600160a01b03808516600090815260208190526040808220858503905591851681529081208054849290612681908490612e64565b92505081905550826001600160a01b0316846001600160a01b03167fddf252ad1be2c89b69c2b068fc378daa952ba7f163c4a11628f55a4df523b3ef846040516126cd91815260200190565b60405180910390a361195a565b6001600160a01b03821661273a5760405162461bcd60e51b815260206004820152602160248201527f45524332303a206275726e2066726f6d20746865207a65726f206164647265736044820152607360f81b6064820152608401610680565b6001600160a01b038216600090815260208190526040902054818110156127ae5760405162461bcd60e51b815260206004820152602260248201527f45524332303a206275726e20616d6f756e7420657863656564732062616c616e604482015261636560f01b6064820152608401610680565b6001600160a01b03831660009081526020819052604081208383039055600280548492906127dd908490612fff565b90915550506040518281526000906001600160a01b038516907fddf252ad1be2c89b69c2b068fc378daa952ba7f163c4a11628f55a4df523b3ef906020016122f9565b600580546001600160a01b038381166001600160a01b0319831681179093556040519116919082907f8be0079c531659141344cd1fd0a4f28419497f9722a3daafe3b4186f6b6457e090600090a35050565b60006123128284612fff565b604080516001600160a01b038481166024830152604480830185905283518084039091018152606490920183526020820180516001600160e01b031663095ea7b360e01b17905291516000928392908716916128da9190613016565b6000604051808303816000865af19150503d8060008114612917576040519150601f19603f3d011682016040523d82523d6000602084013e61291c565b606091505b50915091508180156129465750805115806129465750808060200190518101906129469190612f37565b6129a65760405162461bcd60e51b815260206004820152602b60248201527f5472616e7366657248656c7065723a3a73616665417070726f76653a2061707060448201526a1c9bdd994819985a5b195960aa1b6064820152608401610680565b5050505050565b60005b838110156129c85781810151838201526020016129b0565b8381111561195a5750506000910152565b60208152600082518060208401526129f88160408501602087016129ad565b601f01601f19169190910160400192915050565b6001600160a01b0381168114610fb757600080fd5b60008060408385031215612a3457600080fd5b8235612a3f81612a0c565b946020939093013593505050565b600080600060608486031215612a6257600080fd5b8335612a6d81612a0c565b92506020840135612a7d81612a0c565b929592945050506040919091013590565b60008060408385031215612aa157600080fd5b50508035926020909101359150565b600060208284031215612ac257600080fd5b5035919050565b600060208284031215612adb57600080fd5b813561231281612a0c565b634e487b7160e01b600052604160045260246000fd5b604051601f8201601f1916810167ffffffffffffffff81118282101715612b2557612b25612ae6565b604052919050565b600067ffffffffffffffff821115612b4757612b47612ae6565b5060051b60200190565b60006020808385031215612b6457600080fd5b823567ffffffffffffffff811115612b7b57600080fd5b8301601f81018513612b8c57600080fd5b8035612b9f612b9a82612b2d565b612afc565b81815260059190911b82018301908381019087831115612bbe57600080fd5b928401925b82841015612bdc57833582529284019290840190612bc3565b979650505050505050565b60008083601f840112612bf957600080fd5b50813567ffffffffffffffff811115612c1157600080fd5b6020830191508360208260051b8501011115612c2c57600080fd5b9250929050565b60008060008060408587031215612c4957600080fd5b843567ffffffffffffffff80821115612c6157600080fd5b612c6d88838901612be7565b90965094506020870135915080821115612c8657600080fd5b50612c9387828801612be7565b95989497509550505050565b600081518084526020808501945080840160005b83811015612cd85781516001600160a01b031687529582019590820190600101612cb3565b509495945050505050565b6020815260006123126020830184612c9f565b604080825283519082018190526000906020906060840190828701845b82811015612d2f57815184529284019290840190600101612d13565b50505092019290925292915050565b60008060408385031215612d5157600080fd5b8235612d5c81612a0c565b91506020830135612d6c81612a0c565b809150509250929050565b600181811c90821680612d8b57607f821691505b60208210811415612dac57634e487b7160e01b600052602260045260246000fd5b50919050565b6020808252818101527f4f776e61626c653a2063616c6c6572206973206e6f7420746865206f776e6572604082015260600190565b634e487b7160e01b600052603260045260246000fd5b600060208284031215612e0f57600080fd5b5051919050565b634e487b7160e01b600052601160045260246000fd5b6000600019821415612e4057612e40612e16565b5060010190565b600060208284031215612e5957600080fd5b815161231281612a0c565b60008219821115612e7757612e77612e16565b500190565b848152608060208201526000612e956080830186612c9f565b6001600160a01b03949094166040830152506060015292915050565b60006020808385031215612ec457600080fd5b825167ffffffffffffffff811115612edb57600080fd5b8301601f81018513612eec57600080fd5b8051612efa612b9a82612b2d565b81815260059190911b82018301908381019087831115612f1957600080fd5b928401925b82841015612bdc57835182529284019290840190612f1e565b600060208284031215612f4957600080fd5b8151801515811461231257600080fd5b85815284602082015260a060408201526000612f7860a0830186612c9f565b6001600160a01b0394909416606083015250608001529392505050565b600060208284031215612fa757600080fd5b81356001600160601b038116811461231257600080fd5b600082612fdb57634e487b7160e01b600052601260045260246000fd5b500490565b6000816000190483118215151615612ffa57612ffa612e16565b500290565b60008282101561301157613011612e16565b500390565b600082516130288184602087016129ad565b919091019291505056fea2646970667358221220279962867ed875798661731df03841efb3f274d15924a398b078d1aa2484583064736f6c634300080a0033",
  "linkReferences": {},
  "deployedLinkReferences": {}
}