{
  "_format": "hh-sol-artifact-1",
  "contractName": "IndexSwap",
  "sourceName": "contracts/core/IndexSwap.sol",
  "abi": [
    {
      "anonymous": false,
      "inputs": [
        {
          "indexed": true,
          "internalType": "address",
          "name": "owner",
          "type": "address"
        },
        {
          "indexed": true,
          "internalType": "address",
          "name": "spender",
          "type": "address"
        },
        {
          "indexed": false,
          "internalType": "uint256",
          "name": "value",
          "type": "uint256"
        }
      ],
      "name": "Approval",
      "type": "event"
    },
    {
      "anonymous": false,
      "inputs": [
        {
          "indexed": false,
          "internalType": "uint8",
          "name": "version",
          "type": "uint8"
        }
      ],
      "name": "Initialized",
      "type": "event"
    },
    {
      "anonymous": false,
      "inputs": [],
      "name": "LOG_PUBLIC_SWAP_ENABLED",
      "type": "event"
    },
    {
      "anonymous": false,
      "inputs": [
        {
          "indexed": true,
          "internalType": "address",
          "name": "previousOwner",
          "type": "address"
        },
        {
          "indexed": true,
          "internalType": "address",
          "name": "newOwner",
          "type": "address"
        }
      ],
      "name": "OwnershipTransferred",
      "type": "event"
    },
    {
      "anonymous": false,
      "inputs": [
        {
          "indexed": true,
          "internalType": "address",
          "name": "from",
          "type": "address"
        },
        {
          "indexed": true,
          "internalType": "address",
          "name": "to",
          "type": "address"
        },
        {
          "indexed": false,
          "internalType": "uint256",
          "name": "value",
          "type": "uint256"
        }
      ],
      "name": "Transfer",
      "type": "event"
    },
    {
      "inputs": [],
      "name": "ASSET_MANAGER_ROLE",
      "outputs": [
        {
          "internalType": "bytes32",
          "name": "",
          "type": "bytes32"
        }
      ],
      "stateMutability": "view",
      "type": "function"
    },
    {
      "inputs": [],
      "name": "DEFAULT_ADMIN_ROLE",
      "outputs": [
        {
          "internalType": "bytes32",
          "name": "",
          "type": "bytes32"
        }
      ],
      "stateMutability": "view",
      "type": "function"
    },
    {
      "inputs": [],
      "name": "INDEX_MANAGER_ROLE",
      "outputs": [
        {
          "internalType": "bytes32",
          "name": "",
          "type": "bytes32"
        }
      ],
      "stateMutability": "view",
      "type": "function"
    },
    {
      "inputs": [],
      "name": "TOTAL_WEIGHT",
      "outputs": [
        {
          "internalType": "uint256",
          "name": "",
          "type": "uint256"
        }
      ],
      "stateMutability": "view",
      "type": "function"
    },
    {
      "inputs": [],
      "name": "accessController",
      "outputs": [
        {
          "internalType": "contract AccessController",
          "name": "",
          "type": "address"
        }
      ],
      "stateMutability": "view",
      "type": "function"
    },
    {
      "inputs": [
        {
          "internalType": "address",
          "name": "owner",
          "type": "address"
        },
        {
          "internalType": "address",
          "name": "spender",
          "type": "address"
        }
      ],
      "name": "allowance",
      "outputs": [
        {
          "internalType": "uint256",
          "name": "",
          "type": "uint256"
        }
      ],
      "stateMutability": "view",
      "type": "function"
    },
    {
      "inputs": [
        {
          "internalType": "address",
          "name": "spender",
          "type": "address"
        },
        {
          "internalType": "uint256",
          "name": "amount",
          "type": "uint256"
        }
      ],
      "name": "approve",
      "outputs": [
        {
          "internalType": "bool",
          "name": "",
          "type": "bool"
        }
      ],
      "stateMutability": "nonpayable",
      "type": "function"
    },
    {
      "inputs": [
        {
          "internalType": "address",
          "name": "account",
          "type": "address"
        }
      ],
      "name": "balanceOf",
      "outputs": [
        {
          "internalType": "uint256",
          "name": "",
          "type": "uint256"
        }
      ],
      "stateMutability": "view",
      "type": "function"
    },
    {
      "inputs": [
        {
          "internalType": "uint256",
          "name": "amount",
          "type": "uint256"
        }
      ],
      "name": "burn",
      "outputs": [],
      "stateMutability": "nonpayable",
      "type": "function"
    },
    {
      "inputs": [
        {
          "internalType": "address",
          "name": "account",
          "type": "address"
        },
        {
          "internalType": "uint256",
          "name": "amount",
          "type": "uint256"
        }
      ],
      "name": "burnFrom",
      "outputs": [],
      "stateMutability": "nonpayable",
      "type": "function"
    },
    {
      "inputs": [],
      "name": "decimals",
      "outputs": [
        {
          "internalType": "uint8",
          "name": "",
          "type": "uint8"
        }
      ],
      "stateMutability": "view",
      "type": "function"
    },
    {
      "inputs": [
        {
          "internalType": "address",
          "name": "spender",
          "type": "address"
        },
        {
          "internalType": "uint256",
          "name": "subtractedValue",
          "type": "uint256"
        }
      ],
      "name": "decreaseAllowance",
      "outputs": [
        {
          "internalType": "bool",
          "name": "",
          "type": "bool"
        }
      ],
      "stateMutability": "nonpayable",
      "type": "function"
    },
    {
      "inputs": [
        {
          "internalType": "address",
          "name": "t",
          "type": "address"
        }
      ],
      "name": "deleteRecord",
      "outputs": [],
      "stateMutability": "nonpayable",
      "type": "function"
    },
    {
      "inputs": [
        {
          "internalType": "address",
          "name": "_token",
          "type": "address"
        }
      ],
      "name": "getRecord",
      "outputs": [
        {
          "components": [
            {
              "internalType": "uint40",
              "name": "lastDenormUpdate",
              "type": "uint40"
            },
            {
              "internalType": "uint96",
              "name": "denorm",
              "type": "uint96"
            },
            {
              "internalType": "uint8",
              "name": "index",
              "type": "uint8"
            }
          ],
          "internalType": "struct IndexSwap.Record",
          "name": "",
          "type": "tuple"
        }
      ],
      "stateMutability": "view",
      "type": "function"
    },
    {
      "inputs": [],
      "name": "getTokens",
      "outputs": [
        {
          "internalType": "address[]",
          "name": "",
          "type": "address[]"
        }
      ],
      "stateMutability": "view",
      "type": "function"
    },
    {
      "inputs": [
        {
          "internalType": "address",
          "name": "spender",
          "type": "address"
        },
        {
          "internalType": "uint256",
          "name": "addedValue",
          "type": "uint256"
        }
      ],
      "name": "increaseAllowance",
      "outputs": [
        {
          "internalType": "bool",
          "name": "",
          "type": "bool"
        }
      ],
      "stateMutability": "nonpayable",
      "type": "function"
    },
    {
      "inputs": [],
      "name": "indexManager",
      "outputs": [
        {
          "internalType": "contract IndexManager",
          "name": "",
          "type": "address"
        }
      ],
      "stateMutability": "view",
      "type": "function"
    },
    {
      "inputs": [],
      "name": "indexPrice",
      "outputs": [
        {
          "internalType": "uint256",
          "name": "",
          "type": "uint256"
        }
      ],
      "stateMutability": "view",
      "type": "function"
    },
    {
      "inputs": [],
      "name": "indexSwapLibrary",
      "outputs": [
        {
          "internalType": "contract IndexSwapLibrary",
          "name": "",
          "type": "address"
        }
      ],
      "stateMutability": "view",
      "type": "function"
    },
    {
      "inputs": [
        {
          "internalType": "address[]",
          "name": "tokens",
          "type": "address[]"
        },
        {
          "internalType": "uint96[]",
          "name": "denorms",
          "type": "uint96[]"
        }
      ],
      "name": "init",
      "outputs": [],
      "stateMutability": "nonpayable",
      "type": "function"
    },
    {
      "inputs": [
        {
          "internalType": "string",
          "name": "_name",
          "type": "string"
        },
        {
          "internalType": "string",
          "name": "_symbol",
          "type": "string"
        },
        {
          "internalType": "address",
          "name": "_outAsset",
          "type": "address"
        },
        {
          "internalType": "address",
          "name": "_vault",
          "type": "address"
        },
        {
          "internalType": "uint256",
          "name": "_maxInvestmentAmount",
          "type": "uint256"
        },
        {
          "internalType": "contract IndexSwapLibrary",
          "name": "_indexSwapLibrary",
          "type": "address"
        },
        {
          "internalType": "contract IndexManager",
          "name": "_indexManager",
          "type": "address"
        },
        {
          "internalType": "contract AccessController",
          "name": "_accessController",
          "type": "address"
        },
        {
          "internalType": "contract TokenMetadata",
          "name": "_tokenMetadata",
          "type": "address"
        }
      ],
      "name": "initialize",
      "outputs": [],
      "stateMutability": "nonpayable",
      "type": "function"
    },
    {
      "inputs": [],
      "name": "investInFund",
      "outputs": [],
      "stateMutability": "payable",
      "type": "function"
    },
    {
      "inputs": [],
      "name": "name",
      "outputs": [
        {
          "internalType": "string",
          "name": "",
          "type": "string"
        }
      ],
      "stateMutability": "view",
      "type": "function"
    },
    {
      "inputs": [],
      "name": "outAsset",
      "outputs": [
        {
          "internalType": "address",
          "name": "",
          "type": "address"
        }
      ],
      "stateMutability": "view",
      "type": "function"
    },
    {
      "inputs": [],
      "name": "owner",
      "outputs": [
        {
          "internalType": "address",
          "name": "",
          "type": "address"
        }
      ],
      "stateMutability": "view",
      "type": "function"
    },
    {
      "inputs": [],
      "name": "paused",
      "outputs": [
        {
          "internalType": "bool",
          "name": "",
          "type": "bool"
        }
      ],
      "stateMutability": "view",
      "type": "function"
    },
    {
      "inputs": [],
      "name": "renounceOwnership",
      "outputs": [],
      "stateMutability": "nonpayable",
      "type": "function"
    },
    {
      "inputs": [
        {
          "internalType": "bool",
          "name": "_state",
          "type": "bool"
        }
      ],
      "name": "setPaused",
      "outputs": [],
      "stateMutability": "nonpayable",
      "type": "function"
    },
    {
      "inputs": [],
      "name": "symbol",
      "outputs": [
        {
          "internalType": "string",
          "name": "",
          "type": "string"
        }
      ],
      "stateMutability": "view",
      "type": "function"
    },
    {
      "inputs": [],
      "name": "tokenMetadata",
      "outputs": [
        {
          "internalType": "contract TokenMetadata",
          "name": "",
          "type": "address"
        }
      ],
      "stateMutability": "view",
      "type": "function"
    },
    {
      "inputs": [],
      "name": "totalSupply",
      "outputs": [
        {
          "internalType": "uint256",
          "name": "",
          "type": "uint256"
        }
      ],
      "stateMutability": "view",
      "type": "function"
    },
    {
      "inputs": [
        {
          "internalType": "address",
          "name": "to",
          "type": "address"
        },
        {
          "internalType": "uint256",
          "name": "amount",
          "type": "uint256"
        }
      ],
      "name": "transfer",
      "outputs": [
        {
          "internalType": "bool",
          "name": "",
          "type": "bool"
        }
      ],
      "stateMutability": "nonpayable",
      "type": "function"
    },
    {
      "inputs": [
        {
          "internalType": "address",
          "name": "from",
          "type": "address"
        },
        {
          "internalType": "address",
          "name": "to",
          "type": "address"
        },
        {
          "internalType": "uint256",
          "name": "amount",
          "type": "uint256"
        }
      ],
      "name": "transferFrom",
      "outputs": [
        {
          "internalType": "bool",
          "name": "",
          "type": "bool"
        }
      ],
      "stateMutability": "nonpayable",
      "type": "function"
    },
    {
      "inputs": [
        {
          "internalType": "address",
          "name": "newOwner",
          "type": "address"
        }
      ],
      "name": "transferOwnership",
      "outputs": [],
      "stateMutability": "nonpayable",
      "type": "function"
    },
    {
      "inputs": [
        {
          "internalType": "address[]",
          "name": "tokens",
          "type": "address[]"
        },
        {
          "internalType": "uint96[]",
          "name": "denorms",
          "type": "uint96[]"
        }
      ],
      "name": "updateRecords",
      "outputs": [],
      "stateMutability": "nonpayable",
      "type": "function"
    },
    {
      "inputs": [
        {
          "internalType": "address[]",
          "name": "tokens",
          "type": "address[]"
        }
      ],
      "name": "updateTokenList",
      "outputs": [],
      "stateMutability": "nonpayable",
      "type": "function"
    },
    {
      "inputs": [],
      "name": "vault",
      "outputs": [
        {
          "internalType": "address",
          "name": "",
          "type": "address"
        }
      ],
      "stateMutability": "view",
      "type": "function"
    },
    {
      "inputs": [
        {
          "internalType": "uint256",
          "name": "tokenAmount",
          "type": "uint256"
        }
      ],
      "name": "withdrawFund",
      "outputs": [],
      "stateMutability": "nonpayable",
      "type": "function"
    },
    {
      "stateMutability": "payable",
      "type": "receive"
    }
  ],
  "bytecode": "0x608060405234801561001057600080fd5b506132f6806100206000396000f3fe6080604052600436106102295760003560e01c806370a0823111610123578063a4b32de8116100ab578063dd62ed3e1161006f578063dd62ed3e14610746578063ed2a2f9d14610766578063f2fde38b1461077c578063f5b2cad71461079c578063fbfa77cf146107bd57600080fd5b8063a4b32de81461067b578063a9059cbb146106af578063aa6ca808146106cf578063baad96a5146106f1578063bc43cbaf1461072557600080fd5b806379cc6790116100f257806379cc6790146105d45780638da5cb5b146105f457806395d89b4114610612578063a217fddf14610627578063a457c2d71461065b57600080fd5b806370a08231146105475780637101a33e1461057d578063712aad4f1461059e578063715018a6146105bf57600080fd5b806323b872dd116101b15780635c975abb116101755780635c975abb146103ef5780635d2fbc1b14610410578063617fba041461043057806365f616b9146104ee57806368bafc0e1461052757600080fd5b806323b872dd14610353578063313ce56714610373578063395093511461038f5780633d91c7e9146103af57806342966c68146103cf57600080fd5b80630e0f2cf9116101f85780630e0f2cf9146102d257806310bace8c146102f257806316c38b3c1461031657806318160ddd1461033657806321f7e3ea1461034b57600080fd5b806306fdde0314610235578063095ea7b3146102605780630cee1725146102905780630d1f3471146102b257600080fd5b3661023057005b600080fd5b34801561024157600080fd5b5061024a6107dd565b604051610257919061295d565b60405180910390f35b34801561026c57600080fd5b5061028061027b3660046129d2565b61086f565b6040519015158152602001610257565b34801561029c57600080fd5b506102b06102ab3660046129fe565b610887565b005b3480156102be57600080fd5b506102b06102cd366004612a17565b610ec3565b3480156102de57600080fd5b506102b06102ed366004612aeb565b610f7e565b3480156102fe57600080fd5b5061030860fb5481565b604051908152602001610257565b34801561032257600080fd5b506102b0610331366004612bcf565b611124565b34801561034257600080fd5b50603554610308565b6102b06111cb565b34801561035f57600080fd5b5061028061036e366004612bec565b6115e7565b34801561037f57600080fd5b5060405160128152602001610257565b34801561039b57600080fd5b506102806103aa3660046129d2565b61160b565b3480156103bb57600080fd5b506102b06103ca366004612cc5565b61162d565b3480156103db57600080fd5b506102b06103ea3660046129fe565b6116cd565b3480156103fb57600080fd5b5060fc5461028090600160a01b900460ff1681565b34801561041c57600080fd5b506102b061042b366004612d11565b6116da565b34801561043c57600080fd5b506104b961044b366004612a17565b6040805160608082018352600080835260208084018290529284018190526001600160a01b0394909416845260fe825292829020825193840183525464ffffffffff81168452600160281b81046001600160601b031691840191909152600160881b900460ff169082015290565b60408051825164ffffffffff1681526020808401516001600160601b0316908201529181015160ff1690820152606001610257565b3480156104fa57600080fd5b506101015461050f906001600160a01b031681565b6040516001600160a01b039091168152602001610257565b34801561053357600080fd5b506102b0610542366004612e1f565b6118dc565b34801561055357600080fd5b50610308610562366004612a17565b6001600160a01b031660009081526033602052604090205490565b34801561058957600080fd5b506101005461050f906001600160a01b031681565b3480156105aa57600080fd5b506101025461050f906001600160a01b031681565b3480156105cb57600080fd5b506102b0611b5e565b3480156105e057600080fd5b506102b06105ef3660046129d2565b611b94565b34801561060057600080fd5b506097546001600160a01b031661050f565b34801561061e57600080fd5b5061024a611ba9565b34801561063357600080fd5b506103087f1effbbff9c66c5e59634f24fe842750c60d18891155c32dd155fc2d661a4c86d81565b34801561066757600080fd5b506102806106763660046129d2565b611bb8565b34801561068757600080fd5b506103087fb1fadd3142ab2ad7f1337ea4d97112bcc8337fc11ce5b20cb04ad038adf9981981565b3480156106bb57600080fd5b506102806106ca3660046129d2565b611c33565b3480156106db57600080fd5b506106e4611c41565b6040516102579190612e8b565b3480156106fd57600080fd5b506103087f1916b456004f332cd8a19679364ef4be668619658be72c17b7e86697c4ae0f1681565b34801561073157600080fd5b506101035461050f906001600160a01b031681565b34801561075257600080fd5b50610308610761366004612ed8565b611ca2565b34801561077257600080fd5b5061030861271081565b34801561078857600080fd5b506102b0610797366004612a17565b611ccd565b3480156107a857600080fd5b506101045461050f906001600160a01b031681565b3480156107c957600080fd5b5060fc5461050f906001600160a01b031681565b6060603680546107ec90612f11565b80601f016020809104026020016040519081016040528092919081815260200182805461081890612f11565b80156108655780601f1061083a57610100808354040283529160200191610865565b820191906000526020600020905b81548152906001019060200180831161084857829003601f168201915b5050505050905090565b60003361087d818585611d65565b5060019392505050565b600260c95414156108df5760405162461bcd60e51b815260206004820152601f60248201527f5265656e7472616e637947756172643a207265656e7472616e742063616c6c0060448201526064015b60405180910390fd5b600260c95560fc54600160a01b900460ff16156109395760405162461bcd60e51b815260206004820152601860248201527754686520636f6e747261637420697320706175736564202160401b60448201526064016108d6565b336000908152603360205260409020548111156109a95760405162461bcd60e51b815260206004820152602860248201527f63616c6c6572206973206e6f7420686f6c64696e6720676976656e20746f6b656044820152671b88185b5bdd5b9d60c21b60648201526084016108d6565b60006109b460355490565b90506109c03383611e89565b60005b60fd54811015610eb957600060fd82815481106109e2576109e2612f4c565b600091825260208220015461010454604051630a6e3e3f60e31b81526001600160a01b03928316600482018190529450839290911690635371f1f890602401602060405180830381865afa158015610a3e573d6000803e3d6000fd5b505050506040513d601f19601f82011682018060405250810190610a629190612f62565b6001600160a01b031614610c1d5761010260009054906101000a90046001600160a01b03166001600160a01b03166314f6c3be6040518163ffffffff1660e01b8152600401602060405180830381865afa158015610ac4573d6000803e3d6000fd5b505050506040513d601f19601f82011682018060405250810190610ae89190612f62565b6001600160a01b0316826001600160a01b031614610be95761010454604051630a6e3e3f60e31b81526001600160a01b0384811660048301526000921690635371f1f8906024015b602060405180830381865afa158015610b4d573d6000803e3d6000fd5b505050506040513d601f19601f82011682018060405250810190610b719190612f62565b60fc546040516370a0823160e01b81526001600160a01b0391821660048201529192508216906370a0823190602401602060405180830381865afa158015610bbd573d6000803e3d6000fd5b505050506040513d601f19601f82011682018060405250810190610be19190612f7f565b915050610c8e565b61010454604051630a6e3e3f60e31b81526001600160a01b0384811660048301526000921690635371f1f890602401610b30565b60fc546040516370a0823160e01b81526001600160a01b039182166004820152908316906370a0823190602401602060405180830381865afa158015610c67573d6000803e3d6000fd5b505050506040513d601f19601f82011682018060405250810190610c8b9190612f7f565b90505b6000610ca485610c9e8489611fd7565b90611fea565b905061010260009054906101000a90046001600160a01b03166001600160a01b03166314f6c3be6040518163ffffffff1660e01b8152600401602060405180830381865afa158015610cfa573d6000803e3d6000fd5b505050506040513d601f19601f82011682018060405250810190610d1e9190612f62565b6001600160a01b0316836001600160a01b03161415610daf576101025460405163317f6cf160e21b81523060048201526001600160a01b038581166024830152604482018490523360648301529091169063c5fdb3c490608401600060405180830381600087803b158015610d9257600080fd5b505af1158015610da6573d6000803e3d6000fd5b50505050610ea3565b6101025460405163317f6cf160e21b81523060048201526001600160a01b03858116602483015260448201849052909116606482018190529063c5fdb3c490608401600060405180830381600087803b158015610e0b57600080fd5b505af1158015610e1f573d6000803e3d6000fd5b505061010254604051633391d3f560e11b81526001600160a01b038781166004830152602482018690523360448301529091169250636723a7ea91506064016020604051808303816000875af1158015610e7d573d6000803e3d6000fd5b505050506040513d601f19601f82011682018060405250810190610ea19190612f7f565b505b5050508080610eb190612fae565b9150506109c3565b5050600160c95550565b6101035460405163036fa92d60e41b81523360048201526001600160a01b03909116906336fa92d090602401602060405180830381865afa158015610f0c573d6000803e3d6000fd5b505050506040513d601f19601f82011682018060405250810190610f309190612fc9565b610f4c5760405162461bcd60e51b81526004016108d690612fe6565b6001600160a01b0316600090815260fe60205260409020805471ffffffffffffffffffffffffffffffffffff19169055565b610f888989611ff6565b60fc805461010080546001600160a01b038b81166001600160a01b03199283161790925560ff899055610101805489841690831617905561010280548884169083161790556101038054878416908316811790915561010480548785169316929092179091556001600160a81b031990921690891617909155604051631e4e009160e01b81527f1916b456004f332cd8a19679364ef4be668619658be72c17b7e86697c4ae0f1660048201527f1effbbff9c66c5e59634f24fe842750c60d18891155c32dd155fc2d661a4c86d6024820152631e4e009190604401600060405180830381600087803b15801561107d57600080fd5b505af1158015611091573d6000803e3d6000fd5b505061010354604051637d41563b60e11b81527f1916b456004f332cd8a19679364ef4be668619658be72c17b7e86697c4ae0f1660048201523060248201526001600160a01b03909116925063fa82ac769150604401600060405180830381600087803b15801561110157600080fd5b505af1158015611115573d6000803e3d6000fd5b50505050505050505050505050565b6101035460405163036fa92d60e41b81523360048201526001600160a01b03909116906336fa92d090602401602060405180830381865afa15801561116d573d6000803e3d6000fd5b505050506040513d601f19601f820116820180604052508101906111919190612fc9565b6111ad5760405162461bcd60e51b81526004016108d690612fe6565b60fc8054911515600160a01b0260ff60a01b19909216919091179055565b600260c954141561121e5760405162461bcd60e51b815260206004820152601f60248201527f5265656e7472616e637947756172643a207265656e7472616e742063616c6c0060448201526064016108d6565b600260c95560fc54600160a01b900460ff16156112785760405162461bcd60e51b815260206004820152601860248201527754686520636f6e747261637420697320706175736564202160401b60448201526064016108d6565b60fd5434906112bb5760405162461bcd60e51b815260206004820152600f60248201526e1393d5081253925512505312569151608a1b60448201526064016108d6565b60ff5481111561131f5760405162461bcd60e51b815260206004820152602960248201527f416d6f756e742065786365656473206d6178696d756d20696e766573746d656e6044820152687420616d6f756e742160b81b60648201526084016108d6565b60fd546000908190818167ffffffffffffffff81111561134157611341612a34565b60405190808252806020026020018201604052801561136a578160200160208202803683370190505b50905060008267ffffffffffffffff81111561138857611388612a34565b6040519080825280602002602001820160405280156113b1578160200160208202803683370190505b5061010154604051634414727960e01b81523060048201529192506001600160a01b0316906344147279906024016000604051808303816000875af11580156113fe573d6000803e3d6000fd5b505050506040513d6000823e601f3d908101601f191682016040526114269190810190613085565b610101546040516381a79d0d60e01b81529196509192506001600160a01b03909116906381a79d0d906114639030908a9086908a906004016130cc565b600060405180830381865afa158015611480573d6000803e3d6000fd5b505050506040513d6000823e601f3d908101601f191682016040526114a89190810190613132565b91506114b48683612086565b9450858511156115215760405162461bcd60e51b815260206004820152603260248201527f616d6f756e7420616674657220736c6970706167652063616e27742062652067604482015271726561746572207468616e206265666f726560701b60648201526084016108d6565b600061152c60355490565b11156115435761153c85856122d7565b9550611547565b8495505b61155133876122fb565b604051600090339047908381818185875af1925050503d8060008114611593576040519150601f19603f3d011682016040523d82523d6000602084013e611598565b606091505b50509050806115d95760405162461bcd60e51b815260206004820152600d60248201526c1c99599d5b990819985a5b1959609a1b60448201526064016108d6565b5050600160c9555050505050565b6000336115f58582856123da565b611600858585612454565b506001949350505050565b60003361087d81858561161e8383611ca2565b6116289190613167565b611d65565b6101035460405163036fa92d60e41b81523360048201526001600160a01b03909116906336fa92d090602401602060405180830381865afa158015611676573d6000803e3d6000fd5b505050506040513d601f19601f8201168201806040525081019061169a9190612fc9565b6116b65760405162461bcd60e51b81526004016108d690612fe6565b80516116c99060fd90602084019061286f565b5050565b6116d73382611e89565b50565b6101035460405163036fa92d60e41b81523360048201526001600160a01b03909116906336fa92d090602401602060405180830381865afa158015611723573d6000803e3d6000fd5b505050506040513d601f19601f820116820180604052508101906117479190612fc9565b6117635760405162461bcd60e51b81526004016108d690612fe6565b6000805b83518110156118935760405180606001604052804264ffffffffff16815260200184838151811061179a5761179a612f4c565b60200260200101516001600160601b031681526020018260ff1681525060fe60008684815181106117cd576117cd612f4c565b6020908102919091018101516001600160a01b031682528181019290925260409081016000208351815493850151949092015160ff16600160881b0260ff60881b196001600160601b03909516600160281b026001600160881b031990941664ffffffffff909316929092179290921792909216919091179055825161187f9084908390811061185f5761185f612f4c565b60200260200101516001600160601b03168361262290919063ffffffff16565b91508061188b81612fae565b915050611767565b5061271081146118d75760405162461bcd60e51b815260206004820152600f60248201526e494e56414c49445f5745494748545360881b60448201526064016108d6565b505050565b6097546001600160a01b031633146119065760405162461bcd60e51b81526004016108d69061317f565b60fd54156119445760405162461bcd60e51b815260206004820152600b60248201526a125392551250531256915160aa1b60448201526064016108d6565b826000805b82811015611ae95760405180606001604052804264ffffffffff16815260200186868481811061197b5761197b612f4c565b905060200201602081019061199091906131b4565b6001600160601b031681526020018260ff1681525060fe60008989858181106119bb576119bb612f4c565b90506020020160208101906119d09190612a17565b6001600160a01b0316815260208082019290925260409081016000208351815493850151949092015160ff16600160881b0260ff60881b196001600160601b03909516600160281b026001600160881b031990941664ffffffffff90931692909217929092179290921691909117905560fd878783818110611a5457611a54612f4c565b9050602002016020810190611a699190612a17565b81546001810183556000928352602090922090910180546001600160a01b0319166001600160a01b03909216919091179055611ad5858583818110611ab057611ab0612f4c565b9050602002016020810190611ac591906131b4565b83906001600160601b0316612622565b915080611ae181612fae565b915050611949565b506127108114611b2d5760405162461bcd60e51b815260206004820152600f60248201526e494e56414c49445f5745494748545360881b60448201526064016108d6565b6040517f183bed17d33ee5be9a47bb997aee6a152d84a34309cdb66f76301de0a40a138990600090a1505050505050565b6097546001600160a01b03163314611b885760405162461bcd60e51b81526004016108d69061317f565b611b92600061262e565b565b611b9f8233836123da565b6116c98282611e89565b6060603780546107ec90612f11565b60003381611bc68286611ca2565b905083811015611c265760405162461bcd60e51b815260206004820152602560248201527f45524332303a2064656372656173656420616c6c6f77616e63652062656c6f77604482015264207a65726f60d81b60648201526084016108d6565b6116008286868403611d65565b60003361087d818585612454565b606060fd80548060200260200160405190810160405280929190818152602001828054801561086557602002820191906000526020600020905b81546001600160a01b03168152600190910190602001808311611c7b575050505050905090565b6001600160a01b03918216600090815260346020908152604080832093909416825291909152205490565b6097546001600160a01b03163314611cf75760405162461bcd60e51b81526004016108d69061317f565b6001600160a01b038116611d5c5760405162461bcd60e51b815260206004820152602660248201527f4f776e61626c653a206e6577206f776e657220697320746865207a65726f206160448201526564647265737360d01b60648201526084016108d6565b6116d78161262e565b6001600160a01b038316611dc75760405162461bcd60e51b8152602060048201526024808201527f45524332303a20617070726f76652066726f6d20746865207a65726f206164646044820152637265737360e01b60648201526084016108d6565b6001600160a01b038216611e285760405162461bcd60e51b815260206004820152602260248201527f45524332303a20617070726f766520746f20746865207a65726f206164647265604482015261737360f01b60648201526084016108d6565b6001600160a01b0383811660008181526034602090815260408083209487168084529482529182902085905590518481527f8c5be1e5ebec7d5bd14f71427d1e84f3dd0314c0f7b2291e5b200ac8c7c3b925910160405180910390a3505050565b6001600160a01b038216611ee95760405162461bcd60e51b815260206004820152602160248201527f45524332303a206275726e2066726f6d20746865207a65726f206164647265736044820152607360f81b60648201526084016108d6565b6001600160a01b03821660009081526033602052604090205481811015611f5d5760405162461bcd60e51b815260206004820152602260248201527f45524332303a206275726e20616d6f756e7420657863656564732062616c616e604482015261636560f01b60648201526084016108d6565b6001600160a01b0383166000908152603360205260408120838303905560358054849290611f8c9084906131cf565b90915550506040518281526000906001600160a01b038516907fddf252ad1be2c89b69c2b068fc378daa952ba7f163c4a11628f55a4df523b3ef9060200160405180910390a3505050565b6000611fe382846131e6565b9392505050565b6000611fe38284613205565b60006120026001612680565b9050801561201a576000805461ff0019166101001790555b612024838361270d565b61202c61273e565b612034612765565b61203c612794565b80156118d7576000805461ff0019169055604051600181527f7f26b83ff96e1f2b6a682f133852f6798a09c465da95921460cefb38474024989060200160405180910390a1505050565b6000805b60fd548110156122d057600060fd82815481106120a9576120a9612f4c565b60009182526020808320909101546001600160a01b031680835260fe825260408084208151606081018352905464ffffffffff811682526001600160601b03600160281b8204169482019490945260ff600160881b909404939093169083015292509061211560355490565b6121465761213f612710610c9e84602001516001600160601b03168a611fd790919063ffffffff16565b9050612163565b85848151811061215857612158612f4c565b602002602001015190505b804710156121a45760405162461bcd60e51b815260206004820152600e60248201526d3737ba1032b737bab3b41031373160911b60448201526064016108d6565b6101025460fc546040516331520f3f60e11b81526001600160a01b03868116600483015260248201859052918216604482015260009291909116906362a41e7e90849060640160206040518083038185885af1158015612208573d6000803e3d6000fd5b50505050506040513d601f19601f8201168201806040525081019061222d9190612f7f565b61010154604051635f54648560e11b81523060048201526001600160a01b038781166024830152604482018490529293506122b7929091169063bea8c90a90606401602060405180830381865afa15801561228c573d6000803e3d6000fd5b505050506040513d601f19601f820116820180604052508101906122b09190612f7f565b8790612622565b95505050505080806122c890612fae565b91505061208a565b5092915050565b6000806122e360355490565b90506122f383610c9e8684611fd7565b949350505050565b6001600160a01b0382166123515760405162461bcd60e51b815260206004820152601f60248201527f45524332303a206d696e7420746f20746865207a65726f20616464726573730060448201526064016108d6565b80603560008282546123639190613167565b90915550506001600160a01b03821660009081526033602052604081208054839290612390908490613167565b90915550506040518181526001600160a01b038316906000907fddf252ad1be2c89b69c2b068fc378daa952ba7f163c4a11628f55a4df523b3ef9060200160405180910390a35050565b60006123e68484611ca2565b9050600019811461244e57818110156124415760405162461bcd60e51b815260206004820152601d60248201527f45524332303a20696e73756666696369656e7420616c6c6f77616e636500000060448201526064016108d6565b61244e8484848403611d65565b50505050565b6001600160a01b0383166124b85760405162461bcd60e51b815260206004820152602560248201527f45524332303a207472616e736665722066726f6d20746865207a65726f206164604482015264647265737360d81b60648201526084016108d6565b6001600160a01b03821661251a5760405162461bcd60e51b815260206004820152602360248201527f45524332303a207472616e7366657220746f20746865207a65726f206164647260448201526265737360e81b60648201526084016108d6565b6001600160a01b038316600090815260336020526040902054818110156125925760405162461bcd60e51b815260206004820152602660248201527f45524332303a207472616e7366657220616d6f756e7420657863656564732062604482015265616c616e636560d01b60648201526084016108d6565b6001600160a01b038085166000908152603360205260408082208585039055918516815290812080548492906125c9908490613167565b92505081905550826001600160a01b0316846001600160a01b03167fddf252ad1be2c89b69c2b068fc378daa952ba7f163c4a11628f55a4df523b3ef8460405161261591815260200190565b60405180910390a361244e565b6000611fe38284613167565b609780546001600160a01b038381166001600160a01b0319831681179093556040519116919082907f8be0079c531659141344cd1fd0a4f28419497f9722a3daafe3b4186f6b6457e090600090a35050565b60008054610100900460ff16156126c7578160ff1660011480156126a35750303b155b6126bf5760405162461bcd60e51b81526004016108d690613227565b506000919050565b60005460ff8084169116106126ee5760405162461bcd60e51b81526004016108d690613227565b506000805460ff191660ff92909216919091179055600190565b919050565b600054610100900460ff166127345760405162461bcd60e51b81526004016108d690613275565b6116c982826127c3565b600054610100900460ff16611b925760405162461bcd60e51b81526004016108d690613275565b600054610100900460ff1661278c5760405162461bcd60e51b81526004016108d690613275565b611b92612811565b600054610100900460ff166127bb5760405162461bcd60e51b81526004016108d690613275565b611b92612841565b600054610100900460ff166127ea5760405162461bcd60e51b81526004016108d690613275565b81516127fd9060369060208501906128d4565b5080516118d79060379060208401906128d4565b600054610100900460ff166128385760405162461bcd60e51b81526004016108d690613275565b611b923361262e565b600054610100900460ff166128685760405162461bcd60e51b81526004016108d690613275565b600160c955565b8280548282559060005260206000209081019282156128c4579160200282015b828111156128c457825182546001600160a01b0319166001600160a01b0390911617825560209092019160019091019061288f565b506128d0929150612948565b5090565b8280546128e090612f11565b90600052602060002090601f01602090048101928261290257600085556128c4565b82601f1061291b57805160ff19168380011785556128c4565b828001600101855582156128c4579182015b828111156128c457825182559160200191906001019061292d565b5b808211156128d05760008155600101612949565b600060208083528351808285015260005b8181101561298a5785810183015185820160400152820161296e565b8181111561299c576000604083870101525b50601f01601f1916929092016040019392505050565b6001600160a01b03811681146116d757600080fd5b8035612708816129b2565b600080604083850312156129e557600080fd5b82356129f0816129b2565b946020939093013593505050565b600060208284031215612a1057600080fd5b5035919050565b600060208284031215612a2957600080fd5b8135611fe3816129b2565b634e487b7160e01b600052604160045260246000fd5b604051601f8201601f1916810167ffffffffffffffff81118282101715612a7357612a73612a34565b604052919050565b600082601f830112612a8c57600080fd5b813567ffffffffffffffff811115612aa657612aa6612a34565b612ab9601f8201601f1916602001612a4a565b818152846020838601011115612ace57600080fd5b816020850160208301376000918101602001919091529392505050565b60008060008060008060008060006101208a8c031215612b0a57600080fd5b893567ffffffffffffffff80821115612b2257600080fd5b612b2e8d838e01612a7b565b9a5060208c0135915080821115612b4457600080fd5b50612b518c828d01612a7b565b98505060408a0135612b62816129b2565b965060608a0135612b72816129b2565b955060808a01359450612b8760a08b016129c7565b9350612b9560c08b016129c7565b9250612ba360e08b016129c7565b9150612bb26101008b016129c7565b90509295985092959850929598565b80151581146116d757600080fd5b600060208284031215612be157600080fd5b8135611fe381612bc1565b600080600060608486031215612c0157600080fd5b8335612c0c816129b2565b92506020840135612c1c816129b2565b929592945050506040919091013590565b600067ffffffffffffffff821115612c4757612c47612a34565b5060051b60200190565b600082601f830112612c6257600080fd5b81356020612c77612c7283612c2d565b612a4a565b82815260059290921b84018101918181019086841115612c9657600080fd5b8286015b84811015612cba578035612cad816129b2565b8352918301918301612c9a565b509695505050505050565b600060208284031215612cd757600080fd5b813567ffffffffffffffff811115612cee57600080fd5b6122f384828501612c51565b80356001600160601b038116811461270857600080fd5b60008060408385031215612d2457600080fd5b823567ffffffffffffffff80821115612d3c57600080fd5b612d4886838701612c51565b9350602091508185013581811115612d5f57600080fd5b85019050601f81018613612d7257600080fd5b8035612d80612c7282612c2d565b81815260059190911b82018301908381019088831115612d9f57600080fd5b928401925b82841015612dc457612db584612cfa565b82529284019290840190612da4565b80955050505050509250929050565b60008083601f840112612de557600080fd5b50813567ffffffffffffffff811115612dfd57600080fd5b6020830191508360208260051b8501011115612e1857600080fd5b9250929050565b60008060008060408587031215612e3557600080fd5b843567ffffffffffffffff80821115612e4d57600080fd5b612e5988838901612dd3565b90965094506020870135915080821115612e7257600080fd5b50612e7f87828801612dd3565b95989497509550505050565b6020808252825182820181905260009190848201906040850190845b81811015612ecc5783516001600160a01b031683529284019291840191600101612ea7565b50909695505050505050565b60008060408385031215612eeb57600080fd5b8235612ef6816129b2565b91506020830135612f06816129b2565b809150509250929050565b600181811c90821680612f2557607f821691505b60208210811415612f4657634e487b7160e01b600052602260045260246000fd5b50919050565b634e487b7160e01b600052603260045260246000fd5b600060208284031215612f7457600080fd5b8151611fe3816129b2565b600060208284031215612f9157600080fd5b5051919050565b634e487b7160e01b600052601160045260246000fd5b6000600019821415612fc257612fc2612f98565b5060010190565b600060208284031215612fdb57600080fd5b8151611fe381612bc1565b60208082526024908201527f43616c6c6572206973206e6f7420616e20526562616c616e63657220436f6e746040820152631c9858dd60e21b606082015260800190565b600082601f83011261303b57600080fd5b8151602061304b612c7283612c2d565b82815260059290921b8401810191818101908684111561306a57600080fd5b8286015b84811015612cba578051835291830191830161306e565b6000806040838503121561309857600080fd5b825167ffffffffffffffff8111156130af57600080fd5b6130bb8582860161302a565b925050602083015190509250929050565b6001600160a01b0385168152602080820185905260806040830181905284519083018190526000918581019160a0850190845b8181101561311b578451835293830193918301916001016130ff565b505080935050505082606083015295945050505050565b60006020828403121561314457600080fd5b815167ffffffffffffffff81111561315b57600080fd5b6122f38482850161302a565b6000821982111561317a5761317a612f98565b500190565b6020808252818101527f4f776e61626c653a2063616c6c6572206973206e6f7420746865206f776e6572604082015260600190565b6000602082840312156131c657600080fd5b611fe382612cfa565b6000828210156131e1576131e1612f98565b500390565b600081600019048311821515161561320057613200612f98565b500290565b60008261322257634e487b7160e01b600052601260045260246000fd5b500490565b6020808252602e908201527f496e697469616c697a61626c653a20636f6e747261637420697320616c72656160408201526d191e481a5b9a5d1a585b1a5e995960921b606082015260800190565b6020808252602b908201527f496e697469616c697a61626c653a20636f6e7472616374206973206e6f74206960408201526a6e697469616c697a696e6760a81b60608201526080019056fea264697066735822122018a6ca863d4e0e96bd9868bd2836e518e4379486605b3f1c2dc305536172768864736f6c634300080a0033",
  "linkReferences": {},
  "deployedLinkReferences": {}
}