{
  "_format": "hh-sol-artifact-1",
  "contractName": "IndexSwap",
  "sourceName": "contracts/IndexSwap.sol",
  "abi": [
    {
      "inputs": [
        {
          "internalType": "address",
          "name": "_oracal",
          "type": "address"
        },
        {
          "internalType": "address",
          "name": "_outAssest",
          "type": "address"
        },
        {
          "internalType": "address",
          "name": "_pancakeSwapAddress",
          "type": "address"
        },
        {
          "internalType": "address",
          "name": "_vault",
          "type": "address"
        }
      ],
      "stateMutability": "nonpayable",
      "type": "constructor"
    },
    {
      "anonymous": false,
      "inputs": [
        {
          "indexed": true,
          "internalType": "address",
          "name": "owner",
          "type": "address"
        },
        {
          "indexed": true,
          "internalType": "address",
          "name": "spender",
          "type": "address"
        },
        {
          "indexed": false,
          "internalType": "uint256",
          "name": "value",
          "type": "uint256"
        }
      ],
      "name": "Approval",
      "type": "event"
    },
    {
      "anonymous": false,
      "inputs": [],
      "name": "LOG_PUBLIC_SWAP_ENABLED",
      "type": "event"
    },
    {
      "anonymous": false,
      "inputs": [
        {
          "indexed": true,
          "internalType": "address",
          "name": "previousOwner",
          "type": "address"
        },
        {
          "indexed": true,
          "internalType": "address",
          "name": "newOwner",
          "type": "address"
        }
      ],
      "name": "OwnershipTransferred",
      "type": "event"
    },
    {
      "anonymous": false,
      "inputs": [
        {
          "indexed": true,
          "internalType": "address",
          "name": "from",
          "type": "address"
        },
        {
          "indexed": true,
          "internalType": "address",
          "name": "to",
          "type": "address"
        },
        {
          "indexed": false,
          "internalType": "uint256",
          "name": "value",
          "type": "uint256"
        }
      ],
      "name": "Transfer",
      "type": "event"
    },
    {
      "inputs": [],
      "name": "VERSION_NUMBER",
      "outputs": [
        {
          "internalType": "uint256",
          "name": "",
          "type": "uint256"
        }
      ],
      "stateMutability": "view",
      "type": "function"
    },
    {
      "inputs": [
        {
          "internalType": "address",
          "name": "assetManager",
          "type": "address"
        }
      ],
      "name": "addAssetManager",
      "outputs": [],
      "stateMutability": "nonpayable",
      "type": "function"
    },
    {
      "inputs": [
        {
          "internalType": "address",
          "name": "owner",
          "type": "address"
        },
        {
          "internalType": "address",
          "name": "spender",
          "type": "address"
        }
      ],
      "name": "allowance",
      "outputs": [
        {
          "internalType": "uint256",
          "name": "",
          "type": "uint256"
        }
      ],
      "stateMutability": "view",
      "type": "function"
    },
    {
      "inputs": [
        {
          "internalType": "address",
          "name": "spender",
          "type": "address"
        },
        {
          "internalType": "uint256",
          "name": "amount",
          "type": "uint256"
        }
      ],
      "name": "approve",
      "outputs": [
        {
          "internalType": "bool",
          "name": "",
          "type": "bool"
        }
      ],
      "stateMutability": "nonpayable",
      "type": "function"
    },
    {
      "inputs": [
        {
          "internalType": "address",
          "name": "",
          "type": "address"
        }
      ],
      "name": "assetManagers",
      "outputs": [
        {
          "internalType": "bool",
          "name": "",
          "type": "bool"
        }
      ],
      "stateMutability": "view",
      "type": "function"
    },
    {
      "inputs": [
        {
          "internalType": "address",
          "name": "account",
          "type": "address"
        }
      ],
      "name": "balanceOf",
      "outputs": [
        {
          "internalType": "uint256",
          "name": "",
          "type": "uint256"
        }
      ],
      "stateMutability": "view",
      "type": "function"
    },
    {
      "inputs": [
        {
          "internalType": "uint256",
          "name": "amount",
          "type": "uint256"
        }
      ],
      "name": "burn",
      "outputs": [],
      "stateMutability": "nonpayable",
      "type": "function"
    },
    {
      "inputs": [
        {
          "internalType": "address",
          "name": "account",
          "type": "address"
        },
        {
          "internalType": "uint256",
          "name": "amount",
          "type": "uint256"
        }
      ],
      "name": "burnFrom",
      "outputs": [],
      "stateMutability": "nonpayable",
      "type": "function"
    },
    {
      "inputs": [],
      "name": "currentRate",
      "outputs": [
        {
          "internalType": "uint256",
          "name": "numerator",
          "type": "uint256"
        },
        {
          "internalType": "uint256",
          "name": "denominator",
          "type": "uint256"
        }
      ],
      "stateMutability": "view",
      "type": "function"
    },
    {
      "inputs": [],
      "name": "decimals",
      "outputs": [
        {
          "internalType": "uint8",
          "name": "",
          "type": "uint8"
        }
      ],
      "stateMutability": "view",
      "type": "function"
    },
    {
      "inputs": [
        {
          "internalType": "address",
          "name": "spender",
          "type": "address"
        },
        {
          "internalType": "uint256",
          "name": "subtractedValue",
          "type": "uint256"
        }
      ],
      "name": "decreaseAllowance",
      "outputs": [
        {
          "internalType": "bool",
          "name": "",
          "type": "bool"
        }
      ],
      "stateMutability": "nonpayable",
      "type": "function"
    },
    {
      "inputs": [],
      "name": "getETH",
      "outputs": [
        {
          "internalType": "address",
          "name": "",
          "type": "address"
        }
      ],
      "stateMutability": "view",
      "type": "function"
    },
    {
      "inputs": [
        {
          "internalType": "address",
          "name": "crypto",
          "type": "address"
        }
      ],
      "name": "getPathForETH",
      "outputs": [
        {
          "internalType": "address[]",
          "name": "",
          "type": "address[]"
        }
      ],
      "stateMutability": "view",
      "type": "function"
    },
    {
      "inputs": [
        {
          "internalType": "address",
          "name": "token",
          "type": "address"
        }
      ],
      "name": "getPathForToken",
      "outputs": [
        {
          "internalType": "address[]",
          "name": "",
          "type": "address[]"
        }
      ],
      "stateMutability": "view",
      "type": "function"
    },
    {
      "inputs": [],
      "name": "getTokenAndVaultBalance",
      "outputs": [
        {
          "internalType": "uint256[]",
          "name": "tokenXBalance",
          "type": "uint256[]"
        },
        {
          "internalType": "uint256",
          "name": "vaultValue",
          "type": "uint256"
        }
      ],
      "stateMutability": "view",
      "type": "function"
    },
    {
      "inputs": [
        {
          "internalType": "address",
          "name": "spender",
          "type": "address"
        },
        {
          "internalType": "uint256",
          "name": "addedValue",
          "type": "uint256"
        }
      ],
      "name": "increaseAllowance",
      "outputs": [
        {
          "internalType": "bool",
          "name": "",
          "type": "bool"
        }
      ],
      "stateMutability": "nonpayable",
      "type": "function"
    },
    {
      "inputs": [],
      "name": "indexPrice",
      "outputs": [
        {
          "internalType": "uint256",
          "name": "",
          "type": "uint256"
        }
      ],
      "stateMutability": "view",
      "type": "function"
    },
    {
      "inputs": [
        {
          "internalType": "address[]",
          "name": "tokens",
          "type": "address[]"
        },
        {
          "internalType": "uint96[]",
          "name": "denorms",
          "type": "uint96[]"
        }
      ],
      "name": "initialize",
      "outputs": [],
      "stateMutability": "nonpayable",
      "type": "function"
    },
    {
      "inputs": [],
      "name": "initializeDefult",
      "outputs": [],
      "stateMutability": "nonpayable",
      "type": "function"
    },
    {
      "inputs": [],
      "name": "investInFund",
      "outputs": [],
      "stateMutability": "payable",
      "type": "function"
    },
    {
      "inputs": [],
      "name": "name",
      "outputs": [
        {
          "internalType": "string",
          "name": "",
          "type": "string"
        }
      ],
      "stateMutability": "view",
      "type": "function"
    },
    {
      "inputs": [],
      "name": "owner",
      "outputs": [
        {
          "internalType": "address",
          "name": "",
          "type": "address"
        }
      ],
      "stateMutability": "view",
      "type": "function"
    },
    {
      "inputs": [],
      "name": "pancakeSwapRouter",
      "outputs": [
        {
          "internalType": "contract IUniswapV2Router02",
          "name": "",
          "type": "address"
        }
      ],
      "stateMutability": "view",
      "type": "function"
    },
    {
      "inputs": [
        {
          "internalType": "uint256[]",
          "name": "newWeights",
          "type": "uint256[]"
        }
      ],
      "name": "rebalance",
      "outputs": [],
      "stateMutability": "nonpayable",
      "type": "function"
    },
    {
      "inputs": [],
      "name": "renounceOwnership",
      "outputs": [],
      "stateMutability": "nonpayable",
      "type": "function"
    },
    {
      "inputs": [],
      "name": "symbol",
      "outputs": [
        {
          "internalType": "string",
          "name": "",
          "type": "string"
        }
      ],
      "stateMutability": "view",
      "type": "function"
    },
    {
      "inputs": [],
      "name": "totalSupply",
      "outputs": [
        {
          "internalType": "uint256",
          "name": "",
          "type": "uint256"
        }
      ],
      "stateMutability": "view",
      "type": "function"
    },
    {
      "inputs": [
        {
          "internalType": "address",
          "name": "to",
          "type": "address"
        },
        {
          "internalType": "uint256",
          "name": "amount",
          "type": "uint256"
        }
      ],
      "name": "transfer",
      "outputs": [
        {
          "internalType": "bool",
          "name": "",
          "type": "bool"
        }
      ],
      "stateMutability": "nonpayable",
      "type": "function"
    },
    {
      "inputs": [
        {
          "internalType": "address",
          "name": "from",
          "type": "address"
        },
        {
          "internalType": "address",
          "name": "to",
          "type": "address"
        },
        {
          "internalType": "uint256",
          "name": "amount",
          "type": "uint256"
        }
      ],
      "name": "transferFrom",
      "outputs": [
        {
          "internalType": "bool",
          "name": "",
          "type": "bool"
        }
      ],
      "stateMutability": "nonpayable",
      "type": "function"
    },
    {
      "inputs": [
        {
          "internalType": "address",
          "name": "newOwner",
          "type": "address"
        }
      ],
      "name": "transferOwnership",
      "outputs": [],
      "stateMutability": "nonpayable",
      "type": "function"
    },
    {
      "inputs": [
        {
          "internalType": "uint256",
          "name": "_numerator",
          "type": "uint256"
        },
        {
          "internalType": "uint256",
          "name": "_denominator",
          "type": "uint256"
        }
      ],
      "name": "updateRate",
      "outputs": [],
      "stateMutability": "nonpayable",
      "type": "function"
    },
    {
      "inputs": [
        {
          "internalType": "uint256",
          "name": "tokenAmount",
          "type": "uint256"
        }
      ],
      "name": "withdrawFromFundNew",
      "outputs": [],
      "stateMutability": "nonpayable",
      "type": "function"
    },
    {
      "stateMutability": "payable",
      "type": "receive"
    }
  ],
  "bytecode": "0x600880546001600160a01b03191673ef73e58650868f316461936a092818d5df96102e17905560c0604052737130d2a12b9bcbfae4f2634d864a1ee1ce3ead9c6080908152732170ed0880ac9a755fd29b2688956bd959f933f860a0526200006c90600a90600262000209565b5060408051808201909152600180825260208201526200009190600c90600262000266565b503480156200009f57600080fd5b50604051620035f3380380620035f3833981016040819052620000c291620003b8565b60405180604001604052806007815260200166494e4445584c5960c81b8152506040518060400160405280600381526020016209288b60eb1b81525081600390805190602001906200011692919062000307565b5080516200012c90600490602084019062000307565b5050506200014962000143620001b360201b60201c565b620001b7565b600680546001600160a01b03199081166001600160a01b039485161790915560158054821695841695909517909455600980548516918316919091179055601680549093169116179055336000908152601760205260409020805460ff1916600117905562000452565b3390565b600580546001600160a01b038381166001600160a01b0319831681179093556040519116919082907f8be0079c531659141344cd1fd0a4f28419497f9722a3daafe3b4186f6b6457e090600090a35050565b826002810192821562000254579160200282015b828111156200025457825182546001600160a01b0319166001600160a01b039091161782556020909201916001909101906200021d565b506200026292915062000384565b5090565b600183019183908215620002545791602002820160005b83821115620002c357835183826101000a8154816001600160601b03021916908360ff1602179055509260200192600c01602081600b010492830192600103026200027d565b8015620002f85782816101000a8154906001600160601b030219169055600c01602081600b01049283019260010302620002c3565b50506200026292915062000384565b828054620003159062000415565b90600052602060002090601f01602090048101928262000339576000855562000254565b82601f106200035457805160ff191683800117855562000254565b8280016001018555821562000254579182015b828111156200025457825182559160200191906001019062000367565b5b8082111562000262576000815560010162000385565b80516001600160a01b0381168114620003b357600080fd5b919050565b60008060008060808587031215620003cf57600080fd5b620003da856200039b565b9350620003ea602086016200039b565b9250620003fa604086016200039b565b91506200040a606086016200039b565b905092959194509250565b600181811c908216806200042a57607f821691505b602082108114156200044c57634e487b7160e01b600052602260045260246000fd5b50919050565b61319180620004626000396000f3fe6080604052600436106101e75760003560e01c806379cc679011610102578063a6e65ca611610095578063d2db86df11610064578063d2db86df1461057f578063dd62ed3e146105a2578063f2fde38b146105c2578063f9f8bdb7146105e257600080fd5b8063a6e65ca6146104e2578063a9059cbb14610512578063b0849c1c14610532578063ca0e7ed51461055f57600080fd5b8063955a333b116100d1578063955a333b1461046d57806395d89b411461048d578063987ea899146104a2578063a457c2d7146104c257600080fd5b806379cc6790146103fa5780638025e3031461041a57806381a8e6051461042f5780638da5cb5b1461044f57600080fd5b8063245589951161017a57806342966c681161014957806342966c681461036f57806370a082311461038f578063715018a6146103c5578063780d5710146103da57600080fd5b806324558995146102f3578063313ce56714610313578063395093511461032f578063405abb411461034f57600080fd5b806314f6c3be116101b657806314f6c3be1461028957806318160ddd146102b657806321f7e3ea146102cb57806323b872dd146102d357600080fd5b806306fdde03146101f3578063095ea7b31461021e5780630c2cd2cd1461024e57806310bace8c1461026557600080fd5b366101ee57005b600080fd5b3480156101ff57600080fd5b50610208610612565b6040516102159190612b02565b60405180910390f35b34801561022a57600080fd5b5061023e610239366004612b4a565b6106a4565b6040519015158152602001610215565b34801561025a57600080fd5b506102636106bc565b005b34801561027157600080fd5b5061027b60075481565b604051908152602001610215565b34801561029557600080fd5b5061029e610a29565b6040516001600160a01b039091168152602001610215565b3480156102c257600080fd5b5060025461027b565b610263610a9c565b3480156102df57600080fd5b5061023e6102ee366004612b76565b610fae565b3480156102ff57600080fd5b5060065461029e906001600160a01b031681565b34801561031f57600080fd5b5060405160128152602001610215565b34801561033b57600080fd5b5061023e61034a366004612b4a565b610fd2565b34801561035b57600080fd5b5061026361036a366004612bb7565b610ff4565b34801561037b57600080fd5b5061026361038a366004612bd9565b611013565b34801561039b57600080fd5b5061027b6103aa366004612bf2565b6001600160a01b031660009081526020819052604090205490565b3480156103d157600080fd5b50610263611020565b3480156103e657600080fd5b506102636103f5366004612c7a565b611056565b34801561040657600080fd5b50610263610415366004612b4a565b611768565b34801561042657600080fd5b5061027b600181565b34801561043b57600080fd5b5061026361044a366004612bd9565b611781565b34801561045b57600080fd5b506005546001600160a01b031661029e565b34801561047957600080fd5b50610263610488366004612d5c565b6119e2565b34801561049957600080fd5b50610208611cd7565b3480156104ae57600080fd5b506102636104bd366004612bf2565b611ce6565b3480156104ce57600080fd5b5061023e6104dd366004612b4a565b611d8d565b3480156104ee57600080fd5b5061023e6104fd366004612bf2565b60176020526000908152604090205460ff1681565b34801561051e57600080fd5b5061023e61052d366004612b4a565b611e08565b34801561053e57600080fd5b5061055261054d366004612bf2565b611e16565b6040516102159190612e0c565b34801561056b57600080fd5b5061055261057a366004612bf2565b611f0d565b34801561058b57600080fd5b50610594611fd6565b604051610215929190612e1f565b3480156105ae57600080fd5b5061027b6105bd366004612e67565b612247565b3480156105ce57600080fd5b506102636105dd366004612bf2565b612272565b3480156105ee57600080fd5b506013546014546105fd919082565b60408051928352602083019190915201610215565b60606003805461062190612ea0565b80601f016020809104026020016040519081016040528092919081815260200182805461064d90612ea0565b801561069a5780601f1061066f5761010080835404028352916020019161069a565b820191906000526020600020905b81548152906001019060200180831161067d57829003601f168201915b5050505050905090565b6000336106b281858561230a565b5060019392505050565b6005546001600160a01b031633146106ef5760405162461bcd60e51b81526004016106e690612edb565b60405180910390fd5b6002600080805b838110156109db576040805160c0810182526001815264ffffffffff42166020820152908101600c836002811061072f5761072f612f10565b60029182820401919006600c029054906101000a90046001600160601b03166001600160601b03168152602001600c836002811061076f5761076f612f10565b60029182820401919006600c029054906101000a90046001600160601b03166001600160601b031681526020018260ff1681526020016000815250600e6000600a84600281106107c1576107c1612f10565b01546001600160a01b0316815260208082019290925260409081016000208351815493850151928501516060860151608087015165ffffffffffff1990961692151565ffffffffff0019169290921761010064ffffffffff90951694909402939093176601000000000000600160f01b031916600160301b6001600160601b03948516026bffffffffffffffffffffffff60901b191617600160901b93909116929092029190911760ff60f01b1916600160f01b60ff9093169290920291909117815560a090910151600190910155600d600a82600281106108a5576108a5612f10565b015481546001810183556000928352602083200180546001600160a01b0319166001600160a01b03928316179055601554600d8054919092169163afa9986091859081106108f5576108f5612f10565b60009182526020909120015460165460405160e084901b6001600160e01b03191681526001600160a01b03928316600482015291166024820152604401602060405180830381865afa15801561094f573d6000803e3d6000fd5b505050506040513d601f19601f820116820180604052508101906109739190612f26565b905061097f838261242f565b92506109c584600c846002811061099857610998612f10565b60029182820401919006600c029054906101000a90046001600160601b03166001600160601b0316612442565b93505080806109d390612f55565b9150506106f6565b50600f8290556109eb8184612494565b6010556012805460ff191660011790556040517f183bed17d33ee5be9a47bb997aee6a152d84a34309cdb66f76301de0a40a138990600090a1505050565b600654604080516315ab88c960e31b815290516000926001600160a01b03169163ad5c46489160048083019260209291908290030181865afa158015610a73573d6000803e3d6000fd5b505050506040513d601f19601f82011682018060405250810190610a979190612f70565b905090565b600d5434906000908190818167ffffffffffffffff811115610ac057610ac0612c0f565b604051908082528060200260200182016040528015610ae9578160200160208202803683370190505b50905060008267ffffffffffffffff811115610b0757610b07612c0f565b604051908082528060200260200182016040528015610b30578160200160208202803683370190505b509050610b3b611fd6565b945090506000610b4a60025490565b1115610bc45760005b600d54811015610bc257610b9385610b8d89858581518110610b7757610b77612f10565b60200260200101516124a090919063ffffffff16565b90612494565b838281518110610ba557610ba5612f10565b602090810291909101015280610bba81612f55565b915050610b53565b505b6000610bd142600f612f8d565b905060005b600d54811015610e80576000600d8281548110610bf557610bf5612f10565b60009182526020808320909101546001600160a01b0316808352600e82526040808420815160c081018352815460ff8082161515835264ffffffffff610100830416968301969096526001600160601b03600160301b8204811694830194909452600160901b81049093166060820152600160f01b90920490931660808201526001929092015460a0830152925090610c8d60025490565b610cbe57610cb7600f54610b8d84604001516001600160601b03168e6124a090919063ffffffff16565b9050610cdb565b868481518110610cd057610cd0612f10565b602002602001015190505b6006546060906001600160a01b0316637ff36ab5836000610cfb88611e16565b6009546040516001600160e01b031960e087901b168152610d2c9392916001600160a01b0316908d90600401612fa5565b60006040518083038185885af1158015610d4a573d6000803e3d6000fd5b50505050506040513d6000823e601f3d908101601f19168201604052610d739190810190612fda565b601554600d80549293506000926001600160a01b039092169163afa99860919089908110610da357610da3612f10565b60009182526020909120015460165460405160e084901b6001600160e01b03191681526001600160a01b03928316600482015291166024820152604401602060405180830381865afa158015610dfd573d6000803e3d6000fd5b505050506040513d601f19601f82011682018060405250810190610e219190612f26565b9050610e66610e5f670de0b6b3a7640000610b8d85600181518110610e4857610e48612f10565b6020026020010151856124a090919063ffffffff16565b8d9061242f565b9b5050505050508080610e7890612f55565b915050610bd6565b5086861115610eec5760405162461bcd60e51b815260206004820152603260248201527f616d6f756e7420616674657220736c6970706167652063616e27742062652067604482015271726561746572207468616e206265666f726560701b60648201526084016106e6565b6000610ef760025490565b1115610f0e57610f0786866124ac565b9650610f12565b8596505b610f1c33886124e2565b604051600090339047908381818185875af1925050503d8060008114610f5e576040519150601f19603f3d011682016040523d82523d6000602084013e610f63565b606091505b5050905080610fa45760405162461bcd60e51b815260206004820152600d60248201526c1c99599d5b990819985a5b1959609a1b60448201526064016106e6565b5050505050505050565b600033610fbc8582856125c1565b610fc7858585612635565b506001949350505050565b6000336106b2818585610fe58383612247565b610fef9190612f8d565b61230a565b81610ffe57600080fd5b8061100857600080fd5b601391909155601455565b61101d3382612803565b50565b6005546001600160a01b0316331461104a5760405162461bcd60e51b81526004016106e690612edb565b6110546000612949565b565b3360009081526017602052604090205460ff1661107257600080fd5b600d5460009081908190818167ffffffffffffffff81111561109657611096612c0f565b6040519080825280602002602001820160405280156110bf578160200160208202803683370190505b50905060008267ffffffffffffffff8111156110dd576110dd612c0f565b604051908082528060200260200182016040528015611106578160200160208202803683370190505b509050611111611fd6565b94509050600061112060025490565b111561175f5760005b600d5481101561117e5761114f85610b8d612710858581518110610b7757610b77612f10565b83828151811061116157611161612f10565b60209081029190910101528061117681612f55565b915050611129565b50600061118c42600f612f8d565b905060005b600d5481101561155b578381815181106111ad576111ad612f10565b60200260200101518982815181106111c7576111c7612f10565b602002602001015110156114ce576000600d82815481106111ea576111ea612f10565b60009182526020822001546009546040516370a0823160e01b81526001600160a01b0391821660048201529116925082906370a0823190602401602060405180830381865afa158015611241573d6000803e3d6000fd5b505050506040513d601f19601f820116820180604052508101906112659190612f26565b905060006112ae8c858151811061127e5761127e612f10565b602002602001015188868151811061129857611298612f10565b602002602001015161299b90919063ffffffff16565b905060006112e28886815181106112c7576112c7612f10565b6020026020010151610b8d84866124a090919063ffffffff16565b9050600860009054906101000a90046001600160a01b03166001600160a01b03166302a3aede3083600d898154811061131d5761131d612f10565b60009182526020909120015460405160e085901b6001600160e01b03191681526001600160a01b03938416600482015260248101929092529190911660448201526064016020604051808303816000875af1158015611380573d6000803e3d6000fd5b505050506040513d601f19601f820116820180604052508101906113a49190613060565b506113dd600d86815481106113bb576113bb612f10565b6000918252602090912001546006546001600160a01b039182169116836129a7565b600654600d80546060926001600160a01b0316916318cbafe591859160009161142b91908c90811061141157611411612f10565b6000918252602090912001546001600160a01b0316611f0d565b308c6040518663ffffffff1660e01b815260040161144d959493929190613082565b6000604051808303816000875af115801561146c573d6000803e3d6000fd5b505050506040513d6000823e601f3d908101601f191682016040526114949190810190612fda565b90506114c3816001815181106114ac576114ac612f10565b60200260200101518d61242f90919063ffffffff16565b505050505050611549565b8381815181106114e0576114e0612f10565b60200260200101518982815181106114fa576114fa612f10565b6020026020010151111561154957600061153985838151811061151f5761151f612f10565b60200260200101518b848151811061129857611298612f10565b9050611545898261242f565b9850505b8061155381612f55565b915050611191565b5047955060005b8481101561175c576000600d828154811061157f5761157f612f10565b60009182526020909120015485516001600160a01b0390911691508590839081106115ac576115ac612f10565b60200260200101518a83815181106115c6576115c6612f10565b602002602001015111156117495760006116058684815181106115eb576115eb612f10565b60200260200101518c858151811061129857611298612f10565b9050600081116116575760405162461bcd60e51b815260206004820152601960248201527f776569676874206e6f742067726561746572207468616e20300000000000000060448201526064016106e6565b60008a1161169d5760405162461bcd60e51b8152602060048201526013602482015272191a5d88189e480c0b081cdd5b5dd95a59da1d606a1b60448201526064016106e6565b60006116ad8b610b8d8c856124a0565b6006549091506001600160a01b0316637ff36ab58260006116cd87611e16565b6009546040516001600160e01b031960e087901b1681526116fe9392916001600160a01b0316908c90600401612fa5565b60006040518083038185885af115801561171c573d6000803e3d6000fd5b50505050506040513d6000823e601f3d908101601f191682016040526117459190810190612fda565b5050505b508061175481612f55565b915050611562565b50505b50505050505050565b6117738233836125c1565b61177d8282612803565b5050565b336000908152602081905260409020548111156117ce5760405162461bcd60e51b815260206004820152600b60248201526a6e6f742062616c616e636560a81b60448201526064016106e6565b60006117db42600f612f8d565b905060006117e860025490565b90506117f43384612803565b60005b600d548110156119dc576000600d828154811061181657611816612f10565b60009182526020822001546009546040516370a0823160e01b81526001600160a01b0391821660048201529116925082919082906370a0823190602401602060405180830381865afa158015611870573d6000803e3d6000fd5b505050506040513d601f19601f820116820180604052508101906118949190612f26565b905060006118a686610b8d848b6124a0565b600854604051630151d76f60e11b8152306004820152602481018390526001600160a01b0387811660448301529293509116906302a3aede906064016020604051808303816000875af1158015611901573d6000803e3d6000fd5b505050506040513d601f19601f820116820180604052508101906119259190613060565b5060065461193e9085906001600160a01b0316836129a7565b6006546001600160a01b03166318cbafe582600061195b88611f0d565b338c6040518663ffffffff1660e01b815260040161197d959493929190613082565b6000604051808303816000875af115801561199c573d6000803e3d6000fd5b505050506040513d6000823e601f3d908101601f191682016040526119c49190810190612fda565b505050505080806119d490612f55565b9150506117f7565b50505050565b6005546001600160a01b03163314611a0c5760405162461bcd60e51b81526004016106e690612edb565b600d5415611a4a5760405162461bcd60e51b815260206004820152600b60248201526a125392551250531256915160aa1b60448201526064016106e6565b826000805b82811015611c8d576040805160c0810182526001815264ffffffffff42166020820152908101868684818110611a8757611a87612f10565b9050602002016020810190611a9c91906130be565b6001600160601b03168152602001868684818110611abc57611abc612f10565b9050602002016020810190611ad191906130be565b6001600160601b031681526020018260ff1681526020016000815250600e6000898985818110611b0357611b03612f10565b9050602002016020810190611b189190612bf2565b6001600160a01b0316815260208082019290925260409081016000208351815493850151928501516060860151608087015165ffffffffffff1990961692151565ffffffffff0019169290921761010064ffffffffff90951694909402939093176601000000000000600160f01b031916600160301b6001600160601b03948516026bffffffffffffffffffffffff60901b191617600160901b93909116929092029190911760ff60f01b1916600160f01b60ff9093169290920291909117815560a090910151600190910155600d878783818110611bf957611bf9612f10565b9050602002016020810190611c0e9190612bf2565b81546001810183556000928352602090922090910180546001600160a01b0319166001600160a01b03909216919091179055611c7982868684818110611c5657611c56612f10565b9050602002016020810190611c6b91906130be565b6001600160601b0316612442565b915080611c8581612f55565b915050611a4f565b50600f8190556012805460ff191660019081179091556010556040517f183bed17d33ee5be9a47bb997aee6a152d84a34309cdb66f76301de0a40a138990600090a1505050505050565b60606004805461062190612ea0565b3360009081526017602052604090205460ff16611d0257600080fd5b6001600160a01b038116611d695760405162461bcd60e51b815260206004820152602860248201527f4f776e61626c653a206e6577206d616e6167657220697320746865207a65726f604482015267206164647265737360c01b60648201526084016106e6565b6001600160a01b03166000908152601760205260409020805460ff19166001179055565b60003381611d9b8286612247565b905083811015611dfb5760405162461bcd60e51b815260206004820152602560248201527f45524332303a2064656372656173656420616c6c6f77616e63652062656c6f77604482015264207a65726f60d81b60648201526084016106e6565b610fc7828686840361230a565b6000336106b2818585612635565b604080516002808252606080830184529260009291906020830190803683375050600654604080516315ab88c960e31b815290519394506001600160a01b039091169263ad5c4648925060048083019260209291908290030181865afa158015611e84573d6000803e3d6000fd5b505050506040513d601f19601f82011682018060405250810190611ea89190612f70565b81600081518110611ebb57611ebb612f10565b60200260200101906001600160a01b031690816001600160a01b0316815250508281600181518110611eef57611eef612f10565b6001600160a01b039092166020928302919091019091015292915050565b604080516002808252606080830184529260009291906020830190803683370190505090508281600081518110611f4657611f46612f10565b6001600160a01b03928316602091820292909201810191909152600654604080516315ab88c960e31b81529051919093169263ad5c46489260048083019391928290030181865afa158015611f9f573d6000803e3d6000fd5b505050506040513d601f19601f82011682018060405250810190611fc39190612f70565b81600181518110611eef57611eef612f10565b600d54606090600090818167ffffffffffffffff811115611ff957611ff9612c0f565b604051908082528060200260200182016040528015612022578160200160208202803683370190505b50905060008061203160025490565b111561222c5760005b83811015612221576000600d828154811061205757612057612f10565b60009182526020822001546009546040516370a0823160e01b81526001600160a01b0391821660048201529116925082906370a0823190602401602060405180830381865afa1580156120ae573d6000803e3d6000fd5b505050506040513d601f19601f820116820180604052508101906120d29190612f26565b601554600d80549293506000926001600160a01b039092169163afa9986091908790811061210257612102612f10565b60009182526020909120015460165460405160e084901b6001600160e01b03191681526001600160a01b03928316600482015291166024820152604401602060405180830381865afa15801561215c573d6000803e3d6000fd5b505050506040513d601f19601f820116820180604052508101906121809190612f26565b9050600061218e82846124a0565b9050808786815181106121a3576121a3612f10565b60209081029190910101526121b8868261242f565b95506000861161220a5760405162461bcd60e51b815260206004820152601f60248201527f73756d207072696365206973206e6f742067726561746572207468616e20300060448201526064016106e6565b50505050808061221990612f55565b91505061203a565b509094909350915050565b50506040805160008082526020820190925294909350915050565b6001600160a01b03918216600090815260016020908152604080832093909416825291909152205490565b6005546001600160a01b0316331461229c5760405162461bcd60e51b81526004016106e690612edb565b6001600160a01b0381166123015760405162461bcd60e51b815260206004820152602660248201527f4f776e61626c653a206e6577206f776e657220697320746865207a65726f206160448201526564647265737360d01b60648201526084016106e6565b61101d81612949565b6001600160a01b03831661236c5760405162461bcd60e51b8152602060048201526024808201527f45524332303a20617070726f76652066726f6d20746865207a65726f206164646044820152637265737360e01b60648201526084016106e6565b6001600160a01b0382166123cd5760405162461bcd60e51b815260206004820152602260248201527f45524332303a20617070726f766520746f20746865207a65726f206164647265604482015261737360f01b60648201526084016106e6565b6001600160a01b0383811660008181526001602090815260408083209487168084529482529182902085905590518481527f8c5be1e5ebec7d5bd14f71427d1e84f3dd0314c0f7b2291e5b200ac8c7c3b92591015b60405180910390a3505050565b600061243b8284612f8d565b9392505050565b60008061244f8385612f8d565b90508381101561243b5760405162461bcd60e51b815260206004820152601060248201526f4552525f4144445f4f564552464c4f5760801b60448201526064016106e6565b600061243b82846130e7565b600061243b8284613109565b6000806124b860025490565b90506124da83610b8d670de0b6b3a76400006124d488866124a0565b906124a0565b949350505050565b6001600160a01b0382166125385760405162461bcd60e51b815260206004820152601f60248201527f45524332303a206d696e7420746f20746865207a65726f20616464726573730060448201526064016106e6565b806002600082825461254a9190612f8d565b90915550506001600160a01b03821660009081526020819052604081208054839290612577908490612f8d565b90915550506040518181526001600160a01b038316906000907fddf252ad1be2c89b69c2b068fc378daa952ba7f163c4a11628f55a4df523b3ef9060200160405180910390a35050565b60006125cd8484612247565b905060001981146119dc57818110156126285760405162461bcd60e51b815260206004820152601d60248201527f45524332303a20696e73756666696369656e7420616c6c6f77616e636500000060448201526064016106e6565b6119dc848484840361230a565b6001600160a01b0383166126995760405162461bcd60e51b815260206004820152602560248201527f45524332303a207472616e736665722066726f6d20746865207a65726f206164604482015264647265737360d81b60648201526084016106e6565b6001600160a01b0382166126fb5760405162461bcd60e51b815260206004820152602360248201527f45524332303a207472616e7366657220746f20746865207a65726f206164647260448201526265737360e81b60648201526084016106e6565b6001600160a01b038316600090815260208190526040902054818110156127735760405162461bcd60e51b815260206004820152602660248201527f45524332303a207472616e7366657220616d6f756e7420657863656564732062604482015265616c616e636560d01b60648201526084016106e6565b6001600160a01b038085166000908152602081905260408082208585039055918516815290812080548492906127aa908490612f8d565b92505081905550826001600160a01b0316846001600160a01b03167fddf252ad1be2c89b69c2b068fc378daa952ba7f163c4a11628f55a4df523b3ef846040516127f691815260200190565b60405180910390a36119dc565b6001600160a01b0382166128635760405162461bcd60e51b815260206004820152602160248201527f45524332303a206275726e2066726f6d20746865207a65726f206164647265736044820152607360f81b60648201526084016106e6565b6001600160a01b038216600090815260208190526040902054818110156128d75760405162461bcd60e51b815260206004820152602260248201527f45524332303a206275726e20616d6f756e7420657863656564732062616c616e604482015261636560f01b60648201526084016106e6565b6001600160a01b0383166000908152602081905260408120838303905560028054849290612906908490613128565b90915550506040518281526000906001600160a01b038516907fddf252ad1be2c89b69c2b068fc378daa952ba7f163c4a11628f55a4df523b3ef90602001612422565b600580546001600160a01b038381166001600160a01b0319831681179093556040519116919082907f8be0079c531659141344cd1fd0a4f28419497f9722a3daafe3b4186f6b6457e090600090a35050565b600061243b8284613128565b604080516001600160a01b038481166024830152604480830185905283518084039091018152606490920183526020820180516001600160e01b031663095ea7b360e01b1790529151600092839290871691612a03919061313f565b6000604051808303816000865af19150503d8060008114612a40576040519150601f19603f3d011682016040523d82523d6000602084013e612a45565b606091505b5091509150818015612a6f575080511580612a6f575080806020019051810190612a6f9190613060565b612acf5760405162461bcd60e51b815260206004820152602b60248201527f5472616e7366657248656c7065723a3a73616665417070726f76653a2061707060448201526a1c9bdd994819985a5b195960aa1b60648201526084016106e6565b5050505050565b60005b83811015612af1578181015183820152602001612ad9565b838111156119dc5750506000910152565b6020815260008251806020840152612b21816040850160208701612ad6565b601f01601f19169190910160400192915050565b6001600160a01b038116811461101d57600080fd5b60008060408385031215612b5d57600080fd5b8235612b6881612b35565b946020939093013593505050565b600080600060608486031215612b8b57600080fd5b8335612b9681612b35565b92506020840135612ba681612b35565b929592945050506040919091013590565b60008060408385031215612bca57600080fd5b50508035926020909101359150565b600060208284031215612beb57600080fd5b5035919050565b600060208284031215612c0457600080fd5b813561243b81612b35565b634e487b7160e01b600052604160045260246000fd5b604051601f8201601f1916810167ffffffffffffffff81118282101715612c4e57612c4e612c0f565b604052919050565b600067ffffffffffffffff821115612c7057612c70612c0f565b5060051b60200190565b60006020808385031215612c8d57600080fd5b823567ffffffffffffffff811115612ca457600080fd5b8301601f81018513612cb557600080fd5b8035612cc8612cc382612c56565b612c25565b81815260059190911b82018301908381019087831115612ce757600080fd5b928401925b82841015612d0557833582529284019290840190612cec565b979650505050505050565b60008083601f840112612d2257600080fd5b50813567ffffffffffffffff811115612d3a57600080fd5b6020830191508360208260051b8501011115612d5557600080fd5b9250929050565b60008060008060408587031215612d7257600080fd5b843567ffffffffffffffff80821115612d8a57600080fd5b612d9688838901612d10565b90965094506020870135915080821115612daf57600080fd5b50612dbc87828801612d10565b95989497509550505050565b600081518084526020808501945080840160005b83811015612e015781516001600160a01b031687529582019590820190600101612ddc565b509495945050505050565b60208152600061243b6020830184612dc8565b604080825283519082018190526000906020906060840190828701845b82811015612e5857815184529284019290840190600101612e3c565b50505092019290925292915050565b60008060408385031215612e7a57600080fd5b8235612e8581612b35565b91506020830135612e9581612b35565b809150509250929050565b600181811c90821680612eb457607f821691505b60208210811415612ed557634e487b7160e01b600052602260045260246000fd5b50919050565b6020808252818101527f4f776e61626c653a2063616c6c6572206973206e6f7420746865206f776e6572604082015260600190565b634e487b7160e01b600052603260045260246000fd5b600060208284031215612f3857600080fd5b5051919050565b634e487b7160e01b600052601160045260246000fd5b6000600019821415612f6957612f69612f3f565b5060010190565b600060208284031215612f8257600080fd5b815161243b81612b35565b60008219821115612fa057612fa0612f3f565b500190565b848152608060208201526000612fbe6080830186612dc8565b6001600160a01b03949094166040830152506060015292915050565b60006020808385031215612fed57600080fd5b825167ffffffffffffffff81111561300457600080fd5b8301601f8101851361301557600080fd5b8051613023612cc382612c56565b81815260059190911b8201830190838101908783111561304257600080fd5b928401925b82841015612d0557835182529284019290840190613047565b60006020828403121561307257600080fd5b8151801515811461243b57600080fd5b85815284602082015260a0604082015260006130a160a0830186612dc8565b6001600160a01b0394909416606083015250608001529392505050565b6000602082840312156130d057600080fd5b81356001600160601b038116811461243b57600080fd5b60008261310457634e487b7160e01b600052601260045260246000fd5b500490565b600081600019048311821515161561312357613123612f3f565b500290565b60008282101561313a5761313a612f3f565b500390565b60008251613151818460208701612ad6565b919091019291505056fea2646970667358221220a2777d94da8d1384501815d53a4ef3a462fac94516e6ce74c63b9403cd3d25e664736f6c634300080a0033",
  "linkReferences": {},
  "deployedLinkReferences": {}
}