{
  "_format": "hh-sol-artifact-1",
  "contractName": "IndexSwap",
  "sourceName": "contracts/core/IndexSwap.sol",
  "abi": [
    {
      "inputs": [
        {
          "internalType": "string",
          "name": "_name",
          "type": "string"
        },
        {
          "internalType": "string",
          "name": "_symbol",
          "type": "string"
        },
        {
          "internalType": "address",
          "name": "_outAsset",
          "type": "address"
        },
        {
          "internalType": "address",
          "name": "_vault",
          "type": "address"
        },
        {
          "internalType": "uint256",
          "name": "_maxInvestmentAmount",
          "type": "uint256"
        },
        {
          "internalType": "contract IndexSwapLibrary",
          "name": "_indexSwapLibrary",
          "type": "address"
        },
        {
          "internalType": "contract Adapter",
          "name": "_adapter",
          "type": "address"
        },
        {
          "internalType": "contract AccessController",
          "name": "_accessController",
          "type": "address"
        },
        {
          "internalType": "contract TokenMetadata",
          "name": "_tokenMetadata",
          "type": "address"
        },
        {
          "internalType": "uint256",
          "name": "_feePointBasis",
          "type": "uint256"
        },
        {
          "internalType": "address",
          "name": "_treasury",
          "type": "address"
        }
      ],
      "stateMutability": "nonpayable",
      "type": "constructor"
    },
    {
      "anonymous": false,
      "inputs": [
        {
          "indexed": true,
          "internalType": "address",
          "name": "owner",
          "type": "address"
        },
        {
          "indexed": true,
          "internalType": "address",
          "name": "spender",
          "type": "address"
        },
        {
          "indexed": false,
          "internalType": "uint256",
          "name": "value",
          "type": "uint256"
        }
      ],
      "name": "Approval",
      "type": "event"
    },
    {
      "anonymous": false,
      "inputs": [],
      "name": "LOG_PUBLIC_SWAP_ENABLED",
      "type": "event"
    },
    {
      "anonymous": false,
      "inputs": [
        {
          "indexed": true,
          "internalType": "address",
          "name": "previousOwner",
          "type": "address"
        },
        {
          "indexed": true,
          "internalType": "address",
          "name": "newOwner",
          "type": "address"
        }
      ],
      "name": "OwnershipTransferred",
      "type": "event"
    },
    {
      "anonymous": false,
      "inputs": [
        {
          "indexed": true,
          "internalType": "address",
          "name": "from",
          "type": "address"
        },
        {
          "indexed": true,
          "internalType": "address",
          "name": "to",
          "type": "address"
        },
        {
          "indexed": false,
          "internalType": "uint256",
          "name": "value",
          "type": "uint256"
        }
      ],
      "name": "Transfer",
      "type": "event"
    },
    {
      "inputs": [],
      "name": "TOTAL_WEIGHT",
      "outputs": [
        {
          "internalType": "uint256",
          "name": "",
          "type": "uint256"
        }
      ],
      "stateMutability": "view",
      "type": "function"
    },
    {
      "inputs": [],
      "name": "accessController",
      "outputs": [
        {
          "internalType": "contract AccessController",
          "name": "",
          "type": "address"
        }
      ],
      "stateMutability": "view",
      "type": "function"
    },
    {
      "inputs": [],
      "name": "adapter",
      "outputs": [
        {
          "internalType": "contract Adapter",
          "name": "",
          "type": "address"
        }
      ],
      "stateMutability": "view",
      "type": "function"
    },
    {
      "inputs": [
        {
          "internalType": "address",
          "name": "owner",
          "type": "address"
        },
        {
          "internalType": "address",
          "name": "spender",
          "type": "address"
        }
      ],
      "name": "allowance",
      "outputs": [
        {
          "internalType": "uint256",
          "name": "",
          "type": "uint256"
        }
      ],
      "stateMutability": "view",
      "type": "function"
    },
    {
      "inputs": [
        {
          "internalType": "address",
          "name": "spender",
          "type": "address"
        },
        {
          "internalType": "uint256",
          "name": "amount",
          "type": "uint256"
        }
      ],
      "name": "approve",
      "outputs": [
        {
          "internalType": "bool",
          "name": "",
          "type": "bool"
        }
      ],
      "stateMutability": "nonpayable",
      "type": "function"
    },
    {
      "inputs": [
        {
          "internalType": "address",
          "name": "account",
          "type": "address"
        }
      ],
      "name": "balanceOf",
      "outputs": [
        {
          "internalType": "uint256",
          "name": "",
          "type": "uint256"
        }
      ],
      "stateMutability": "view",
      "type": "function"
    },
    {
      "inputs": [
        {
          "internalType": "uint256",
          "name": "amount",
          "type": "uint256"
        }
      ],
      "name": "burn",
      "outputs": [],
      "stateMutability": "nonpayable",
      "type": "function"
    },
    {
      "inputs": [
        {
          "internalType": "address",
          "name": "account",
          "type": "address"
        },
        {
          "internalType": "uint256",
          "name": "amount",
          "type": "uint256"
        }
      ],
      "name": "burnFrom",
      "outputs": [],
      "stateMutability": "nonpayable",
      "type": "function"
    },
    {
      "inputs": [],
      "name": "decimals",
      "outputs": [
        {
          "internalType": "uint8",
          "name": "",
          "type": "uint8"
        }
      ],
      "stateMutability": "view",
      "type": "function"
    },
    {
      "inputs": [
        {
          "internalType": "address",
          "name": "spender",
          "type": "address"
        },
        {
          "internalType": "uint256",
          "name": "subtractedValue",
          "type": "uint256"
        }
      ],
      "name": "decreaseAllowance",
      "outputs": [
        {
          "internalType": "bool",
          "name": "",
          "type": "bool"
        }
      ],
      "stateMutability": "nonpayable",
      "type": "function"
    },
    {
      "inputs": [
        {
          "internalType": "address",
          "name": "t",
          "type": "address"
        }
      ],
      "name": "deleteRecord",
      "outputs": [],
      "stateMutability": "nonpayable",
      "type": "function"
    },
    {
      "inputs": [],
      "name": "feePointBasis",
      "outputs": [
        {
          "internalType": "uint256",
          "name": "",
          "type": "uint256"
        }
      ],
      "stateMutability": "view",
      "type": "function"
    },
    {
      "inputs": [
        {
          "internalType": "address",
          "name": "_token",
          "type": "address"
        }
      ],
      "name": "getRecord",
      "outputs": [
        {
          "components": [
            {
              "internalType": "uint40",
              "name": "lastDenormUpdate",
              "type": "uint40"
            },
            {
              "internalType": "uint96",
              "name": "denorm",
              "type": "uint96"
            },
            {
              "internalType": "uint8",
              "name": "index",
              "type": "uint8"
            }
          ],
          "internalType": "struct IndexSwap.Record",
          "name": "",
          "type": "tuple"
        }
      ],
      "stateMutability": "view",
      "type": "function"
    },
    {
      "inputs": [],
      "name": "getTokens",
      "outputs": [
        {
          "internalType": "address[]",
          "name": "",
          "type": "address[]"
        }
      ],
      "stateMutability": "view",
      "type": "function"
    },
    {
      "inputs": [
        {
          "internalType": "address",
          "name": "spender",
          "type": "address"
        },
        {
          "internalType": "uint256",
          "name": "addedValue",
          "type": "uint256"
        }
      ],
      "name": "increaseAllowance",
      "outputs": [
        {
          "internalType": "bool",
          "name": "",
          "type": "bool"
        }
      ],
      "stateMutability": "nonpayable",
      "type": "function"
    },
    {
      "inputs": [],
      "name": "indexPrice",
      "outputs": [
        {
          "internalType": "uint256",
          "name": "",
          "type": "uint256"
        }
      ],
      "stateMutability": "view",
      "type": "function"
    },
    {
      "inputs": [],
      "name": "indexSwapLibrary",
      "outputs": [
        {
          "internalType": "contract IndexSwapLibrary",
          "name": "",
          "type": "address"
        }
      ],
      "stateMutability": "view",
      "type": "function"
    },
    {
      "inputs": [
        {
          "internalType": "address[]",
          "name": "tokens",
          "type": "address[]"
        },
        {
          "internalType": "uint96[]",
          "name": "denorms",
          "type": "uint96[]"
        }
      ],
      "name": "init",
      "outputs": [],
      "stateMutability": "nonpayable",
      "type": "function"
    },
    {
      "inputs": [],
      "name": "investInFund",
      "outputs": [],
      "stateMutability": "payable",
      "type": "function"
    },
    {
      "inputs": [],
      "name": "name",
      "outputs": [
        {
          "internalType": "string",
          "name": "",
          "type": "string"
        }
      ],
      "stateMutability": "view",
      "type": "function"
    },
    {
      "inputs": [],
      "name": "outAsset",
      "outputs": [
        {
          "internalType": "address",
          "name": "",
          "type": "address"
        }
      ],
      "stateMutability": "view",
      "type": "function"
    },
    {
      "inputs": [],
      "name": "owner",
      "outputs": [
        {
          "internalType": "address",
          "name": "",
          "type": "address"
        }
      ],
      "stateMutability": "view",
      "type": "function"
    },
    {
      "inputs": [],
      "name": "paused",
      "outputs": [
        {
          "internalType": "bool",
          "name": "",
          "type": "bool"
        }
      ],
      "stateMutability": "view",
      "type": "function"
    },
    {
      "inputs": [],
      "name": "renounceOwnership",
      "outputs": [],
      "stateMutability": "nonpayable",
      "type": "function"
    },
    {
      "inputs": [
        {
          "internalType": "bool",
          "name": "_state",
          "type": "bool"
        }
      ],
      "name": "setPaused",
      "outputs": [],
      "stateMutability": "nonpayable",
      "type": "function"
    },
    {
      "inputs": [],
      "name": "symbol",
      "outputs": [
        {
          "internalType": "string",
          "name": "",
          "type": "string"
        }
      ],
      "stateMutability": "view",
      "type": "function"
    },
    {
      "inputs": [],
      "name": "tokenMetadata",
      "outputs": [
        {
          "internalType": "contract TokenMetadata",
          "name": "",
          "type": "address"
        }
      ],
      "stateMutability": "view",
      "type": "function"
    },
    {
      "inputs": [],
      "name": "totalSupply",
      "outputs": [
        {
          "internalType": "uint256",
          "name": "",
          "type": "uint256"
        }
      ],
      "stateMutability": "view",
      "type": "function"
    },
    {
      "inputs": [
        {
          "internalType": "address",
          "name": "to",
          "type": "address"
        },
        {
          "internalType": "uint256",
          "name": "amount",
          "type": "uint256"
        }
      ],
      "name": "transfer",
      "outputs": [
        {
          "internalType": "bool",
          "name": "",
          "type": "bool"
        }
      ],
      "stateMutability": "nonpayable",
      "type": "function"
    },
    {
      "inputs": [
        {
          "internalType": "address",
          "name": "from",
          "type": "address"
        },
        {
          "internalType": "address",
          "name": "to",
          "type": "address"
        },
        {
          "internalType": "uint256",
          "name": "amount",
          "type": "uint256"
        }
      ],
      "name": "transferFrom",
      "outputs": [
        {
          "internalType": "bool",
          "name": "",
          "type": "bool"
        }
      ],
      "stateMutability": "nonpayable",
      "type": "function"
    },
    {
      "inputs": [
        {
          "internalType": "address",
          "name": "newOwner",
          "type": "address"
        }
      ],
      "name": "transferOwnership",
      "outputs": [],
      "stateMutability": "nonpayable",
      "type": "function"
    },
    {
      "inputs": [],
      "name": "treasury",
      "outputs": [
        {
          "internalType": "address",
          "name": "",
          "type": "address"
        }
      ],
      "stateMutability": "view",
      "type": "function"
    },
    {
      "inputs": [
        {
          "internalType": "address[]",
          "name": "tokens",
          "type": "address[]"
        },
        {
          "internalType": "uint96[]",
          "name": "denorms",
          "type": "uint96[]"
        }
      ],
      "name": "updateRecords",
      "outputs": [],
      "stateMutability": "nonpayable",
      "type": "function"
    },
    {
      "inputs": [
        {
          "internalType": "address[]",
          "name": "tokens",
          "type": "address[]"
        }
      ],
      "name": "updateTokenList",
      "outputs": [],
      "stateMutability": "nonpayable",
      "type": "function"
    },
    {
      "inputs": [
        {
          "internalType": "address",
          "name": "_newTreasury",
          "type": "address"
        }
      ],
      "name": "updateTreasury",
      "outputs": [],
      "stateMutability": "nonpayable",
      "type": "function"
    },
    {
      "inputs": [],
      "name": "vault",
      "outputs": [
        {
          "internalType": "address",
          "name": "",
          "type": "address"
        }
      ],
      "stateMutability": "view",
      "type": "function"
    },
    {
      "inputs": [
        {
          "internalType": "uint256",
          "name": "tokenAmount",
          "type": "uint256"
        }
      ],
      "name": "withdrawFund",
      "outputs": [],
      "stateMutability": "nonpayable",
      "type": "function"
    },
    {
      "stateMutability": "payable",
      "type": "receive"
    }
  ],
  "bytecode": "0x60806040523480156200001157600080fd5b506040516200342c3803806200342c83398101604081905262000034916200037c565b8a8a8181816003908051906020019062000050929190620001ec565b50805162000066906004906020840190620001ec565b505050620000836200007d6200019660201b60201c565b6200019a565b5050600160065560088054600c80546001600160a01b038d81166001600160a01b031992831617909255600b8b9055600d80548b8416908316179055600e80548a8416908316179055600f80548984169083168117909155601080548985169084161790556001600160a81b03199093168c8316179093556011859055601280549185169190931617909155604051637d41563b60e11b81527f1916b456004f332cd8a19679364ef4be668619658be72c17b7e86697c4ae0f16600482015230602482015263fa82ac7690604401600060405180830381600087803b1580156200016c57600080fd5b505af115801562000181573d6000803e3d6000fd5b505050505050505050505050505050620004c2565b3390565b600580546001600160a01b038381166001600160a01b0319831681179093556040519116919082907f8be0079c531659141344cd1fd0a4f28419497f9722a3daafe3b4186f6b6457e090600090a35050565b828054620001fa9062000485565b90600052602060002090601f0160209004810192826200021e576000855562000269565b82601f106200023957805160ff191683800117855562000269565b8280016001018555821562000269579182015b82811115620002695782518255916020019190600101906200024c565b50620002779291506200027b565b5090565b5b808211156200027757600081556001016200027c565b634e487b7160e01b600052604160045260246000fd5b600082601f830112620002ba57600080fd5b81516001600160401b0380821115620002d757620002d762000292565b604051601f8301601f19908116603f0116810190828211818310171562000302576200030262000292565b816040528381526020925086838588010111156200031f57600080fd5b600091505b8382101562000343578582018301518183018401529082019062000324565b83821115620003555760008385830101525b9695505050505050565b80516001600160a01b03811681146200037757600080fd5b919050565b60008060008060008060008060008060006101608c8e0312156200039f57600080fd5b8b516001600160401b03811115620003b657600080fd5b620003c48e828f01620002a8565b60208e0151909c5090506001600160401b03811115620003e357600080fd5b620003f18e828f01620002a8565b9a50506200040260408d016200035f565b98506200041260608d016200035f565b975060808c015196506200042960a08d016200035f565b95506200043960c08d016200035f565b94506200044960e08d016200035f565b93506200045a6101008d016200035f565b92506101208c01519150620004736101408d016200035f565b90509295989b509295989b9093969950565b600181811c908216806200049a57607f821691505b60208210811415620004bc57634e487b7160e01b600052602260045260246000fd5b50919050565b612f5a80620004d26000396000f3fe60806040526004361061021e5760003560e01c806361d027b31161012357806395d89b41116100ab578063dd62ed3e1161006f578063dd62ed3e146106cd578063ed2a2f9d146106ed578063f2fde38b14610703578063f5b2cad714610723578063fbfa77cf1461074357600080fd5b806395d89b4114610636578063a457c2d71461064b578063a9059cbb1461066b578063aa6ca8081461068b578063bc43cbaf146106ad57600080fd5b80637101a33e116100f25780637101a33e146105a3578063715018a6146105c357806379cc6790146105d85780637f51bb1f146105f85780638da5cb5b1461061857600080fd5b806361d027b31461050d57806365f616b91461052d57806368bafc0e1461054d57806370a082311461056d57600080fd5b806321f7e3ea116101a65780633d91c7e9116101755780633d91c7e9146103ce57806342966c68146103ee5780635c975abb1461040e5780635d2fbc1b1461042f578063617fba041461044f57600080fd5b806321f7e3ea1461036a57806323b872dd14610372578063313ce5671461039257806339509351146103ae57600080fd5b80630d1f3471116101ed5780630d1f3471146102db57806310bace8c146102fb57806313cc2cde1461031f57806316c38b3c1461033557806318160ddd1461035557600080fd5b806303eadcfc1461022a57806306fdde0314610267578063095ea7b3146102895780630cee1725146102b957600080fd5b3661022557005b600080fd5b34801561023657600080fd5b50600e5461024a906001600160a01b031681565b6040516001600160a01b0390911681526020015b60405180910390f35b34801561027357600080fd5b5061027c610763565b60405161025e919061277b565b34801561029557600080fd5b506102a96102a43660046127e5565b6107f5565b604051901515815260200161025e565b3480156102c557600080fd5b506102d96102d4366004612811565b61080d565b005b3480156102e757600080fd5b506102d96102f636600461282a565b6110d8565b34801561030757600080fd5b5061031160075481565b60405190815260200161025e565b34801561032b57600080fd5b5061031160115481565b34801561034157600080fd5b506102d9610350366004612855565b611192565b34801561036157600080fd5b50600254610311565b6102d9611238565b34801561037e57600080fd5b506102a961038d366004612872565b611652565b34801561039e57600080fd5b506040516012815260200161025e565b3480156103ba57600080fd5b506102a96103c93660046127e5565b611676565b3480156103da57600080fd5b506102d96103e9366004612992565b611698565b3480156103fa57600080fd5b506102d9610409366004612811565b611737565b34801561041a57600080fd5b506008546102a990600160a01b900460ff1681565b34801561043b57600080fd5b506102d961044a3660046129e3565b611744565b34801561045b57600080fd5b506104d861046a36600461282a565b6040805160608082018352600080835260208084018290529284018190526001600160a01b03949094168452600a825292829020825193840183525464ffffffffff81168452600160281b81046001600160601b031691840191909152600160881b900460ff169082015290565b60408051825164ffffffffff1681526020808401516001600160601b0316908201529181015160ff169082015260600161025e565b34801561051957600080fd5b5060125461024a906001600160a01b031681565b34801561053957600080fd5b50600d5461024a906001600160a01b031681565b34801561055957600080fd5b506102d9610568366004612af1565b611945565b34801561057957600080fd5b5061031161058836600461282a565b6001600160a01b031660009081526020819052604090205490565b3480156105af57600080fd5b50600c5461024a906001600160a01b031681565b3480156105cf57600080fd5b506102d9611bc7565b3480156105e457600080fd5b506102d96105f33660046127e5565b611bfd565b34801561060457600080fd5b506102d961061336600461282a565b611c12565b34801561062457600080fd5b506005546001600160a01b031661024a565b34801561064257600080fd5b5061027c611cbc565b34801561065757600080fd5b506102a96106663660046127e5565b611ccb565b34801561067757600080fd5b506102a96106863660046127e5565b611d46565b34801561069757600080fd5b506106a0611d54565b60405161025e9190612b5d565b3480156106b957600080fd5b50600f5461024a906001600160a01b031681565b3480156106d957600080fd5b506103116106e8366004612baa565b611db5565b3480156106f957600080fd5b5061031161271081565b34801561070f57600080fd5b506102d961071e36600461282a565b611de0565b34801561072f57600080fd5b5060105461024a906001600160a01b031681565b34801561074f57600080fd5b5060085461024a906001600160a01b031681565b60606003805461077290612be3565b80601f016020809104026020016040519081016040528092919081815260200182805461079e90612be3565b80156107eb5780601f106107c0576101008083540402835291602001916107eb565b820191906000526020600020905b8154815290600101906020018083116107ce57829003601f168201915b5050505050905090565b600033610803818585611e78565b5060019392505050565b600260065414156108655760405162461bcd60e51b815260206004820152601f60248201527f5265656e7472616e637947756172643a207265656e7472616e742063616c6c0060448201526064015b60405180910390fd5b6002600655600854600160a01b900460ff16156108bf5760405162461bcd60e51b815260206004820152601860248201527754686520636f6e747261637420697320706175736564202160401b604482015260640161085c565b3360009081526020819052604090205481111561092f5760405162461bcd60e51b815260206004820152602860248201527f63616c6c6572206973206e6f7420686f6c64696e6720676976656e20746f6b656044820152671b88185b5bdd5b9d60c21b606482015260840161085c565b600061093a60025490565b90506109463383611f9c565b60005b6009548110156110ce57600d54600980546000926001600160a01b0316916369d70bfe913091908690811061098057610980612c1e565b600091825260209091200154600980546001600160a01b0390921691879081106109ac576109ac612c1e565b60009182526020918290200154600e5460408051630a7b61df60e11b815290516001600160a01b039384169493909216926314f6c3be926004808401938290030181865afa158015610a02573d6000803e3d6000fd5b505050506040513d601f19601f82011682018060405250810190610a269190612c34565b60405160e086901b6001600160e01b03191681526001600160a01b03948516600482015292841660248401529092169091146044820152606401602060405180830381865afa158015610a7d573d6000803e3d6000fd5b505050506040513d601f19601f82011682018060405250810190610aa19190612c51565b90506000610ab984610ab384886120ea565b906120fd565b9050600e60009054906101000a90046001600160a01b03166001600160a01b03166314f6c3be6040518163ffffffff1660e01b8152600401602060405180830381865afa158015610b0e573d6000803e3d6000fd5b505050506040513d601f19601f82011682018060405250810190610b329190612c34565b6001600160a01b031660098481548110610b4e57610b4e612c1e565b6000918252602090912001546001600160a01b03161415610f6c57601054600980546000926001600160a01b031691635371f1f89187908110610b9357610b93612c1e565b60009182526020909120015460405160e083901b6001600160e01b03191681526001600160a01b039091166004820152602401602060405180830381865afa158015610be3573d6000803e3d6000fd5b505050506040513d601f19601f82011682018060405250810190610c079190612c34565b6001600160a01b031614610dc957600e54600980546001600160a01b039092169163c5fdb3c491309187908110610c4057610c40612c1e565b600091825260209091200154600e546040516001600160e01b031960e086901b168152610c8193926001600160a01b03908116928892911690600401612c6a565b600060405180830381600087803b158015610c9b57600080fd5b505af1158015610caf573d6000803e3d6000fd5b5050600e54601054600980546001600160a01b039384169550634c3892a894509190921691635371f1f89188908110610cea57610cea612c1e565b60009182526020909120015460405160e083901b6001600160e01b03191681526001600160a01b039091166004820152602401602060405180830381865afa158015610d3a573d6000803e3d6000fd5b505050506040513d601f19601f82011682018060405250810190610d5e9190612c34565b6040516001600160e01b031960e084901b1681526001600160a01b03909116600482015260248101849052336044820152606401600060405180830381600087803b158015610dac57600080fd5b505af1158015610dc0573d6000803e3d6000fd5b505050506110b9565b600e54600980546001600160a01b039092169163c5fdb3c491309187908110610df457610df4612c1e565b6000918252602090912001546040516001600160e01b031960e085901b168152610e2f92916001600160a01b03169086903090600401612c6a565b600060405180830381600087803b158015610e4957600080fd5b505af1158015610e5d573d6000803e3d6000fd5b5050505060098381548110610e7457610e74612c1e565b600091825260209091200154604051632e1a7d4d60e01b8152600481018390526001600160a01b0390911690632e1a7d4d90602401600060405180830381600087803b158015610ec357600080fd5b505af1158015610ed7573d6000803e3d6000fd5b50506040516000925033915083908381818185875af1925050503d8060008114610f1d576040519150601f19603f3d011682016040523d82523d6000602084013e610f22565b606091505b5050905080610f665760405162461bcd60e51b815260206004820152601060248201526f2a3930b739b332b9103330b4b632b21760811b604482015260640161085c565b506110b9565b600e54600980546001600160a01b039092169163c5fdb3c491309187908110610f9757610f97612c1e565b600091825260209091200154600e546040516001600160e01b031960e086901b168152610fd893926001600160a01b03908116928892911690600401612c6a565b600060405180830381600087803b158015610ff257600080fd5b505af1158015611006573d6000803e3d6000fd5b5050600e54600980546001600160a01b039092169350636723a7ea9250908690811061103457611034612c1e565b60009182526020909120015460405160e083901b6001600160e01b03191681526001600160a01b039091166004820152602481018490523360448201526064016020604051808303816000875af1158015611093573d6000803e3d6000fd5b505050506040513d601f19601f820116820180604052508101906110b79190612c51565b505b505080806110c690612cab565b915050610949565b5050600160065550565b600f5460405163036fa92d60e41b81523360048201526001600160a01b03909116906336fa92d090602401602060405180830381865afa158015611120573d6000803e3d6000fd5b505050506040513d601f19601f820116820180604052508101906111449190612cc6565b6111605760405162461bcd60e51b815260040161085c90612ce3565b6001600160a01b03166000908152600a60205260409020805471ffffffffffffffffffffffffffffffffffff19169055565b600f5460405163036fa92d60e41b81523360048201526001600160a01b03909116906336fa92d090602401602060405180830381865afa1580156111da573d6000803e3d6000fd5b505050506040513d601f19601f820116820180604052508101906111fe9190612cc6565b61121a5760405162461bcd60e51b815260040161085c90612ce3565b60088054911515600160a01b0260ff60a01b19909216919091179055565b6002600654141561128b5760405162461bcd60e51b815260206004820152601f60248201527f5265656e7472616e637947756172643a207265656e7472616e742063616c6c00604482015260640161085c565b6002600655600854600160a01b900460ff16156112e55760405162461bcd60e51b815260206004820152601860248201527754686520636f6e747261637420697320706175736564202160401b604482015260640161085c565b60095434906113285760405162461bcd60e51b815260206004820152600f60248201526e1393d5081253925512505312569151608a1b604482015260640161085c565b600b5481111561138c5760405162461bcd60e51b815260206004820152602960248201527f416d6f756e742065786365656473206d6178696d756d20696e766573746d656e6044820152687420616d6f756e742160b81b606482015260840161085c565b6009546000908190818167ffffffffffffffff8111156113ae576113ae6128b3565b6040519080825280602002602001820160405280156113d7578160200160208202803683370190505b50905060008267ffffffffffffffff8111156113f5576113f56128b3565b60405190808252806020026020018201604052801561141e578160200160208202803683370190505b50600d54604051634414727960e01b81523060048201529192506001600160a01b0316906344147279906024016000604051808303816000875af115801561146a573d6000803e3d6000fd5b505050506040513d6000823e601f3d908101601f191682016040526114929190810190612d82565b600d546040516381a79d0d60e01b81529196509192506001600160a01b03909116906381a79d0d906114ce9030908a9086908a90600401612dc9565b600060405180830381865afa1580156114eb573d6000803e3d6000fd5b505050506040513d6000823e601f3d908101601f191682016040526115139190810190612e2f565b915061151f8683612109565b94508585111561158c5760405162461bcd60e51b815260206004820152603260248201527f616d6f756e7420616674657220736c6970706167652063616e27742062652067604482015271726561746572207468616e206265666f726560701b606482015260840161085c565b600061159760025490565b11156115ae576115a78585612358565b95506115b2565b8495505b6115bc338761237c565b604051600090339047908381818185875af1925050503d80600081146115fe576040519150601f19603f3d011682016040523d82523d6000602084013e611603565b606091505b50509050806116445760405162461bcd60e51b815260206004820152600d60248201526c1c99599d5b990819985a5b1959609a1b604482015260640161085c565b505060016006555050505050565b60003361166085828561245b565b61166b8585856124d5565b506001949350505050565b6000336108038185856116898383611db5565b6116939190612e64565b611e78565b600f5460405163036fa92d60e41b81523360048201526001600160a01b03909116906336fa92d090602401602060405180830381865afa1580156116e0573d6000803e3d6000fd5b505050506040513d601f19601f820116820180604052508101906117049190612cc6565b6117205760405162461bcd60e51b815260040161085c90612ce3565b8051611733906009906020840190612701565b5050565b6117413382611f9c565b50565b600f5460405163036fa92d60e41b81523360048201526001600160a01b03909116906336fa92d090602401602060405180830381865afa15801561178c573d6000803e3d6000fd5b505050506040513d601f19601f820116820180604052508101906117b09190612cc6565b6117cc5760405162461bcd60e51b815260040161085c90612ce3565b6000805b83518110156118fc5760405180606001604052804264ffffffffff16815260200184838151811061180357611803612c1e565b60200260200101516001600160601b031681526020018260ff16815250600a600086848151811061183657611836612c1e565b6020908102919091018101516001600160a01b031682528181019290925260409081016000208351815493850151949092015160ff16600160881b0260ff60881b196001600160601b03909516600160281b026001600160881b031990941664ffffffffff90931692909217929092179290921691909117905582516118e8908490839081106118c8576118c8612c1e565b60200260200101516001600160601b0316836126a390919063ffffffff16565b9150806118f481612cab565b9150506117d0565b5061271081146119405760405162461bcd60e51b815260206004820152600f60248201526e494e56414c49445f5745494748545360881b604482015260640161085c565b505050565b6005546001600160a01b0316331461196f5760405162461bcd60e51b815260040161085c90612e7c565b600954156119ad5760405162461bcd60e51b815260206004820152600b60248201526a125392551250531256915160aa1b604482015260640161085c565b826000805b82811015611b525760405180606001604052804264ffffffffff1681526020018686848181106119e4576119e4612c1e565b90506020020160208101906119f99190612eb1565b6001600160601b031681526020018260ff16815250600a6000898985818110611a2457611a24612c1e565b9050602002016020810190611a39919061282a565b6001600160a01b0316815260208082019290925260409081016000208351815493850151949092015160ff16600160881b0260ff60881b196001600160601b03909516600160281b026001600160881b031990941664ffffffffff9093169290921792909217929092169190911790556009878783818110611abd57611abd612c1e565b9050602002016020810190611ad2919061282a565b81546001810183556000928352602090922090910180546001600160a01b0319166001600160a01b03909216919091179055611b3e858583818110611b1957611b19612c1e565b9050602002016020810190611b2e9190612eb1565b83906001600160601b03166126a3565b915080611b4a81612cab565b9150506119b2565b506127108114611b965760405162461bcd60e51b815260206004820152600f60248201526e494e56414c49445f5745494748545360881b604482015260640161085c565b6040517f183bed17d33ee5be9a47bb997aee6a152d84a34309cdb66f76301de0a40a138990600090a1505050505050565b6005546001600160a01b03163314611bf15760405162461bcd60e51b815260040161085c90612e7c565b611bfb60006126af565b565b611c0882338361245b565b6117338282611f9c565b600f5460405163036fa92d60e41b81523360048201526001600160a01b03909116906336fa92d090602401602060405180830381865afa158015611c5a573d6000803e3d6000fd5b505050506040513d601f19601f82011682018060405250810190611c7e9190612cc6565b611c9a5760405162461bcd60e51b815260040161085c90612ce3565b601280546001600160a01b0319166001600160a01b0392909216919091179055565b60606004805461077290612be3565b60003381611cd98286611db5565b905083811015611d395760405162461bcd60e51b815260206004820152602560248201527f45524332303a2064656372656173656420616c6c6f77616e63652062656c6f77604482015264207a65726f60d81b606482015260840161085c565b61166b8286868403611e78565b6000336108038185856124d5565b606060098054806020026020016040519081016040528092919081815260200182805480156107eb57602002820191906000526020600020905b81546001600160a01b03168152600190910190602001808311611d8e575050505050905090565b6001600160a01b03918216600090815260016020908152604080832093909416825291909152205490565b6005546001600160a01b03163314611e0a5760405162461bcd60e51b815260040161085c90612e7c565b6001600160a01b038116611e6f5760405162461bcd60e51b815260206004820152602660248201527f4f776e61626c653a206e6577206f776e657220697320746865207a65726f206160448201526564647265737360d01b606482015260840161085c565b611741816126af565b6001600160a01b038316611eda5760405162461bcd60e51b8152602060048201526024808201527f45524332303a20617070726f76652066726f6d20746865207a65726f206164646044820152637265737360e01b606482015260840161085c565b6001600160a01b038216611f3b5760405162461bcd60e51b815260206004820152602260248201527f45524332303a20617070726f766520746f20746865207a65726f206164647265604482015261737360f01b606482015260840161085c565b6001600160a01b0383811660008181526001602090815260408083209487168084529482529182902085905590518481527f8c5be1e5ebec7d5bd14f71427d1e84f3dd0314c0f7b2291e5b200ac8c7c3b925910160405180910390a3505050565b6001600160a01b038216611ffc5760405162461bcd60e51b815260206004820152602160248201527f45524332303a206275726e2066726f6d20746865207a65726f206164647265736044820152607360f81b606482015260840161085c565b6001600160a01b038216600090815260208190526040902054818110156120705760405162461bcd60e51b815260206004820152602260248201527f45524332303a206275726e20616d6f756e7420657863656564732062616c616e604482015261636560f01b606482015260840161085c565b6001600160a01b038316600090815260208190526040812083830390556002805484929061209f908490612ecc565b90915550506040518281526000906001600160a01b038516907fddf252ad1be2c89b69c2b068fc378daa952ba7f163c4a11628f55a4df523b3ef9060200160405180910390a3505050565b60006120f68284612ee3565b9392505050565b60006120f68284612f02565b6000805b6009548110156123515760006009828154811061212c5761212c612c1e565b60009182526020808320909101546001600160a01b0316808352600a825260408084208151606081018352905464ffffffffff811682526001600160601b03600160281b8204169482019490945260ff600160881b909404939093169083015292509061219860025490565b6121c9576121c2612710610ab384602001516001600160601b03168a6120ea90919063ffffffff16565b90506121e6565b8584815181106121db576121db612c1e565b602002602001015190505b804710156122275760405162461bcd60e51b815260206004820152600e60248201526d3737ba1032b737bab3b41031373160911b604482015260640161085c565b600e546008546040516331520f3f60e11b81526001600160a01b03868116600483015260248201859052918216604482015260009291909116906362a41e7e90849060640160206040518083038185885af115801561228a573d6000803e3d6000fd5b50505050506040513d601f19601f820116820180604052508101906122af9190612c51565b600d54604051635f54648560e11b81523060048201526001600160a01b03878116602483015260448201849052929350612338929091169063bea8c90a90606401602060405180830381865afa15801561230d573d6000803e3d6000fd5b505050506040513d601f19601f820116820180604052508101906123319190612c51565b87906126a3565b955050505050808061234990612cab565b91505061210d565b5092915050565b60008061236460025490565b905061237483610ab386846120ea565b949350505050565b6001600160a01b0382166123d25760405162461bcd60e51b815260206004820152601f60248201527f45524332303a206d696e7420746f20746865207a65726f206164647265737300604482015260640161085c565b80600260008282546123e49190612e64565b90915550506001600160a01b03821660009081526020819052604081208054839290612411908490612e64565b90915550506040518181526001600160a01b038316906000907fddf252ad1be2c89b69c2b068fc378daa952ba7f163c4a11628f55a4df523b3ef9060200160405180910390a35050565b60006124678484611db5565b905060001981146124cf57818110156124c25760405162461bcd60e51b815260206004820152601d60248201527f45524332303a20696e73756666696369656e7420616c6c6f77616e6365000000604482015260640161085c565b6124cf8484848403611e78565b50505050565b6001600160a01b0383166125395760405162461bcd60e51b815260206004820152602560248201527f45524332303a207472616e736665722066726f6d20746865207a65726f206164604482015264647265737360d81b606482015260840161085c565b6001600160a01b03821661259b5760405162461bcd60e51b815260206004820152602360248201527f45524332303a207472616e7366657220746f20746865207a65726f206164647260448201526265737360e81b606482015260840161085c565b6001600160a01b038316600090815260208190526040902054818110156126135760405162461bcd60e51b815260206004820152602660248201527f45524332303a207472616e7366657220616d6f756e7420657863656564732062604482015265616c616e636560d01b606482015260840161085c565b6001600160a01b0380851660009081526020819052604080822085850390559185168152908120805484929061264a908490612e64565b92505081905550826001600160a01b0316846001600160a01b03167fddf252ad1be2c89b69c2b068fc378daa952ba7f163c4a11628f55a4df523b3ef8460405161269691815260200190565b60405180910390a36124cf565b60006120f68284612e64565b600580546001600160a01b038381166001600160a01b0319831681179093556040519116919082907f8be0079c531659141344cd1fd0a4f28419497f9722a3daafe3b4186f6b6457e090600090a35050565b828054828255906000526020600020908101928215612756579160200282015b8281111561275657825182546001600160a01b0319166001600160a01b03909116178255602090920191600190910190612721565b50612762929150612766565b5090565b5b808211156127625760008155600101612767565b600060208083528351808285015260005b818110156127a85785810183015185820160400152820161278c565b818111156127ba576000604083870101525b50601f01601f1916929092016040019392505050565b6001600160a01b038116811461174157600080fd5b600080604083850312156127f857600080fd5b8235612803816127d0565b946020939093013593505050565b60006020828403121561282357600080fd5b5035919050565b60006020828403121561283c57600080fd5b81356120f6816127d0565b801515811461174157600080fd5b60006020828403121561286757600080fd5b81356120f681612847565b60008060006060848603121561288757600080fd5b8335612892816127d0565b925060208401356128a2816127d0565b929592945050506040919091013590565b634e487b7160e01b600052604160045260246000fd5b604051601f8201601f1916810167ffffffffffffffff811182821017156128f2576128f26128b3565b604052919050565b600067ffffffffffffffff821115612914576129146128b3565b5060051b60200190565b600082601f83011261292f57600080fd5b8135602061294461293f836128fa565b6128c9565b82815260059290921b8401810191818101908684111561296357600080fd5b8286015b8481101561298757803561297a816127d0565b8352918301918301612967565b509695505050505050565b6000602082840312156129a457600080fd5b813567ffffffffffffffff8111156129bb57600080fd5b6123748482850161291e565b80356001600160601b03811681146129de57600080fd5b919050565b600080604083850312156129f657600080fd5b823567ffffffffffffffff80821115612a0e57600080fd5b612a1a8683870161291e565b9350602091508185013581811115612a3157600080fd5b85019050601f81018613612a4457600080fd5b8035612a5261293f826128fa565b81815260059190911b82018301908381019088831115612a7157600080fd5b928401925b82841015612a9657612a87846129c7565b82529284019290840190612a76565b80955050505050509250929050565b60008083601f840112612ab757600080fd5b50813567ffffffffffffffff811115612acf57600080fd5b6020830191508360208260051b8501011115612aea57600080fd5b9250929050565b60008060008060408587031215612b0757600080fd5b843567ffffffffffffffff80821115612b1f57600080fd5b612b2b88838901612aa5565b90965094506020870135915080821115612b4457600080fd5b50612b5187828801612aa5565b95989497509550505050565b6020808252825182820181905260009190848201906040850190845b81811015612b9e5783516001600160a01b031683529284019291840191600101612b79565b50909695505050505050565b60008060408385031215612bbd57600080fd5b8235612bc8816127d0565b91506020830135612bd8816127d0565b809150509250929050565b600181811c90821680612bf757607f821691505b60208210811415612c1857634e487b7160e01b600052602260045260246000fd5b50919050565b634e487b7160e01b600052603260045260246000fd5b600060208284031215612c4657600080fd5b81516120f6816127d0565b600060208284031215612c6357600080fd5b5051919050565b6001600160a01b03948516815292841660208401526040830191909152909116606082015260800190565b634e487b7160e01b600052601160045260246000fd5b6000600019821415612cbf57612cbf612c95565b5060010190565b600060208284031215612cd857600080fd5b81516120f681612847565b60208082526024908201527f43616c6c6572206973206e6f7420616e20526562616c616e63657220436f6e746040820152631c9858dd60e21b606082015260800190565b600082601f830112612d3857600080fd5b81516020612d4861293f836128fa565b82815260059290921b84018101918181019086841115612d6757600080fd5b8286015b848110156129875780518352918301918301612d6b565b60008060408385031215612d9557600080fd5b825167ffffffffffffffff811115612dac57600080fd5b612db885828601612d27565b925050602083015190509250929050565b6001600160a01b0385168152602080820185905260806040830181905284519083018190526000918581019160a0850190845b81811015612e1857845183529383019391830191600101612dfc565b505080935050505082606083015295945050505050565b600060208284031215612e4157600080fd5b815167ffffffffffffffff811115612e5857600080fd5b61237484828501612d27565b60008219821115612e7757612e77612c95565b500190565b6020808252818101527f4f776e61626c653a2063616c6c6572206973206e6f7420746865206f776e6572604082015260600190565b600060208284031215612ec357600080fd5b6120f6826129c7565b600082821015612ede57612ede612c95565b500390565b6000816000190483118215151615612efd57612efd612c95565b500290565b600082612f1f57634e487b7160e01b600052601260045260246000fd5b50049056fea264697066735822122075cd680a28e3d6c4f18ed150e95adfb6d487dcbc2c9eddae18eb02eee2d7457464736f6c634300080a0033",
  "linkReferences": {},
  "deployedLinkReferences": {}
}