{
  "contractName": "LiquidityPool",
  "abi": [
    {
      "inputs": [],
      "stateMutability": "nonpayable",
      "type": "constructor"
    },
    {
      "inputs": [],
      "name": "deFiToken1",
      "outputs": [
        {
          "internalType": "contract DeFiToken",
          "name": "",
          "type": "address"
        }
      ],
      "stateMutability": "view",
      "type": "function"
    },
    {
      "inputs": [],
      "name": "deFiToken2",
      "outputs": [
        {
          "internalType": "contract DeFiToken",
          "name": "",
          "type": "address"
        }
      ],
      "stateMutability": "view",
      "type": "function"
    },
    {
      "inputs": [],
      "name": "deFiToken3",
      "outputs": [
        {
          "internalType": "contract DeFiToken",
          "name": "",
          "type": "address"
        }
      ],
      "stateMutability": "view",
      "type": "function"
    },
    {
      "inputs": [],
      "name": "deFiToken4",
      "outputs": [
        {
          "internalType": "contract DeFiToken",
          "name": "",
          "type": "address"
        }
      ],
      "stateMutability": "view",
      "type": "function"
    },
    {
      "inputs": [],
      "name": "deFiToken5",
      "outputs": [
        {
          "internalType": "contract DeFiToken",
          "name": "",
          "type": "address"
        }
      ],
      "stateMutability": "view",
      "type": "function"
    },
    {
      "inputs": [],
      "name": "nftToken1",
      "outputs": [
        {
          "internalType": "contract NFTToken",
          "name": "",
          "type": "address"
        }
      ],
      "stateMutability": "view",
      "type": "function"
    },
    {
      "inputs": [],
      "name": "nftToken2",
      "outputs": [
        {
          "internalType": "contract NFTToken",
          "name": "",
          "type": "address"
        }
      ],
      "stateMutability": "view",
      "type": "function"
    },
    {
      "inputs": [],
      "name": "nftToken3",
      "outputs": [
        {
          "internalType": "contract NFTToken",
          "name": "",
          "type": "address"
        }
      ],
      "stateMutability": "view",
      "type": "function"
    },
    {
      "inputs": [],
      "name": "nftToken4",
      "outputs": [
        {
          "internalType": "contract NFTToken",
          "name": "",
          "type": "address"
        }
      ],
      "stateMutability": "view",
      "type": "function"
    },
    {
      "inputs": [],
      "name": "nftToken5",
      "outputs": [
        {
          "internalType": "contract NFTToken",
          "name": "",
          "type": "address"
        }
      ],
      "stateMutability": "view",
      "type": "function"
    },
    {
      "inputs": [
        {
          "internalType": "uint256",
          "name": "amount",
          "type": "uint256"
        }
      ],
      "name": "mintDeFi",
      "outputs": [],
      "stateMutability": "nonpayable",
      "type": "function"
    },
    {
      "inputs": [
        {
          "internalType": "uint256",
          "name": "amount",
          "type": "uint256"
        }
      ],
      "name": "mintNFT",
      "outputs": [],
      "stateMutability": "nonpayable",
      "type": "function"
    },
    {
      "inputs": [],
      "name": "getDeFiBalance",
      "outputs": [
        {
          "internalType": "uint256",
          "name": "",
          "type": "uint256"
        }
      ],
      "stateMutability": "view",
      "type": "function"
    },
    {
      "inputs": [],
      "name": "getNFTBalance",
      "outputs": [
        {
          "internalType": "uint256",
          "name": "",
          "type": "uint256"
        }
      ],
      "stateMutability": "view",
      "type": "function"
    }
  ],
  "bytecode": "0x608060405234801561001057600080fd5b50736725f303b657a9451d8ba641348b6761a6cc7a176000806101000a81548173ffffffffffffffffffffffffffffffffffffffff021916908373ffffffffffffffffffffffffffffffffffffffff16021790555073d99d1c33f9fc3444f8101754abc46c52416550d1600160006101000a81548173ffffffffffffffffffffffffffffffffffffffff021916908373ffffffffffffffffffffffffffffffffffffffff1602179055507376adfdebf139229a0eb68ff20eedfe52137c9a5c600760006101000a81548173ffffffffffffffffffffffffffffffffffffffff021916908373ffffffffffffffffffffffffffffffffffffffff16021790555073b3a1e1f069fbb36a108d941de6155b92ed0f373a600860006101000a81548173ffffffffffffffffffffffffffffffffffffffff021916908373ffffffffffffffffffffffffffffffffffffffff160217905550739eae6f63e65380c9d536006a1bc46590cf00947a600960006101000a81548173ffffffffffffffffffffffffffffffffffffffff021916908373ffffffffffffffffffffffffffffffffffffffff160217905550731b5faa45da485f0606739738316f7d6060b9c1a6600a60006101000a81548173ffffffffffffffffffffffffffffffffffffffff021916908373ffffffffffffffffffffffffffffffffffffffff160217905550732f20638fbaf9052347f5ac1bdf10b56a6ef2eaf0600b60006101000a81548173ffffffffffffffffffffffffffffffffffffffff021916908373ffffffffffffffffffffffffffffffffffffffff16021790555073db869db63134f187226cb15d89d8c73d4f1e165f600260006101000a81548173ffffffffffffffffffffffffffffffffffffffff021916908373ffffffffffffffffffffffffffffffffffffffff16021790555073be330afb7c70f9093772478acffae8816166148b600360006101000a81548173ffffffffffffffffffffffffffffffffffffffff021916908373ffffffffffffffffffffffffffffffffffffffff16021790555073174c156683a8cb6a68ac12ce0e6a6963e32a0718600460006101000a81548173ffffffffffffffffffffffffffffffffffffffff021916908373ffffffffffffffffffffffffffffffffffffffff160217905550732ac80247c9e99b8452cc8110e21e9a62f8b36f7d600560006101000a81548173ffffffffffffffffffffffffffffffffffffffff021916908373ffffffffffffffffffffffffffffffffffffffff16021790555073042518d25dc5e12675ef09ce173ef129cc781e79600660006101000a81548173ffffffffffffffffffffffffffffffffffffffff021916908373ffffffffffffffffffffffffffffffffffffffff160217905550610d298061041b6000396000f3fe608060405234801561001057600080fd5b50600436106100ea5760003560e01c806375fdddd91161008c5780639264274411610066578063926427441461021b578063bf80844814610237578063e58ae63b14610255578063f6a1f67014610271576100ea565b806375fdddd9146101c15780638d42cb4f146101df57806392133e3a146101fd576100ea565b8063399e7471116100c8578063399e7471146101495780633bc0d57f1461016757806346336b421461018557806355e2051e146101a3576100ea565b806306c15817146100ef578063114138431461010d57806316d1d3871461012b575b600080fd5b6100f761028f565b6040516101049190610c22565b60405180910390f35b6101156102b5565b6040516101229190610c3d565b60405180910390f35b610133610367565b6040516101409190610c07565b60405180910390f35b61015161038d565b60405161015e9190610c22565b60405180910390f35b61016f6103b3565b60405161017c9190610c07565b60405180910390f35b61018d6103d9565b60405161019a9190610c07565b60405180910390f35b6101ab6103ff565b6040516101b89190610c22565b60405180910390f35b6101c9610425565b6040516101d69190610c3d565b60405180910390f35b6101e76104d7565b6040516101f49190610c22565b60405180910390f35b6102056104fd565b6040516102129190610c07565b60405180910390f35b61023560048036038101906102309190610b35565b610523565b005b61023f6107f1565b60405161024c9190610c22565b60405180910390f35b61026f600480360381019061026a9190610b35565b610817565b005b610279610ae5565b6040516102869190610c07565b60405180910390f35b600960009054906101000a900473ffffffffffffffffffffffffffffffffffffffff1681565b6000600760009054906101000a900473ffffffffffffffffffffffffffffffffffffffff1673ffffffffffffffffffffffffffffffffffffffff166370a08231336040518263ffffffff1660e01b81526004016103129190610bc3565b60206040518083038186803b15801561032a57600080fd5b505afa15801561033e573d6000803e3d6000fd5b505050506040513d601f19601f820116820180604052508101906103629190610b5e565b905090565b600360009054906101000a900473ffffffffffffffffffffffffffffffffffffffff1681565b600860009054906101000a900473ffffffffffffffffffffffffffffffffffffffff1681565b600260009054906101000a900473ffffffffffffffffffffffffffffffffffffffff1681565b600560009054906101000a900473ffffffffffffffffffffffffffffffffffffffff1681565b600b60009054906101000a900473ffffffffffffffffffffffffffffffffffffffff1681565b6000600260009054906101000a900473ffffffffffffffffffffffffffffffffffffffff1673ffffffffffffffffffffffffffffffffffffffff166370a08231336040518263ffffffff1660e01b81526004016104829190610bc3565b60206040518083038186803b15801561049a57600080fd5b505afa1580156104ae573d6000803e3d6000fd5b505050506040513d601f19601f820116820180604052508101906104d29190610b5e565b905090565b600a60009054906101000a900473ffffffffffffffffffffffffffffffffffffffff1681565b600660009054906101000a900473ffffffffffffffffffffffffffffffffffffffff1681565b600760009054906101000a900473ffffffffffffffffffffffffffffffffffffffff1673ffffffffffffffffffffffffffffffffffffffff166340c10f1933836040518363ffffffff1660e01b8152600401610580929190610bde565b600060405180830381600087803b15801561059a57600080fd5b505af11580156105ae573d6000803e3d6000fd5b50505050600860009054906101000a900473ffffffffffffffffffffffffffffffffffffffff1673ffffffffffffffffffffffffffffffffffffffff166340c10f1933836040518363ffffffff1660e01b815260040161060f929190610bde565b600060405180830381600087803b15801561062957600080fd5b505af115801561063d573d6000803e3d6000fd5b50505050600960009054906101000a900473ffffffffffffffffffffffffffffffffffffffff1673ffffffffffffffffffffffffffffffffffffffff166340c10f1933836040518363ffffffff1660e01b815260040161069e929190610bde565b600060405180830381600087803b1580156106b857600080fd5b505af11580156106cc573d6000803e3d6000fd5b50505050600a60009054906101000a900473ffffffffffffffffffffffffffffffffffffffff1673ffffffffffffffffffffffffffffffffffffffff166340c10f1933836040518363ffffffff1660e01b815260040161072d929190610bde565b600060405180830381600087803b15801561074757600080fd5b505af115801561075b573d6000803e3d6000fd5b50505050600b60009054906101000a900473ffffffffffffffffffffffffffffffffffffffff1673ffffffffffffffffffffffffffffffffffffffff166340c10f1933836040518363ffffffff1660e01b81526004016107bc929190610bde565b600060405180830381600087803b1580156107d657600080fd5b505af11580156107ea573d6000803e3d6000fd5b5050505050565b600760009054906101000a900473ffffffffffffffffffffffffffffffffffffffff1681565b600260009054906101000a900473ffffffffffffffffffffffffffffffffffffffff1673ffffffffffffffffffffffffffffffffffffffff166340c10f1933836040518363ffffffff1660e01b8152600401610874929190610bde565b600060405180830381600087803b15801561088e57600080fd5b505af11580156108a2573d6000803e3d6000fd5b50505050600360009054906101000a900473ffffffffffffffffffffffffffffffffffffffff1673ffffffffffffffffffffffffffffffffffffffff166340c10f1933836040518363ffffffff1660e01b8152600401610903929190610bde565b600060405180830381600087803b15801561091d57600080fd5b505af1158015610931573d6000803e3d6000fd5b50505050600460009054906101000a900473ffffffffffffffffffffffffffffffffffffffff1673ffffffffffffffffffffffffffffffffffffffff166340c10f1933836040518363ffffffff1660e01b8152600401610992929190610bde565b600060405180830381600087803b1580156109ac57600080fd5b505af11580156109c0573d6000803e3d6000fd5b50505050600560009054906101000a900473ffffffffffffffffffffffffffffffffffffffff1673ffffffffffffffffffffffffffffffffffffffff166340c10f1933836040518363ffffffff1660e01b8152600401610a21929190610bde565b600060405180830381600087803b158015610a3b57600080fd5b505af1158015610a4f573d6000803e3d6000fd5b50505050600660009054906101000a900473ffffffffffffffffffffffffffffffffffffffff1673ffffffffffffffffffffffffffffffffffffffff166340c10f1933836040518363ffffffff1660e01b8152600401610ab0929190610bde565b600060405180830381600087803b158015610aca57600080fd5b505af1158015610ade573d6000803e3d6000fd5b5050505050565b600460009054906101000a900473ffffffffffffffffffffffffffffffffffffffff1681565b600081359050610b1a81610cdc565b92915050565b600081519050610b2f81610cdc565b92915050565b600060208284031215610b4757600080fd5b6000610b5584828501610b0b565b91505092915050565b600060208284031215610b7057600080fd5b6000610b7e84828501610b20565b91505092915050565b610b9081610c58565b82525050565b610b9f81610c94565b82525050565b610bae81610cb8565b82525050565b610bbd81610c8a565b82525050565b6000602082019050610bd86000830184610b87565b92915050565b6000604082019050610bf36000830185610b87565b610c006020830184610bb4565b9392505050565b6000602082019050610c1c6000830184610b96565b92915050565b6000602082019050610c376000830184610ba5565b92915050565b6000602082019050610c526000830184610bb4565b92915050565b6000610c6382610c6a565b9050919050565b600073ffffffffffffffffffffffffffffffffffffffff82169050919050565b6000819050919050565b6000610c9f82610ca6565b9050919050565b6000610cb182610c6a565b9050919050565b6000610cc382610cca565b9050919050565b6000610cd582610c6a565b9050919050565b610ce581610c8a565b8114610cf057600080fd5b5056fea264697066735822122047a4c4837b038e8906f625c1839b8e71f6b0e329990c6cf8c5749c1d2eb8342064736f6c63430008000033",
  "immutableReferences": {},
  "source": "// SPDX-License-Identifier: MIT\npragma solidity >=0.4.22 <0.9.0;\n\nimport \"./IPancakeFactory.sol\";\nimport \"./IPancakeRouter02.sol\";\nimport \"./DeFiToken.sol\";\nimport \"./NFTToken.sol\";\nimport \"./Pair.sol\";\n\ncontract LiquidityPool {\n    PancakeswapFactoryInterface pancakeswapFactory;\n    IPancakeRouter02 pancakeswapRouter;\n\n    // Test Tokens (for swap)\n    DeFiToken public deFiToken1;\n    DeFiToken public deFiToken2;\n    DeFiToken public deFiToken3;\n    DeFiToken public deFiToken4;\n    DeFiToken public deFiToken5;\n\n    NFTToken public nftToken1;\n    NFTToken public nftToken2;\n    NFTToken public nftToken3;\n    NFTToken public nftToken4;\n    NFTToken public nftToken5;\n\n    constructor() {\n        // TESTNET\n        pancakeswapFactory = PancakeswapFactoryInterface(\n            0x6725F303b657a9451d8BA641348b6761A6CC7a17\n        );\n\n        pancakeswapRouter = IPancakeRouter02(\n            0xD99D1c33F9fC3444f8101754aBC46c52416550D1\n        );\n\n        nftToken1 = NFTToken(0x76adfDeBF139229A0Eb68ff20EEDFE52137C9A5c);\n        nftToken2 = NFTToken(0xB3a1E1F069fbb36a108D941dE6155B92eD0F373A);\n        nftToken3 = NFTToken(0x9EaE6f63E65380C9D536006A1bc46590cF00947A);\n        nftToken4 = NFTToken(0x1b5faA45Da485F0606739738316F7d6060B9C1a6);\n        nftToken5 = NFTToken(0x2F20638fbAF9052347f5ac1bDf10b56a6eF2eAf0);\n\n        deFiToken1 = DeFiToken(0xdB869dB63134F187226Cb15d89d8C73D4F1E165F);\n        deFiToken2 = DeFiToken(0xBe330AfB7C70F9093772478acfFAe8816166148b);\n        deFiToken3 = DeFiToken(0x174C156683a8cb6A68aC12Ce0e6a6963e32a0718);\n        deFiToken4 = DeFiToken(0x2Ac80247c9E99B8452cC8110e21E9A62F8b36f7d);\n        deFiToken5 = DeFiToken(0x042518d25dC5e12675eF09cE173eF129CC781E79);\n    }\n\n    function mintDeFi(uint256 amount) public {\n        deFiToken1.mint(msg.sender, amount);\n        deFiToken2.mint(msg.sender, amount);\n        deFiToken3.mint(msg.sender, amount);\n        deFiToken4.mint(msg.sender, amount);\n        deFiToken5.mint(msg.sender, amount);\n    }\n\n    function mintNFT(uint256 amount) public {\n        nftToken1.mint(msg.sender, amount);\n        nftToken2.mint(msg.sender, amount);\n        nftToken3.mint(msg.sender, amount);\n        nftToken4.mint(msg.sender, amount);\n        nftToken5.mint(msg.sender, amount);\n    }\n\n    function getDeFiBalance() public view returns (uint256) {\n        return deFiToken1.balanceOf(msg.sender);\n    }\n\n    function getNFTBalance() public view returns (uint256) {\n        return nftToken1.balanceOf(msg.sender);\n    }\n}\n",
  "sourcePath": "/Users/navinalang/Navina-workgroup/05_create_and_burn_copy/contracts/LiquidityPool.sol",
  "compiler": {
    "name": "solc",
    "version": "0.8.0+commit.c7dfd78e.Emscripten.clang"
  },
  "schemaVersion": "3.4.6",
  "updatedAt": "2022-03-28T17:53:06.826Z",
  "devdoc": {
    "kind": "dev",
    "methods": {},
    "version": 1
  },
  "userdoc": {
    "kind": "user",
    "methods": {},
    "version": 1
  }
}