{
  "contractName": "NFTPortfolio",
  "abi": [
    {
      "inputs": [],
      "stateMutability": "nonpayable",
      "type": "constructor"
    },
    {
      "inputs": [
        {
          "internalType": "address",
          "name": "",
          "type": "address"
        }
      ],
      "name": "aliceBalance",
      "outputs": [
        {
          "internalType": "uint256",
          "name": "",
          "type": "uint256"
        }
      ],
      "stateMutability": "view",
      "type": "function"
    },
    {
      "inputs": [
        {
          "internalType": "address",
          "name": "",
          "type": "address"
        }
      ],
      "name": "axsBalance",
      "outputs": [
        {
          "internalType": "uint256",
          "name": "",
          "type": "uint256"
        }
      ],
      "stateMutability": "view",
      "type": "function"
    },
    {
      "inputs": [],
      "name": "currentRate",
      "outputs": [
        {
          "internalType": "uint256",
          "name": "numerator",
          "type": "uint256"
        },
        {
          "internalType": "uint256",
          "name": "denominator",
          "type": "uint256"
        }
      ],
      "stateMutability": "view",
      "type": "function"
    },
    {
      "inputs": [
        {
          "internalType": "address",
          "name": "",
          "type": "address"
        }
      ],
      "name": "mboxBalance",
      "outputs": [
        {
          "internalType": "uint256",
          "name": "",
          "type": "uint256"
        }
      ],
      "stateMutability": "view",
      "type": "function"
    },
    {
      "inputs": [
        {
          "internalType": "address",
          "name": "",
          "type": "address"
        }
      ],
      "name": "mcBalance",
      "outputs": [
        {
          "internalType": "uint256",
          "name": "",
          "type": "uint256"
        }
      ],
      "stateMutability": "view",
      "type": "function"
    },
    {
      "inputs": [],
      "name": "nftToken",
      "outputs": [
        {
          "internalType": "contract IToken",
          "name": "",
          "type": "address"
        }
      ],
      "stateMutability": "view",
      "type": "function"
    },
    {
      "inputs": [],
      "name": "pancakeSwapRouter",
      "outputs": [
        {
          "internalType": "contract IPancakeRouter02",
          "name": "",
          "type": "address"
        }
      ],
      "stateMutability": "view",
      "type": "function"
    },
    {
      "inputs": [
        {
          "internalType": "address",
          "name": "",
          "type": "address"
        }
      ],
      "name": "racaBalance",
      "outputs": [
        {
          "internalType": "uint256",
          "name": "",
          "type": "uint256"
        }
      ],
      "stateMutability": "view",
      "type": "function"
    },
    {
      "stateMutability": "payable",
      "type": "receive"
    },
    {
      "inputs": [
        {
          "internalType": "uint256",
          "name": "_numerator",
          "type": "uint256"
        },
        {
          "internalType": "uint256",
          "name": "_denominator",
          "type": "uint256"
        }
      ],
      "name": "updateRate",
      "outputs": [],
      "stateMutability": "nonpayable",
      "type": "function"
    },
    {
      "inputs": [
        {
          "internalType": "uint256",
          "name": "axs",
          "type": "uint256"
        },
        {
          "internalType": "uint256",
          "name": "race",
          "type": "uint256"
        },
        {
          "internalType": "uint256",
          "name": "mbox",
          "type": "uint256"
        },
        {
          "internalType": "uint256",
          "name": "mc",
          "type": "uint256"
        },
        {
          "internalType": "uint256",
          "name": "alice",
          "type": "uint256"
        },
        {
          "internalType": "address",
          "name": "user",
          "type": "address"
        }
      ],
      "name": "setUpDataNFT",
      "outputs": [],
      "stateMutability": "nonpayable",
      "type": "function"
    },
    {
      "inputs": [
        {
          "internalType": "uint256",
          "name": "axs",
          "type": "uint256"
        },
        {
          "internalType": "uint256",
          "name": "race",
          "type": "uint256"
        },
        {
          "internalType": "uint256",
          "name": "mbox",
          "type": "uint256"
        },
        {
          "internalType": "uint256",
          "name": "mc",
          "type": "uint256"
        },
        {
          "internalType": "uint256",
          "name": "alice",
          "type": "uint256"
        },
        {
          "internalType": "address",
          "name": "user",
          "type": "address"
        }
      ],
      "name": "editDataNFT",
      "outputs": [],
      "stateMutability": "nonpayable",
      "type": "function"
    },
    {
      "inputs": [],
      "name": "investInFundNFT",
      "outputs": [],
      "stateMutability": "payable",
      "type": "function"
    },
    {
      "inputs": [
        {
          "internalType": "uint256",
          "name": "tokenAmount",
          "type": "uint256"
        }
      ],
      "name": "withdrawFromFundNFT",
      "outputs": [],
      "stateMutability": "payable",
      "type": "function"
    },
    {
      "inputs": [
        {
          "internalType": "address",
          "name": "crypto",
          "type": "address"
        }
      ],
      "name": "getPathForETH",
      "outputs": [
        {
          "internalType": "address[]",
          "name": "",
          "type": "address[]"
        }
      ],
      "stateMutability": "view",
      "type": "function"
    },
    {
      "inputs": [
        {
          "internalType": "address",
          "name": "token",
          "type": "address"
        }
      ],
      "name": "getPathForToken",
      "outputs": [
        {
          "internalType": "address[]",
          "name": "",
          "type": "address[]"
        }
      ],
      "stateMutability": "view",
      "type": "function"
    },
    {
      "inputs": [],
      "name": "getETH",
      "outputs": [
        {
          "internalType": "address",
          "name": "",
          "type": "address"
        }
      ],
      "stateMutability": "view",
      "type": "function"
    }
  ],
  "bytecode": "0x6080604052736056773c28c258425cf9bc8ba5f86b8031863164600160006101000a81548173ffffffffffffffffffffffffffffffffffffffff021916908373ffffffffffffffffffffffffffffffffffffffff16021790555073715d400f88c167884bbcc41c5fea407ed4d2f8a0600360006101000a81548173ffffffffffffffffffffffffffffffffffffffff021916908373ffffffffffffffffffffffffffffffffffffffff1602179055507312bb890508c125661e03b09ec06e404bc9289040600460006101000a81548173ffffffffffffffffffffffffffffffffffffffff021916908373ffffffffffffffffffffffffffffffffffffffff160217905550733203c9e46ca618c8c1ce5dc67e7e9d75f5da2377600560006101000a81548173ffffffffffffffffffffffffffffffffffffffff021916908373ffffffffffffffffffffffffffffffffffffffff16021790555073949d48eca67b17269629c7194f4b727d4ef9e5d6600660006101000a81548173ffffffffffffffffffffffffffffffffffffffff021916908373ffffffffffffffffffffffffffffffffffffffff16021790555073ac51066d7bec65dc4589368da368b212745d63e8600760006101000a81548173ffffffffffffffffffffffffffffffffffffffff021916908373ffffffffffffffffffffffffffffffffffffffff16021790555034801561020e57600080fd5b507310ed43c718714eb63d5aa57b78b54704e256024e6000806101000a81548173ffffffffffffffffffffffffffffffffffffffff021916908373ffffffffffffffffffffffffffffffffffffffff1602179055507316dbb234a9a595967ddc2ea1bb53379752f09ad4600260006101000a81548173ffffffffffffffffffffffffffffffffffffffff021916908373ffffffffffffffffffffffffffffffffffffffff160217905550612f9f806102c76000396000f3fe6080604052600436106100f75760003560e01c8063b2bd43ed1161008a578063e7c4d9af11610059578063e7c4d9af1461032d578063f9f8bdb714610356578063fbf1a7dd14610382578063fdcc1f0d146103bf576100fe565b8063b2bd43ed14610280578063ca0e7ed5146102a9578063d06fcba8146102e6578063d1d563c714610311576100fe565b8063500846ca116100c6578063500846ca146101bf5780638149741c146101fc57806382eacc2814610206578063b0849c1c14610243576100fe565b806314f6c3be14610103578063245589951461012e5780633fe5496d14610159578063405abb4114610196576100fe565b366100fe57005b600080fd5b34801561010f57600080fd5b506101186103fc565b60405161012591906129d3565b60405180910390f35b34801561013a57600080fd5b506101436104a2565b6040516101509190612a70565b60405180910390f35b34801561016557600080fd5b50610180600480360381019061017b91906125d6565b6104c6565b60405161018d9190612b52565b60405180910390f35b3480156101a257600080fd5b506101bd60048036038101906101b891906126bb565b6104de565b005b3480156101cb57600080fd5b506101e660048036038101906101e191906125d6565b610512565b6040516101f39190612b52565b60405180910390f35b61020461052a565b005b34801561021257600080fd5b5061022d600480360381019061022891906125d6565b610e29565b60405161023a9190612b52565b60405180910390f35b34801561024f57600080fd5b5061026a600480360381019061026591906125d6565b610e41565b6040516102779190612a4e565b60405180910390f35b34801561028c57600080fd5b506102a760048036038101906102a291906126f7565b611047565b005b3480156102b557600080fd5b506102d060048036038101906102cb91906125d6565b611315565b6040516102dd9190612a4e565b60405180910390f35b3480156102f257600080fd5b506102fb61151b565b6040516103089190612a8b565b60405180910390f35b61032b60048036038101906103269190612692565b611541565b005b34801561033957600080fd5b50610354600480360381019061034f91906126f7565b611f2c565b005b34801561036257600080fd5b5061036b6121fa565b604051610379929190612bc7565b60405180910390f35b34801561038e57600080fd5b506103a960048036038101906103a491906125d6565b61220c565b6040516103b69190612b52565b60405180910390f35b3480156103cb57600080fd5b506103e660048036038101906103e191906125d6565b612224565b6040516103f39190612b52565b60405180910390f35b60008060009054906101000a900473ffffffffffffffffffffffffffffffffffffffff1673ffffffffffffffffffffffffffffffffffffffff1663ad5c46486040518163ffffffff1660e01b815260040160206040518083038186803b15801561046557600080fd5b505afa158015610479573d6000803e3d6000fd5b505050506040513d601f19601f8201168201806040525081019061049d91906125ff565b905090565b60008054906101000a900473ffffffffffffffffffffffffffffffffffffffff1681565b600b6020528060005260406000206000915090505481565b60008214156104ec57600080fd5b60008114156104fa57600080fd5b81600e6000018190555080600e600101819055505050565b600c6020528060005260406000206000915090505481565b600260009054906101000a900473ffffffffffffffffffffffffffffffffffffffff1673ffffffffffffffffffffffffffffffffffffffff1663095ea7b330346040518363ffffffff1660e01b8152600401610587929190612a25565b602060405180830381600087803b1580156105a157600080fd5b505af11580156105b5573d6000803e3d6000fd5b505050506040513d601f19601f820116820180604052508101906105d99190612669565b506105e56064806104de565b60608060608060606000600f426105fc9190612cad565b905060008054906101000a900473ffffffffffffffffffffffffffffffffffffffff1673ffffffffffffffffffffffffffffffffffffffff16637ff36ab56005346106479190612d03565b6000610674600360009054906101000a900473ffffffffffffffffffffffffffffffffffffffff16610e41565b600160009054906101000a900473ffffffffffffffffffffffffffffffffffffffff16866040518663ffffffff1660e01b81526004016106b79493929190612aa6565b6000604051808303818588803b1580156106d057600080fd5b505af11580156106e4573d6000803e3d6000fd5b50505050506040513d6000823e3d601f19601f8201168201806040525081019061070e9190612628565b955060008054906101000a900473ffffffffffffffffffffffffffffffffffffffff1673ffffffffffffffffffffffffffffffffffffffff16637ff36ab56005346107599190612d03565b6000610786600460009054906101000a900473ffffffffffffffffffffffffffffffffffffffff16610e41565b600160009054906101000a900473ffffffffffffffffffffffffffffffffffffffff16866040518663ffffffff1660e01b81526004016107c99493929190612aa6565b6000604051808303818588803b1580156107e257600080fd5b505af11580156107f6573d6000803e3d6000fd5b50505050506040513d6000823e3d601f19601f820116820180604052508101906108209190612628565b945060008054906101000a900473ffffffffffffffffffffffffffffffffffffffff1673ffffffffffffffffffffffffffffffffffffffff16637ff36ab560053461086b9190612d03565b6000610898600560009054906101000a900473ffffffffffffffffffffffffffffffffffffffff16610e41565b600160009054906101000a900473ffffffffffffffffffffffffffffffffffffffff16866040518663ffffffff1660e01b81526004016108db9493929190612aa6565b6000604051808303818588803b1580156108f457600080fd5b505af1158015610908573d6000803e3d6000fd5b50505050506040513d6000823e3d601f19601f820116820180604052508101906109329190612628565b935060008054906101000a900473ffffffffffffffffffffffffffffffffffffffff1673ffffffffffffffffffffffffffffffffffffffff16637ff36ab560053461097d9190612d03565b60006109aa600660009054906101000a900473ffffffffffffffffffffffffffffffffffffffff16610e41565b600160009054906101000a900473ffffffffffffffffffffffffffffffffffffffff16866040518663ffffffff1660e01b81526004016109ed9493929190612aa6565b6000604051808303818588803b158015610a0657600080fd5b505af1158015610a1a573d6000803e3d6000fd5b50505050506040513d6000823e3d601f19601f82011682018060405250810190610a449190612628565b925060008054906101000a900473ffffffffffffffffffffffffffffffffffffffff1673ffffffffffffffffffffffffffffffffffffffff16637ff36ab5600534610a8f9190612d03565b6000610abc600760009054906101000a900473ffffffffffffffffffffffffffffffffffffffff16610e41565b600160009054906101000a900473ffffffffffffffffffffffffffffffffffffffff16866040518663ffffffff1660e01b8152600401610aff9493929190612aa6565b6000604051808303818588803b158015610b1857600080fd5b505af1158015610b2c573d6000803e3d6000fd5b50505050506040513d6000823e3d601f19601f82011682018060405250810190610b569190612628565b9150610cab86600181518110610b95577f4e487b7100000000000000000000000000000000000000000000000000000000600052603260045260246000fd5b602002602001015186600181518110610bd7577f4e487b7100000000000000000000000000000000000000000000000000000000600052603260045260246000fd5b602002602001015186600181518110610c19577f4e487b7100000000000000000000000000000000000000000000000000000000600052603260045260246000fd5b602002602001015186600181518110610c5b577f4e487b7100000000000000000000000000000000000000000000000000000000600052603260045260246000fd5b602002602001015186600181518110610c9d577f4e487b7100000000000000000000000000000000000000000000000000000000600052603260045260246000fd5b602002602001015133611047565b60003490506000610ce1600e60010154610cd3600e600001548561223c90919063ffffffff16565b61225290919063ffffffff16565b9050600260009054906101000a900473ffffffffffffffffffffffffffffffffffffffff1673ffffffffffffffffffffffffffffffffffffffff166340c10f1933836040518363ffffffff1660e01b8152600401610d40929190612a25565b600060405180830381600087803b158015610d5a57600080fd5b505af1158015610d6e573d6000803e3d6000fd5b5050505060003373ffffffffffffffffffffffffffffffffffffffff1647604051610d98906129be565b60006040518083038185875af1925050503d8060008114610dd5576040519150601f19603f3d011682016040523d82523d6000602084013e610dda565b606091505b5050905080610e1e576040517f08c379a0000000000000000000000000000000000000000000000000000000008152600401610e1590612b32565b60405180910390fd5b505050505050505050565b60096020528060005260406000206000915090505481565b60606000600267ffffffffffffffff811115610e86577f4e487b7100000000000000000000000000000000000000000000000000000000600052604160045260246000fd5b604051908082528060200260200182016040528015610eb45781602001602082028036833780820191505090505b50905060008054906101000a900473ffffffffffffffffffffffffffffffffffffffff1673ffffffffffffffffffffffffffffffffffffffff1663ad5c46486040518163ffffffff1660e01b815260040160206040518083038186803b158015610f1d57600080fd5b505afa158015610f31573d6000803e3d6000fd5b505050506040513d601f19601f82011682018060405250810190610f5591906125ff565b81600081518110610f8f577f4e487b7100000000000000000000000000000000000000000000000000000000600052603260045260246000fd5b602002602001019073ffffffffffffffffffffffffffffffffffffffff16908173ffffffffffffffffffffffffffffffffffffffff16815250508281600181518110611004577f4e487b7100000000000000000000000000000000000000000000000000000000600052603260045260246000fd5b602002602001019073ffffffffffffffffffffffffffffffffffffffff16908173ffffffffffffffffffffffffffffffffffffffff168152505080915050919050565b85600860008373ffffffffffffffffffffffffffffffffffffffff1673ffffffffffffffffffffffffffffffffffffffff168152602001908152602001600020546110929190612cad565b600860008373ffffffffffffffffffffffffffffffffffffffff1673ffffffffffffffffffffffffffffffffffffffff1681526020019081526020016000208190555084600960008373ffffffffffffffffffffffffffffffffffffffff1673ffffffffffffffffffffffffffffffffffffffff168152602001908152602001600020546111209190612cad565b600960008373ffffffffffffffffffffffffffffffffffffffff1673ffffffffffffffffffffffffffffffffffffffff1681526020019081526020016000208190555083600a60008373ffffffffffffffffffffffffffffffffffffffff1673ffffffffffffffffffffffffffffffffffffffff168152602001908152602001600020546111ae9190612cad565b600a60008373ffffffffffffffffffffffffffffffffffffffff1673ffffffffffffffffffffffffffffffffffffffff1681526020019081526020016000208190555082600b60008373ffffffffffffffffffffffffffffffffffffffff1673ffffffffffffffffffffffffffffffffffffffff1681526020019081526020016000205461123c9190612cad565b600b60008373ffffffffffffffffffffffffffffffffffffffff1673ffffffffffffffffffffffffffffffffffffffff1681526020019081526020016000208190555081600c60008373ffffffffffffffffffffffffffffffffffffffff1673ffffffffffffffffffffffffffffffffffffffff168152602001908152602001600020546112ca9190612cad565b600c60008373ffffffffffffffffffffffffffffffffffffffff1673ffffffffffffffffffffffffffffffffffffffff16815260200190815260200160002081905550505050505050565b60606000600267ffffffffffffffff81111561135a577f4e487b7100000000000000000000000000000000000000000000000000000000600052604160045260246000fd5b6040519080825280602002602001820160405280156113885781602001602082028036833780820191505090505b50905082816000815181106113c6577f4e487b7100000000000000000000000000000000000000000000000000000000600052603260045260246000fd5b602002602001019073ffffffffffffffffffffffffffffffffffffffff16908173ffffffffffffffffffffffffffffffffffffffff168152505060008054906101000a900473ffffffffffffffffffffffffffffffffffffffff1673ffffffffffffffffffffffffffffffffffffffff1663ad5c46486040518163ffffffff1660e01b815260040160206040518083038186803b15801561146657600080fd5b505afa15801561147a573d6000803e3d6000fd5b505050506040513d601f19601f8201168201806040525081019061149e91906125ff565b816001815181106114d8577f4e487b7100000000000000000000000000000000000000000000000000000000600052603260045260246000fd5b602002602001019073ffffffffffffffffffffffffffffffffffffffff16908173ffffffffffffffffffffffffffffffffffffffff168152505080915050919050565b600260009054906101000a900473ffffffffffffffffffffffffffffffffffffffff1681565b6000600860003373ffffffffffffffffffffffffffffffffffffffff1673ffffffffffffffffffffffffffffffffffffffff1681526020019081526020016000205490506000600960003373ffffffffffffffffffffffffffffffffffffffff1673ffffffffffffffffffffffffffffffffffffffff1681526020019081526020016000205490506000600a60003373ffffffffffffffffffffffffffffffffffffffff1673ffffffffffffffffffffffffffffffffffffffff1681526020019081526020016000205490506000600b60003373ffffffffffffffffffffffffffffffffffffffff1673ffffffffffffffffffffffffffffffffffffffff1681526020019081526020016000205490506000600c60003373ffffffffffffffffffffffffffffffffffffffff1673ffffffffffffffffffffffffffffffffffffffff1681526020019081526020016000205490506116c3600260009054906101000a900473ffffffffffffffffffffffffffffffffffffffff16333089612268565b6116f0600260009054906101000a900473ffffffffffffffffffffffffffffffffffffffff1630886123a1565b600260009054906101000a900473ffffffffffffffffffffffffffffffffffffffff1673ffffffffffffffffffffffffffffffffffffffff16639dc29fac30886040518363ffffffff1660e01b815260040161174d929190612a25565b600060405180830381600087803b15801561176757600080fd5b505af115801561177b573d6000803e3d6000fd5b505050506117cf600360009054906101000a900473ffffffffffffffffffffffffffffffffffffffff16600160009054906101000a900473ffffffffffffffffffffffffffffffffffffffff163088612268565b61181c600360009054906101000a900473ffffffffffffffffffffffffffffffffffffffff1660008054906101000a900473ffffffffffffffffffffffffffffffffffffffff16876123a1565b61186c600460009054906101000a900473ffffffffffffffffffffffffffffffffffffffff16600160009054906101000a900473ffffffffffffffffffffffffffffffffffffffff163087612268565b6118b9600460009054906101000a900473ffffffffffffffffffffffffffffffffffffffff1660008054906101000a900473ffffffffffffffffffffffffffffffffffffffff16866123a1565b611909600560009054906101000a900473ffffffffffffffffffffffffffffffffffffffff16600160009054906101000a900473ffffffffffffffffffffffffffffffffffffffff163086612268565b611956600560009054906101000a900473ffffffffffffffffffffffffffffffffffffffff1660008054906101000a900473ffffffffffffffffffffffffffffffffffffffff16856123a1565b6119a6600660009054906101000a900473ffffffffffffffffffffffffffffffffffffffff16600160009054906101000a900473ffffffffffffffffffffffffffffffffffffffff163085612268565b6119f3600660009054906101000a900473ffffffffffffffffffffffffffffffffffffffff1660008054906101000a900473ffffffffffffffffffffffffffffffffffffffff16846123a1565b611a43600760009054906101000a900473ffffffffffffffffffffffffffffffffffffffff16600160009054906101000a900473ffffffffffffffffffffffffffffffffffffffff163084612268565b611a90600760009054906101000a900473ffffffffffffffffffffffffffffffffffffffff1660008054906101000a900473ffffffffffffffffffffffffffffffffffffffff16836123a1565b6000600f42611a9f9190612cad565b905060008054906101000a900473ffffffffffffffffffffffffffffffffffffffff1673ffffffffffffffffffffffffffffffffffffffff166318cbafe5876000611b0b600360009054906101000a900473ffffffffffffffffffffffffffffffffffffffff16611315565b33866040518663ffffffff1660e01b8152600401611b2d959493929190612b6d565b600060405180830381600087803b158015611b4757600080fd5b505af1158015611b5b573d6000803e3d6000fd5b505050506040513d6000823e3d601f19601f82011682018060405250810190611b849190612628565b5060008054906101000a900473ffffffffffffffffffffffffffffffffffffffff1673ffffffffffffffffffffffffffffffffffffffff166318cbafe5866000611bef600460009054906101000a900473ffffffffffffffffffffffffffffffffffffffff16611315565b33866040518663ffffffff1660e01b8152600401611c11959493929190612b6d565b600060405180830381600087803b158015611c2b57600080fd5b505af1158015611c3f573d6000803e3d6000fd5b505050506040513d6000823e3d601f19601f82011682018060405250810190611c689190612628565b5060008054906101000a900473ffffffffffffffffffffffffffffffffffffffff1673ffffffffffffffffffffffffffffffffffffffff166318cbafe5856000611cd3600560009054906101000a900473ffffffffffffffffffffffffffffffffffffffff16611315565b33866040518663ffffffff1660e01b8152600401611cf5959493929190612b6d565b600060405180830381600087803b158015611d0f57600080fd5b505af1158015611d23573d6000803e3d6000fd5b505050506040513d6000823e3d601f19601f82011682018060405250810190611d4c9190612628565b5060008054906101000a900473ffffffffffffffffffffffffffffffffffffffff1673ffffffffffffffffffffffffffffffffffffffff166318cbafe5846000611db7600660009054906101000a900473ffffffffffffffffffffffffffffffffffffffff16611315565b33866040518663ffffffff1660e01b8152600401611dd9959493929190612b6d565b600060405180830381600087803b158015611df357600080fd5b505af1158015611e07573d6000803e3d6000fd5b505050506040513d6000823e3d601f19601f82011682018060405250810190611e309190612628565b5060008054906101000a900473ffffffffffffffffffffffffffffffffffffffff1673ffffffffffffffffffffffffffffffffffffffff166318cbafe5836000611e9b600760009054906101000a900473ffffffffffffffffffffffffffffffffffffffff16611315565b33866040518663ffffffff1660e01b8152600401611ebd959493929190612b6d565b600060405180830381600087803b158015611ed757600080fd5b505af1158015611eeb573d6000803e3d6000fd5b505050506040513d6000823e3d601f19601f82011682018060405250810190611f149190612628565b50611f23868686868633611f2c565b50505050505050565b85600860008373ffffffffffffffffffffffffffffffffffffffff1673ffffffffffffffffffffffffffffffffffffffff16815260200190815260200160002054611f779190612d8e565b600860008373ffffffffffffffffffffffffffffffffffffffff1673ffffffffffffffffffffffffffffffffffffffff1681526020019081526020016000208190555084600960008373ffffffffffffffffffffffffffffffffffffffff1673ffffffffffffffffffffffffffffffffffffffff168152602001908152602001600020546120059190612d8e565b600960008373ffffffffffffffffffffffffffffffffffffffff1673ffffffffffffffffffffffffffffffffffffffff1681526020019081526020016000208190555083600a60008373ffffffffffffffffffffffffffffffffffffffff1673ffffffffffffffffffffffffffffffffffffffff168152602001908152602001600020546120939190612d8e565b600a60008373ffffffffffffffffffffffffffffffffffffffff1673ffffffffffffffffffffffffffffffffffffffff1681526020019081526020016000208190555082600b60008373ffffffffffffffffffffffffffffffffffffffff1673ffffffffffffffffffffffffffffffffffffffff168152602001908152602001600020546121219190612d8e565b600b60008373ffffffffffffffffffffffffffffffffffffffff1673ffffffffffffffffffffffffffffffffffffffff1681526020019081526020016000208190555081600c60008373ffffffffffffffffffffffffffffffffffffffff1673ffffffffffffffffffffffffffffffffffffffff168152602001908152602001600020546121af9190612d8e565b600c60008373ffffffffffffffffffffffffffffffffffffffff1673ffffffffffffffffffffffffffffffffffffffff16815260200190815260200160002081905550505050505050565b600e8060000154908060010154905082565b60086020528060005260406000206000915090505481565b600a6020528060005260406000206000915090505481565b6000818361224a9190612d34565b905092915050565b600081836122609190612d03565b905092915050565b6000808573ffffffffffffffffffffffffffffffffffffffff166323b872dd86868660405160240161229c939291906129ee565b6040516020818303038152906040529060e01b6020820180517bffffffffffffffffffffffffffffffffffffffffffffffffffffffff83818316178352505050506040516122ea91906129a7565b6000604051808303816000865af19150503d8060008114612327576040519150601f19603f3d011682016040523d82523d6000602084013e61232c565b606091505b509150915081801561235a57506000815114806123595750808060200190518101906123589190612669565b5b5b612399576040517f08c379a000000000000000000000000000000000000000000000000000000000815260040161239090612af2565b60405180910390fd5b505050505050565b6000808473ffffffffffffffffffffffffffffffffffffffff1663095ea7b385856040516024016123d3929190612a25565b6040516020818303038152906040529060e01b6020820180517bffffffffffffffffffffffffffffffffffffffffffffffffffffffff838183161783525050505060405161242191906129a7565b6000604051808303816000865af19150503d806000811461245e576040519150601f19603f3d011682016040523d82523d6000602084013e612463565b606091505b5091509150818015612491575060008151148061249057508080602001905181019061248f9190612669565b5b5b6124d0576040517f08c379a00000000000000000000000000000000000000000000000000000000081526004016124c790612b12565b60405180910390fd5b5050505050565b60006124ea6124e584612c21565b612bf0565b9050808382526020820190508285602086028201111561250957600080fd5b60005b85811015612539578161251f88826125c1565b84526020840193506020830192505060018101905061250c565b5050509392505050565b60008135905061255281612f24565b92915050565b60008151905061256781612f24565b92915050565b600082601f83011261257e57600080fd5b815161258e8482602086016124d7565b91505092915050565b6000815190506125a681612f3b565b92915050565b6000813590506125bb81612f52565b92915050565b6000815190506125d081612f52565b92915050565b6000602082840312156125e857600080fd5b60006125f684828501612543565b91505092915050565b60006020828403121561261157600080fd5b600061261f84828501612558565b91505092915050565b60006020828403121561263a57600080fd5b600082015167ffffffffffffffff81111561265457600080fd5b6126608482850161256d565b91505092915050565b60006020828403121561267b57600080fd5b600061268984828501612597565b91505092915050565b6000602082840312156126a457600080fd5b60006126b2848285016125ac565b91505092915050565b600080604083850312156126ce57600080fd5b60006126dc858286016125ac565b92505060206126ed858286016125ac565b9150509250929050565b60008060008060008060c0878903121561271057600080fd5b600061271e89828a016125ac565b965050602061272f89828a016125ac565b955050604061274089828a016125ac565b945050606061275189828a016125ac565b935050608061276289828a016125ac565b92505060a061277389828a01612543565b9150509295509295509295565b600061278c8383612798565b60208301905092915050565b6127a181612dc2565b82525050565b6127b081612dc2565b82525050565b60006127c182612c5d565b6127cb8185612c80565b93506127d683612c4d565b8060005b838110156128075781516127ee8882612780565b97506127f983612c73565b9250506001810190506127da565b5085935050505092915050565b600061281f82612c68565b6128298185612c91565b9350612839818560208601612e64565b80840191505092915050565b61284e81612e0a565b82525050565b61285d81612e2e565b82525050565b61286c81612e52565b82525050565b600061287f603183612c9c565b91507f5472616e7366657248656c7065723a3a7472616e7366657246726f6d3a20747260008301527f616e7366657246726f6d206661696c65640000000000000000000000000000006020830152604082019050919050565b60006128e5602b83612c9c565b91507f5472616e7366657248656c7065723a3a73616665417070726f76653a2061707060008301527f726f7665206661696c65640000000000000000000000000000000000000000006020830152604082019050919050565b600061294b600083612c91565b9150600082019050919050565b6000612965600d83612c9c565b91507f726566756e64206661696c6564000000000000000000000000000000000000006000830152602082019050919050565b6129a181612e00565b82525050565b60006129b38284612814565b915081905092915050565b60006129c98261293e565b9150819050919050565b60006020820190506129e860008301846127a7565b92915050565b6000606082019050612a0360008301866127a7565b612a1060208301856127a7565b612a1d6040830184612998565b949350505050565b6000604082019050612a3a60008301856127a7565b612a476020830184612998565b9392505050565b60006020820190508181036000830152612a6881846127b6565b905092915050565b6000602082019050612a856000830184612845565b92915050565b6000602082019050612aa06000830184612854565b92915050565b6000608082019050612abb6000830187612863565b8181036020830152612acd81866127b6565b9050612adc60408301856127a7565b612ae96060830184612998565b95945050505050565b60006020820190508181036000830152612b0b81612872565b9050919050565b60006020820190508181036000830152612b2b816128d8565b9050919050565b60006020820190508181036000830152612b4b81612958565b9050919050565b6000602082019050612b676000830184612998565b92915050565b600060a082019050612b826000830188612998565b612b8f6020830187612863565b8181036040830152612ba181866127b6565b9050612bb060608301856127a7565b612bbd6080830184612998565b9695505050505050565b6000604082019050612bdc6000830185612998565b612be96020830184612998565b9392505050565b6000604051905081810181811067ffffffffffffffff82111715612c1757612c16612ef5565b5b8060405250919050565b600067ffffffffffffffff821115612c3c57612c3b612ef5565b5b602082029050602081019050919050565b6000819050602082019050919050565b600081519050919050565b600081519050919050565b6000602082019050919050565b600082825260208201905092915050565b600081905092915050565b600082825260208201905092915050565b6000612cb882612e00565b9150612cc383612e00565b9250827fffffffffffffffffffffffffffffffffffffffffffffffffffffffffffffffff03821115612cf857612cf7612e97565b5b828201905092915050565b6000612d0e82612e00565b9150612d1983612e00565b925082612d2957612d28612ec6565b5b828204905092915050565b6000612d3f82612e00565b9150612d4a83612e00565b9250817fffffffffffffffffffffffffffffffffffffffffffffffffffffffffffffffff0483118215151615612d8357612d82612e97565b5b828202905092915050565b6000612d9982612e00565b9150612da483612e00565b925082821015612db757612db6612e97565b5b828203905092915050565b6000612dcd82612de0565b9050919050565b60008115159050919050565b600073ffffffffffffffffffffffffffffffffffffffff82169050919050565b6000819050919050565b6000612e1582612e1c565b9050919050565b6000612e2782612de0565b9050919050565b6000612e3982612e40565b9050919050565b6000612e4b82612de0565b9050919050565b6000612e5d82612e00565b9050919050565b60005b83811015612e82578082015181840152602081019050612e67565b83811115612e91576000848401525b50505050565b7f4e487b7100000000000000000000000000000000000000000000000000000000600052601160045260246000fd5b7f4e487b7100000000000000000000000000000000000000000000000000000000600052601260045260246000fd5b7f4e487b7100000000000000000000000000000000000000000000000000000000600052604160045260246000fd5b612f2d81612dc2565b8114612f3857600080fd5b50565b612f4481612dd4565b8114612f4f57600080fd5b50565b612f5b81612e00565b8114612f6657600080fd5b5056fea2646970667358221220058c31968a0b77ac069a821eee12915ba9ca9908251f6302838a785f34fc854564736f6c63430008000033",
  "immutableReferences": {},
  "source": "// SPDX-License-Identifier: MIT\npragma solidity >=0.4.22 <0.9.0;\n\nimport \"./IPancakeRouter02.sol\";\nimport \"@openzeppelin/contracts/utils/math/SafeMath.sol\";\nimport \"@openzeppelin/contracts/access/Ownable.sol\";\nimport \"@openzeppelin/contracts/token/ERC20/IERC20.sol\";\nimport \"./IToken.sol\";\nimport \"@uniswap/lib/contracts/libraries/TransferHelper.sol\";\n\ncontract NFTPortfolio {\n    address internal constant pancakeSwapAddress =\n        0x10ED43C718714eb63d5aA57B78B54704E256024E; //Router for pancake bsc mainnet\n\n    IPancakeRouter02 public pancakeSwapRouter;\n\n    address private vault = 0x6056773C28c258425Cf9BC8Ba5f86B8031863164;\n\n    IToken public nftToken;\n\n    using SafeMath for uint256;\n\n    address private crypto11 = 0x715D400F88C167884bbCc41C5FeA407ed4D2f8A0; // AXS\n    address private crypto12 = 0x12BB890508c125661E03b09EC06E404bc9289040; // RACA\n    address private crypto13 = 0x3203c9E46cA618C8C1cE5dC67e7e9D75f5da2377; // MBOX\n    address private crypto14 = 0x949D48EcA67b17269629c7194F4b727d4Ef9E5d6; // MC\n    address private crypto15 = 0xAC51066d7bEC65Dc4589368da368b212745d63E8; // ALICE\n\n    mapping(address => uint256) public axsBalance;\n    mapping(address => uint256) public racaBalance;\n    mapping(address => uint256) public mboxBalance;\n    mapping(address => uint256) public mcBalance;\n    mapping(address => uint256) public aliceBalance;\n\n    struct rate {\n        uint256 numerator;\n        uint256 denominator;\n    }\n    mapping(address => uint256) admins;\n    rate public currentRate;\n\n    constructor() {\n        pancakeSwapRouter = IPancakeRouter02(pancakeSwapAddress);\n        nftToken = IToken(0x16dBB234A9a595967DdC2ea1bb53379752f09Ad4);\n    }\n\n    function updateRate(uint256 _numerator, uint256 _denominator) public {\n        require(_numerator != 0);\n        require(_denominator != 0);\n        currentRate.numerator = _numerator;\n        currentRate.denominator = _denominator;\n    }\n\n    function setUpDataNFT(\n        uint256 axs,\n        uint256 race,\n        uint256 mbox,\n        uint256 mc,\n        uint256 alice,\n        address user\n    ) public {\n        axsBalance[user] = axsBalance[user] + axs;\n        racaBalance[user] = racaBalance[user] + race;\n        mboxBalance[user] = mboxBalance[user] + mbox;\n        mcBalance[user] = mcBalance[user] + mc;\n        aliceBalance[user] = aliceBalance[user] + alice;\n    }\n\n    function editDataNFT(\n        uint256 axs,\n        uint256 race,\n        uint256 mbox,\n        uint256 mc,\n        uint256 alice,\n        address user\n    ) public {\n        axsBalance[user] = axsBalance[user] - axs;\n        racaBalance[user] = racaBalance[user] - race;\n        mboxBalance[user] = mboxBalance[user] - mbox;\n        mcBalance[user] = mcBalance[user] - mc;\n        aliceBalance[user] = aliceBalance[user] - alice;\n    }\n\n    function investInFundNFT() public payable {\n        // approve\n        nftToken.approve(address(this), msg.value);\n\n        // update rate\n        updateRate(100, 100);\n\n        uint256[] memory crpyto1Amount;\n        uint256[] memory crpyto2Amount;\n        uint256[] memory crpyto3Amount;\n        uint256[] memory crpyto4Amount;\n        uint256[] memory crpyto5Amount;\n\n        uint256 deadline = block.timestamp + 15; // using now for convenience, for mainnet pass deadline from frontend!\n\n        crpyto1Amount = pancakeSwapRouter.swapExactETHForTokens{\n            value: msg.value / 5\n        }(0, getPathForETH(crypto11), vault, deadline);\n\n        crpyto2Amount = pancakeSwapRouter.swapExactETHForTokens{\n            value: msg.value / 5\n        }(0, getPathForETH(crypto12), vault, deadline);\n\n        crpyto3Amount = pancakeSwapRouter.swapExactETHForTokens{\n            value: msg.value / 5\n        }(0, getPathForETH(crypto13), vault, deadline);\n\n        crpyto4Amount = pancakeSwapRouter.swapExactETHForTokens{\n            value: msg.value / 5\n        }(0, getPathForETH(crypto14), vault, deadline);\n\n        crpyto5Amount = pancakeSwapRouter.swapExactETHForTokens{\n            value: msg.value / 5\n        }(0, getPathForETH(crypto15), vault, deadline);\n\n        setUpDataNFT(\n            crpyto1Amount[1],\n            crpyto2Amount[1],\n            crpyto3Amount[1],\n            crpyto4Amount[1],\n            crpyto5Amount[1],\n            msg.sender\n        );\n        uint256 cryptoAmount = msg.value;\n        uint256 tokenAmount = cryptoAmount.mul(currentRate.numerator).div(\n            currentRate.denominator\n        );\n        nftToken.mint(msg.sender, tokenAmount);\n        // refund leftover ETH to user\n        (bool success, ) = msg.sender.call{value: address(this).balance}(\"\");\n        require(success, \"refund failed\");\n    }\n\n    function withdrawFromFundNFT(uint256 tokenAmount) public payable {\n        uint256 amount1 = axsBalance[msg.sender];\n        uint256 amount2 = racaBalance[msg.sender];\n        uint256 amount3 = mboxBalance[msg.sender];\n        uint256 amount4 = mcBalance[msg.sender];\n        uint256 amount5 = aliceBalance[msg.sender];\n\n        // IDT Token Burn\n        TransferHelper.safeTransferFrom(\n            address(nftToken),\n            msg.sender,\n            address(this),\n            tokenAmount\n        );\n        TransferHelper.safeApprove(\n            address(nftToken),\n            address(this),\n            tokenAmount\n        );\n\n        nftToken.burn(address(this), tokenAmount);\n        // -------------------------------------------------------------------------------------------- //\n\n        //Getting Investment Back From Vault to Contract\n        TransferHelper.safeTransferFrom(\n            address(crypto11),\n            vault,\n            address(this),\n            amount1\n        );\n        TransferHelper.safeApprove(\n            address(crypto11),\n            address(pancakeSwapRouter),\n            amount1\n        );\n\n        TransferHelper.safeTransferFrom(\n            address(crypto12),\n            vault,\n            address(this),\n            amount2\n        );\n        TransferHelper.safeApprove(\n            address(crypto12),\n            address(pancakeSwapRouter),\n            amount2\n        );\n\n        TransferHelper.safeTransferFrom(\n            address(crypto13),\n            vault,\n            address(this),\n            amount3\n        );\n        TransferHelper.safeApprove(\n            address(crypto13),\n            address(pancakeSwapRouter),\n            amount3\n        );\n\n        TransferHelper.safeTransferFrom(\n            address(crypto14),\n            vault,\n            address(this),\n            amount4\n        );\n        TransferHelper.safeApprove(\n            address(crypto14),\n            address(pancakeSwapRouter),\n            amount4\n        );\n\n        TransferHelper.safeTransferFrom(\n            address(crypto15),\n            vault,\n            address(this),\n            amount5\n        );\n        TransferHelper.safeApprove(\n            address(crypto15),\n            address(pancakeSwapRouter),\n            amount5\n        );\n\n        // ------------------------------------------------------------------------------------------------ //\n\n        // Converting back to BNB\n        uint256 deadline = block.timestamp + 15;\n\n        pancakeSwapRouter.swapExactTokensForETH(\n            amount1,\n            0,\n            getPathForToken(crypto11),\n            msg.sender,\n            deadline\n        );\n        pancakeSwapRouter.swapExactTokensForETH(\n            amount2,\n            0,\n            getPathForToken(crypto12),\n            msg.sender,\n            deadline\n        );\n        pancakeSwapRouter.swapExactTokensForETH(\n            amount3,\n            0,\n            getPathForToken(crypto13),\n            msg.sender,\n            deadline\n        );\n        pancakeSwapRouter.swapExactTokensForETH(\n            amount4,\n            0,\n            getPathForToken(crypto14),\n            msg.sender,\n            deadline\n        );\n        pancakeSwapRouter.swapExactTokensForETH(\n            amount5,\n            0,\n            getPathForToken(crypto15),\n            msg.sender,\n            deadline\n        );\n\n        editDataNFT(amount1, amount2, amount3, amount4, amount5, msg.sender);\n    }\n    function getPathForETH(address crypto)\n        public\n        view\n        returns (address[] memory)\n    {\n        address[] memory path = new address[](2);\n        path[0] = pancakeSwapRouter.WETH();\n        path[1] = crypto;\n        return path;\n    }\n\n    function getPathForToken(address token)\n        public\n        view\n        returns (address[] memory)\n    {\n        address[] memory path = new address[](2);\n        path[0] = token;\n        path[1] = pancakeSwapRouter.WETH();\n        return path;\n    }\n\n    function getETH() public view returns (address) {\n        return pancakeSwapRouter.WETH();\n    }\n\n    // important to receive ETH\n    receive() external payable {}\n}\n",
  "sourcePath": "/Users/navinalang/Navina-workgroup/05_create_and_burn/contracts/NFTPortfolio.sol",
  "compiler": {
    "name": "solc",
    "version": "0.8.0+commit.c7dfd78e.Emscripten.clang"
  },
  "schemaVersion": "3.4.6",
  "updatedAt": "2022-04-12T14:19:07.219Z",
  "devdoc": {
    "kind": "dev",
    "methods": {},
    "version": 1
  },
  "userdoc": {
    "kind": "user",
    "methods": {},
    "version": 1
  }
}