{
  "contractName": "Pair",
  "abi": [
    {
      "inputs": [
        {
          "internalType": "address",
          "name": "owner",
          "type": "address"
        }
      ],
      "name": "balanceOf",
      "outputs": [
        {
          "internalType": "uint256",
          "name": "",
          "type": "uint256"
        }
      ],
      "stateMutability": "view",
      "type": "function"
    }
  ],
  "bytecode": "0x608060405234801561001057600080fd5b50610158806100206000396000f3fe608060405234801561001057600080fd5b506004361061002b5760003560e01c806370a0823114610030575b600080fd5b61004a6004803603810190610045919061007c565b610060565b60405161005791906100b4565b60405180910390f35b6000919050565b6000813590506100768161010b565b92915050565b60006020828403121561008e57600080fd5b600061009c84828501610067565b91505092915050565b6100ae81610101565b82525050565b60006020820190506100c960008301846100a5565b92915050565b60006100da826100e1565b9050919050565b600073ffffffffffffffffffffffffffffffffffffffff82169050919050565b6000819050919050565b610114816100cf565b811461011f57600080fd5b5056fea264697066735822122085b3b75abc662c028aceee924af7fb621b6e028c21b4311cb3dcb008591beaa364736f6c63430008000033",
  "immutableReferences": {},
  "source": "// SPDX-License-Identifier: MIT\npragma solidity >=0.4.22 <0.9.0;\n\ncontract Pair {\n    function balanceOf(address owner) external view returns (uint256) {}\n}\n",
  "sourcePath": "/Users/navinalang/Navina-workgroup/05_create_and_burn_testnet/contracts/Pair.sol",
  "compiler": {
    "name": "solc",
    "version": "0.8.0+commit.c7dfd78e.Emscripten.clang"
  },
  "schemaVersion": "3.4.6",
  "updatedAt": "2022-04-08T21:42:56.326Z",
  "devdoc": {
    "kind": "dev",
    "methods": {},
    "version": 1
  },
  "userdoc": {
    "kind": "user",
    "methods": {},
    "version": 1
  }
}