{
  "_format": "hh-sol-artifact-1",
  "contractName": "Rebalancing",
  "sourceName": "contracts/rebalance/Rebalancing.sol",
  "abi": [
    {
      "anonymous": false,
      "inputs": [
        {
          "indexed": false,
          "internalType": "uint8",
          "name": "version",
          "type": "uint8"
        }
      ],
      "name": "Initialized",
      "type": "event"
    },
    {
      "inputs": [],
      "name": "ASSET_MANAGER_ROLE",
      "outputs": [
        {
          "internalType": "bytes32",
          "name": "",
          "type": "bytes32"
        }
      ],
      "stateMutability": "view",
      "type": "function"
    },
    {
      "inputs": [],
      "name": "accessController",
      "outputs": [
        {
          "internalType": "contract AccessController",
          "name": "",
          "type": "address"
        }
      ],
      "stateMutability": "view",
      "type": "function"
    },
    {
      "inputs": [],
      "name": "indexManager",
      "outputs": [
        {
          "internalType": "contract IndexManager",
          "name": "",
          "type": "address"
        }
      ],
      "stateMutability": "view",
      "type": "function"
    },
    {
      "inputs": [],
      "name": "indexSwapLibrary",
      "outputs": [
        {
          "internalType": "contract IndexSwapLibrary",
          "name": "",
          "type": "address"
        }
      ],
      "stateMutability": "view",
      "type": "function"
    },
    {
      "inputs": [
        {
          "internalType": "contract IndexSwapLibrary",
          "name": "_indexSwapLibrary",
          "type": "address"
        },
        {
          "internalType": "contract IndexManager",
          "name": "_indexManager",
          "type": "address"
        },
        {
          "internalType": "contract AccessController",
          "name": "_accessController",
          "type": "address"
        },
        {
          "internalType": "contract TokenMetadata",
          "name": "_tokenMetadata",
          "type": "address"
        }
      ],
      "name": "initialize",
      "outputs": [],
      "stateMutability": "nonpayable",
      "type": "function"
    },
    {
      "inputs": [
        {
          "internalType": "contract IndexSwap",
          "name": "_index",
          "type": "address"
        }
      ],
      "name": "rebalance",
      "outputs": [],
      "stateMutability": "nonpayable",
      "type": "function"
    },
    {
      "inputs": [],
      "name": "tokenMetadata",
      "outputs": [
        {
          "internalType": "contract TokenMetadata",
          "name": "",
          "type": "address"
        }
      ],
      "stateMutability": "view",
      "type": "function"
    },
    {
      "inputs": [
        {
          "internalType": "contract IndexSwap",
          "name": "_index",
          "type": "address"
        },
        {
          "internalType": "address[]",
          "name": "tokens",
          "type": "address[]"
        },
        {
          "internalType": "uint96[]",
          "name": "denorms",
          "type": "uint96[]"
        }
      ],
      "name": "updateTokens",
      "outputs": [],
      "stateMutability": "nonpayable",
      "type": "function"
    },
    {
      "inputs": [
        {
          "internalType": "contract IndexSwap",
          "name": "_index",
          "type": "address"
        },
        {
          "internalType": "uint96[]",
          "name": "denorms",
          "type": "uint96[]"
        }
      ],
      "name": "updateWeights",
      "outputs": [],
      "stateMutability": "nonpayable",
      "type": "function"
    },
    {
      "stateMutability": "payable",
      "type": "receive"
    }
  ],
  "bytecode": "0x608060405234801561001057600080fd5b50613175806100206000396000f3fe60806040526004361061008a5760003560e01c8063a4b32de811610059578063a4b32de814610135578063bc43cbaf14610177578063f3de885814610197578063f5b2cad7146101b7578063f8c8765e146101d757600080fd5b806321c281911461009657806365f616b9146100b857806368b1cc6e146100f5578063712aad4f1461011557600080fd5b3661009157005b600080fd5b3480156100a257600080fd5b506100b66100b13660046129e6565b6101f7565b005b3480156100c457600080fd5b506033546100d8906001600160a01b031681565b6040516001600160a01b0390911681526020015b60405180910390f35b34801561010157600080fd5b506100b6610110366004612a03565b610855565b34801561012157600080fd5b506034546100d8906001600160a01b031681565b34801561014157600080fd5b506101697fb1fadd3142ab2ad7f1337ea4d97112bcc8337fc11ce5b20cb04ad038adf9981981565b6040519081526020016100ec565b34801561018357600080fd5b506035546100d8906001600160a01b031681565b3480156101a357600080fd5b506100b66101b2366004612b7f565b610a5d565b3480156101c357600080fd5b506036546100d8906001600160a01b031681565b3480156101e357600080fd5b506100b66101f2366004612c55565b6115fb565b603554604051636487aa1160e01b81523360048201526001600160a01b0390911690636487aa1190602401602060405180830381865afa15801561023f573d6000803e3d6000fd5b505050506040513d601f19601f820116820180604052508101906102639190612cb1565b6102885760405162461bcd60e51b815260040161027f90612cd3565b60405180910390fd5b600260015414156102db5760405162461bcd60e51b815260206004820152601f60248201527f5265656e7472616e637947756172643a207265656e7472616e742063616c6c00604482015260640161027f565b60026001819055506000816001600160a01b03166318160ddd6040518163ffffffff1660e01b8152600401602060405180830381865afa158015610323573d6000803e3d6000fd5b505050506040513d601f19601f820116820180604052508101906103479190612d0a565b1161035157600080fd5b600080826001600160a01b031663aa6ca8086040518163ffffffff1660e01b8152600401600060405180830381865afa158015610392573d6000803e3d6000fd5b505050506040513d6000823e601f3d908101601f191682016040526103ba9190810190612d23565b5167ffffffffffffffff8111156103d3576103d3612a8b565b6040519080825280602002602001820160405280156103fc578160200160208202803683370190505b5090506000836001600160a01b031663aa6ca8086040518163ffffffff1660e01b8152600401600060405180830381865afa15801561043f573d6000803e3d6000fd5b505050506040513d6000823e601f3d908101601f191682016040526104679190810190612d23565b5167ffffffffffffffff81111561048057610480612a8b565b6040519080825280602002602001820160405280156104a9578160200160208202803683370190505b5090506000846001600160a01b031663aa6ca8086040518163ffffffff1660e01b8152600401600060405180830381865afa1580156104ec573d6000803e3d6000fd5b505050506040513d6000823e601f3d908101601f191682016040526105149190810190612d23565b5167ffffffffffffffff81111561052d5761052d612a8b565b604051908082528060200260200182016040528015610556578160200160208202803683370190505b50603354604051634414727960e01b81526001600160a01b0388811660048301529293509116906344147279906024016000604051808303816000875af11580156105a5573d6000803e3d6000fd5b505050506040513d6000823e601f3d908101601f191682016040526105cd9190810190612dbd565b9450905060005b856001600160a01b031663aa6ca8086040518163ffffffff1660e01b8152600401600060405180830381865afa158015610612573d6000803e3d6000fd5b505050506040513d6000823e601f3d908101601f1916820160405261063a9190810190612d23565b5181101561082d576106d9856106d3886001600160a01b031663ed2a2f9d6040518163ffffffff1660e01b8152600401602060405180830381865afa158015610687573d6000803e3d6000fd5b505050506040513d601f19601f820116820180604052508101906106ab9190612d0a565b8585815181106106bd576106bd612e56565b60200260200101516119fa90919063ffffffff16565b90611a0d565b8382815181106106eb576106eb612e56565b602002602001018181525050856001600160a01b031663617fba04876001600160a01b031663aa6ca8086040518163ffffffff1660e01b8152600401600060405180830381865afa158015610744573d6000803e3d6000fd5b505050506040513d6000823e601f3d908101601f1916820160405261076c9190810190612d23565b838151811061077d5761077d612e56565b60200260200101516040518263ffffffff1660e01b81526004016107b091906001600160a01b0391909116815260200190565b606060405180830381865afa1580156107cd573d6000803e3d6000fd5b505050506040513d601f19601f820116820180604052508101906107f19190612e6c565b602001516001600160601b031684828151811061081057610810612e56565b60209081029190910101528061082581612f04565b9150506105d4565b50600061083b868486611a19565b9050610849868486846123b1565b50506001805550505050565b603554604051636487aa1160e01b81523360048201526001600160a01b0390911690636487aa1190602401602060405180830381865afa15801561089d573d6000803e3d6000fd5b505050506040513d601f19601f820116820180604052508101906108c19190612cb1565b6108dd5760405162461bcd60e51b815260040161027f90612cd3565b826001600160a01b031663aa6ca8086040518163ffffffff1660e01b8152600401600060405180830381865afa15801561091b573d6000803e3d6000fd5b505050506040513d6000823e601f3d908101601f191682016040526109439190810190612d23565b5181146109885760405162461bcd60e51b8152602060048201526013602482015272098cadccee8d0e640c8dedc4ee840dac2e8c6d606b1b604482015260640161027f565b826001600160a01b0316635d2fbc1b846001600160a01b031663aa6ca8086040518163ffffffff1660e01b8152600401600060405180830381865afa1580156109d5573d6000803e3d6000fd5b505050506040513d6000823e601f3d908101601f191682016040526109fd9190810190612d23565b84846040518463ffffffff1660e01b8152600401610a1d93929190612f63565b600060405180830381600087803b158015610a3757600080fd5b505af1158015610a4b573d6000803e3d6000fd5b50505050610a58836101f7565b505050565b603554604051636487aa1160e01b81523360048201526001600160a01b0390911690636487aa1190602401602060405180830381865afa158015610aa5573d6000803e3d6000fd5b505050506040513d601f19601f82011682018060405250810190610ac99190612cb1565b610ae55760405162461bcd60e51b815260040161027f90612cd3565b6000805b8351811015610b3b57610b27838281518110610b0757610b07612e56565b60200260200101516001600160601b0316836126dd90919063ffffffff16565b915080610b3381612f04565b915050610ae9565b50836001600160a01b031663ed2a2f9d6040518163ffffffff1660e01b8152600401602060405180830381865afa158015610b7a573d6000803e3d6000fd5b505050506040513d601f19601f82011682018060405250810190610b9e9190612d0a565b8114610bde5760405162461bcd60e51b815260206004820152600f60248201526e494e56414c49445f5745494748545360881b604482015260640161027f565b6000610beb8585856126e9565b90506000856001600160a01b03166318160ddd6040518163ffffffff1660e01b8152600401602060405180830381865afa158015610c2d573d6000803e3d6000fd5b505050506040513d601f19601f82011682018060405250810190610c519190612d0a565b111561152d5760005b856001600160a01b031663aa6ca8086040518163ffffffff1660e01b8152600401600060405180830381865afa158015610c98573d6000803e3d6000fd5b505050506040513d6000823e601f3d908101601f19168201604052610cc09190810190612d23565b5181101561152b576000866001600160a01b031663aa6ca8086040518163ffffffff1660e01b8152600401600060405180830381865afa158015610d08573d6000803e3d6000fd5b505050506040513d6000823e601f3d908101601f19168201604052610d309190810190612d23565b8281518110610d4157610d41612e56565b60200260200101519050828281518110610d5d57610d5d612e56565b602002602001015160001415611518576000806001600160a01b0316603660009054906101000a90046001600160a01b03166001600160a01b0316635371f1f88a6001600160a01b031663aa6ca8086040518163ffffffff1660e01b8152600401600060405180830381865afa158015610ddb573d6000803e3d6000fd5b505050506040513d6000823e601f3d908101601f19168201604052610e039190810190612d23565b8681518110610e1457610e14612e56565b60200260200101516040518263ffffffff1660e01b8152600401610e4791906001600160a01b0391909116815260200190565b602060405180830381865afa158015610e64573d6000803e3d6000fd5b505050506040513d601f19601f82011682018060405250810190610e889190612fc6565b6001600160a01b0316146111fb57603460009054906101000a90046001600160a01b03166001600160a01b03166314f6c3be6040518163ffffffff1660e01b8152600401602060405180830381865afa158015610ee9573d6000803e3d6000fd5b505050506040513d601f19601f82011682018060405250810190610f0d9190612fc6565b6001600160a01b0316886001600160a01b031663aa6ca8086040518163ffffffff1660e01b8152600401600060405180830381865afa158015610f54573d6000803e3d6000fd5b505050506040513d6000823e601f3d908101601f19168201604052610f7c9190810190612d23565b8481518110610f8d57610f8d612e56565b60200260200101516001600160a01b031614611197576000603660009054906101000a90046001600160a01b03166001600160a01b0316635371f1f88a6001600160a01b031663aa6ca8086040518163ffffffff1660e01b8152600401600060405180830381865afa158015611007573d6000803e3d6000fd5b505050506040513d6000823e601f3d908101601f1916820160405261102f9190810190612d23565b868151811061104057611040612e56565b60200260200101516040518263ffffffff1660e01b815260040161107391906001600160a01b0391909116815260200190565b602060405180830381865afa158015611090573d6000803e3d6000fd5b505050506040513d601f19601f820116820180604052508101906110b49190612fc6565b9050806001600160a01b03166370a082318a6001600160a01b031663fbfa77cf6040518163ffffffff1660e01b8152600401602060405180830381865afa158015611103573d6000803e3d6000fd5b505050506040513d601f19601f820116820180604052508101906111279190612fc6565b6040516001600160e01b031960e084901b1681526001600160a01b039091166004820152602401602060405180830381865afa15801561116b573d6000803e3d6000fd5b505050506040513d601f19601f8201168201806040525081019061118f9190612d0a565b9150506112d7565b6000603660009054906101000a90046001600160a01b03166001600160a01b0316635371f1f88a6001600160a01b031663aa6ca8086040518163ffffffff1660e01b8152600401600060405180830381865afa158015611007573d6000803e3d6000fd5b816001600160a01b03166370a08231896001600160a01b031663fbfa77cf6040518163ffffffff1660e01b8152600401602060405180830381865afa158015611248573d6000803e3d6000fd5b505050506040513d601f19601f8201168201806040525081019061126c9190612fc6565b6040516001600160e01b031960e084901b1681526001600160a01b039091166004820152602401602060405180830381865afa1580156112b0573d6000803e3d6000fd5b505050506040513d601f19601f820116820180604052508101906112d49190612d0a565b90505b603460009054906101000a90046001600160a01b03166001600160a01b03166314f6c3be6040518163ffffffff1660e01b8152600401602060405180830381865afa15801561132a573d6000803e3d6000fd5b505050506040513d601f19601f8201168201806040525081019061134e9190612fc6565b6001600160a01b0316826001600160a01b031614156113d45760345460405163317f6cf160e21b81526001600160a01b039091169063c5fdb3c49061139d908b90869086903090600401612fe3565b600060405180830381600087803b1580156113b757600080fd5b505af11580156113cb573d6000803e3d6000fd5b505050506114bb565b60345460405163317f6cf160e21b81526001600160a01b039091169063c5fdb3c49061140a908b90869086908690600401612fe3565b600060405180830381600087803b15801561142457600080fd5b505af1158015611438573d6000803e3d6000fd5b5050603454604051633391d3f560e11b81526001600160a01b038681166004830152602482018690523060448301529091169250636723a7ea91506064016020604051808303816000875af1158015611495573d6000803e3d6000fd5b505050506040513d601f19601f820116820180604052508101906114b99190612d0a565b505b604051630d1f347160e01b81526001600160a01b038381166004830152891690630d1f347190602401600060405180830381600087803b1580156114fe57600080fd5b505af1158015611512573d6000803e3d6000fd5b50505050505b508061152381612f04565b915050610c5a565b505b604051635d2fbc1b60e01b81526001600160a01b03861690635d2fbc1b9061155b908790879060040161300e565b600060405180830381600087803b15801561157557600080fd5b505af1158015611589573d6000803e3d6000fd5b5050604051633d91c7e960e01b81526001600160a01b0388169250633d91c7e991506115b990879060040161306e565b600060405180830381600087803b1580156115d357600080fd5b505af11580156115e7573d6000803e3d6000fd5b505050506115f4856101f7565b5050505050565b6000611607600161293a565b9050801561161f576000805461ff0019166101001790555b603380546001600160a01b038781166001600160a01b031992831617909255603480548784169083161790556035805486841690831681179091556036805493861693909216929092179055604051637d41563b60e11b81527f1effbbff9c66c5e59634f24fe842750c60d18891155c32dd155fc2d661a4c86d600482015233602482015263fa82ac7690604401600060405180830381600087803b1580156116c757600080fd5b505af11580156116db573d6000803e3d6000fd5b5050603554604051631e4e009160e01b81527fb1fadd3142ab2ad7f1337ea4d97112bcc8337fc11ce5b20cb04ad038adf9981960048201527f1effbbff9c66c5e59634f24fe842750c60d18891155c32dd155fc2d661a4c86d60248201526001600160a01b039091169250631e4e00919150604401600060405180830381600087803b15801561176a57600080fd5b505af115801561177e573d6000803e3d6000fd5b5050603554604051637d41563b60e11b81527fb1fadd3142ab2ad7f1337ea4d97112bcc8337fc11ce5b20cb04ad038adf9981960048201523360248201526001600160a01b03909116925063fa82ac769150604401600060405180830381600087803b1580156117ed57600080fd5b505af1158015611801573d6000803e3d6000fd5b5050603554604051631e4e009160e01b81527f1916b456004f332cd8a19679364ef4be668619658be72c17b7e86697c4ae0f1660048201527f1effbbff9c66c5e59634f24fe842750c60d18891155c32dd155fc2d661a4c86d60248201526001600160a01b039091169250631e4e00919150604401600060405180830381600087803b15801561189057600080fd5b505af11580156118a4573d6000803e3d6000fd5b5050603554604051637d41563b60e11b81527f1916b456004f332cd8a19679364ef4be668619658be72c17b7e86697c4ae0f1660048201523060248201526001600160a01b03909116925063fa82ac769150604401600060405180830381600087803b15801561191357600080fd5b505af1158015611927573d6000803e3d6000fd5b5050603554604051637d41563b60e11b81527f8e73530dd444215065cdf478f826e993aeb5e2798587f0bbf5a978bd97df63ea60048201523060248201526001600160a01b03909116925063fa82ac769150604401600060405180830381600087803b15801561199657600080fd5b505af11580156119aa573d6000803e3d6000fd5b5050505080156115f4576000805461ff0019169055604051600181527f7f26b83ff96e1f2b6a682f133852f6798a09c465da95921460cefb38474024989060200160405180910390a15050505050565b6000611a068284613081565b9392505050565b6000611a0682846130a0565b6000805b846001600160a01b031663aa6ca8086040518163ffffffff1660e01b8152600401600060405180830381865afa158015611a5b573d6000803e3d6000fd5b505050506040513d6000823e601f3d908101601f19168201604052611a839190810190612d23565b518110156123a957838181518110611a9d57611a9d612e56565b6020026020010151838281518110611ab757611ab7612e56565b6020026020010151101561231c576000856001600160a01b031663aa6ca8086040518163ffffffff1660e01b8152600401600060405180830381865afa158015611b05573d6000803e3d6000fd5b505050506040513d6000823e601f3d908101601f19168201604052611b2d9190810190612d23565b8281518110611b3e57611b3e612e56565b602002602001015190506000806001600160a01b0316603660009054906101000a90046001600160a01b03166001600160a01b0316635371f1f8896001600160a01b031663aa6ca8086040518163ffffffff1660e01b8152600401600060405180830381865afa158015611bb6573d6000803e3d6000fd5b505050506040513d6000823e601f3d908101601f19168201604052611bde9190810190612d23565b8681518110611bef57611bef612e56565b60200260200101516040518263ffffffff1660e01b8152600401611c2291906001600160a01b0391909116815260200190565b602060405180830381865afa158015611c3f573d6000803e3d6000fd5b505050506040513d601f19601f82011682018060405250810190611c639190612fc6565b6001600160a01b031614611fd657603460009054906101000a90046001600160a01b03166001600160a01b03166314f6c3be6040518163ffffffff1660e01b8152600401602060405180830381865afa158015611cc4573d6000803e3d6000fd5b505050506040513d601f19601f82011682018060405250810190611ce89190612fc6565b6001600160a01b0316876001600160a01b031663aa6ca8086040518163ffffffff1660e01b8152600401600060405180830381865afa158015611d2f573d6000803e3d6000fd5b505050506040513d6000823e601f3d908101601f19168201604052611d579190810190612d23565b8481518110611d6857611d68612e56565b60200260200101516001600160a01b031614611f72576000603660009054906101000a90046001600160a01b03166001600160a01b0316635371f1f8896001600160a01b031663aa6ca8086040518163ffffffff1660e01b8152600401600060405180830381865afa158015611de2573d6000803e3d6000fd5b505050506040513d6000823e601f3d908101601f19168201604052611e0a9190810190612d23565b8681518110611e1b57611e1b612e56565b60200260200101516040518263ffffffff1660e01b8152600401611e4e91906001600160a01b0391909116815260200190565b602060405180830381865afa158015611e6b573d6000803e3d6000fd5b505050506040513d601f19601f82011682018060405250810190611e8f9190612fc6565b9050806001600160a01b03166370a08231896001600160a01b031663fbfa77cf6040518163ffffffff1660e01b8152600401602060405180830381865afa158015611ede573d6000803e3d6000fd5b505050506040513d601f19601f82011682018060405250810190611f029190612fc6565b6040516001600160e01b031960e084901b1681526001600160a01b039091166004820152602401602060405180830381865afa158015611f46573d6000803e3d6000fd5b505050506040513d601f19601f82011682018060405250810190611f6a9190612d0a565b9150506120b2565b6000603660009054906101000a90046001600160a01b03166001600160a01b0316635371f1f8896001600160a01b031663aa6ca8086040518163ffffffff1660e01b8152600401600060405180830381865afa158015611de2573d6000803e3d6000fd5b816001600160a01b03166370a08231886001600160a01b031663fbfa77cf6040518163ffffffff1660e01b8152600401602060405180830381865afa158015612023573d6000803e3d6000fd5b505050506040513d601f19601f820116820180604052508101906120479190612fc6565b6040516001600160e01b031960e084901b1681526001600160a01b039091166004820152602401602060405180830381865afa15801561208b573d6000803e3d6000fd5b505050506040513d601f19601f820116820180604052508101906120af9190612d0a565b90505b60006120f98685815181106120c9576120c9612e56565b60200260200101518886815181106120e3576120e3612e56565b60200260200101516129c290919063ffffffff16565b9050600061212d88868151811061211257612112612e56565b60200260200101516106d384866119fa90919063ffffffff16565b9050603460009054906101000a90046001600160a01b03166001600160a01b03166314f6c3be6040518163ffffffff1660e01b8152600401602060405180830381865afa158015612182573d6000803e3d6000fd5b505050506040513d601f19601f820116820180604052508101906121a69190612fc6565b6001600160a01b0316846001600160a01b0316141561222c5760345460405163317f6cf160e21b81526001600160a01b039091169063c5fdb3c4906121f5908c90889086903090600401612fe3565b600060405180830381600087803b15801561220f57600080fd5b505af1158015612223573d6000803e3d6000fd5b50505050612313565b60345460405163317f6cf160e21b81526001600160a01b039091169063c5fdb3c490612262908c90889086908690600401612fe3565b600060405180830381600087803b15801561227c57600080fd5b505af1158015612290573d6000803e3d6000fd5b5050603454604051633391d3f560e11b81526001600160a01b038881166004830152602482018690523060448301529091169250636723a7ea91506064016020604051808303816000875af11580156122ed573d6000803e3d6000fd5b505050506040513d601f19601f820116820180604052508101906123119190612d0a565b505b50505050612397565b83818151811061232e5761232e612e56565b602002602001015183828151811061234857612348612e56565b6020026020010151111561239757600061238785838151811061236d5761236d612e56565b60200260200101518584815181106120e3576120e3612e56565b905061239383826126dd565b9250505b806123a181612f04565b915050611a1d565b509392505050565b4760005b856001600160a01b031663aa6ca8086040518163ffffffff1660e01b8152600401600060405180830381865afa1580156123f3573d6000803e3d6000fd5b505050506040513d6000823e601f3d908101601f1916820160405261241b9190810190612d23565b518110156126d5576000866001600160a01b031663aa6ca8086040518163ffffffff1660e01b8152600401600060405180830381865afa158015612463573d6000803e3d6000fd5b505050506040513d6000823e601f3d908101601f1916820160405261248b9190810190612d23565b828151811061249c5761249c612e56565b602002602001015190508582815181106124b8576124b8612e56565b60200260200101518583815181106124d2576124d2612e56565b602002602001015111156126c25760006125118784815181106124f7576124f7612e56565b60200260200101518785815181106120e3576120e3612e56565b9050600081116125635760405162461bcd60e51b815260206004820152601960248201527f776569676874206e6f742067726561746572207468616e203000000000000000604482015260640161027f565b600085116125a95760405162461bcd60e51b8152602060048201526013602482015272191a5d88189e480c0b081cdd5b5dd95a59da1d606a1b604482015260640161027f565b60006125b9866106d387856119fa565b9050603460009054906101000a90046001600160a01b03166001600160a01b03166362a41e7e8285848d6001600160a01b031663fbfa77cf6040518163ffffffff1660e01b8152600401602060405180830381865afa158015612620573d6000803e3d6000fd5b505050506040513d601f19601f820116820180604052508101906126449190612fc6565b60405160e086901b6001600160e01b03191681526001600160a01b0393841660048201526024810192909252909116604482015260640160206040518083038185885af1158015612699573d6000803e3d6000fd5b50505050506040513d601f19601f820116820180604052508101906126be9190612d0a565b5050505b50806126cd81612f04565b9150506123b5565b505050505050565b6000611a0682846130c2565b60606000846001600160a01b031663aa6ca8086040518163ffffffff1660e01b8152600401600060405180830381865afa15801561272b573d6000803e3d6000fd5b505050506040513d6000823e601f3d908101601f191682016040526127539190810190612d23565b5167ffffffffffffffff81111561276c5761276c612a8b565b604051908082528060200260200182016040528015612795578160200160208202803683370190505b50905060005b856001600160a01b031663aa6ca8086040518163ffffffff1660e01b8152600401600060405180830381865afa1580156127d9573d6000803e3d6000fd5b505050506040513d6000823e601f3d908101601f191682016040526128019190810190612d23565b518110156129315760005b855181101561291e5785818151811061282757612827612e56565b60200260200101516001600160a01b0316876001600160a01b031663aa6ca8086040518163ffffffff1660e01b8152600401600060405180830381865afa158015612876573d6000803e3d6000fd5b505050506040513d6000823e601f3d908101601f1916820160405261289e9190810190612d23565b83815181106128af576128af612e56565b60200260200101516001600160a01b0316141561290c578481815181106128d8576128d8612e56565b60200260200101516001600160601b03168383815181106128fb576128fb612e56565b60200260200101818152505061291e565b8061291681612f04565b91505061280c565b508061292981612f04565b91505061279b565b50949350505050565b60008054610100900460ff1615612981578160ff16600114801561295d5750303b155b6129795760405162461bcd60e51b815260040161027f906130da565b506000919050565b60005460ff8084169116106129a85760405162461bcd60e51b815260040161027f906130da565b506000805460ff191660ff92909216919091179055600190565b6000611a068284613128565b6001600160a01b03811681146129e357600080fd5b50565b6000602082840312156129f857600080fd5b8135611a06816129ce565b600080600060408486031215612a1857600080fd5b8335612a23816129ce565b9250602084013567ffffffffffffffff80821115612a4057600080fd5b818601915086601f830112612a5457600080fd5b813581811115612a6357600080fd5b8760208260051b8501011115612a7857600080fd5b6020830194508093505050509250925092565b634e487b7160e01b600052604160045260246000fd5b604051601f8201601f1916810167ffffffffffffffff81118282101715612aca57612aca612a8b565b604052919050565b600067ffffffffffffffff821115612aec57612aec612a8b565b5060051b60200190565b6001600160601b03811681146129e357600080fd5b600082601f830112612b1c57600080fd5b81356020612b31612b2c83612ad2565b612aa1565b82815260059290921b84018101918181019086841115612b5057600080fd5b8286015b84811015612b74578035612b6781612af6565b8352918301918301612b54565b509695505050505050565b600080600060608486031215612b9457600080fd5b8335612b9f816129ce565b925060208481013567ffffffffffffffff80821115612bbd57600080fd5b818701915087601f830112612bd157600080fd5b8135612bdf612b2c82612ad2565b81815260059190911b8301840190848101908a831115612bfe57600080fd5b938501935b82851015612c25578435612c16816129ce565b82529385019390850190612c03565b965050506040870135925080831115612c3d57600080fd5b5050612c4b86828701612b0b565b9150509250925092565b60008060008060808587031215612c6b57600080fd5b8435612c76816129ce565b93506020850135612c86816129ce565b92506040850135612c96816129ce565b91506060850135612ca6816129ce565b939692955090935050565b600060208284031215612cc357600080fd5b81518015158114611a0657600080fd5b6020808252601e908201527f43616c6c6572206973206e6f7420616e204173736574204d616e616765720000604082015260600190565b600060208284031215612d1c57600080fd5b5051919050565b60006020808385031215612d3657600080fd5b825167ffffffffffffffff811115612d4d57600080fd5b8301601f81018513612d5e57600080fd5b8051612d6c612b2c82612ad2565b81815260059190911b82018301908381019087831115612d8b57600080fd5b928401925b82841015612db2578351612da3816129ce565b82529284019290840190612d90565b979650505050505050565b60008060408385031215612dd057600080fd5b825167ffffffffffffffff811115612de757600080fd5b8301601f81018513612df857600080fd5b80516020612e08612b2c83612ad2565b82815260059290921b83018101918181019088841115612e2757600080fd5b938201935b83851015612e4557845182529382019390820190612e2c565b969091015195979596505050505050565b634e487b7160e01b600052603260045260246000fd5b600060608284031215612e7e57600080fd5b6040516060810181811067ffffffffffffffff82111715612ea157612ea1612a8b565b604052825164ffffffffff81168114612eb957600080fd5b81526020830151612ec981612af6565b6020820152604083015160ff81168114612ee257600080fd5b60408201529392505050565b634e487b7160e01b600052601160045260246000fd5b6000600019821415612f1857612f18612eee565b5060010190565b600081518084526020808501945080840160005b83811015612f585781516001600160a01b031687529582019590820190600101612f33565b509495945050505050565b604081526000612f766040830186612f1f565b8281036020848101919091528482528591810160005b86811015612fba578335612f9f81612af6565b6001600160601b031682529282019290820190600101612f8c565b50979650505050505050565b600060208284031215612fd857600080fd5b8151611a06816129ce565b6001600160a01b03948516815292841660208401526040830191909152909116606082015260800190565b6040815260006130216040830185612f1f565b82810360208481019190915284518083528582019282019060005b818110156130615784516001600160601b03168352938301939183019160010161303c565b5090979650505050505050565b602081526000611a066020830184612f1f565b600081600019048311821515161561309b5761309b612eee565b500290565b6000826130bd57634e487b7160e01b600052601260045260246000fd5b500490565b600082198211156130d5576130d5612eee565b500190565b6020808252602e908201527f496e697469616c697a61626c653a20636f6e747261637420697320616c72656160408201526d191e481a5b9a5d1a585b1a5e995960921b606082015260800190565b60008282101561313a5761313a612eee565b50039056fea2646970667358221220c69d58494cdc4b776e12e5b8e56b12216e8ed3310068ccf85e3979bfa669777064736f6c634300080a0033",
  "linkReferences": {},
  "deployedLinkReferences": {}
}