{
  "_format": "hh-sol-artifact-1",
  "contractName": "Rebalancing",
  "sourceName": "contracts/rebalance/Rebalancing.sol",
  "abi": [
    {
      "anonymous": false,
      "inputs": [
        {
          "indexed": false,
          "internalType": "uint8",
          "name": "version",
          "type": "uint8"
        }
      ],
      "name": "Initialized",
      "type": "event"
    },
    {
      "inputs": [],
      "name": "ASSET_MANAGER_ROLE",
      "outputs": [
        {
          "internalType": "bytes32",
          "name": "",
          "type": "bytes32"
        }
      ],
      "stateMutability": "view",
      "type": "function"
    },
    {
      "inputs": [],
      "name": "accessController",
      "outputs": [
        {
          "internalType": "contract AccessController",
          "name": "",
          "type": "address"
        }
      ],
      "stateMutability": "view",
      "type": "function"
    },
    {
      "inputs": [],
      "name": "indexManager",
      "outputs": [
        {
          "internalType": "contract IndexManager",
          "name": "",
          "type": "address"
        }
      ],
      "stateMutability": "view",
      "type": "function"
    },
    {
      "inputs": [],
      "name": "indexSwapLibrary",
      "outputs": [
        {
          "internalType": "contract IndexSwapLibrary",
          "name": "",
          "type": "address"
        }
      ],
      "stateMutability": "view",
      "type": "function"
    },
    {
      "inputs": [
        {
          "internalType": "contract IndexSwapLibrary",
          "name": "_indexSwapLibrary",
          "type": "address"
        },
        {
          "internalType": "contract IndexManager",
          "name": "_indexManager",
          "type": "address"
        },
        {
          "internalType": "contract AccessController",
          "name": "_accessController",
          "type": "address"
        },
        {
          "internalType": "contract TokenMetadata",
          "name": "_tokenMetadata",
          "type": "address"
        }
      ],
      "name": "initialize",
      "outputs": [],
      "stateMutability": "nonpayable",
      "type": "function"
    },
    {
      "inputs": [
        {
          "internalType": "contract IndexSwap",
          "name": "_index",
          "type": "address"
        }
      ],
      "name": "rebalance",
      "outputs": [],
      "stateMutability": "nonpayable",
      "type": "function"
    },
    {
      "inputs": [
        {
          "internalType": "contract IndexSwap",
          "name": "_index",
          "type": "address"
        },
        {
          "internalType": "bool",
          "name": "_state",
          "type": "bool"
        }
      ],
      "name": "setPause",
      "outputs": [],
      "stateMutability": "nonpayable",
      "type": "function"
    },
    {
      "inputs": [],
      "name": "tokenMetadata",
      "outputs": [
        {
          "internalType": "contract TokenMetadata",
          "name": "",
          "type": "address"
        }
      ],
      "stateMutability": "view",
      "type": "function"
    },
    {
      "inputs": [
        {
          "internalType": "contract IndexSwap",
          "name": "_index",
          "type": "address"
        },
        {
          "internalType": "address[]",
          "name": "tokens",
          "type": "address[]"
        },
        {
          "internalType": "uint96[]",
          "name": "denorms",
          "type": "uint96[]"
        }
      ],
      "name": "updateTokens",
      "outputs": [],
      "stateMutability": "nonpayable",
      "type": "function"
    },
    {
      "inputs": [
        {
          "internalType": "contract IndexSwap",
          "name": "_index",
          "type": "address"
        },
        {
          "internalType": "uint96[]",
          "name": "denorms",
          "type": "uint96[]"
        }
      ],
      "name": "updateWeights",
      "outputs": [],
      "stateMutability": "nonpayable",
      "type": "function"
    },
    {
      "stateMutability": "payable",
      "type": "receive"
    }
  ],
  "bytecode": "0x608060405234801561001057600080fd5b50613375806100206000396000f3fe6080604052600436106100955760003560e01c8063bc43cbaf11610059578063bc43cbaf14610182578063c22dc722146101a2578063f3de8858146101c2578063f5b2cad7146101e2578063f8c8765e1461020257600080fd5b806321c28191146100a157806365f616b9146100c357806368b1cc6e14610100578063712aad4f14610120578063a4b32de81461014057600080fd5b3661009c57005b600080fd5b3480156100ad57600080fd5b506100c16100bc366004612ba4565b610222565b005b3480156100cf57600080fd5b506033546100e3906001600160a01b031681565b6040516001600160a01b0390911681526020015b60405180910390f35b34801561010c57600080fd5b506100c161011b366004612bc1565b610880565b34801561012c57600080fd5b506034546100e3906001600160a01b031681565b34801561014c57600080fd5b506101747fb1fadd3142ab2ad7f1337ea4d97112bcc8337fc11ce5b20cb04ad038adf9981981565b6040519081526020016100f7565b34801561018e57600080fd5b506035546100e3906001600160a01b031681565b3480156101ae57600080fd5b506100c16101bd366004612c57565b610a88565b3480156101ce57600080fd5b506100c16101dd366004612d84565b610b6f565b3480156101ee57600080fd5b506036546100e3906001600160a01b031681565b34801561020e57600080fd5b506100c161021d366004612e5a565b611767565b603554604051636487aa1160e01b81523360048201526001600160a01b0390911690636487aa1190602401602060405180830381865afa15801561026a573d6000803e3d6000fd5b505050506040513d601f19601f8201168201806040525081019061028e9190612eb6565b6102b35760405162461bcd60e51b81526004016102aa90612ed3565b60405180910390fd5b600260015414156103065760405162461bcd60e51b815260206004820152601f60248201527f5265656e7472616e637947756172643a207265656e7472616e742063616c6c0060448201526064016102aa565b60026001819055506000816001600160a01b03166318160ddd6040518163ffffffff1660e01b8152600401602060405180830381865afa15801561034e573d6000803e3d6000fd5b505050506040513d601f19601f820116820180604052508101906103729190612f0a565b1161037c57600080fd5b600080826001600160a01b031663aa6ca8086040518163ffffffff1660e01b8152600401600060405180830381865afa1580156103bd573d6000803e3d6000fd5b505050506040513d6000823e601f3d908101601f191682016040526103e59190810190612f23565b5167ffffffffffffffff8111156103fe576103fe612c90565b604051908082528060200260200182016040528015610427578160200160208202803683370190505b5090506000836001600160a01b031663aa6ca8086040518163ffffffff1660e01b8152600401600060405180830381865afa15801561046a573d6000803e3d6000fd5b505050506040513d6000823e601f3d908101601f191682016040526104929190810190612f23565b5167ffffffffffffffff8111156104ab576104ab612c90565b6040519080825280602002602001820160405280156104d4578160200160208202803683370190505b5090506000846001600160a01b031663aa6ca8086040518163ffffffff1660e01b8152600401600060405180830381865afa158015610517573d6000803e3d6000fd5b505050506040513d6000823e601f3d908101601f1916820160405261053f9190810190612f23565b5167ffffffffffffffff81111561055857610558612c90565b604051908082528060200260200182016040528015610581578160200160208202803683370190505b50603354604051634414727960e01b81526001600160a01b0388811660048301529293509116906344147279906024016000604051808303816000875af11580156105d0573d6000803e3d6000fd5b505050506040513d6000823e601f3d908101601f191682016040526105f89190810190612fbd565b9450905060005b856001600160a01b031663aa6ca8086040518163ffffffff1660e01b8152600401600060405180830381865afa15801561063d573d6000803e3d6000fd5b505050506040513d6000823e601f3d908101601f191682016040526106659190810190612f23565b5181101561085857610704856106fe886001600160a01b031663ed2a2f9d6040518163ffffffff1660e01b8152600401602060405180830381865afa1580156106b2573d6000803e3d6000fd5b505050506040513d601f19601f820116820180604052508101906106d69190612f0a565b8585815181106106e8576106e8613056565b6020026020010151611b6690919063ffffffff16565b90611b79565b83828151811061071657610716613056565b602002602001018181525050856001600160a01b031663617fba04876001600160a01b031663aa6ca8086040518163ffffffff1660e01b8152600401600060405180830381865afa15801561076f573d6000803e3d6000fd5b505050506040513d6000823e601f3d908101601f191682016040526107979190810190612f23565b83815181106107a8576107a8613056565b60200260200101516040518263ffffffff1660e01b81526004016107db91906001600160a01b0391909116815260200190565b606060405180830381865afa1580156107f8573d6000803e3d6000fd5b505050506040513d601f19601f8201168201806040525081019061081c919061306c565b602001516001600160601b031684828151811061083b5761083b613056565b60209081029190910101528061085081613104565b9150506105ff565b506000610866868486611b85565b905061087486848684612577565b50506001805550505050565b603554604051636487aa1160e01b81523360048201526001600160a01b0390911690636487aa1190602401602060405180830381865afa1580156108c8573d6000803e3d6000fd5b505050506040513d601f19601f820116820180604052508101906108ec9190612eb6565b6109085760405162461bcd60e51b81526004016102aa90612ed3565b826001600160a01b031663aa6ca8086040518163ffffffff1660e01b8152600401600060405180830381865afa158015610946573d6000803e3d6000fd5b505050506040513d6000823e601f3d908101601f1916820160405261096e9190810190612f23565b5181146109b35760405162461bcd60e51b8152602060048201526013602482015272098cadccee8d0e640c8dedc4ee840dac2e8c6d606b1b60448201526064016102aa565b826001600160a01b0316635d2fbc1b846001600160a01b031663aa6ca8086040518163ffffffff1660e01b8152600401600060405180830381865afa158015610a00573d6000803e3d6000fd5b505050506040513d6000823e601f3d908101601f19168201604052610a289190810190612f23565b84846040518463ffffffff1660e01b8152600401610a4893929190613163565b600060405180830381600087803b158015610a6257600080fd5b505af1158015610a76573d6000803e3d6000fd5b50505050610a8383610222565b505050565b603554604051636487aa1160e01b81523360048201526001600160a01b0390911690636487aa1190602401602060405180830381865afa158015610ad0573d6000803e3d6000fd5b505050506040513d601f19601f82011682018060405250810190610af49190612eb6565b610b105760405162461bcd60e51b81526004016102aa90612ed3565b6040516305b0e2cf60e21b815281151560048201526001600160a01b038316906316c38b3c90602401600060405180830381600087803b158015610b5357600080fd5b505af1158015610b67573d6000803e3d6000fd5b505050505050565b603554604051636487aa1160e01b81523360048201526001600160a01b0390911690636487aa1190602401602060405180830381865afa158015610bb7573d6000803e3d6000fd5b505050506040513d601f19601f82011682018060405250810190610bdb9190612eb6565b610bf75760405162461bcd60e51b81526004016102aa90612ed3565b6000805b8351811015610c4d57610c39838281518110610c1957610c19613056565b60200260200101516001600160601b03168361289b90919063ffffffff16565b915080610c4581613104565b915050610bfb565b50836001600160a01b031663ed2a2f9d6040518163ffffffff1660e01b8152600401602060405180830381865afa158015610c8c573d6000803e3d6000fd5b505050506040513d601f19601f82011682018060405250810190610cb09190612f0a565b8114610cf05760405162461bcd60e51b815260206004820152600f60248201526e494e56414c49445f5745494748545360881b60448201526064016102aa565b6000610cfd8585856128a7565b90506000856001600160a01b03166318160ddd6040518163ffffffff1660e01b8152600401602060405180830381865afa158015610d3f573d6000803e3d6000fd5b505050506040513d601f19601f82011682018060405250810190610d639190612f0a565b11156116995760005b856001600160a01b031663aa6ca8086040518163ffffffff1660e01b8152600401600060405180830381865afa158015610daa573d6000803e3d6000fd5b505050506040513d6000823e601f3d908101601f19168201604052610dd29190810190612f23565b51811015611697576000866001600160a01b031663aa6ca8086040518163ffffffff1660e01b8152600401600060405180830381865afa158015610e1a573d6000803e3d6000fd5b505050506040513d6000823e601f3d908101601f19168201604052610e429190810190612f23565b8281518110610e5357610e53613056565b60200260200101519050828281518110610e6f57610e6f613056565b602002602001015160001415611684576000806001600160a01b0316603660009054906101000a90046001600160a01b03166001600160a01b0316635371f1f88a6001600160a01b031663aa6ca8086040518163ffffffff1660e01b8152600401600060405180830381865afa158015610eed573d6000803e3d6000fd5b505050506040513d6000823e601f3d908101601f19168201604052610f159190810190612f23565b8681518110610f2657610f26613056565b60200260200101516040518263ffffffff1660e01b8152600401610f5991906001600160a01b0391909116815260200190565b602060405180830381865afa158015610f76573d6000803e3d6000fd5b505050506040513d601f19601f82011682018060405250810190610f9a91906131c6565b6001600160a01b03161461130d57603460009054906101000a90046001600160a01b03166001600160a01b03166314f6c3be6040518163ffffffff1660e01b8152600401602060405180830381865afa158015610ffb573d6000803e3d6000fd5b505050506040513d601f19601f8201168201806040525081019061101f91906131c6565b6001600160a01b0316886001600160a01b031663aa6ca8086040518163ffffffff1660e01b8152600401600060405180830381865afa158015611066573d6000803e3d6000fd5b505050506040513d6000823e601f3d908101601f1916820160405261108e9190810190612f23565b848151811061109f5761109f613056565b60200260200101516001600160a01b0316146112a9576000603660009054906101000a90046001600160a01b03166001600160a01b0316635371f1f88a6001600160a01b031663aa6ca8086040518163ffffffff1660e01b8152600401600060405180830381865afa158015611119573d6000803e3d6000fd5b505050506040513d6000823e601f3d908101601f191682016040526111419190810190612f23565b868151811061115257611152613056565b60200260200101516040518263ffffffff1660e01b815260040161118591906001600160a01b0391909116815260200190565b602060405180830381865afa1580156111a2573d6000803e3d6000fd5b505050506040513d601f19601f820116820180604052508101906111c691906131c6565b9050806001600160a01b03166370a082318a6001600160a01b031663fbfa77cf6040518163ffffffff1660e01b8152600401602060405180830381865afa158015611215573d6000803e3d6000fd5b505050506040513d601f19601f8201168201806040525081019061123991906131c6565b6040516001600160e01b031960e084901b1681526001600160a01b039091166004820152602401602060405180830381865afa15801561127d573d6000803e3d6000fd5b505050506040513d601f19601f820116820180604052508101906112a19190612f0a565b9150506113e9565b6000603660009054906101000a90046001600160a01b03166001600160a01b0316635371f1f88a6001600160a01b031663aa6ca8086040518163ffffffff1660e01b8152600401600060405180830381865afa158015611119573d6000803e3d6000fd5b816001600160a01b03166370a08231896001600160a01b031663fbfa77cf6040518163ffffffff1660e01b8152600401602060405180830381865afa15801561135a573d6000803e3d6000fd5b505050506040513d601f19601f8201168201806040525081019061137e91906131c6565b6040516001600160e01b031960e084901b1681526001600160a01b039091166004820152602401602060405180830381865afa1580156113c2573d6000803e3d6000fd5b505050506040513d601f19601f820116820180604052508101906113e69190612f0a565b90505b603460009054906101000a90046001600160a01b03166001600160a01b03166314f6c3be6040518163ffffffff1660e01b8152600401602060405180830381865afa15801561143c573d6000803e3d6000fd5b505050506040513d601f19601f8201168201806040525081019061146091906131c6565b6001600160a01b0316826001600160a01b031614156115405760345460405163317f6cf160e21b81526001600160a01b039091169063c5fdb3c4906114af908b908690869030906004016131e3565b600060405180830381600087803b1580156114c957600080fd5b505af11580156114dd573d6000803e3d6000fd5b5050604051632e1a7d4d60e01b8152600481018490526001600160a01b0385169250632e1a7d4d9150602401600060405180830381600087803b15801561152357600080fd5b505af1158015611537573d6000803e3d6000fd5b50505050611627565b60345460405163317f6cf160e21b81526001600160a01b039091169063c5fdb3c490611576908b908690869086906004016131e3565b600060405180830381600087803b15801561159057600080fd5b505af11580156115a4573d6000803e3d6000fd5b5050603454604051633391d3f560e11b81526001600160a01b038681166004830152602482018690523060448301529091169250636723a7ea91506064016020604051808303816000875af1158015611601573d6000803e3d6000fd5b505050506040513d601f19601f820116820180604052508101906116259190612f0a565b505b604051630d1f347160e01b81526001600160a01b038381166004830152891690630d1f347190602401600060405180830381600087803b15801561166a57600080fd5b505af115801561167e573d6000803e3d6000fd5b50505050505b508061168f81613104565b915050610d6c565b505b604051635d2fbc1b60e01b81526001600160a01b03861690635d2fbc1b906116c7908790879060040161320e565b600060405180830381600087803b1580156116e157600080fd5b505af11580156116f5573d6000803e3d6000fd5b5050604051633d91c7e960e01b81526001600160a01b0388169250633d91c7e9915061172590879060040161326e565b600060405180830381600087803b15801561173f57600080fd5b505af1158015611753573d6000803e3d6000fd5b5050505061176085610222565b5050505050565b60006117736001612af8565b9050801561178b576000805461ff0019166101001790555b603380546001600160a01b038781166001600160a01b031992831617909255603480548784169083161790556035805486841690831681179091556036805493861693909216929092179055604051637d41563b60e11b81527f1effbbff9c66c5e59634f24fe842750c60d18891155c32dd155fc2d661a4c86d600482015233602482015263fa82ac7690604401600060405180830381600087803b15801561183357600080fd5b505af1158015611847573d6000803e3d6000fd5b5050603554604051631e4e009160e01b81527fb1fadd3142ab2ad7f1337ea4d97112bcc8337fc11ce5b20cb04ad038adf9981960048201527f1effbbff9c66c5e59634f24fe842750c60d18891155c32dd155fc2d661a4c86d60248201526001600160a01b039091169250631e4e00919150604401600060405180830381600087803b1580156118d657600080fd5b505af11580156118ea573d6000803e3d6000fd5b5050603554604051637d41563b60e11b81527fb1fadd3142ab2ad7f1337ea4d97112bcc8337fc11ce5b20cb04ad038adf9981960048201523360248201526001600160a01b03909116925063fa82ac769150604401600060405180830381600087803b15801561195957600080fd5b505af115801561196d573d6000803e3d6000fd5b5050603554604051631e4e009160e01b81527f1916b456004f332cd8a19679364ef4be668619658be72c17b7e86697c4ae0f1660048201527f1effbbff9c66c5e59634f24fe842750c60d18891155c32dd155fc2d661a4c86d60248201526001600160a01b039091169250631e4e00919150604401600060405180830381600087803b1580156119fc57600080fd5b505af1158015611a10573d6000803e3d6000fd5b5050603554604051637d41563b60e11b81527f1916b456004f332cd8a19679364ef4be668619658be72c17b7e86697c4ae0f1660048201523060248201526001600160a01b03909116925063fa82ac769150604401600060405180830381600087803b158015611a7f57600080fd5b505af1158015611a93573d6000803e3d6000fd5b5050603554604051637d41563b60e11b81527f8e73530dd444215065cdf478f826e993aeb5e2798587f0bbf5a978bd97df63ea60048201523060248201526001600160a01b03909116925063fa82ac769150604401600060405180830381600087803b158015611b0257600080fd5b505af1158015611b16573d6000803e3d6000fd5b505050508015611760576000805461ff0019169055604051600181527f7f26b83ff96e1f2b6a682f133852f6798a09c465da95921460cefb38474024989060200160405180910390a15050505050565b6000611b728284613281565b9392505050565b6000611b7282846132a0565b6000805b846001600160a01b031663aa6ca8086040518163ffffffff1660e01b8152600401600060405180830381865afa158015611bc7573d6000803e3d6000fd5b505050506040513d6000823e601f3d908101601f19168201604052611bef9190810190612f23565b5181101561256f57838181518110611c0957611c09613056565b6020026020010151838281518110611c2357611c23613056565b602002602001015110156124e2576000856001600160a01b031663aa6ca8086040518163ffffffff1660e01b8152600401600060405180830381865afa158015611c71573d6000803e3d6000fd5b505050506040513d6000823e601f3d908101601f19168201604052611c999190810190612f23565b8281518110611caa57611caa613056565b602002602001015190506000806001600160a01b0316603660009054906101000a90046001600160a01b03166001600160a01b0316635371f1f8896001600160a01b031663aa6ca8086040518163ffffffff1660e01b8152600401600060405180830381865afa158015611d22573d6000803e3d6000fd5b505050506040513d6000823e601f3d908101601f19168201604052611d4a9190810190612f23565b8681518110611d5b57611d5b613056565b60200260200101516040518263ffffffff1660e01b8152600401611d8e91906001600160a01b0391909116815260200190565b602060405180830381865afa158015611dab573d6000803e3d6000fd5b505050506040513d601f19601f82011682018060405250810190611dcf91906131c6565b6001600160a01b03161461214257603460009054906101000a90046001600160a01b03166001600160a01b03166314f6c3be6040518163ffffffff1660e01b8152600401602060405180830381865afa158015611e30573d6000803e3d6000fd5b505050506040513d601f19601f82011682018060405250810190611e5491906131c6565b6001600160a01b0316876001600160a01b031663aa6ca8086040518163ffffffff1660e01b8152600401600060405180830381865afa158015611e9b573d6000803e3d6000fd5b505050506040513d6000823e601f3d908101601f19168201604052611ec39190810190612f23565b8481518110611ed457611ed4613056565b60200260200101516001600160a01b0316146120de576000603660009054906101000a90046001600160a01b03166001600160a01b0316635371f1f8896001600160a01b031663aa6ca8086040518163ffffffff1660e01b8152600401600060405180830381865afa158015611f4e573d6000803e3d6000fd5b505050506040513d6000823e601f3d908101601f19168201604052611f769190810190612f23565b8681518110611f8757611f87613056565b60200260200101516040518263ffffffff1660e01b8152600401611fba91906001600160a01b0391909116815260200190565b602060405180830381865afa158015611fd7573d6000803e3d6000fd5b505050506040513d601f19601f82011682018060405250810190611ffb91906131c6565b9050806001600160a01b03166370a08231896001600160a01b031663fbfa77cf6040518163ffffffff1660e01b8152600401602060405180830381865afa15801561204a573d6000803e3d6000fd5b505050506040513d601f19601f8201168201806040525081019061206e91906131c6565b6040516001600160e01b031960e084901b1681526001600160a01b039091166004820152602401602060405180830381865afa1580156120b2573d6000803e3d6000fd5b505050506040513d601f19601f820116820180604052508101906120d69190612f0a565b91505061221e565b6000603660009054906101000a90046001600160a01b03166001600160a01b0316635371f1f8896001600160a01b031663aa6ca8086040518163ffffffff1660e01b8152600401600060405180830381865afa158015611f4e573d6000803e3d6000fd5b816001600160a01b03166370a08231886001600160a01b031663fbfa77cf6040518163ffffffff1660e01b8152600401602060405180830381865afa15801561218f573d6000803e3d6000fd5b505050506040513d601f19601f820116820180604052508101906121b391906131c6565b6040516001600160e01b031960e084901b1681526001600160a01b039091166004820152602401602060405180830381865afa1580156121f7573d6000803e3d6000fd5b505050506040513d601f19601f8201168201806040525081019061221b9190612f0a565b90505b600061226586858151811061223557612235613056565b602002602001015188868151811061224f5761224f613056565b6020026020010151612b8090919063ffffffff16565b9050600061229988868151811061227e5761227e613056565b60200260200101516106fe8486611b6690919063ffffffff16565b9050603460009054906101000a90046001600160a01b03166001600160a01b03166314f6c3be6040518163ffffffff1660e01b8152600401602060405180830381865afa1580156122ee573d6000803e3d6000fd5b505050506040513d601f19601f8201168201806040525081019061231291906131c6565b6001600160a01b0316846001600160a01b031614156123f25760345460405163317f6cf160e21b81526001600160a01b039091169063c5fdb3c490612361908c908890869030906004016131e3565b600060405180830381600087803b15801561237b57600080fd5b505af115801561238f573d6000803e3d6000fd5b5050604051632e1a7d4d60e01b8152600481018490526001600160a01b0387169250632e1a7d4d9150602401600060405180830381600087803b1580156123d557600080fd5b505af11580156123e9573d6000803e3d6000fd5b505050506124d9565b60345460405163317f6cf160e21b81526001600160a01b039091169063c5fdb3c490612428908c908890869086906004016131e3565b600060405180830381600087803b15801561244257600080fd5b505af1158015612456573d6000803e3d6000fd5b5050603454604051633391d3f560e11b81526001600160a01b038881166004830152602482018690523060448301529091169250636723a7ea91506064016020604051808303816000875af11580156124b3573d6000803e3d6000fd5b505050506040513d601f19601f820116820180604052508101906124d79190612f0a565b505b5050505061255d565b8381815181106124f4576124f4613056565b602002602001015183828151811061250e5761250e613056565b6020026020010151111561255d57600061254d85838151811061253357612533613056565b602002602001015185848151811061224f5761224f613056565b9050612559838261289b565b9250505b8061256781613104565b915050611b89565b509392505050565b4760005b856001600160a01b031663aa6ca8086040518163ffffffff1660e01b8152600401600060405180830381865afa1580156125b9573d6000803e3d6000fd5b505050506040513d6000823e601f3d908101601f191682016040526125e19190810190612f23565b51811015610b67576000866001600160a01b031663aa6ca8086040518163ffffffff1660e01b8152600401600060405180830381865afa158015612629573d6000803e3d6000fd5b505050506040513d6000823e601f3d908101601f191682016040526126519190810190612f23565b828151811061266257612662613056565b6020026020010151905085828151811061267e5761267e613056565b602002602001015185838151811061269857612698613056565b602002602001015111156128885760006126d78784815181106126bd576126bd613056565b602002602001015187858151811061224f5761224f613056565b9050600081116127295760405162461bcd60e51b815260206004820152601960248201527f776569676874206e6f742067726561746572207468616e20300000000000000060448201526064016102aa565b6000851161276f5760405162461bcd60e51b8152602060048201526013602482015272191a5d88189e480c0b081cdd5b5dd95a59da1d606a1b60448201526064016102aa565b600061277f866106fe8785611b66565b9050603460009054906101000a90046001600160a01b03166001600160a01b03166362a41e7e8285848d6001600160a01b031663fbfa77cf6040518163ffffffff1660e01b8152600401602060405180830381865afa1580156127e6573d6000803e3d6000fd5b505050506040513d601f19601f8201168201806040525081019061280a91906131c6565b60405160e086901b6001600160e01b03191681526001600160a01b0393841660048201526024810192909252909116604482015260640160206040518083038185885af115801561285f573d6000803e3d6000fd5b50505050506040513d601f19601f820116820180604052508101906128849190612f0a565b5050505b508061289381613104565b91505061257b565b6000611b7282846132c2565b60606000846001600160a01b031663aa6ca8086040518163ffffffff1660e01b8152600401600060405180830381865afa1580156128e9573d6000803e3d6000fd5b505050506040513d6000823e601f3d908101601f191682016040526129119190810190612f23565b5167ffffffffffffffff81111561292a5761292a612c90565b604051908082528060200260200182016040528015612953578160200160208202803683370190505b50905060005b856001600160a01b031663aa6ca8086040518163ffffffff1660e01b8152600401600060405180830381865afa158015612997573d6000803e3d6000fd5b505050506040513d6000823e601f3d908101601f191682016040526129bf9190810190612f23565b51811015612aef5760005b8551811015612adc578581815181106129e5576129e5613056565b60200260200101516001600160a01b0316876001600160a01b031663aa6ca8086040518163ffffffff1660e01b8152600401600060405180830381865afa158015612a34573d6000803e3d6000fd5b505050506040513d6000823e601f3d908101601f19168201604052612a5c9190810190612f23565b8381518110612a6d57612a6d613056565b60200260200101516001600160a01b03161415612aca57848181518110612a9657612a96613056565b60200260200101516001600160601b0316838381518110612ab957612ab9613056565b602002602001018181525050612adc565b80612ad481613104565b9150506129ca565b5080612ae781613104565b915050612959565b50949350505050565b60008054610100900460ff1615612b3f578160ff166001148015612b1b5750303b155b612b375760405162461bcd60e51b81526004016102aa906132da565b506000919050565b60005460ff808416911610612b665760405162461bcd60e51b81526004016102aa906132da565b506000805460ff191660ff92909216919091179055600190565b6000611b728284613328565b6001600160a01b0381168114612ba157600080fd5b50565b600060208284031215612bb657600080fd5b8135611b7281612b8c565b600080600060408486031215612bd657600080fd5b8335612be181612b8c565b9250602084013567ffffffffffffffff80821115612bfe57600080fd5b818601915086601f830112612c1257600080fd5b813581811115612c2157600080fd5b8760208260051b8501011115612c3657600080fd5b6020830194508093505050509250925092565b8015158114612ba157600080fd5b60008060408385031215612c6a57600080fd5b8235612c7581612b8c565b91506020830135612c8581612c49565b809150509250929050565b634e487b7160e01b600052604160045260246000fd5b604051601f8201601f1916810167ffffffffffffffff81118282101715612ccf57612ccf612c90565b604052919050565b600067ffffffffffffffff821115612cf157612cf1612c90565b5060051b60200190565b6001600160601b0381168114612ba157600080fd5b600082601f830112612d2157600080fd5b81356020612d36612d3183612cd7565b612ca6565b82815260059290921b84018101918181019086841115612d5557600080fd5b8286015b84811015612d79578035612d6c81612cfb565b8352918301918301612d59565b509695505050505050565b600080600060608486031215612d9957600080fd5b8335612da481612b8c565b925060208481013567ffffffffffffffff80821115612dc257600080fd5b818701915087601f830112612dd657600080fd5b8135612de4612d3182612cd7565b81815260059190911b8301840190848101908a831115612e0357600080fd5b938501935b82851015612e2a578435612e1b81612b8c565b82529385019390850190612e08565b965050506040870135925080831115612e4257600080fd5b5050612e5086828701612d10565b9150509250925092565b60008060008060808587031215612e7057600080fd5b8435612e7b81612b8c565b93506020850135612e8b81612b8c565b92506040850135612e9b81612b8c565b91506060850135612eab81612b8c565b939692955090935050565b600060208284031215612ec857600080fd5b8151611b7281612c49565b6020808252601e908201527f43616c6c6572206973206e6f7420616e204173736574204d616e616765720000604082015260600190565b600060208284031215612f1c57600080fd5b5051919050565b60006020808385031215612f3657600080fd5b825167ffffffffffffffff811115612f4d57600080fd5b8301601f81018513612f5e57600080fd5b8051612f6c612d3182612cd7565b81815260059190911b82018301908381019087831115612f8b57600080fd5b928401925b82841015612fb2578351612fa381612b8c565b82529284019290840190612f90565b979650505050505050565b60008060408385031215612fd057600080fd5b825167ffffffffffffffff811115612fe757600080fd5b8301601f81018513612ff857600080fd5b80516020613008612d3183612cd7565b82815260059290921b8301810191818101908884111561302757600080fd5b938201935b838510156130455784518252938201939082019061302c565b969091015195979596505050505050565b634e487b7160e01b600052603260045260246000fd5b60006060828403121561307e57600080fd5b6040516060810181811067ffffffffffffffff821117156130a1576130a1612c90565b604052825164ffffffffff811681146130b957600080fd5b815260208301516130c981612cfb565b6020820152604083015160ff811681146130e257600080fd5b60408201529392505050565b634e487b7160e01b600052601160045260246000fd5b6000600019821415613118576131186130ee565b5060010190565b600081518084526020808501945080840160005b838110156131585781516001600160a01b031687529582019590820190600101613133565b509495945050505050565b604081526000613176604083018661311f565b8281036020848101919091528482528591810160005b868110156131ba57833561319f81612cfb565b6001600160601b03168252928201929082019060010161318c565b50979650505050505050565b6000602082840312156131d857600080fd5b8151611b7281612b8c565b6001600160a01b03948516815292841660208401526040830191909152909116606082015260800190565b604081526000613221604083018561311f565b82810360208481019190915284518083528582019282019060005b818110156132615784516001600160601b03168352938301939183019160010161323c565b5090979650505050505050565b602081526000611b72602083018461311f565b600081600019048311821515161561329b5761329b6130ee565b500290565b6000826132bd57634e487b7160e01b600052601260045260246000fd5b500490565b600082198211156132d5576132d56130ee565b500190565b6020808252602e908201527f496e697469616c697a61626c653a20636f6e747261637420697320616c72656160408201526d191e481a5b9a5d1a585b1a5e995960921b606082015260800190565b60008282101561333a5761333a6130ee565b50039056fea26469706673582212200e48a4c7775ab7babf4ac7184efcb6feccefe394eac2e9202651fa4e500f005764736f6c634300080a0033",
  "linkReferences": {},
  "deployedLinkReferences": {}
}