{
  "_format": "hh-sol-artifact-1",
  "contractName": "Rebalancing",
  "sourceName": "contracts/rebalance/Rebalancing.sol",
  "abi": [
    {
      "inputs": [
        {
          "internalType": "contract IndexSwap",
          "name": "_index",
          "type": "address"
        },
        {
          "internalType": "contract IndexSwapLibrary",
          "name": "_indexSwapLibrary",
          "type": "address"
        },
        {
          "internalType": "contract Adapter",
          "name": "_adapter",
          "type": "address"
        },
        {
          "internalType": "contract AccessController",
          "name": "_accessController",
          "type": "address"
        },
        {
          "internalType": "contract TokenMetadata",
          "name": "_tokenMetadata",
          "type": "address"
        }
      ],
      "stateMutability": "nonpayable",
      "type": "constructor"
    },
    {
      "anonymous": false,
      "inputs": [
        {
          "indexed": false,
          "internalType": "uint256",
          "name": "charged",
          "type": "uint256"
        },
        {
          "indexed": false,
          "internalType": "address",
          "name": "token",
          "type": "address"
        },
        {
          "indexed": false,
          "internalType": "uint256",
          "name": "amount",
          "type": "uint256"
        }
      ],
      "name": "FeeCharged",
      "type": "event"
    },
    {
      "anonymous": false,
      "inputs": [
        {
          "indexed": false,
          "internalType": "uint256",
          "name": "updated",
          "type": "uint256"
        },
        {
          "indexed": false,
          "internalType": "address[]",
          "name": "newTokens",
          "type": "address[]"
        },
        {
          "indexed": false,
          "internalType": "uint96[]",
          "name": "newDenorms",
          "type": "uint96[]"
        }
      ],
      "name": "UpdatedTokens",
      "type": "event"
    },
    {
      "anonymous": false,
      "inputs": [
        {
          "indexed": false,
          "internalType": "uint256",
          "name": "updated",
          "type": "uint256"
        },
        {
          "indexed": false,
          "internalType": "uint96[]",
          "name": "newDenorms",
          "type": "uint96[]"
        }
      ],
      "name": "UpdatedWeights",
      "type": "event"
    },
    {
      "inputs": [],
      "name": "ASSET_MANAGER_ROLE",
      "outputs": [
        {
          "internalType": "bytes32",
          "name": "",
          "type": "bytes32"
        }
      ],
      "stateMutability": "view",
      "type": "function"
    },
    {
      "inputs": [],
      "name": "accessController",
      "outputs": [
        {
          "internalType": "contract AccessController",
          "name": "",
          "type": "address"
        }
      ],
      "stateMutability": "view",
      "type": "function"
    },
    {
      "inputs": [],
      "name": "adapter",
      "outputs": [
        {
          "internalType": "contract Adapter",
          "name": "",
          "type": "address"
        }
      ],
      "stateMutability": "view",
      "type": "function"
    },
    {
      "inputs": [],
      "name": "feeModule",
      "outputs": [],
      "stateMutability": "nonpayable",
      "type": "function"
    },
    {
      "inputs": [],
      "name": "index",
      "outputs": [
        {
          "internalType": "contract IndexSwap",
          "name": "",
          "type": "address"
        }
      ],
      "stateMutability": "view",
      "type": "function"
    },
    {
      "inputs": [],
      "name": "indexSwapLibrary",
      "outputs": [
        {
          "internalType": "contract IndexSwapLibrary",
          "name": "",
          "type": "address"
        }
      ],
      "stateMutability": "view",
      "type": "function"
    },
    {
      "inputs": [
        {
          "internalType": "bool",
          "name": "_state",
          "type": "bool"
        }
      ],
      "name": "setPause",
      "outputs": [],
      "stateMutability": "nonpayable",
      "type": "function"
    },
    {
      "inputs": [],
      "name": "tokenMetadata",
      "outputs": [
        {
          "internalType": "contract TokenMetadata",
          "name": "",
          "type": "address"
        }
      ],
      "stateMutability": "view",
      "type": "function"
    },
    {
      "inputs": [
        {
          "internalType": "address[]",
          "name": "tokens",
          "type": "address[]"
        },
        {
          "internalType": "uint96[]",
          "name": "denorms",
          "type": "uint96[]"
        }
      ],
      "name": "updateTokens",
      "outputs": [],
      "stateMutability": "nonpayable",
      "type": "function"
    },
    {
      "inputs": [
        {
          "internalType": "address",
          "name": "_newAddress",
          "type": "address"
        }
      ],
      "name": "updateTreasury",
      "outputs": [],
      "stateMutability": "nonpayable",
      "type": "function"
    },
    {
      "inputs": [
        {
          "internalType": "uint96[]",
          "name": "denorms",
          "type": "uint96[]"
        }
      ],
      "name": "updateWeights",
      "outputs": [],
      "stateMutability": "nonpayable",
      "type": "function"
    },
    {
      "stateMutability": "payable",
      "type": "receive"
    }
  ],
  "bytecode": "0x60806040523480156200001157600080fd5b5060405162004ab138038062004ab18339810160408190526200003491620002c0565b6001600081905580546001600160a01b03199081166001600160a01b038881169190911790925560028054821687841617905560038054821686841617905560048054821685841690811782556005805490931693851693909317909155604051637d41563b60e11b81527f1effbbff9c66c5e59634f24fe842750c60d18891155c32dd155fc2d661a4c86d9181019190915233602482015263fa82ac7690604401600060405180830381600087803b158015620000f157600080fd5b505af115801562000106573d6000803e3d6000fd5b505060048054604051637d41563b60e11b81527fb1fadd3142ab2ad7f1337ea4d97112bcc8337fc11ce5b20cb04ad038adf99819928101929092523360248301526001600160a01b0316925063fa82ac769150604401600060405180830381600087803b1580156200017757600080fd5b505af11580156200018c573d6000803e3d6000fd5b505060048054604051637d41563b60e11b81527f1916b456004f332cd8a19679364ef4be668619658be72c17b7e86697c4ae0f16928101929092523060248301526001600160a01b0316925063fa82ac769150604401600060405180830381600087803b158015620001fd57600080fd5b505af115801562000212573d6000803e3d6000fd5b505060048054604051637d41563b60e11b81527f8e73530dd444215065cdf478f826e993aeb5e2798587f0bbf5a978bd97df63ea928101929092523060248301526001600160a01b0316925063fa82ac769150604401600060405180830381600087803b1580156200028357600080fd5b505af115801562000298573d6000803e3d6000fd5b50505050505050505062000340565b6001600160a01b0381168114620002bd57600080fd5b50565b600080600080600060a08688031215620002d957600080fd5b8551620002e681620002a7565b6020870151909550620002f981620002a7565b60408701519094506200030c81620002a7565b60608701519093506200031f81620002a7565b60808701519092506200033281620002a7565b809150509295509295909350565b61476180620003506000396000f3fe6080604052600436106100a05760003560e01c80637f51bb1f116100645780637f51bb1f1461016b578063a4b32de81461018b578063bae41cbf146101cd578063bc43cbaf146101e2578063bedb86fb14610202578063f5b2cad71461022257600080fd5b806303eadcfc146100ac578063075c3151146100e95780632986c0e51461010b5780635774963d1461012b57806365f616b91461014b57600080fd5b366100a757005b600080fd5b3480156100b857600080fd5b506003546100cc906001600160a01b031681565b6040516001600160a01b0390911681526020015b60405180910390f35b3480156100f557600080fd5b506101096101043660046140f7565b610242565b005b34801561011757600080fd5b506001546100cc906001600160a01b031681565b34801561013757600080fd5b506101096101463660046141b9565b61109d565b34801561015757600080fd5b506002546100cc906001600160a01b031681565b34801561017757600080fd5b5061010961018636600461422e565b6112f9565b34801561019757600080fd5b506101bf7fb1fadd3142ab2ad7f1337ea4d97112bcc8337fc11ce5b20cb04ad038adf9981981565b6040519081526020016100e0565b3480156101d957600080fd5b506101096113e5565b3480156101ee57600080fd5b506004546100cc906001600160a01b031681565b34801561020e57600080fd5b5061010961021d366004614259565b612732565b34801561022e57600080fd5b506005546100cc906001600160a01b031681565b60048054604051636487aa1160e01b815233928101929092526001600160a01b031690636487aa1190602401602060405180830381865afa15801561028b573d6000803e3d6000fd5b505050506040513d601f19601f820116820180604052508101906102af9190614276565b6102d45760405162461bcd60e51b81526004016102cb90614293565b60405180910390fd5b6000805b835181101561032a576103168382815181106102f6576102f66142ca565b60200260200101516001600160601b0316836127ed90919063ffffffff16565b915080610322816142f6565b9150506102d8565b50600160009054906101000a90046001600160a01b03166001600160a01b031663ed2a2f9d6040518163ffffffff1660e01b8152600401602060405180830381865afa15801561037e573d6000803e3d6000fd5b505050506040513d601f19601f820116820180604052508101906103a29190614311565b81146103e25760405162461bcd60e51b815260206004820152600f60248201526e494e56414c49445f5745494748545360881b60448201526064016102cb565b60006103ee8484612800565b90506000600160009054906101000a90046001600160a01b03166001600160a01b03166318160ddd6040518163ffffffff1660e01b8152600401602060405180830381865afa158015610445573d6000803e3d6000fd5b505050506040513d601f19601f820116820180604052508101906104699190614311565b1115610f8e5760005b600160009054906101000a90046001600160a01b03166001600160a01b031663aa6ca8086040518163ffffffff1660e01b8152600401600060405180830381865afa1580156104c5573d6000803e3d6000fd5b505050506040513d6000823e601f3d908101601f191682016040526104ed919081019061432a565b51811015610f8c57818181518110610507576105076142ca565b602002602001015160001415610f7a576002546001546040805163154d950160e31b815290516000936001600160a01b03908116936369d70bfe93911691829163aa6ca80891600480830192899291908290030181865afa158015610570573d6000803e3d6000fd5b505050506040513d6000823e601f3d908101601f19168201604052610598919081019061432a565b85815181106105a9576105a96142ca565b6020026020010151600160009054906101000a90046001600160a01b03166001600160a01b031663aa6ca8086040518163ffffffff1660e01b8152600401600060405180830381865afa158015610604573d6000803e3d6000fd5b505050506040513d6000823e601f3d908101601f1916820160405261062c919081019061432a565b868151811061063d5761063d6142ca565b60200260200101516001600160a01b0316600360009054906101000a90046001600160a01b03166001600160a01b03166314f6c3be6040518163ffffffff1660e01b8152600401602060405180830381865afa1580156106a1573d6000803e3d6000fd5b505050506040513d601f19601f820116820180604052508101906106c591906143c4565b60405160e086901b6001600160e01b03191681526001600160a01b03948516600482015292841660248401529092169091146044820152606401602060405180830381865afa15801561071c573d6000803e3d6000fd5b505050506040513d601f19601f820116820180604052508101906107409190614311565b9050600360009054906101000a90046001600160a01b03166001600160a01b03166314f6c3be6040518163ffffffff1660e01b8152600401602060405180830381865afa158015610795573d6000803e3d6000fd5b505050506040513d601f19601f820116820180604052508101906107b991906143c4565b6001600160a01b0316600160009054906101000a90046001600160a01b03166001600160a01b031663aa6ca8086040518163ffffffff1660e01b8152600401600060405180830381865afa158015610815573d6000803e3d6000fd5b505050506040513d6000823e601f3d908101601f1916820160405261083d919081019061432a565b838151811061084e5761084e6142ca565b60200260200101516001600160a01b03161415610c8b576003546001546040805163154d950160e31b815290516001600160a01b039384169363c5fdb3c4931691829163aa6ca808916004808201926000929091908290030181865afa1580156108bc573d6000803e3d6000fd5b505050506040513d6000823e601f3d908101601f191682016040526108e4919081019061432a565b85815181106108f5576108f56142ca565b602002602001015184306040518563ffffffff1660e01b815260040161091e94939291906143e1565b600060405180830381600087803b15801561093857600080fd5b505af115801561094c573d6000803e3d6000fd5b50506005546001546040805163154d950160e31b81529051600095506001600160a01b039384169450635371f1f8939092169163aa6ca8089160048082019288929091908290030181865afa1580156109a9573d6000803e3d6000fd5b505050506040513d6000823e601f3d908101601f191682016040526109d1919081019061432a565b85815181106109e2576109e26142ca565b60200260200101516040518263ffffffff1660e01b8152600401610a1591906001600160a01b0391909116815260200190565b602060405180830381865afa158015610a32573d6000803e3d6000fd5b505050506040513d601f19601f82011682018060405250810190610a5691906143c4565b6001600160a01b031614610bca576003546005546001546040805163154d950160e31b815290516001600160a01b0394851694634c3892a894811693635371f1f89391169163aa6ca808916004808201926000929091908290030181865afa158015610ac6573d6000803e3d6000fd5b505050506040513d6000823e601f3d908101601f19168201604052610aee919081019061432a565b8681518110610aff57610aff6142ca565b60200260200101516040518263ffffffff1660e01b8152600401610b3291906001600160a01b0391909116815260200190565b602060405180830381865afa158015610b4f573d6000803e3d6000fd5b505050506040513d601f19601f82011682018060405250810190610b7391906143c4565b83306040518463ffffffff1660e01b8152600401610b939392919061440c565b600060405180830381600087803b158015610bad57600080fd5b505af1158015610bc1573d6000803e3d6000fd5b50505050610e88565b600160009054906101000a90046001600160a01b03166001600160a01b031663aa6ca8086040518163ffffffff1660e01b8152600401600060405180830381865afa158015610c1d573d6000803e3d6000fd5b505050506040513d6000823e601f3d908101601f19168201604052610c45919081019061432a565b8281518110610c5657610c566142ca565b60200260200101516001600160a01b0316632e1a7d4d826040518263ffffffff1660e01b8152600401610b9391815260200190565b6003546001546040805163154d950160e31b815290516001600160a01b039384169363c5fdb3c4931691829163aa6ca808916004808201926000929091908290030181865afa158015610ce2573d6000803e3d6000fd5b505050506040513d6000823e601f3d908101601f19168201604052610d0a919081019061432a565b8581518110610d1b57610d1b6142ca565b602002602001015184600360009054906101000a90046001600160a01b03166040518563ffffffff1660e01b8152600401610d5994939291906143e1565b600060405180830381600087803b158015610d7357600080fd5b505af1158015610d87573d6000803e3d6000fd5b50506003546001546040805163154d950160e31b815290516001600160a01b039384169550636723a7ea9450919092169163aa6ca8089160048083019260009291908290030181865afa158015610de2573d6000803e3d6000fd5b505050506040513d6000823e601f3d908101601f19168201604052610e0a919081019061432a565b8481518110610e1b57610e1b6142ca565b602002602001015183306040518463ffffffff1660e01b8152600401610e439392919061440c565b6020604051808303816000875af1158015610e62573d6000803e3d6000fd5b505050506040513d601f19601f82011682018060405250810190610e869190614311565b505b6001546040805163154d950160e31b815290516001600160a01b0390921691630d1f347191839163aa6ca808916004808201926000929091908290030181865afa158015610eda573d6000803e3d6000fd5b505050506040513d6000823e601f3d908101601f19168201604052610f02919081019061432a565b8481518110610f1357610f136142ca565b60200260200101516040518263ffffffff1660e01b8152600401610f4691906001600160a01b0391909116815260200190565b600060405180830381600087803b158015610f6057600080fd5b505af1158015610f74573d6000803e3d6000fd5b50505050505b80610f84816142f6565b915050610472565b505b600154604051635d2fbc1b60e01b81526001600160a01b0390911690635d2fbc1b90610fc090879087906004016144ac565b600060405180830381600087803b158015610fda57600080fd5b505af1158015610fee573d6000803e3d6000fd5b5050600154604051633d91c7e960e01b81526001600160a01b039091169250633d91c7e991506110229087906004016144da565b600060405180830381600087803b15801561103c57600080fd5b505af1158015611050573d6000803e3d6000fd5b5050505061105c612a8f565b7f5de4a52f94cbb395ddafc93c10a7246f06fca8842a22177508a6cc10ed05435942858560405161108f939291906144ed565b60405180910390a150505050565b60048054604051636487aa1160e01b815233928101929092526001600160a01b031690636487aa1190602401602060405180830381865afa1580156110e6573d6000803e3d6000fd5b505050506040513d601f19601f8201168201806040525081019061110a9190614276565b6111265760405162461bcd60e51b81526004016102cb90614293565b600160009054906101000a90046001600160a01b03166001600160a01b031663aa6ca8086040518163ffffffff1660e01b8152600401600060405180830381865afa158015611179573d6000803e3d6000fd5b505050506040513d6000823e601f3d908101601f191682016040526111a1919081019061432a565b5181146111e65760405162461bcd60e51b8152602060048201526013602482015272098cadccee8d0e640c8dedc4ee840dac2e8c6d606b1b60448201526064016102cb565b6001546040805163154d950160e31b815290516001600160a01b0390921691635d2fbc1b91839163aa6ca808916004808201926000929091908290030181865afa158015611238573d6000803e3d6000fd5b505050506040513d6000823e601f3d908101601f19168201604052611260919081019061432a565b84846040518463ffffffff1660e01b815260040161128093929190614560565b600060405180830381600087803b15801561129a57600080fd5b505af11580156112ae573d6000803e3d6000fd5b505050506112ba612a8f565b7f6f3063f8e109660c913430f96e0702ee1b935ac37f5cec596561542681d68a804283836040516112ed93929190614586565b60405180910390a15050565b60048054604051636487aa1160e01b815233928101929092526001600160a01b031690636487aa1190602401602060405180830381865afa158015611342573d6000803e3d6000fd5b505050506040513d601f19601f820116820180604052508101906113669190614276565b6113825760405162461bcd60e51b81526004016102cb90614293565b600154604051637f51bb1f60e01b81526001600160a01b03838116600483015290911690637f51bb1f906024015b600060405180830381600087803b1580156113ca57600080fd5b505af11580156113de573d6000803e3d6000fd5b5050505050565b60048054604051636487aa1160e01b815233928101929092526001600160a01b031690636487aa1190602401602060405180830381865afa15801561142e573d6000803e3d6000fd5b505050506040513d601f19601f820116820180604052508101906114529190614276565b61146e5760405162461bcd60e51b81526004016102cb90614293565b600260005414156114c15760405162461bcd60e51b815260206004820152601f60248201527f5265656e7472616e637947756172643a207265656e7472616e742063616c6c0060448201526064016102cb565b60026000556006546007541061153f5760405162461bcd60e51b815260206004820152603860248201527f4665652068617320616c7265616479206265656e20636861726765642061667460448201527f657220746865206c61737420726562616c616e63696e6721000000000000000060648201526084016102cb565b60005b600160009054906101000a90046001600160a01b03166001600160a01b031663aa6ca8086040518163ffffffff1660e01b8152600401600060405180830381865afa158015611595573d6000803e3d6000fd5b505050506040513d6000823e601f3d908101601f191682016040526115bd919081019061432a565b51811015612726576002546001546040805163154d950160e31b815290516000936001600160a01b03908116936369d70bfe93911691829163aa6ca80891600480830192899291908290030181865afa15801561161e573d6000803e3d6000fd5b505050506040513d6000823e601f3d908101601f19168201604052611646919081019061432a565b8581518110611657576116576142ca565b6020026020010151600160009054906101000a90046001600160a01b03166001600160a01b031663aa6ca8086040518163ffffffff1660e01b8152600401600060405180830381865afa1580156116b2573d6000803e3d6000fd5b505050506040513d6000823e601f3d908101601f191682016040526116da919081019061432a565b86815181106116eb576116eb6142ca565b60200260200101516001600160a01b0316600360009054906101000a90046001600160a01b03166001600160a01b03166314f6c3be6040518163ffffffff1660e01b8152600401602060405180830381865afa15801561174f573d6000803e3d6000fd5b505050506040513d601f19601f8201168201806040525081019061177391906143c4565b60405160e086901b6001600160e01b03191681526001600160a01b03948516600482015292841660248401529092169091146044820152606401602060405180830381865afa1580156117ca573d6000803e3d6000fd5b505050506040513d601f19601f820116820180604052508101906117ee9190614311565b9050600061187f612710611879600160009054906101000a90046001600160a01b03166001600160a01b03166313cc2cde6040518163ffffffff1660e01b8152600401602060405180830381865afa15801561184e573d6000803e3d6000fd5b505050506040513d601f19601f820116820180604052508101906118729190614311565b8590613159565b90613165565b9050600360009054906101000a90046001600160a01b03166001600160a01b03166314f6c3be6040518163ffffffff1660e01b8152600401602060405180830381865afa1580156118d4573d6000803e3d6000fd5b505050506040513d601f19601f820116820180604052508101906118f891906143c4565b6001600160a01b0316600160009054906101000a90046001600160a01b03166001600160a01b031663aa6ca8086040518163ffffffff1660e01b8152600401600060405180830381865afa158015611954573d6000803e3d6000fd5b505050506040513d6000823e601f3d908101601f1916820160405261197c919081019061432a565b848151811061198d5761198d6142ca565b60200260200101516001600160a01b03161415612079576005546001546040805163154d950160e31b815290516000936001600160a01b0390811693635371f1f89391169163aa6ca8089160048082019288929091908290030181865afa1580156119fc573d6000803e3d6000fd5b505050506040513d6000823e601f3d908101601f19168201604052611a24919081019061432a565b8681518110611a3557611a356142ca565b60200260200101516040518263ffffffff1660e01b8152600401611a6891906001600160a01b0391909116815260200190565b602060405180830381865afa158015611a85573d6000803e3d6000fd5b505050506040513d601f19601f82011682018060405250810190611aa991906143c4565b6001600160a01b031614611d89576003546001546040805163154d950160e31b815290516001600160a01b039384169363c5fdb3c4931691829163aa6ca808916004808201926000929091908290030181865afa158015611b0e573d6000803e3d6000fd5b505050506040513d6000823e601f3d908101601f19168201604052611b36919081019061432a565b8681518110611b4757611b476142ca565b602002602001015184600360009054906101000a90046001600160a01b03166040518563ffffffff1660e01b8152600401611b8594939291906143e1565b600060405180830381600087803b158015611b9f57600080fd5b505af1158015611bb3573d6000803e3d6000fd5b50506003546005546001546040805163154d950160e31b815290516001600160a01b039485169650634c3892a8955092841693635371f1f89392169163aa6ca808916004808201926000929091908290030181865afa158015611c1a573d6000803e3d6000fd5b505050506040513d6000823e601f3d908101601f19168201604052611c42919081019061432a565b8781518110611c5357611c536142ca565b60200260200101516040518263ffffffff1660e01b8152600401611c8691906001600160a01b0391909116815260200190565b602060405180830381865afa158015611ca3573d6000803e3d6000fd5b505050506040513d601f19601f82011682018060405250810190611cc791906143c4565b600154604080516361d027b360e01b8152905186926001600160a01b0316916361d027b39160048083019260209291908290030181865afa158015611d10573d6000803e3d6000fd5b505050506040513d601f19601f82011682018060405250810190611d3491906143c4565b6040518463ffffffff1660e01b8152600401611d529392919061440c565b600060405180830381600087803b158015611d6c57600080fd5b505af1158015611d80573d6000803e3d6000fd5b50505050612629565b6003546001546040805163154d950160e31b815290516001600160a01b039384169363c5fdb3c4931691829163aa6ca808916004808201926000929091908290030181865afa158015611de0573d6000803e3d6000fd5b505050506040513d6000823e601f3d908101601f19168201604052611e08919081019061432a565b8681518110611e1957611e196142ca565b602002602001015184306040518563ffffffff1660e01b8152600401611e4294939291906143e1565b600060405180830381600087803b158015611e5c57600080fd5b505af1158015611e70573d6000803e3d6000fd5b50505050600160009054906101000a90046001600160a01b03166001600160a01b031663aa6ca8086040518163ffffffff1660e01b8152600401600060405180830381865afa158015611ec7573d6000803e3d6000fd5b505050506040513d6000823e601f3d908101601f19168201604052611eef919081019061432a565b8381518110611f0057611f006142ca565b60200260200101516001600160a01b0316632e1a7d4d826040518263ffffffff1660e01b8152600401611f3591815260200190565b600060405180830381600087803b158015611f4f57600080fd5b505af1158015611f63573d6000803e3d6000fd5b505050506000600160009054906101000a90046001600160a01b03166001600160a01b03166361d027b36040518163ffffffff1660e01b8152600401602060405180830381865afa158015611fbc573d6000803e3d6000fd5b505050506040513d601f19601f82011682018060405250810190611fe091906143c4565b6001600160a01b03168260405160006040518083038185875af1925050503d806000811461202a576040519150601f19603f3d011682016040523d82523d6000602084013e61202f565b606091505b50509050806120735760405162461bcd60e51b815260206004820152601060248201526f2a3930b739b332b9103330b4b632b21760811b60448201526064016102cb565b50612629565b6005546001546040805163154d950160e31b815290516000936001600160a01b0390811693635371f1f89391169163aa6ca8089160048082019288929091908290030181865afa1580156120d1573d6000803e3d6000fd5b505050506040513d6000823e601f3d908101601f191682016040526120f9919081019061432a565b868151811061210a5761210a6142ca565b60200260200101516040518263ffffffff1660e01b815260040161213d91906001600160a01b0391909116815260200190565b602060405180830381865afa15801561215a573d6000803e3d6000fd5b505050506040513d601f19601f8201168201806040525081019061217e91906143c4565b6001600160a01b0316146124c7576003546001546040805163154d950160e31b815290516001600160a01b039384169363c5fdb3c4931691829163aa6ca808916004808201926000929091908290030181865afa1580156121e3573d6000803e3d6000fd5b505050506040513d6000823e601f3d908101601f1916820160405261220b919081019061432a565b868151811061221c5761221c6142ca565b602002602001015184600360009054906101000a90046001600160a01b03166040518563ffffffff1660e01b815260040161225a94939291906143e1565b600060405180830381600087803b15801561227457600080fd5b505af1158015612288573d6000803e3d6000fd5b50506003546005546001546040805163154d950160e31b815290516001600160a01b03948516965063a8797365955092841693635371f1f89392169163aa6ca808916004808201926000929091908290030181865afa1580156122ef573d6000803e3d6000fd5b505050506040513d6000823e601f3d908101601f19168201604052612317919081019061432a565b8781518110612328576123286142ca565b60200260200101516040518263ffffffff1660e01b815260040161235b91906001600160a01b0391909116815260200190565b602060405180830381865afa158015612378573d6000803e3d6000fd5b505050506040513d601f19601f8201168201806040525081019061239c91906143c4565b600160009054906101000a90046001600160a01b03166001600160a01b031663aa6ca8086040518163ffffffff1660e01b8152600401600060405180830381865afa1580156123ef573d6000803e3d6000fd5b505050506040513d6000823e601f3d908101601f19168201604052612417919081019061432a565b8681518110612428576124286142ca565b602002602001015184600160009054906101000a90046001600160a01b03166001600160a01b03166361d027b36040518163ffffffff1660e01b8152600401602060405180830381865afa158015612484573d6000803e3d6000fd5b505050506040513d601f19601f820116820180604052508101906124a891906143c4565b6040518563ffffffff1660e01b8152600401611d5294939291906143e1565b6003546001546040805163154d950160e31b815290516001600160a01b039384169363c5fdb3c4931691829163aa6ca808916004808201926000929091908290030181865afa15801561251e573d6000803e3d6000fd5b505050506040513d6000823e601f3d908101601f19168201604052612546919081019061432a565b8681518110612557576125576142ca565b602002602001015184600160009054906101000a90046001600160a01b03166001600160a01b03166361d027b36040518163ffffffff1660e01b8152600401602060405180830381865afa1580156125b3573d6000803e3d6000fd5b505050506040513d601f19601f820116820180604052508101906125d791906143c4565b6040518563ffffffff1660e01b81526004016125f694939291906143e1565b600060405180830381600087803b15801561261057600080fd5b505af1158015612624573d6000803e3d6000fd5b505050505b7f7f4361467af1084d366aacf23c0607d11742c55d3472543b6d5f03a9aee9faf442600160009054906101000a90046001600160a01b03166001600160a01b031663aa6ca8086040518163ffffffff1660e01b8152600401600060405180830381865afa15801561269e573d6000803e3d6000fd5b505050506040513d6000823e601f3d908101601f191682016040526126c6919081019061432a565b85815181106126d7576126d76142ca565b602002602001015183604051612709939291909283526001600160a01b03919091166020830152604082015260600190565b60405180910390a15050808061271e906142f6565b915050611542565b50426007556001600055565b60048054604051636487aa1160e01b815233928101929092526001600160a01b031690636487aa1190602401602060405180830381865afa15801561277b573d6000803e3d6000fd5b505050506040513d601f19601f8201168201806040525081019061279f9190614276565b6127bb5760405162461bcd60e51b81526004016102cb90614293565b6001546040516305b0e2cf60e21b815282151560048201526001600160a01b03909116906316c38b3c906024016113b0565b60006127f982846145a0565b9392505050565b60606000600160009054906101000a90046001600160a01b03166001600160a01b031663aa6ca8086040518163ffffffff1660e01b8152600401600060405180830381865afa158015612857573d6000803e3d6000fd5b505050506040513d6000823e601f3d908101601f1916820160405261287f919081019061432a565b5167ffffffffffffffff81111561289857612898613feb565b6040519080825280602002602001820160405280156128c1578160200160208202803683370190505b50905060005b600160009054906101000a90046001600160a01b03166001600160a01b031663aa6ca8086040518163ffffffff1660e01b8152600401600060405180830381865afa15801561291a573d6000803e3d6000fd5b505050506040513d6000823e601f3d908101601f19168201604052612942919081019061432a565b51811015612a875760005b8551811015612a7457858181518110612968576129686142ca565b60200260200101516001600160a01b0316600160009054906101000a90046001600160a01b03166001600160a01b031663aa6ca8086040518163ffffffff1660e01b8152600401600060405180830381865afa1580156129cc573d6000803e3d6000fd5b505050506040513d6000823e601f3d908101601f191682016040526129f4919081019061432a565b8381518110612a0557612a056142ca565b60200260200101516001600160a01b03161415612a6257848181518110612a2e57612a2e6142ca565b60200260200101516001600160601b0316838381518110612a5157612a516142ca565b602002602001018181525050612a74565b80612a6c816142f6565b91505061294d565b5080612a7f816142f6565b9150506128c7565b509392505050565b60048054604051636487aa1160e01b815233928101929092526001600160a01b031690636487aa1190602401602060405180830381865afa158015612ad8573d6000803e3d6000fd5b505050506040513d601f19601f82011682018060405250810190612afc9190614276565b612b185760405162461bcd60e51b81526004016102cb90614293565b60026000541415612b6b5760405162461bcd60e51b815260206004820152601f60248201527f5265656e7472616e637947756172643a207265656e7472616e742063616c6c0060448201526064016102cb565b60026000908155600154604080516318160ddd60e01b815290516001600160a01b03909216916318160ddd916004808201926020929091908290030181865afa158015612bbc573d6000803e3d6000fd5b505050506040513d601f19601f82011682018060405250810190612be09190614311565b11612bea57600080fd5b600080600160009054906101000a90046001600160a01b03166001600160a01b031663aa6ca8086040518163ffffffff1660e01b8152600401600060405180830381865afa158015612c40573d6000803e3d6000fd5b505050506040513d6000823e601f3d908101601f19168201604052612c68919081019061432a565b5167ffffffffffffffff811115612c8157612c81613feb565b604051908082528060200260200182016040528015612caa578160200160208202803683370190505b5090506000600160009054906101000a90046001600160a01b03166001600160a01b031663aa6ca8086040518163ffffffff1660e01b8152600401600060405180830381865afa158015612d02573d6000803e3d6000fd5b505050506040513d6000823e601f3d908101601f19168201604052612d2a919081019061432a565b5167ffffffffffffffff811115612d4357612d43613feb565b604051908082528060200260200182016040528015612d6c578160200160208202803683370190505b5090506000600160009054906101000a90046001600160a01b03166001600160a01b031663aa6ca8086040518163ffffffff1660e01b8152600401600060405180830381865afa158015612dc4573d6000803e3d6000fd5b505050506040513d6000823e601f3d908101601f19168201604052612dec919081019061432a565b5167ffffffffffffffff811115612e0557612e05613feb565b604051908082528060200260200182016040528015612e2e578160200160208202803683370190505b50600254600154604051634414727960e01b81526001600160a01b03918216600482015292935016906344147279906024016000604051808303816000875af1158015612e7f573d6000803e3d6000fd5b505050506040513d6000823e601f3d908101601f19168201604052612ea791908101906145b8565b9450905060005b600160009054906101000a90046001600160a01b03166001600160a01b031663aa6ca8086040518163ffffffff1660e01b8152600401600060405180830381865afa158015612f01573d6000803e3d6000fd5b505050506040513d6000823e601f3d908101601f19168201604052612f29919081019061432a565b5181101561312f57612fd785611879600160009054906101000a90046001600160a01b03166001600160a01b031663ed2a2f9d6040518163ffffffff1660e01b8152600401602060405180830381865afa158015612f8b573d6000803e3d6000fd5b505050506040513d601f19601f82011682018060405250810190612faf9190614311565b858581518110612fc157612fc16142ca565b602002602001015161315990919063ffffffff16565b838281518110612fe957612fe96142ca565b60209081029190910101526001546040805163154d950160e31b815290516001600160a01b039092169163617fba0491839163aa6ca808916004808201926000929091908290030181865afa158015613046573d6000803e3d6000fd5b505050506040513d6000823e601f3d908101601f1916820160405261306e919081019061432a565b838151811061307f5761307f6142ca565b60200260200101516040518263ffffffff1660e01b81526004016130b291906001600160a01b0391909116815260200190565b606060405180830381865afa1580156130cf573d6000803e3d6000fd5b505050506040513d601f19601f820116820180604052508101906130f39190614651565b602001516001600160601b0316848281518110613112576131126142ca565b602090810291909101015280613127816142f6565b915050612eae565b50600061313c8385613171565b9050613149838583613cbc565b5050426006555050600160005550565b60006127f982846146d3565b60006127f982846146f2565b6000805b600160009054906101000a90046001600160a01b03166001600160a01b031663aa6ca8086040518163ffffffff1660e01b8152600401600060405180830381865afa1580156131c8573d6000803e3d6000fd5b505050506040513d6000823e601f3d908101601f191682016040526131f0919081019061432a565b51811015613cb55783818151811061320a5761320a6142ca565b6020026020010151838281518110613224576132246142ca565b60200260200101511015613c28576002546001546040805163154d950160e31b815290516000936001600160a01b03908116936369d70bfe93911691829163aa6ca80891600480830192899291908290030181865afa15801561328b573d6000803e3d6000fd5b505050506040513d6000823e601f3d908101601f191682016040526132b3919081019061432a565b85815181106132c4576132c46142ca565b6020026020010151600160009054906101000a90046001600160a01b03166001600160a01b031663aa6ca8086040518163ffffffff1660e01b8152600401600060405180830381865afa15801561331f573d6000803e3d6000fd5b505050506040513d6000823e601f3d908101601f19168201604052613347919081019061432a565b8681518110613358576133586142ca565b60200260200101516001600160a01b0316600360009054906101000a90046001600160a01b03166001600160a01b03166314f6c3be6040518163ffffffff1660e01b8152600401602060405180830381865afa1580156133bc573d6000803e3d6000fd5b505050506040513d601f19601f820116820180604052508101906133e091906143c4565b60405160e086901b6001600160e01b03191681526001600160a01b03948516600482015292841660248401529092169091146044820152606401602060405180830381865afa158015613437573d6000803e3d6000fd5b505050506040513d601f19601f8201168201806040525081019061345b9190614311565b905060006134a4858481518110613474576134746142ca565b602002602001015187858151811061348e5761348e6142ca565b6020026020010151613fdf90919063ffffffff16565b905060006134d88785815181106134bd576134bd6142ca565b6020026020010151611879848661315990919063ffffffff16565b9050600360009054906101000a90046001600160a01b03166001600160a01b03166314f6c3be6040518163ffffffff1660e01b8152600401602060405180830381865afa15801561352d573d6000803e3d6000fd5b505050506040513d601f19601f8201168201806040525081019061355191906143c4565b6001600160a01b0316600160009054906101000a90046001600160a01b03166001600160a01b031663aa6ca8086040518163ffffffff1660e01b8152600401600060405180830381865afa1580156135ad573d6000803e3d6000fd5b505050506040513d6000823e601f3d908101601f191682016040526135d5919081019061432a565b85815181106135e6576135e66142ca565b60200260200101516001600160a01b03161415613a23576003546001546040805163154d950160e31b815290516001600160a01b039384169363c5fdb3c4931691829163aa6ca808916004808201926000929091908290030181865afa158015613654573d6000803e3d6000fd5b505050506040513d6000823e601f3d908101601f1916820160405261367c919081019061432a565b878151811061368d5761368d6142ca565b602002602001015184306040518563ffffffff1660e01b81526004016136b694939291906143e1565b600060405180830381600087803b1580156136d057600080fd5b505af11580156136e4573d6000803e3d6000fd5b50506005546001546040805163154d950160e31b81529051600095506001600160a01b039384169450635371f1f8939092169163aa6ca8089160048082019288929091908290030181865afa158015613741573d6000803e3d6000fd5b505050506040513d6000823e601f3d908101601f19168201604052613769919081019061432a565b878151811061377a5761377a6142ca565b60200260200101516040518263ffffffff1660e01b81526004016137ad91906001600160a01b0391909116815260200190565b602060405180830381865afa1580156137ca573d6000803e3d6000fd5b505050506040513d601f19601f820116820180604052508101906137ee91906143c4565b6001600160a01b031614613962576003546005546001546040805163154d950160e31b815290516001600160a01b0394851694634c3892a894811693635371f1f89391169163aa6ca808916004808201926000929091908290030181865afa15801561385e573d6000803e3d6000fd5b505050506040513d6000823e601f3d908101601f19168201604052613886919081019061432a565b8881518110613897576138976142ca565b60200260200101516040518263ffffffff1660e01b81526004016138ca91906001600160a01b0391909116815260200190565b602060405180830381865afa1580156138e7573d6000803e3d6000fd5b505050506040513d601f19601f8201168201806040525081019061390b91906143c4565b83306040518463ffffffff1660e01b815260040161392b9392919061440c565b600060405180830381600087803b15801561394557600080fd5b505af1158015613959573d6000803e3d6000fd5b50505050613c20565b600160009054906101000a90046001600160a01b03166001600160a01b031663aa6ca8086040518163ffffffff1660e01b8152600401600060405180830381865afa1580156139b5573d6000803e3d6000fd5b505050506040513d6000823e601f3d908101601f191682016040526139dd919081019061432a565b84815181106139ee576139ee6142ca565b60200260200101516001600160a01b0316632e1a7d4d826040518263ffffffff1660e01b815260040161392b91815260200190565b6003546001546040805163154d950160e31b815290516001600160a01b039384169363c5fdb3c4931691829163aa6ca808916004808201926000929091908290030181865afa158015613a7a573d6000803e3d6000fd5b505050506040513d6000823e601f3d908101601f19168201604052613aa2919081019061432a565b8781518110613ab357613ab36142ca565b602002602001015184600360009054906101000a90046001600160a01b03166040518563ffffffff1660e01b8152600401613af194939291906143e1565b600060405180830381600087803b158015613b0b57600080fd5b505af1158015613b1f573d6000803e3d6000fd5b50506003546001546040805163154d950160e31b815290516001600160a01b039384169550636723a7ea9450919092169163aa6ca8089160048083019260009291908290030181865afa158015613b7a573d6000803e3d6000fd5b505050506040513d6000823e601f3d908101601f19168201604052613ba2919081019061432a565b8681518110613bb357613bb36142ca565b602002602001015183306040518463ffffffff1660e01b8152600401613bdb9392919061440c565b6020604051808303816000875af1158015613bfa573d6000803e3d6000fd5b505050506040513d601f19601f82011682018060405250810190613c1e9190614311565b505b505050613ca3565b838181518110613c3a57613c3a6142ca565b6020026020010151838281518110613c5457613c546142ca565b60200260200101511115613ca3576000613c93858381518110613c7957613c796142ca565b602002602001015185848151811061348e5761348e6142ca565b9050613c9f83826127ed565b9250505b80613cad816142f6565b915050613175565b5092915050565b4760005b600160009054906101000a90046001600160a01b03166001600160a01b031663aa6ca8086040518163ffffffff1660e01b8152600401600060405180830381865afa158015613d13573d6000803e3d6000fd5b505050506040513d6000823e601f3d908101601f19168201604052613d3b919081019061432a565b518110156113de57848181518110613d5557613d556142ca565b6020026020010151848281518110613d6f57613d6f6142ca565b60200260200101511115613fcd576000613dae868381518110613d9457613d946142ca565b602002602001015186848151811061348e5761348e6142ca565b905060008111613e005760405162461bcd60e51b815260206004820152601960248201527f776569676874206e6f742067726561746572207468616e20300000000000000060448201526064016102cb565b60008411613e465760405162461bcd60e51b8152602060048201526013602482015272191a5d88189e480c0b081cdd5b5dd95a59da1d606a1b60448201526064016102cb565b6000613e56856118798685613159565b6003546001546040805163154d950160e31b815290519394506001600160a01b03928316936362a41e7e938693169163aa6ca8089160048083019260009291908290030181865afa158015613eaf573d6000803e3d6000fd5b505050506040513d6000823e601f3d908101601f19168201604052613ed7919081019061432a565b8681518110613ee857613ee86142ca565b602002602001015184600160009054906101000a90046001600160a01b03166001600160a01b031663fbfa77cf6040518163ffffffff1660e01b8152600401602060405180830381865afa158015613f44573d6000803e3d6000fd5b505050506040513d601f19601f82011682018060405250810190613f6891906143c4565b6040518563ffffffff1660e01b8152600401613f869392919061440c565b60206040518083038185885af1158015613fa4573d6000803e3d6000fd5b50505050506040513d601f19601f82011682018060405250810190613fc99190614311565b5050505b80613fd7816142f6565b915050613cc0565b60006127f98284614714565b634e487b7160e01b600052604160045260246000fd5b604051601f8201601f1916810167ffffffffffffffff8111828210171561402a5761402a613feb565b604052919050565b600067ffffffffffffffff82111561404c5761404c613feb565b5060051b60200190565b6001600160a01b038116811461406b57600080fd5b50565b6001600160601b038116811461406b57600080fd5b600082601f83011261409457600080fd5b813560206140a96140a483614032565b614001565b82815260059290921b840181019181810190868411156140c857600080fd5b8286015b848110156140ec5780356140df8161406e565b83529183019183016140cc565b509695505050505050565b6000806040838503121561410a57600080fd5b823567ffffffffffffffff8082111561412257600080fd5b818501915085601f83011261413657600080fd5b813560206141466140a483614032565b82815260059290921b8401810191818101908984111561416557600080fd5b948201945b8386101561418c57853561417d81614056565b8252948201949082019061416a565b965050860135925050808211156141a257600080fd5b506141af85828601614083565b9150509250929050565b600080602083850312156141cc57600080fd5b823567ffffffffffffffff808211156141e457600080fd5b818501915085601f8301126141f857600080fd5b81358181111561420757600080fd5b8660208260051b850101111561421c57600080fd5b60209290920196919550909350505050565b60006020828403121561424057600080fd5b81356127f981614056565b801515811461406b57600080fd5b60006020828403121561426b57600080fd5b81356127f98161424b565b60006020828403121561428857600080fd5b81516127f98161424b565b6020808252601e908201527f43616c6c6572206973206e6f7420616e204173736574204d616e616765720000604082015260600190565b634e487b7160e01b600052603260045260246000fd5b634e487b7160e01b600052601160045260246000fd5b600060001982141561430a5761430a6142e0565b5060010190565b60006020828403121561432357600080fd5b5051919050565b6000602080838503121561433d57600080fd5b825167ffffffffffffffff81111561435457600080fd5b8301601f8101851361436557600080fd5b80516143736140a482614032565b81815260059190911b8201830190838101908783111561439257600080fd5b928401925b828410156143b95783516143aa81614056565b82529284019290840190614397565b979650505050505050565b6000602082840312156143d657600080fd5b81516127f981614056565b6001600160a01b03948516815292841660208401526040830191909152909116606082015260800190565b6001600160a01b0393841681526020810192909252909116604082015260600190565b600081518084526020808501945080840160005b838110156144685781516001600160a01b031687529582019590820190600101614443565b509495945050505050565b600081518084526020808501945080840160005b838110156144685781516001600160601b031687529582019590820190600101614487565b6040815260006144bf604083018561442f565b82810360208401526144d18185614473565b95945050505050565b6020815260006127f9602083018461442f565b838152606060208201526000614506606083018561442f565b82810360408401526145188185614473565b9695505050505050565b8183526000602080850194508260005b858110156144685781356145458161406e565b6001600160601b031687529582019590820190600101614532565b604081526000614573604083018661442f565b8281036020840152614518818587614522565b8381526040602082015260006144d1604083018486614522565b600082198211156145b3576145b36142e0565b500190565b600080604083850312156145cb57600080fd5b825167ffffffffffffffff8111156145e257600080fd5b8301601f810185136145f357600080fd5b805160206146036140a483614032565b82815260059290921b8301810191818101908884111561462257600080fd5b938201935b8385101561464057845182529382019390820190614627565b969091015195979596505050505050565b60006060828403121561466357600080fd5b6040516060810181811067ffffffffffffffff8211171561468657614686613feb565b604052825164ffffffffff8116811461469e57600080fd5b815260208301516146ae8161406e565b6020820152604083015160ff811681146146c757600080fd5b60408201529392505050565b60008160001904831182151516156146ed576146ed6142e0565b500290565b60008261470f57634e487b7160e01b600052601260045260246000fd5b500490565b600082821015614726576147266142e0565b50039056fea264697066735822122043ff3dac07190cd2efa9abc59988b1d3c950f98235f73b49bb75c77f43af202264736f6c634300080a0033",
  "linkReferences": {},
  "deployedLinkReferences": {}
}