{
  "_format": "hh-sol-artifact-1",
  "contractName": "Rebalancing",
  "sourceName": "contracts/rebalance/Rebalancing.sol",
  "abi": [
    {
      "inputs": [
        {
          "internalType": "contract IndexSwap",
          "name": "_index",
          "type": "address"
        },
        {
          "internalType": "contract IndexSwapLibrary",
          "name": "_indexSwapLibrary",
          "type": "address"
        },
        {
          "internalType": "contract Adapter",
          "name": "_adapter",
          "type": "address"
        },
        {
          "internalType": "contract AccessController",
          "name": "_accessController",
          "type": "address"
        },
        {
          "internalType": "contract TokenMetadata",
          "name": "_tokenMetadata",
          "type": "address"
        }
      ],
      "stateMutability": "nonpayable",
      "type": "constructor"
    },
    {
      "anonymous": false,
      "inputs": [
        {
          "indexed": false,
          "internalType": "uint256",
          "name": "charged",
          "type": "uint256"
        },
        {
          "indexed": false,
          "internalType": "address",
          "name": "token",
          "type": "address"
        },
        {
          "indexed": false,
          "internalType": "uint256",
          "name": "amount",
          "type": "uint256"
        }
      ],
      "name": "FeeCharged",
      "type": "event"
    },
    {
      "anonymous": false,
      "inputs": [
        {
          "indexed": false,
          "internalType": "uint256",
          "name": "updated",
          "type": "uint256"
        },
        {
          "indexed": false,
          "internalType": "address[]",
          "name": "newTokens",
          "type": "address[]"
        },
        {
          "indexed": false,
          "internalType": "uint96[]",
          "name": "newDenorms",
          "type": "uint96[]"
        }
      ],
      "name": "UpdatedTokens",
      "type": "event"
    },
    {
      "anonymous": false,
      "inputs": [
        {
          "indexed": false,
          "internalType": "uint256",
          "name": "updated",
          "type": "uint256"
        },
        {
          "indexed": false,
          "internalType": "uint96[]",
          "name": "newDenorms",
          "type": "uint96[]"
        }
      ],
      "name": "UpdatedWeights",
      "type": "event"
    },
    {
      "inputs": [],
      "name": "ASSET_MANAGER_ROLE",
      "outputs": [
        {
          "internalType": "bytes32",
          "name": "",
          "type": "bytes32"
        }
      ],
      "stateMutability": "view",
      "type": "function"
    },
    {
      "inputs": [],
      "name": "accessController",
      "outputs": [
        {
          "internalType": "contract AccessController",
          "name": "",
          "type": "address"
        }
      ],
      "stateMutability": "view",
      "type": "function"
    },
    {
      "inputs": [],
      "name": "adapter",
      "outputs": [
        {
          "internalType": "contract Adapter",
          "name": "",
          "type": "address"
        }
      ],
      "stateMutability": "view",
      "type": "function"
    },
    {
      "inputs": [],
      "name": "feeModule",
      "outputs": [],
      "stateMutability": "nonpayable",
      "type": "function"
    },
    {
      "inputs": [],
      "name": "index",
      "outputs": [
        {
          "internalType": "contract IndexSwap",
          "name": "",
          "type": "address"
        }
      ],
      "stateMutability": "view",
      "type": "function"
    },
    {
      "inputs": [],
      "name": "indexSwapLibrary",
      "outputs": [
        {
          "internalType": "contract IndexSwapLibrary",
          "name": "",
          "type": "address"
        }
      ],
      "stateMutability": "view",
      "type": "function"
    },
    {
      "inputs": [
        {
          "internalType": "bool",
          "name": "_state",
          "type": "bool"
        }
      ],
      "name": "setPause",
      "outputs": [],
      "stateMutability": "nonpayable",
      "type": "function"
    },
    {
      "inputs": [],
      "name": "tokenMetadata",
      "outputs": [
        {
          "internalType": "contract TokenMetadata",
          "name": "",
          "type": "address"
        }
      ],
      "stateMutability": "view",
      "type": "function"
    },
    {
      "inputs": [
        {
          "internalType": "address[]",
          "name": "tokens",
          "type": "address[]"
        },
        {
          "internalType": "uint96[]",
          "name": "denorms",
          "type": "uint96[]"
        }
      ],
      "name": "updateTokens",
      "outputs": [],
      "stateMutability": "nonpayable",
      "type": "function"
    },
    {
      "inputs": [
        {
          "internalType": "address",
          "name": "_newAddress",
          "type": "address"
        }
      ],
      "name": "updateTreasury",
      "outputs": [],
      "stateMutability": "nonpayable",
      "type": "function"
    },
    {
      "inputs": [
        {
          "internalType": "uint96[]",
          "name": "denorms",
          "type": "uint96[]"
        }
      ],
      "name": "updateWeights",
      "outputs": [],
      "stateMutability": "nonpayable",
      "type": "function"
    },
    {
      "stateMutability": "payable",
      "type": "receive"
    }
  ],
  "bytecode": "0x60806040523480156200001157600080fd5b5060405162004a3038038062004a308339810160408190526200003491620002c0565b6001600081905580546001600160a01b03199081166001600160a01b038881169190911790925560028054821687841617905560038054821686841617905560048054821685841690811782556005805490931693851693909317909155604051637d41563b60e11b81527f1effbbff9c66c5e59634f24fe842750c60d18891155c32dd155fc2d661a4c86d9181019190915233602482015263fa82ac7690604401600060405180830381600087803b158015620000f157600080fd5b505af115801562000106573d6000803e3d6000fd5b505060048054604051637d41563b60e11b81527fb1fadd3142ab2ad7f1337ea4d97112bcc8337fc11ce5b20cb04ad038adf99819928101929092523360248301526001600160a01b0316925063fa82ac769150604401600060405180830381600087803b1580156200017757600080fd5b505af11580156200018c573d6000803e3d6000fd5b505060048054604051637d41563b60e11b81527f1916b456004f332cd8a19679364ef4be668619658be72c17b7e86697c4ae0f16928101929092523060248301526001600160a01b0316925063fa82ac769150604401600060405180830381600087803b158015620001fd57600080fd5b505af115801562000212573d6000803e3d6000fd5b505060048054604051637d41563b60e11b81527f8e73530dd444215065cdf478f826e993aeb5e2798587f0bbf5a978bd97df63ea928101929092523060248301526001600160a01b0316925063fa82ac769150604401600060405180830381600087803b1580156200028357600080fd5b505af115801562000298573d6000803e3d6000fd5b50505050505050505062000340565b6001600160a01b0381168114620002bd57600080fd5b50565b600080600080600060a08688031215620002d957600080fd5b8551620002e681620002a7565b6020870151909550620002f981620002a7565b60408701519094506200030c81620002a7565b60608701519093506200031f81620002a7565b60808701519092506200033281620002a7565b809150509295509295909350565b6146e080620003506000396000f3fe6080604052600436106100a05760003560e01c80637f51bb1f116100645780637f51bb1f1461016b578063a4b32de81461018b578063bae41cbf146101cd578063bc43cbaf146101e2578063bedb86fb14610202578063f5b2cad71461022257600080fd5b806303eadcfc146100ac578063075c3151146100e95780632986c0e51461010b5780635774963d1461012b57806365f616b91461014b57600080fd5b366100a757005b600080fd5b3480156100b857600080fd5b506003546100cc906001600160a01b031681565b6040516001600160a01b0390911681526020015b60405180910390f35b3480156100f557600080fd5b50610109610104366004614076565b610242565b005b34801561011757600080fd5b506001546100cc906001600160a01b031681565b34801561013757600080fd5b50610109610146366004614138565b61109d565b34801561015757600080fd5b506002546100cc906001600160a01b031681565b34801561017757600080fd5b506101096101863660046141ad565b6112f9565b34801561019757600080fd5b506101bf7fb1fadd3142ab2ad7f1337ea4d97112bcc8337fc11ce5b20cb04ad038adf9981981565b6040519081526020016100e0565b3480156101d957600080fd5b506101096113e5565b3480156101ee57600080fd5b506004546100cc906001600160a01b031681565b34801561020e57600080fd5b5061010961021d3660046141d8565b6126b1565b34801561022e57600080fd5b506005546100cc906001600160a01b031681565b60048054604051636487aa1160e01b815233928101929092526001600160a01b031690636487aa1190602401602060405180830381865afa15801561028b573d6000803e3d6000fd5b505050506040513d601f19601f820116820180604052508101906102af91906141f5565b6102d45760405162461bcd60e51b81526004016102cb90614212565b60405180910390fd5b6000805b835181101561032a576103168382815181106102f6576102f6614249565b60200260200101516001600160601b03168361276c90919063ffffffff16565b91508061032281614275565b9150506102d8565b50600160009054906101000a90046001600160a01b03166001600160a01b031663ed2a2f9d6040518163ffffffff1660e01b8152600401602060405180830381865afa15801561037e573d6000803e3d6000fd5b505050506040513d601f19601f820116820180604052508101906103a29190614290565b81146103e25760405162461bcd60e51b815260206004820152600f60248201526e494e56414c49445f5745494748545360881b60448201526064016102cb565b60006103ee848461277f565b90506000600160009054906101000a90046001600160a01b03166001600160a01b03166318160ddd6040518163ffffffff1660e01b8152600401602060405180830381865afa158015610445573d6000803e3d6000fd5b505050506040513d601f19601f820116820180604052508101906104699190614290565b1115610f8e5760005b600160009054906101000a90046001600160a01b03166001600160a01b031663aa6ca8086040518163ffffffff1660e01b8152600401600060405180830381865afa1580156104c5573d6000803e3d6000fd5b505050506040513d6000823e601f3d908101601f191682016040526104ed91908101906142a9565b51811015610f8c5781818151811061050757610507614249565b602002602001015160001415610f7a576002546001546040805163154d950160e31b815290516000936001600160a01b03908116936369d70bfe93911691829163aa6ca80891600480830192899291908290030181865afa158015610570573d6000803e3d6000fd5b505050506040513d6000823e601f3d908101601f1916820160405261059891908101906142a9565b85815181106105a9576105a9614249565b6020026020010151600160009054906101000a90046001600160a01b03166001600160a01b031663aa6ca8086040518163ffffffff1660e01b8152600401600060405180830381865afa158015610604573d6000803e3d6000fd5b505050506040513d6000823e601f3d908101601f1916820160405261062c91908101906142a9565b868151811061063d5761063d614249565b60200260200101516001600160a01b0316600360009054906101000a90046001600160a01b03166001600160a01b03166314f6c3be6040518163ffffffff1660e01b8152600401602060405180830381865afa1580156106a1573d6000803e3d6000fd5b505050506040513d601f19601f820116820180604052508101906106c59190614343565b60405160e086901b6001600160e01b03191681526001600160a01b03948516600482015292841660248401529092169091146044820152606401602060405180830381865afa15801561071c573d6000803e3d6000fd5b505050506040513d601f19601f820116820180604052508101906107409190614290565b9050600360009054906101000a90046001600160a01b03166001600160a01b03166314f6c3be6040518163ffffffff1660e01b8152600401602060405180830381865afa158015610795573d6000803e3d6000fd5b505050506040513d601f19601f820116820180604052508101906107b99190614343565b6001600160a01b0316600160009054906101000a90046001600160a01b03166001600160a01b031663aa6ca8086040518163ffffffff1660e01b8152600401600060405180830381865afa158015610815573d6000803e3d6000fd5b505050506040513d6000823e601f3d908101601f1916820160405261083d91908101906142a9565b838151811061084e5761084e614249565b60200260200101516001600160a01b03161415610c8b576003546001546040805163154d950160e31b815290516001600160a01b039384169363c5fdb3c4931691829163aa6ca808916004808201926000929091908290030181865afa1580156108bc573d6000803e3d6000fd5b505050506040513d6000823e601f3d908101601f191682016040526108e491908101906142a9565b85815181106108f5576108f5614249565b602002602001015184306040518563ffffffff1660e01b815260040161091e9493929190614360565b600060405180830381600087803b15801561093857600080fd5b505af115801561094c573d6000803e3d6000fd5b50506005546001546040805163154d950160e31b81529051600095506001600160a01b039384169450635371f1f8939092169163aa6ca8089160048082019288929091908290030181865afa1580156109a9573d6000803e3d6000fd5b505050506040513d6000823e601f3d908101601f191682016040526109d191908101906142a9565b85815181106109e2576109e2614249565b60200260200101516040518263ffffffff1660e01b8152600401610a1591906001600160a01b0391909116815260200190565b602060405180830381865afa158015610a32573d6000803e3d6000fd5b505050506040513d601f19601f82011682018060405250810190610a569190614343565b6001600160a01b031614610bca576003546005546001546040805163154d950160e31b815290516001600160a01b0394851694634c3892a894811693635371f1f89391169163aa6ca808916004808201926000929091908290030181865afa158015610ac6573d6000803e3d6000fd5b505050506040513d6000823e601f3d908101601f19168201604052610aee91908101906142a9565b8681518110610aff57610aff614249565b60200260200101516040518263ffffffff1660e01b8152600401610b3291906001600160a01b0391909116815260200190565b602060405180830381865afa158015610b4f573d6000803e3d6000fd5b505050506040513d601f19601f82011682018060405250810190610b739190614343565b83306040518463ffffffff1660e01b8152600401610b939392919061438b565b600060405180830381600087803b158015610bad57600080fd5b505af1158015610bc1573d6000803e3d6000fd5b50505050610e88565b600160009054906101000a90046001600160a01b03166001600160a01b031663aa6ca8086040518163ffffffff1660e01b8152600401600060405180830381865afa158015610c1d573d6000803e3d6000fd5b505050506040513d6000823e601f3d908101601f19168201604052610c4591908101906142a9565b8281518110610c5657610c56614249565b60200260200101516001600160a01b0316632e1a7d4d826040518263ffffffff1660e01b8152600401610b9391815260200190565b6003546001546040805163154d950160e31b815290516001600160a01b039384169363c5fdb3c4931691829163aa6ca808916004808201926000929091908290030181865afa158015610ce2573d6000803e3d6000fd5b505050506040513d6000823e601f3d908101601f19168201604052610d0a91908101906142a9565b8581518110610d1b57610d1b614249565b602002602001015184600360009054906101000a90046001600160a01b03166040518563ffffffff1660e01b8152600401610d599493929190614360565b600060405180830381600087803b158015610d7357600080fd5b505af1158015610d87573d6000803e3d6000fd5b50506003546001546040805163154d950160e31b815290516001600160a01b039384169550636723a7ea9450919092169163aa6ca8089160048083019260009291908290030181865afa158015610de2573d6000803e3d6000fd5b505050506040513d6000823e601f3d908101601f19168201604052610e0a91908101906142a9565b8481518110610e1b57610e1b614249565b602002602001015183306040518463ffffffff1660e01b8152600401610e439392919061438b565b6020604051808303816000875af1158015610e62573d6000803e3d6000fd5b505050506040513d601f19601f82011682018060405250810190610e869190614290565b505b6001546040805163154d950160e31b815290516001600160a01b0390921691630d1f347191839163aa6ca808916004808201926000929091908290030181865afa158015610eda573d6000803e3d6000fd5b505050506040513d6000823e601f3d908101601f19168201604052610f0291908101906142a9565b8481518110610f1357610f13614249565b60200260200101516040518263ffffffff1660e01b8152600401610f4691906001600160a01b0391909116815260200190565b600060405180830381600087803b158015610f6057600080fd5b505af1158015610f74573d6000803e3d6000fd5b50505050505b80610f8481614275565b915050610472565b505b600154604051635d2fbc1b60e01b81526001600160a01b0390911690635d2fbc1b90610fc0908790879060040161442b565b600060405180830381600087803b158015610fda57600080fd5b505af1158015610fee573d6000803e3d6000fd5b5050600154604051633d91c7e960e01b81526001600160a01b039091169250633d91c7e99150611022908790600401614459565b600060405180830381600087803b15801561103c57600080fd5b505af1158015611050573d6000803e3d6000fd5b5050505061105c612a0e565b7f5de4a52f94cbb395ddafc93c10a7246f06fca8842a22177508a6cc10ed05435942858560405161108f9392919061446c565b60405180910390a150505050565b60048054604051636487aa1160e01b815233928101929092526001600160a01b031690636487aa1190602401602060405180830381865afa1580156110e6573d6000803e3d6000fd5b505050506040513d601f19601f8201168201806040525081019061110a91906141f5565b6111265760405162461bcd60e51b81526004016102cb90614212565b600160009054906101000a90046001600160a01b03166001600160a01b031663aa6ca8086040518163ffffffff1660e01b8152600401600060405180830381865afa158015611179573d6000803e3d6000fd5b505050506040513d6000823e601f3d908101601f191682016040526111a191908101906142a9565b5181146111e65760405162461bcd60e51b8152602060048201526013602482015272098cadccee8d0e640c8dedc4ee840dac2e8c6d606b1b60448201526064016102cb565b6001546040805163154d950160e31b815290516001600160a01b0390921691635d2fbc1b91839163aa6ca808916004808201926000929091908290030181865afa158015611238573d6000803e3d6000fd5b505050506040513d6000823e601f3d908101601f1916820160405261126091908101906142a9565b84846040518463ffffffff1660e01b8152600401611280939291906144df565b600060405180830381600087803b15801561129a57600080fd5b505af11580156112ae573d6000803e3d6000fd5b505050506112ba612a0e565b7f6f3063f8e109660c913430f96e0702ee1b935ac37f5cec596561542681d68a804283836040516112ed93929190614505565b60405180910390a15050565b60048054604051636487aa1160e01b815233928101929092526001600160a01b031690636487aa1190602401602060405180830381865afa158015611342573d6000803e3d6000fd5b505050506040513d601f19601f8201168201806040525081019061136691906141f5565b6113825760405162461bcd60e51b81526004016102cb90614212565b600154604051637f51bb1f60e01b81526001600160a01b03838116600483015290911690637f51bb1f906024015b600060405180830381600087803b1580156113ca57600080fd5b505af11580156113de573d6000803e3d6000fd5b5050505050565b60048054604051636487aa1160e01b815233928101929092526001600160a01b031690636487aa1190602401602060405180830381865afa15801561142e573d6000803e3d6000fd5b505050506040513d601f19601f8201168201806040525081019061145291906141f5565b61146e5760405162461bcd60e51b81526004016102cb90614212565b600260005414156114c15760405162461bcd60e51b815260206004820152601f60248201527f5265656e7472616e637947756172643a207265656e7472616e742063616c6c0060448201526064016102cb565b60026000556006546007541061153f5760405162461bcd60e51b815260206004820152603860248201527f4665652068617320616c7265616479206265656e20636861726765642061667460448201527f657220746865206c61737420726562616c616e63696e6721000000000000000060648201526084016102cb565b60005b600160009054906101000a90046001600160a01b03166001600160a01b031663aa6ca8086040518163ffffffff1660e01b8152600401600060405180830381865afa158015611595573d6000803e3d6000fd5b505050506040513d6000823e601f3d908101601f191682016040526115bd91908101906142a9565b518110156126a5576002546001546040805163154d950160e31b815290516000936001600160a01b03908116936369d70bfe93911691829163aa6ca80891600480830192899291908290030181865afa15801561161e573d6000803e3d6000fd5b505050506040513d6000823e601f3d908101601f1916820160405261164691908101906142a9565b858151811061165757611657614249565b6020026020010151600160009054906101000a90046001600160a01b03166001600160a01b031663aa6ca8086040518163ffffffff1660e01b8152600401600060405180830381865afa1580156116b2573d6000803e3d6000fd5b505050506040513d6000823e601f3d908101601f191682016040526116da91908101906142a9565b86815181106116eb576116eb614249565b60200260200101516001600160a01b0316600360009054906101000a90046001600160a01b03166001600160a01b03166314f6c3be6040518163ffffffff1660e01b8152600401602060405180830381865afa15801561174f573d6000803e3d6000fd5b505050506040513d601f19601f820116820180604052508101906117739190614343565b60405160e086901b6001600160e01b03191681526001600160a01b03948516600482015292841660248401529092169091146044820152606401602060405180830381865afa1580156117ca573d6000803e3d6000fd5b505050506040513d601f19601f820116820180604052508101906117ee9190614290565b9050600061187f612710611879600160009054906101000a90046001600160a01b03166001600160a01b03166313cc2cde6040518163ffffffff1660e01b8152600401602060405180830381865afa15801561184e573d6000803e3d6000fd5b505050506040513d601f19601f820116820180604052508101906118729190614290565b85906130d8565b906130e4565b9050600360009054906101000a90046001600160a01b03166001600160a01b03166314f6c3be6040518163ffffffff1660e01b8152600401602060405180830381865afa1580156118d4573d6000803e3d6000fd5b505050506040513d601f19601f820116820180604052508101906118f89190614343565b6001600160a01b0316600160009054906101000a90046001600160a01b03166001600160a01b031663aa6ca8086040518163ffffffff1660e01b8152600401600060405180830381865afa158015611954573d6000803e3d6000fd5b505050506040513d6000823e601f3d908101601f1916820160405261197c91908101906142a9565b848151811061198d5761198d614249565b60200260200101516001600160a01b03161415611ff8576005546001546040805163154d950160e31b815290516000936001600160a01b0390811693635371f1f89391169163aa6ca8089160048082019288929091908290030181865afa1580156119fc573d6000803e3d6000fd5b505050506040513d6000823e601f3d908101601f19168201604052611a2491908101906142a9565b8681518110611a3557611a35614249565b60200260200101516040518263ffffffff1660e01b8152600401611a6891906001600160a01b0391909116815260200190565b602060405180830381865afa158015611a85573d6000803e3d6000fd5b505050506040513d601f19601f82011682018060405250810190611aa99190614343565b6001600160a01b031614611d89576003546001546040805163154d950160e31b815290516001600160a01b039384169363c5fdb3c4931691829163aa6ca808916004808201926000929091908290030181865afa158015611b0e573d6000803e3d6000fd5b505050506040513d6000823e601f3d908101601f19168201604052611b3691908101906142a9565b8681518110611b4757611b47614249565b602002602001015184600360009054906101000a90046001600160a01b03166040518563ffffffff1660e01b8152600401611b859493929190614360565b600060405180830381600087803b158015611b9f57600080fd5b505af1158015611bb3573d6000803e3d6000fd5b50506003546005546001546040805163154d950160e31b815290516001600160a01b039485169650634c3892a8955092841693635371f1f89392169163aa6ca808916004808201926000929091908290030181865afa158015611c1a573d6000803e3d6000fd5b505050506040513d6000823e601f3d908101601f19168201604052611c4291908101906142a9565b8781518110611c5357611c53614249565b60200260200101516040518263ffffffff1660e01b8152600401611c8691906001600160a01b0391909116815260200190565b602060405180830381865afa158015611ca3573d6000803e3d6000fd5b505050506040513d601f19601f82011682018060405250810190611cc79190614343565b600154604080516361d027b360e01b8152905186926001600160a01b0316916361d027b39160048083019260209291908290030181865afa158015611d10573d6000803e3d6000fd5b505050506040513d601f19601f82011682018060405250810190611d349190614343565b6040518463ffffffff1660e01b8152600401611d529392919061438b565b600060405180830381600087803b158015611d6c57600080fd5b505af1158015611d80573d6000803e3d6000fd5b505050506125a8565b6003546001546040805163154d950160e31b815290516001600160a01b039384169363c5fdb3c4931691829163aa6ca808916004808201926000929091908290030181865afa158015611de0573d6000803e3d6000fd5b505050506040513d6000823e601f3d908101601f19168201604052611e0891908101906142a9565b8681518110611e1957611e19614249565b602002602001015184306040518563ffffffff1660e01b8152600401611e429493929190614360565b600060405180830381600087803b158015611e5c57600080fd5b505af1158015611e70573d6000803e3d6000fd5b50505050600160009054906101000a90046001600160a01b03166001600160a01b031663aa6ca8086040518163ffffffff1660e01b8152600401600060405180830381865afa158015611ec7573d6000803e3d6000fd5b505050506040513d6000823e601f3d908101601f19168201604052611eef91908101906142a9565b8381518110611f0057611f00614249565b60200260200101516001600160a01b0316632e1a7d4d826040518263ffffffff1660e01b8152600401611f3591815260200190565b600060405180830381600087803b158015611f4f57600080fd5b505af1158015611f63573d6000803e3d6000fd5b50506040516000925033915083908381818185875af1925050503d8060008114611fa9576040519150601f19603f3d011682016040523d82523d6000602084013e611fae565b606091505b5050905080611ff25760405162461bcd60e51b815260206004820152601060248201526f2a3930b739b332b9103330b4b632b21760811b60448201526064016102cb565b506125a8565b6005546001546040805163154d950160e31b815290516000936001600160a01b0390811693635371f1f89391169163aa6ca8089160048082019288929091908290030181865afa158015612050573d6000803e3d6000fd5b505050506040513d6000823e601f3d908101601f1916820160405261207891908101906142a9565b868151811061208957612089614249565b60200260200101516040518263ffffffff1660e01b81526004016120bc91906001600160a01b0391909116815260200190565b602060405180830381865afa1580156120d9573d6000803e3d6000fd5b505050506040513d601f19601f820116820180604052508101906120fd9190614343565b6001600160a01b031614612446576003546001546040805163154d950160e31b815290516001600160a01b039384169363c5fdb3c4931691829163aa6ca808916004808201926000929091908290030181865afa158015612162573d6000803e3d6000fd5b505050506040513d6000823e601f3d908101601f1916820160405261218a91908101906142a9565b868151811061219b5761219b614249565b602002602001015184600360009054906101000a90046001600160a01b03166040518563ffffffff1660e01b81526004016121d99493929190614360565b600060405180830381600087803b1580156121f357600080fd5b505af1158015612207573d6000803e3d6000fd5b50506003546005546001546040805163154d950160e31b815290516001600160a01b03948516965063a8797365955092841693635371f1f89392169163aa6ca808916004808201926000929091908290030181865afa15801561226e573d6000803e3d6000fd5b505050506040513d6000823e601f3d908101601f1916820160405261229691908101906142a9565b87815181106122a7576122a7614249565b60200260200101516040518263ffffffff1660e01b81526004016122da91906001600160a01b0391909116815260200190565b602060405180830381865afa1580156122f7573d6000803e3d6000fd5b505050506040513d601f19601f8201168201806040525081019061231b9190614343565b600160009054906101000a90046001600160a01b03166001600160a01b031663aa6ca8086040518163ffffffff1660e01b8152600401600060405180830381865afa15801561236e573d6000803e3d6000fd5b505050506040513d6000823e601f3d908101601f1916820160405261239691908101906142a9565b86815181106123a7576123a7614249565b602002602001015184600160009054906101000a90046001600160a01b03166001600160a01b03166361d027b36040518163ffffffff1660e01b8152600401602060405180830381865afa158015612403573d6000803e3d6000fd5b505050506040513d601f19601f820116820180604052508101906124279190614343565b6040518563ffffffff1660e01b8152600401611d529493929190614360565b6003546001546040805163154d950160e31b815290516001600160a01b039384169363c5fdb3c4931691829163aa6ca808916004808201926000929091908290030181865afa15801561249d573d6000803e3d6000fd5b505050506040513d6000823e601f3d908101601f191682016040526124c591908101906142a9565b86815181106124d6576124d6614249565b602002602001015184600160009054906101000a90046001600160a01b03166001600160a01b03166361d027b36040518163ffffffff1660e01b8152600401602060405180830381865afa158015612532573d6000803e3d6000fd5b505050506040513d601f19601f820116820180604052508101906125569190614343565b6040518563ffffffff1660e01b81526004016125759493929190614360565b600060405180830381600087803b15801561258f57600080fd5b505af11580156125a3573d6000803e3d6000fd5b505050505b7f7f4361467af1084d366aacf23c0607d11742c55d3472543b6d5f03a9aee9faf442600160009054906101000a90046001600160a01b03166001600160a01b031663aa6ca8086040518163ffffffff1660e01b8152600401600060405180830381865afa15801561261d573d6000803e3d6000fd5b505050506040513d6000823e601f3d908101601f1916820160405261264591908101906142a9565b858151811061265657612656614249565b602002602001015183604051612688939291909283526001600160a01b03919091166020830152604082015260600190565b60405180910390a15050808061269d90614275565b915050611542565b50426007556001600055565b60048054604051636487aa1160e01b815233928101929092526001600160a01b031690636487aa1190602401602060405180830381865afa1580156126fa573d6000803e3d6000fd5b505050506040513d601f19601f8201168201806040525081019061271e91906141f5565b61273a5760405162461bcd60e51b81526004016102cb90614212565b6001546040516305b0e2cf60e21b815282151560048201526001600160a01b03909116906316c38b3c906024016113b0565b6000612778828461451f565b9392505050565b60606000600160009054906101000a90046001600160a01b03166001600160a01b031663aa6ca8086040518163ffffffff1660e01b8152600401600060405180830381865afa1580156127d6573d6000803e3d6000fd5b505050506040513d6000823e601f3d908101601f191682016040526127fe91908101906142a9565b5167ffffffffffffffff81111561281757612817613f6a565b604051908082528060200260200182016040528015612840578160200160208202803683370190505b50905060005b600160009054906101000a90046001600160a01b03166001600160a01b031663aa6ca8086040518163ffffffff1660e01b8152600401600060405180830381865afa158015612899573d6000803e3d6000fd5b505050506040513d6000823e601f3d908101601f191682016040526128c191908101906142a9565b51811015612a065760005b85518110156129f3578581815181106128e7576128e7614249565b60200260200101516001600160a01b0316600160009054906101000a90046001600160a01b03166001600160a01b031663aa6ca8086040518163ffffffff1660e01b8152600401600060405180830381865afa15801561294b573d6000803e3d6000fd5b505050506040513d6000823e601f3d908101601f1916820160405261297391908101906142a9565b838151811061298457612984614249565b60200260200101516001600160a01b031614156129e1578481815181106129ad576129ad614249565b60200260200101516001600160601b03168383815181106129d0576129d0614249565b6020026020010181815250506129f3565b806129eb81614275565b9150506128cc565b50806129fe81614275565b915050612846565b509392505050565b60048054604051636487aa1160e01b815233928101929092526001600160a01b031690636487aa1190602401602060405180830381865afa158015612a57573d6000803e3d6000fd5b505050506040513d601f19601f82011682018060405250810190612a7b91906141f5565b612a975760405162461bcd60e51b81526004016102cb90614212565b60026000541415612aea5760405162461bcd60e51b815260206004820152601f60248201527f5265656e7472616e637947756172643a207265656e7472616e742063616c6c0060448201526064016102cb565b60026000908155600154604080516318160ddd60e01b815290516001600160a01b03909216916318160ddd916004808201926020929091908290030181865afa158015612b3b573d6000803e3d6000fd5b505050506040513d601f19601f82011682018060405250810190612b5f9190614290565b11612b6957600080fd5b600080600160009054906101000a90046001600160a01b03166001600160a01b031663aa6ca8086040518163ffffffff1660e01b8152600401600060405180830381865afa158015612bbf573d6000803e3d6000fd5b505050506040513d6000823e601f3d908101601f19168201604052612be791908101906142a9565b5167ffffffffffffffff811115612c0057612c00613f6a565b604051908082528060200260200182016040528015612c29578160200160208202803683370190505b5090506000600160009054906101000a90046001600160a01b03166001600160a01b031663aa6ca8086040518163ffffffff1660e01b8152600401600060405180830381865afa158015612c81573d6000803e3d6000fd5b505050506040513d6000823e601f3d908101601f19168201604052612ca991908101906142a9565b5167ffffffffffffffff811115612cc257612cc2613f6a565b604051908082528060200260200182016040528015612ceb578160200160208202803683370190505b5090506000600160009054906101000a90046001600160a01b03166001600160a01b031663aa6ca8086040518163ffffffff1660e01b8152600401600060405180830381865afa158015612d43573d6000803e3d6000fd5b505050506040513d6000823e601f3d908101601f19168201604052612d6b91908101906142a9565b5167ffffffffffffffff811115612d8457612d84613f6a565b604051908082528060200260200182016040528015612dad578160200160208202803683370190505b50600254600154604051634414727960e01b81526001600160a01b03918216600482015292935016906344147279906024016000604051808303816000875af1158015612dfe573d6000803e3d6000fd5b505050506040513d6000823e601f3d908101601f19168201604052612e269190810190614537565b9450905060005b600160009054906101000a90046001600160a01b03166001600160a01b031663aa6ca8086040518163ffffffff1660e01b8152600401600060405180830381865afa158015612e80573d6000803e3d6000fd5b505050506040513d6000823e601f3d908101601f19168201604052612ea891908101906142a9565b518110156130ae57612f5685611879600160009054906101000a90046001600160a01b03166001600160a01b031663ed2a2f9d6040518163ffffffff1660e01b8152600401602060405180830381865afa158015612f0a573d6000803e3d6000fd5b505050506040513d601f19601f82011682018060405250810190612f2e9190614290565b858581518110612f4057612f40614249565b60200260200101516130d890919063ffffffff16565b838281518110612f6857612f68614249565b60209081029190910101526001546040805163154d950160e31b815290516001600160a01b039092169163617fba0491839163aa6ca808916004808201926000929091908290030181865afa158015612fc5573d6000803e3d6000fd5b505050506040513d6000823e601f3d908101601f19168201604052612fed91908101906142a9565b8381518110612ffe57612ffe614249565b60200260200101516040518263ffffffff1660e01b815260040161303191906001600160a01b0391909116815260200190565b606060405180830381865afa15801561304e573d6000803e3d6000fd5b505050506040513d601f19601f8201168201806040525081019061307291906145d0565b602001516001600160601b031684828151811061309157613091614249565b6020908102919091010152806130a681614275565b915050612e2d565b5060006130bb83856130f0565b90506130c8838583613c3b565b5050426006555050600160005550565b60006127788284614652565b60006127788284614671565b6000805b600160009054906101000a90046001600160a01b03166001600160a01b031663aa6ca8086040518163ffffffff1660e01b8152600401600060405180830381865afa158015613147573d6000803e3d6000fd5b505050506040513d6000823e601f3d908101601f1916820160405261316f91908101906142a9565b51811015613c345783818151811061318957613189614249565b60200260200101518382815181106131a3576131a3614249565b60200260200101511015613ba7576002546001546040805163154d950160e31b815290516000936001600160a01b03908116936369d70bfe93911691829163aa6ca80891600480830192899291908290030181865afa15801561320a573d6000803e3d6000fd5b505050506040513d6000823e601f3d908101601f1916820160405261323291908101906142a9565b858151811061324357613243614249565b6020026020010151600160009054906101000a90046001600160a01b03166001600160a01b031663aa6ca8086040518163ffffffff1660e01b8152600401600060405180830381865afa15801561329e573d6000803e3d6000fd5b505050506040513d6000823e601f3d908101601f191682016040526132c691908101906142a9565b86815181106132d7576132d7614249565b60200260200101516001600160a01b0316600360009054906101000a90046001600160a01b03166001600160a01b03166314f6c3be6040518163ffffffff1660e01b8152600401602060405180830381865afa15801561333b573d6000803e3d6000fd5b505050506040513d601f19601f8201168201806040525081019061335f9190614343565b60405160e086901b6001600160e01b03191681526001600160a01b03948516600482015292841660248401529092169091146044820152606401602060405180830381865afa1580156133b6573d6000803e3d6000fd5b505050506040513d601f19601f820116820180604052508101906133da9190614290565b905060006134238584815181106133f3576133f3614249565b602002602001015187858151811061340d5761340d614249565b6020026020010151613f5e90919063ffffffff16565b9050600061345787858151811061343c5761343c614249565b602002602001015161187984866130d890919063ffffffff16565b9050600360009054906101000a90046001600160a01b03166001600160a01b03166314f6c3be6040518163ffffffff1660e01b8152600401602060405180830381865afa1580156134ac573d6000803e3d6000fd5b505050506040513d601f19601f820116820180604052508101906134d09190614343565b6001600160a01b0316600160009054906101000a90046001600160a01b03166001600160a01b031663aa6ca8086040518163ffffffff1660e01b8152600401600060405180830381865afa15801561352c573d6000803e3d6000fd5b505050506040513d6000823e601f3d908101601f1916820160405261355491908101906142a9565b858151811061356557613565614249565b60200260200101516001600160a01b031614156139a2576003546001546040805163154d950160e31b815290516001600160a01b039384169363c5fdb3c4931691829163aa6ca808916004808201926000929091908290030181865afa1580156135d3573d6000803e3d6000fd5b505050506040513d6000823e601f3d908101601f191682016040526135fb91908101906142a9565b878151811061360c5761360c614249565b602002602001015184306040518563ffffffff1660e01b81526004016136359493929190614360565b600060405180830381600087803b15801561364f57600080fd5b505af1158015613663573d6000803e3d6000fd5b50506005546001546040805163154d950160e31b81529051600095506001600160a01b039384169450635371f1f8939092169163aa6ca8089160048082019288929091908290030181865afa1580156136c0573d6000803e3d6000fd5b505050506040513d6000823e601f3d908101601f191682016040526136e891908101906142a9565b87815181106136f9576136f9614249565b60200260200101516040518263ffffffff1660e01b815260040161372c91906001600160a01b0391909116815260200190565b602060405180830381865afa158015613749573d6000803e3d6000fd5b505050506040513d601f19601f8201168201806040525081019061376d9190614343565b6001600160a01b0316146138e1576003546005546001546040805163154d950160e31b815290516001600160a01b0394851694634c3892a894811693635371f1f89391169163aa6ca808916004808201926000929091908290030181865afa1580156137dd573d6000803e3d6000fd5b505050506040513d6000823e601f3d908101601f1916820160405261380591908101906142a9565b888151811061381657613816614249565b60200260200101516040518263ffffffff1660e01b815260040161384991906001600160a01b0391909116815260200190565b602060405180830381865afa158015613866573d6000803e3d6000fd5b505050506040513d601f19601f8201168201806040525081019061388a9190614343565b83306040518463ffffffff1660e01b81526004016138aa9392919061438b565b600060405180830381600087803b1580156138c457600080fd5b505af11580156138d8573d6000803e3d6000fd5b50505050613b9f565b600160009054906101000a90046001600160a01b03166001600160a01b031663aa6ca8086040518163ffffffff1660e01b8152600401600060405180830381865afa158015613934573d6000803e3d6000fd5b505050506040513d6000823e601f3d908101601f1916820160405261395c91908101906142a9565b848151811061396d5761396d614249565b60200260200101516001600160a01b0316632e1a7d4d826040518263ffffffff1660e01b81526004016138aa91815260200190565b6003546001546040805163154d950160e31b815290516001600160a01b039384169363c5fdb3c4931691829163aa6ca808916004808201926000929091908290030181865afa1580156139f9573d6000803e3d6000fd5b505050506040513d6000823e601f3d908101601f19168201604052613a2191908101906142a9565b8781518110613a3257613a32614249565b602002602001015184600360009054906101000a90046001600160a01b03166040518563ffffffff1660e01b8152600401613a709493929190614360565b600060405180830381600087803b158015613a8a57600080fd5b505af1158015613a9e573d6000803e3d6000fd5b50506003546001546040805163154d950160e31b815290516001600160a01b039384169550636723a7ea9450919092169163aa6ca8089160048083019260009291908290030181865afa158015613af9573d6000803e3d6000fd5b505050506040513d6000823e601f3d908101601f19168201604052613b2191908101906142a9565b8681518110613b3257613b32614249565b602002602001015183306040518463ffffffff1660e01b8152600401613b5a9392919061438b565b6020604051808303816000875af1158015613b79573d6000803e3d6000fd5b505050506040513d601f19601f82011682018060405250810190613b9d9190614290565b505b505050613c22565b838181518110613bb957613bb9614249565b6020026020010151838281518110613bd357613bd3614249565b60200260200101511115613c22576000613c12858381518110613bf857613bf8614249565b602002602001015185848151811061340d5761340d614249565b9050613c1e838261276c565b9250505b80613c2c81614275565b9150506130f4565b5092915050565b4760005b600160009054906101000a90046001600160a01b03166001600160a01b031663aa6ca8086040518163ffffffff1660e01b8152600401600060405180830381865afa158015613c92573d6000803e3d6000fd5b505050506040513d6000823e601f3d908101601f19168201604052613cba91908101906142a9565b518110156113de57848181518110613cd457613cd4614249565b6020026020010151848281518110613cee57613cee614249565b60200260200101511115613f4c576000613d2d868381518110613d1357613d13614249565b602002602001015186848151811061340d5761340d614249565b905060008111613d7f5760405162461bcd60e51b815260206004820152601960248201527f776569676874206e6f742067726561746572207468616e20300000000000000060448201526064016102cb565b60008411613dc55760405162461bcd60e51b8152602060048201526013602482015272191a5d88189e480c0b081cdd5b5dd95a59da1d606a1b60448201526064016102cb565b6000613dd58561187986856130d8565b6003546001546040805163154d950160e31b815290519394506001600160a01b03928316936362a41e7e938693169163aa6ca8089160048083019260009291908290030181865afa158015613e2e573d6000803e3d6000fd5b505050506040513d6000823e601f3d908101601f19168201604052613e5691908101906142a9565b8681518110613e6757613e67614249565b602002602001015184600160009054906101000a90046001600160a01b03166001600160a01b031663fbfa77cf6040518163ffffffff1660e01b8152600401602060405180830381865afa158015613ec3573d6000803e3d6000fd5b505050506040513d601f19601f82011682018060405250810190613ee79190614343565b6040518563ffffffff1660e01b8152600401613f059392919061438b565b60206040518083038185885af1158015613f23573d6000803e3d6000fd5b50505050506040513d601f19601f82011682018060405250810190613f489190614290565b5050505b80613f5681614275565b915050613c3f565b60006127788284614693565b634e487b7160e01b600052604160045260246000fd5b604051601f8201601f1916810167ffffffffffffffff81118282101715613fa957613fa9613f6a565b604052919050565b600067ffffffffffffffff821115613fcb57613fcb613f6a565b5060051b60200190565b6001600160a01b0381168114613fea57600080fd5b50565b6001600160601b0381168114613fea57600080fd5b600082601f83011261401357600080fd5b8135602061402861402383613fb1565b613f80565b82815260059290921b8401810191818101908684111561404757600080fd5b8286015b8481101561406b57803561405e81613fed565b835291830191830161404b565b509695505050505050565b6000806040838503121561408957600080fd5b823567ffffffffffffffff808211156140a157600080fd5b818501915085601f8301126140b557600080fd5b813560206140c561402383613fb1565b82815260059290921b840181019181810190898411156140e457600080fd5b948201945b8386101561410b5785356140fc81613fd5565b825294820194908201906140e9565b9650508601359250508082111561412157600080fd5b5061412e85828601614002565b9150509250929050565b6000806020838503121561414b57600080fd5b823567ffffffffffffffff8082111561416357600080fd5b818501915085601f83011261417757600080fd5b81358181111561418657600080fd5b8660208260051b850101111561419b57600080fd5b60209290920196919550909350505050565b6000602082840312156141bf57600080fd5b813561277881613fd5565b8015158114613fea57600080fd5b6000602082840312156141ea57600080fd5b8135612778816141ca565b60006020828403121561420757600080fd5b8151612778816141ca565b6020808252601e908201527f43616c6c6572206973206e6f7420616e204173736574204d616e616765720000604082015260600190565b634e487b7160e01b600052603260045260246000fd5b634e487b7160e01b600052601160045260246000fd5b60006000198214156142895761428961425f565b5060010190565b6000602082840312156142a257600080fd5b5051919050565b600060208083850312156142bc57600080fd5b825167ffffffffffffffff8111156142d357600080fd5b8301601f810185136142e457600080fd5b80516142f261402382613fb1565b81815260059190911b8201830190838101908783111561431157600080fd5b928401925b8284101561433857835161432981613fd5565b82529284019290840190614316565b979650505050505050565b60006020828403121561435557600080fd5b815161277881613fd5565b6001600160a01b03948516815292841660208401526040830191909152909116606082015260800190565b6001600160a01b0393841681526020810192909252909116604082015260600190565b600081518084526020808501945080840160005b838110156143e75781516001600160a01b0316875295820195908201906001016143c2565b509495945050505050565b600081518084526020808501945080840160005b838110156143e75781516001600160601b031687529582019590820190600101614406565b60408152600061443e60408301856143ae565b828103602084015261445081856143f2565b95945050505050565b60208152600061277860208301846143ae565b83815260606020820152600061448560608301856143ae565b828103604084015261449781856143f2565b9695505050505050565b8183526000602080850194508260005b858110156143e75781356144c481613fed565b6001600160601b0316875295820195908201906001016144b1565b6040815260006144f260408301866143ae565b82810360208401526144978185876144a1565b8381526040602082015260006144506040830184866144a1565b600082198211156145325761453261425f565b500190565b6000806040838503121561454a57600080fd5b825167ffffffffffffffff81111561456157600080fd5b8301601f8101851361457257600080fd5b8051602061458261402383613fb1565b82815260059290921b830181019181810190888411156145a157600080fd5b938201935b838510156145bf578451825293820193908201906145a6565b969091015195979596505050505050565b6000606082840312156145e257600080fd5b6040516060810181811067ffffffffffffffff8211171561460557614605613f6a565b604052825164ffffffffff8116811461461d57600080fd5b8152602083015161462d81613fed565b6020820152604083015160ff8116811461464657600080fd5b60408201529392505050565b600081600019048311821515161561466c5761466c61425f565b500290565b60008261468e57634e487b7160e01b600052601260045260246000fd5b500490565b6000828210156146a5576146a561425f565b50039056fea2646970667358221220edbdc6f5ac797d921a176c1303c6f1c3c3eaa7545ecffd8e16842d240abc38f264736f6c634300080a0033",
  "linkReferences": {},
  "deployedLinkReferences": {}
}